{"contracts/DragonKeeper.sol":{"DragonKeeper":{"abi":[{"inputs":[],"stateMutability":"nonpayable","type":"constructor"},{"inputs":[],"name":"Kubics__MintALimitReached","type":"error"},{"inputs":[],"name":"Kubics__MintClosed","type":"error"},{"inputs":[],"name":"Kubics__MintLimitReached","type":"error"},{"inputs":[],"name":"Kubics__NFTMinted","type":"error"},{"inputs":[],"name":"Kubics__NeedToPayUp","type":"error"},{"inputs":[],"name":"Kubics__NotInTheWhitelist","type":"error"},{"inputs":[],"name":"Kubics__NotMoneyInContract","type":"error"},{"inputs":[],"name":"Kubics__WhitelistLimit","type":"error"},{"inputs":[],"name":"Kubics__WhitelistMintClosed","type":"error"},{"anonymous":false,"inputs":[{"indexed":true,"internalType":"address","name":"owner","type":"address"},{"indexed":true,"internalType":"address","name":"approved","type":"address"},{"indexed":true,"internalType":"uint256","name":"tokenId","type":"uint256"}],"name":"Approval","type":"event"},{"anonymous":false,"inputs":[{"indexed":true,"internalType":"address","name":"owner","type":"address"},{"indexed":true,"internalType":"address","name":"operator","type":"address"},{"indexed":false,"internalType":"bool","name":"approved","type":"bool"}],"name":"ApprovalForAll","type":"event"},{"anonymous":false,"inputs":[{"indexed":true,"internalType":"address","name":"previousOwner","type":"address"},{"indexed":true,"internalType":"address","name":"newOwner","type":"address"}],"name":"OwnershipTransferred","type":"event"},{"anonymous":false,"inputs":[{"indexed":false,"internalType":"address","name":"account","type":"address"}],"name":"Paused","type":"event"},{"anonymous":false,"inputs":[{"indexed":true,"internalType":"address","name":"from","type":"address"},{"indexed":true,"internalType":"address","name":"to","type":"address"},{"indexed":true,"internalType":"uint256","name":"tokenId","type":"uint256"}],"name":"Transfer","type":"event"},{"anonymous":false,"inputs":[{"indexed":false,"internalType":"address","name":"account","type":"address"}],"name":"Unpaused","type":"event"},{"inputs":[],"name":"WHITELIST_CONTRACT","outputs":[{"internalType":"address","name":"","type":"address"}],"stateMutability":"view","type":"function"},{"inputs":[],"name":"Withdraw","outputs":[],"stateMutability":"payable","type":"function"},{"inputs":[{"internalType":"address","name":"to","type":"address"},{"internalType":"uint256","name":"tokenId","type":"uint256"}],"name":"approve","outputs":[],"stateMutability":"nonpayable","type":"function"},{"inputs":[{"internalType":"address","name":"owner","type":"address"}],"name":"balanceOf","outputs":[{"internalType":"uint256","name":"","type":"uint256"}],"stateMutability":"view","type":"function"},{"inputs":[],"name":"checkWhitelist","outputs":[{"internalType":"bool","name":"","type":"bool"}],"stateMutability":"view","type":"function"},{"inputs":[],"name":"contractURI","outputs":[{"internalType":"string","name":"","type":"string"}],"stateMutability":"pure","type":"function"},{"inputs":[{"internalType":"uint256","name":"tokenId","type":"uint256"}],"name":"getApproved","outputs":[{"internalType":"address","name":"","type":"address"}],"stateMutability":"view","type":"function"},{"inputs":[],"name":"getContractBalance","outputs":[{"internalType":"uint256","name":"","type":"uint256"}],"stateMutability":"view","type":"function"},{"inputs":[],"name":"getTokenCounter","outputs":[{"internalType":"uint256","name":"","type":"uint256"}],"stateMutability":"view","type":"function"},{"inputs":[],"name":"getTokenCounter_Common","outputs":[{"internalType":"uint256","name":"","type":"uint256"}],"stateMutability":"view","type":"function"},{"inputs":[],"name":"getTokenCounter_Legendary","outputs":[{"internalType":"uint256","name":"","type":"uint256"}],"stateMutability":"view","type":"function"},{"inputs":[],"name":"getTokenCounter_Rare","outputs":[{"internalType":"uint256","name":"","type":"uint256"}],"stateMutability":"view","type":"function"},{"inputs":[],"name":"getTokenCounter_UltraRare","outputs":[{"internalType":"uint256","name":"","type":"uint256"}],"stateMutability":"view","type":"function"},{"inputs":[],"name":"getTokenCounter_Uncommon","outputs":[{"internalType":"uint256","name":"","type":"uint256"}],"stateMutability":"view","type":"function"},{"inputs":[{"internalType":"address","name":"owner","type":"address"},{"internalType":"address","name":"operator","type":"address"}],"name":"isApprovedForAll","outputs":[{"internalType":"bool","name":"","type":"bool"}],"stateMutability":"view","type":"function"},{"inputs":[{"internalType":"string","name":"uri","type":"string"}],"name":"isContentOwned","outputs":[{"internalType":"bool","name":"","type":"bool"}],"stateMutability":"view","type":"function"},{"inputs":[],"name":"mintStatus","outputs":[{"internalType":"bool","name":"","type":"bool"}],"stateMutability":"view","type":"function"},{"inputs":[],"name":"name","outputs":[{"internalType":"string","name":"","type":"string"}],"stateMutability":"view","type":"function"},{"inputs":[],"name":"owner","outputs":[{"internalType":"address","name":"","type":"address"}],"stateMutability":"view","type":"function"},{"inputs":[{"internalType":"uint256","name":"tokenId","type":"uint256"}],"name":"ownerOf","outputs":[{"internalType":"address","name":"","type":"address"}],"stateMutability":"view","type":"function"},{"inputs":[],"name":"pause","outputs":[],"stateMutability":"nonpayable","type":"function"},{"inputs":[],"name":"paused","outputs":[{"internalType":"bool","name":"","type":"bool"}],"stateMutability":"view","type":"function"},{"inputs":[{"internalType":"string","name":"metadataURI","type":"string"}],"name":"payToMint_Common","outputs":[{"internalType":"uint256","name":"","type":"uint256"}],"stateMutability":"payable","type":"function"},{"inputs":[{"internalType":"string","name":"metadataURI","type":"string"}],"name":"payToMint_Legendary","outputs":[{"internalType":"uint256","name":"","type":"uint256"}],"stateMutability":"payable","type":"function"},{"inputs":[{"internalType":"string","name":"metadataURI","type":"string"}],"name":"payToMint_Rare","outputs":[{"internalType":"uint256","name":"","type":"uint256"}],"stateMutability":"payable","type":"function"},{"inputs":[{"internalType":"string","name":"metadataURI","type":"string"}],"name":"payToMint_UltraRare","outputs":[{"internalType":"uint256","name":"","type":"uint256"}],"stateMutability":"payable","type":"function"},{"inputs":[{"internalType":"string","name":"metadataURI","type":"string"}],"name":"payToMint_Uncommon","outputs":[{"internalType":"uint256","name":"","type":"uint256"}],"stateMutability":"payable","type":"function"},{"inputs":[],"name":"renounceOwnership","outputs":[],"stateMutability":"nonpayable","type":"function"},{"inputs":[{"internalType":"address","name":"to","type":"address"},{"internalType":"string","name":"metadataURI","type":"string"}],"name":"safeMint","outputs":[],"stateMutability":"nonpayable","type":"function"},{"inputs":[{"internalType":"address","name":"from","type":"address"},{"internalType":"address","name":"to","type":"address"},{"internalType":"uint256","name":"tokenId","type":"uint256"}],"name":"safeTransferFrom","outputs":[],"stateMutability":"nonpayable","type":"function"},{"inputs":[{"internalType":"address","name":"from","type":"address"},{"internalType":"address","name":"to","type":"address"},{"internalType":"uint256","name":"tokenId","type":"uint256"},{"internalType":"bytes","name":"data","type":"bytes"}],"name":"safeTransferFrom","outputs":[],"stateMutability":"nonpayable","type":"function"},{"inputs":[{"internalType":"address","name":"operator","type":"address"},{"internalType":"bool","name":"approved","type":"bool"}],"name":"setApprovalForAll","outputs":[],"stateMutability":"nonpayable","type":"function"},{"inputs":[{"internalType":"bool","name":"status","type":"bool"}],"name":"setMintStatus","outputs":[],"stateMutability":"nonpayable","type":"function"},{"inputs":[{"internalType":"uint256","name":"newPriceD","type":"uint256"}],"name":"setPriceCollectionD","outputs":[],"stateMutability":"nonpayable","type":"function"},{"inputs":[{"internalType":"uint256","name":"newPriceE","type":"uint256"}],"name":"setPrice_Common","outputs":[],"stateMutability":"nonpayable","type":"function"},{"inputs":[{"internalType":"uint256","name":"newPriceA","type":"uint256"}],"name":"setPrice_Legendary","outputs":[],"stateMutability":"nonpayable","type":"function"},{"inputs":[{"internalType":"uint256","name":"newPriceC","type":"uint256"}],"name":"setPrice_Rare","outputs":[],"stateMutability":"nonpayable","type":"function"},{"inputs":[{"internalType":"uint256","name":"newPriceB","type":"uint256"}],"name":"setPrice_UltraRare","outputs":[],"stateMutability":"nonpayable","type":"function"},{"inputs":[{"internalType":"bool","name":"status","type":"bool"}],"name":"setWhitelistMintStatus","outputs":[],"stateMutability":"nonpayable","type":"function"},{"inputs":[{"internalType":"bytes4","name":"interfaceId","type":"bytes4"}],"name":"supportsInterface","outputs":[{"internalType":"bool","name":"","type":"bool"}],"stateMutability":"view","type":"function"},{"inputs":[],"name":"symbol","outputs":[{"internalType":"string","name":"","type":"string"}],"stateMutability":"view","type":"function"},{"inputs":[{"internalType":"uint256","name":"tokenId","type":"uint256"}],"name":"tokenURI","outputs":[{"internalType":"string","name":"","type":"string"}],"stateMutability":"view","type":"function"},{"inputs":[{"internalType":"address","name":"from","type":"address"},{"internalType":"address","name":"to","type":"address"},{"internalType":"uint256","name":"tokenId","type":"uint256"}],"name":"transferFrom","outputs":[],"stateMutability":"nonpayable","type":"function"},{"inputs":[{"internalType":"address","name":"newOwner","type":"address"}],"name":"transferOwnership","outputs":[],"stateMutability":"nonpayable","type":"function"},{"inputs":[],"name":"unpause","outputs":[],"stateMutability":"nonpayable","type":"function"},{"inputs":[],"name":"whitelistMintStatus","outputs":[{"internalType":"bool","name":"","type":"bool"}],"stateMutability":"view","type":"function"},{"inputs":[{"internalType":"string","name":"metadataURI","type":"string"}],"name":"whitelistMinting_Common","outputs":[{"internalType":"uint256","name":"","type":"uint256"}],"stateMutability":"payable","type":"function"},{"inputs":[{"internalType":"string","name":"metadataURI","type":"string"}],"name":"whitelistMinting_Legendary","outputs":[{"internalType":"uint256","name":"","type":"uint256"}],"stateMutability":"payable","type":"function"},{"inputs":[{"internalType":"string","name":"metadataURI","type":"string"}],"name":"whitelistMinting_Rare","outputs":[{"internalType":"uint256","name":"","type":"uint256"}],"stateMutability":"payable","type":"function"},{"inputs":[{"internalType":"string","name":"metadataURI","type":"string"}],"name":"whitelistMinting_UltraRare","outputs":[{"internalType":"uint256","name":"","type":"uint256"}],"stateMutability":"payable","type":"function"},{"inputs":[{"internalType":"string","name":"metadataURI","type":"string"}],"name":"whitelistMinting_Uncommon","outputs":[{"internalType":"uint256","name":"","type":"uint256"}],"stateMutability":"payable","type":"function"}],"evm":{"bytecode":{"linkReferences":{},"object":"61014060405273cae8b7cd1b0956d1ce2d77a0ad9a854201447500601460026101000a81548173ffffffffffffffffffffffffffffffffffffffff021916908373ffffffffffffffffffffffffffffffffffffffff1602179055503480156200006757600080fd5b506040518060400160405280600c81526020017f447261676f6e4b656570657200000000000000000000000000000000000000008152506040518060400160405280600381526020017f444b5000000000000000000000000000000000000000000000000000000000008152508160009080519060200190620000ec9291906200044b565b508060019080519060200190620001059291906200044b565b5050506000600760006101000a81548160ff02191690831515021790555062000143620001376200037d60201b60201c565b6200038560201b60201c565b60016008819055503373ffffffffffffffffffffffffffffffffffffffff1660808173ffffffffffffffffffffffffffffffffffffffff1660601b8152505073ab8483f64d9c6d1ecf9b849ae677dd3315835cb273ffffffffffffffffffffffffffffffffffffffff1660a08173ffffffffffffffffffffffffffffffffffffffff1660601b8152505073ab8483f64d9c6d1ecf9b849ae677dd3315835cb273ffffffffffffffffffffffffffffffffffffffff1660c08173ffffffffffffffffffffffffffffffffffffffff1660601b8152505073ab8483f64d9c6d1ecf9b849ae677dd3315835cb273ffffffffffffffffffffffffffffffffffffffff1660e08173ffffffffffffffffffffffffffffffffffffffff1660601b8152505073ab8483f64d9c6d1ecf9b849ae677dd3315835cb273ffffffffffffffffffffffffffffffffffffffff166101008173ffffffffffffffffffffffffffffffffffffffff1660601b8152505073ab8483f64d9c6d1ecf9b849ae677dd3315835cb273ffffffffffffffffffffffffffffffffffffffff166101208173ffffffffffffffffffffffffffffffffffffffff1660601b815250506611c37937e08000600f819055506611c37937e080006010819055506611c37937e080006011819055506611c37937e080006012819055506611c37937e080006013819055506001601460006101000a81548160ff0219169083151502179055506001601460016101000a81548160ff02191690831515021790555062000560565b600033905090565b6000600760019054906101000a900473ffffffffffffffffffffffffffffffffffffffff16905081600760016101000a81548173ffffffffffffffffffffffffffffffffffffffff021916908373ffffffffffffffffffffffffffffffffffffffff1602179055508173ffffffffffffffffffffffffffffffffffffffff168173ffffffffffffffffffffffffffffffffffffffff167f8be0079c531659141344cd1fd0a4f28419497f9722a3daafe3b4186f6b6457e060405160405180910390a35050565b8280546200045990620004fb565b90600052602060002090601f0160209004810192826200047d5760008555620004c9565b82601f106200049857805160ff1916838001178555620004c9565b82800160010185558215620004c9579182015b82811115620004c8578251825591602001919060010190620004ab565b5b509050620004d89190620004dc565b5090565b5b80821115620004f7576000816000905550600101620004dd565b5090565b600060028204905060018216806200051457607f821691505b602082108114156200052b576200052a62000531565b5b50919050565b7f4e487b7100000000000000000000000000000000000000000000000000000000600052602260045260246000fd5b60805160601c60a05160601c60c05160601c60e05160601c6101005160601c6101205160601c6158bd620005c26000396000611864015260006117b6015260006117080152600061165a015260006115ac0152600061191201526158bd6000f3fe6080604052600436106102e45760003560e01c80638456cb5911610190578063d1213dd3116100dc578063dd2342bb11610095578063e91a074c1161006f578063e91a074c14610af5578063e985e9c514610b20578063ee383b1314610b5d578063f2fde38b14610b88576102e4565b8063dd2342bb14610a71578063e75cd26114610a9a578063e8a3d48514610aca576102e4565b8063d1213dd31461095d578063d204c45e1461098d578063d2229aa4146109b6578063d4a88623146109e1578063dc7814e714610a11578063dd13fefd14610a41576102e4565b80639f1cabc611610149578063b88d4fde11610123578063b88d4fde146108a1578063c87b56dd146108ca578063cb9fe58614610907578063cea1019814610932576102e4565b80639f1cabc614610812578063a22cb4651461084f578063b74ca31514610878576102e4565b80638456cb591461072157806387960421146107385780638da5cb5b14610761578063940548f71461078c57806395d89b41146107bc5780639da3f8fd146107e7576102e4565b806342842e0e1161024f57806364ac13a31161020857806370a08231116101e257806370a0823114610672578063715018a6146106af57806372a43ddf146106c65780637c2dc10c146106f1576102e4565b806364ac13a3146105ec5780636e02007d1461061c5780636f9fb98a14610647576102e4565b806342842e0e146104fd57806347c6ce271461052657806357ea89b6146105515780635c975abb1461055b5780635e17b87f146105865780636352211e146105af576102e4565b80630e1b3022116102a15780630e1b302214610412578063144573271461043b5780631f85e3ca1461046457806323b872dd1461048d57806335966f2c146104b65780633f4ba83a146104e6576102e4565b806301ffc9a7146102e957806302084dde1461032657806306f2057a1461035657806306fdde0314610381578063081812fc146103ac578063095ea7b3146103e9575b600080fd5b3480156102f557600080fd5b50610310600480360381019061030b9190614869565b610bb1565b60405161031d9190614d22565b60405180910390f35b610340600480360381019061033b91906148bb565b610c93565b60405161034d9190614f7f565b60405180910390f35b34801561036257600080fd5b5061036b610f2b565b6040516103789190614d22565b60405180910390f35b34801561038d57600080fd5b50610396610fe2565b6040516103a39190614d3d565b60405180910390f35b3480156103b857600080fd5b506103d360048036038101906103ce91906148fc565b611074565b6040516103e09190614cbb565b60405180910390f35b3480156103f557600080fd5b50610410600480360381019061040b91906147db565b6110ba565b005b34801561041e57600080fd5b5061043960048036038101906104349190614817565b6111d2565b005b34801561044757600080fd5b50610462600480360381019061045d91906148fc565b6111f7565b005b34801561047057600080fd5b5061048b60048036038101906104869190614817565b611209565b005b34801561049957600080fd5b506104b460048036038101906104af9190614681565b61122e565b005b6104d060048036038101906104cb91906148bb565b61128e565b6040516104dd9190614f7f565b60405180910390f35b3480156104f257600080fd5b506104fb6114dc565b005b34801561050957600080fd5b50610524600480360381019061051f9190614681565b6114ee565b005b34801561053257600080fd5b5061053b61150e565b6040516105489190614f7f565b60405180910390f35b610559611518565b005b34801561056757600080fd5b506105706119b4565b60405161057d9190614d22565b60405180910390f35b34801561059257600080fd5b506105ad60048036038101906105a891906148fc565b6119cb565b005b3480156105bb57600080fd5b506105d660048036038101906105d191906148fc565b6119dd565b6040516105e39190614cbb565b60405180910390f35b610606600480360381019061060191906148bb565b611a8f565b6040516106139190614f7f565b60405180910390f35b34801561062857600080fd5b50610631611cdd565b60405161063e9190614f7f565b60405180910390f35b34801561065357600080fd5b5061065c611ce7565b6040516106699190614f7f565b60405180910390f35b34801561067e57600080fd5b506106996004803603810190610694919061461c565b611cef565b6040516106a69190614f7f565b60405180910390f35b3480156106bb57600080fd5b506106c4611da7565b005b3480156106d257600080fd5b506106db611dbb565b6040516106e89190614f7f565b60405180910390f35b61070b600480360381019061070691906148bb565b611dc5565b6040516107189190614f7f565b60405180910390f35b34801561072d57600080fd5b5061073661205d565b005b34801561074457600080fd5b5061075f600480360381019061075a91906148fc565b61206f565b005b34801561076d57600080fd5b50610776612081565b6040516107839190614cbb565b60405180910390f35b6107a660048036038101906107a191906148bb565b6120ab565b6040516107b39190614f7f565b60405180910390f35b3480156107c857600080fd5b506107d16122f8565b6040516107de9190614d3d565b60405180910390f35b3480156107f357600080fd5b506107fc61238a565b6040516108099190614d22565b60405180910390f35b34801561081e57600080fd5b50610839600480360381019061083491906148bb565b61239d565b6040516108469190614d22565b60405180910390f35b34801561085b57600080fd5b506108766004803603810190610871919061474b565b6123d8565b005b34801561088457600080fd5b5061089f600480360381019061089a91906148fc565b6123ee565b005b3480156108ad57600080fd5b506108c860048036038101906108c391906146d0565b612400565b005b3480156108d657600080fd5b506108f160048036038101906108ec91906148fc565b612462565b6040516108fe9190614d3d565b60405180910390f35b34801561091357600080fd5b5061091c612474565b6040516109299190614d22565b60405180910390f35b34801561093e57600080fd5b50610947612487565b6040516109549190614cbb565b60405180910390f35b610977600480360381019061097291906148bb565b61249f565b6040516109849190614f7f565b60405180910390f35b34801561099957600080fd5b506109b460048036038101906109af9190614787565b612737565b005b3480156109c257600080fd5b506109cb6127ac565b6040516109d89190614f7f565b60405180910390f35b6109fb60048036038101906109f691906148bb565b6127b6565b604051610a089190614f7f565b60405180910390f35b610a2b6004803603810190610a2691906148bb565b612a03565b604051610a389190614f7f565b60405180910390f35b610a5b6004803603810190610a5691906148bb565b612c9b565b604051610a689190614f7f565b60405180910390f35b348015610a7d57600080fd5b50610a986004803603810190610a9391906148fc565b612f33565b005b610ab46004803603810190610aaf91906148bb565b612f45565b604051610ac19190614f7f565b60405180910390f35b348015610ad657600080fd5b50610adf613193565b604051610aec9190614d3d565b60405180910390f35b348015610b0157600080fd5b50610b0a6131b3565b604051610b179190614f7f565b60405180910390f35b348015610b2c57600080fd5b50610b476004803603810190610b429190614645565b6131bd565b604051610b549190614d22565b60405180910390f35b348015610b6957600080fd5b50610b72613251565b604051610b7f9190614f7f565b60405180910390f35b348015610b9457600080fd5b50610baf6004803603810190610baa919061461c565b61325b565b005b60007f80ac58cd000000000000000000000000000000000000000000000000000000007bffffffffffffffffffffffffffffffffffffffffffffffffffffffff1916827bffffffffffffffffffffffffffffffffffffffffffffffffffffffff19161480610c7c57507f5b5e139f000000000000000000000000000000000000000000000000000000007bffffffffffffffffffffffffffffffffffffffffffffffffffffffff1916827bffffffffffffffffffffffffffffffffffffffffffffffffffffffff1916145b80610c8c5750610c8b826132df565b5b9050919050565b600060026008541415610cdb576040517f08c379a0000000000000000000000000000000000000000000000000000000008152600401610cd290614f5f565b60405180910390fd5b60026008819055508160011515601460019054906101000a900460ff16151514610d31576040517f542c5fe600000000000000000000000000000000000000000000000000000000815260040160405180910390fd5b60011515610d3d610f2b565b151514610d76576040517f2557aa1900000000000000000000000000000000000000000000000000000000815260040160405180910390fd5b6001610d8133611cef565b10610db8576040517f83b284d500000000000000000000000000000000000000000000000000000000815260040160405180910390fd5b61295c60095410610df5576040517f4bc055ee00000000000000000000000000000000000000000000000000000000815260040160405180910390fd5b6001601582604051610e079190614c6b565b908152602001604051809103902060009054906101000a900460ff1660ff161415610e5e576040517f5eed8c8100000000000000000000000000000000000000000000000000000000815260040160405180910390fd5b600f54341015610e9a576040517fc813754a00000000000000000000000000000000000000000000000000000000815260040160405180910390fd5b600060095490506001600954610eb0919061506f565b6009819055506001600a54610ec5919061506f565b600a819055506001601585604051610edd9190614c6b565b908152602001604051809103902060006101000a81548160ff021916908360ff160217905550610f0d3382613349565b610f178185613523565b600954925050506001600881905550919050565b600080601460029054906101000a900473ffffffffffffffffffffffffffffffffffffffff1673ffffffffffffffffffffffffffffffffffffffff166313f44d10336040518263ffffffff1660e01b8152600401610f899190614cbb565b60206040518083038186803b158015610fa157600080fd5b505afa158015610fb5573d6000803e3d6000fd5b505050506040513d601f19601f82011682018060405250810190610fd99190614840565b90508091505090565b606060008054610ff19061523a565b80601f016020809104026020016040519081016040528092919081815260200182805461101d9061523a565b801561106a5780601f1061103f5761010080835404028352916020019161106a565b820191906000526020600020905b81548152906001019060200180831161104d57829003601f168201915b5050505050905090565b600061107f82613597565b6004600083815260200190815260200160002060009054906101000a900473ffffffffffffffffffffffffffffffffffffffff169050919050565b60006110c5826119dd565b90508073ffffffffffffffffffffffffffffffffffffffff168373ffffffffffffffffffffffffffffffffffffffff161415611136576040517f08c379a000000000000000000000000000000000000000000000000000000000815260040161112d90614f1f565b60405180910390fd5b8073ffffffffffffffffffffffffffffffffffffffff166111556135e2565b73ffffffffffffffffffffffffffffffffffffffff16148061118457506111838161117e6135e2565b6131bd565b5b6111c3576040517f08c379a00000000000000000000000000000000000000000000000000000000081526004016111ba90614e9f565b60405180910390fd5b6111cd83836135ea565b505050565b6111da6136a3565b80601460016101000a81548160ff02191690831515021790555050565b6111ff6136a3565b8060118190555050565b6112116136a3565b80601460006101000a81548160ff02191690831515021790555050565b61123f6112396135e2565b82613721565b61127e576040517f08c379a000000000000000000000000000000000000000000000000000000000815260040161127590614f3f565b60405180910390fd5b6112898383836137b6565b505050565b6000600260085414156112d6576040517f08c379a00000000000000000000000000000000000000000000000000000000081526004016112cd90614f5f565b60405180910390fd5b60026008819055508160011515601460009054906101000a900460ff1615151461132c576040517faea22e0800000000000000000000000000000000000000000000000000000000815260040160405180910390fd5b61295c60095410611369576040517f4bc055ee00000000000000000000000000000000000000000000000000000000815260040160405180910390fd5b600160158260405161137b9190614c6b565b908152602001604051809103902060009054906101000a900460ff1660ff1614156113d2576040517f5eed8c8100000000000000000000000000000000000000000000000000000000815260040160405180910390fd5b611950600e541061140f576040517f047ed50f00000000000000000000000000000000000000000000000000000000815260040160405180910390fd5b60135434101561144b576040517fc813754a00000000000000000000000000000000000000000000000000000000815260040160405180910390fd5b600060095490506001600954611461919061506f565b6009819055506001600e54611476919061506f565b600e81905550600160158560405161148e9190614c6b565b908152602001604051809103902060006101000a81548160ff021916908360ff1602179055506114be3382613349565b6114c88185613523565b600954925050506001600881905550919050565b6114e46136a3565b6114ec613a1d565b565b61150983838360405180602001604052806000815250612400565b505050565b6000600e54905090565b6002600854141561155e576040517f08c379a000000000000000000000000000000000000000000000000000000000815260040161155590614f5f565b60405180910390fd5b600260088190555061156e6136a3565b600047116115a8576040517f73297bbe00000000000000000000000000000000000000000000000000000000815260040160405180910390fd5b60007f000000000000000000000000000000000000000000000000000000000000000073ffffffffffffffffffffffffffffffffffffffff1660646001476115f091906150f6565b6115fa91906150c5565b60405161160690614ca6565b60006040518083038185875af1925050503d8060008114611643576040519150601f19603f3d011682016040523d82523d6000602084013e611648565b606091505b505090508061165657600080fd5b60007f000000000000000000000000000000000000000000000000000000000000000073ffffffffffffffffffffffffffffffffffffffff16606460014761169e91906150f6565b6116a891906150c5565b6040516116b490614ca6565b60006040518083038185875af1925050503d80600081146116f1576040519150601f19603f3d011682016040523d82523d6000602084013e6116f6565b606091505b505090508061170457600080fd5b60007f000000000000000000000000000000000000000000000000000000000000000073ffffffffffffffffffffffffffffffffffffffff16606460014761174c91906150f6565b61175691906150c5565b60405161176290614ca6565b60006040518083038185875af1925050503d806000811461179f576040519150601f19603f3d011682016040523d82523d6000602084013e6117a4565b606091505b50509050806117b257600080fd5b60007f000000000000000000000000000000000000000000000000000000000000000073ffffffffffffffffffffffffffffffffffffffff1660646001476117fa91906150f6565b61180491906150c5565b60405161181090614ca6565b60006040518083038185875af1925050503d806000811461184d576040519150601f19603f3d011682016040523d82523d6000602084013e611852565b606091505b505090508061186057600080fd5b60007f000000000000000000000000000000000000000000000000000000000000000073ffffffffffffffffffffffffffffffffffffffff1660646001476118a891906150f6565b6118b291906150c5565b6040516118be90614ca6565b60006040518083038185875af1925050503d80600081146118fb576040519150601f19603f3d011682016040523d82523d6000602084013e611900565b606091505b505090508061190e57600080fd5b60007f000000000000000000000000000000000000000000000000000000000000000073ffffffffffffffffffffffffffffffffffffffff164760405161195490614ca6565b60006040518083038185875af1925050503d8060008114611991576040519150601f19603f3d011682016040523d82523d6000602084013e611996565b606091505b50509050806119a457600080fd5b5050505050506001600881905550565b6000600760009054906101000a900460ff16905090565b6119d36136a3565b8060138190555050565b6000806002600084815260200190815260200160002060009054906101000a900473ffffffffffffffffffffffffffffffffffffffff169050600073ffffffffffffffffffffffffffffffffffffffff168173ffffffffffffffffffffffffffffffffffffffff161415611a86576040517f08c379a0000000000000000000000000000000000000000000000000000000008152600401611a7d90614eff565b60405180910390fd5b80915050919050565b600060026008541415611ad7576040517f08c379a0000000000000000000000000000000000000000000000000000000008152600401611ace90614f5f565b60405180910390fd5b60026008819055508160011515601460009054906101000a900460ff16151514611b2d576040517faea22e0800000000000000000000000000000000000000000000000000000000815260040160405180910390fd5b61295c60095410611b6a576040517f4bc055ee00000000000000000000000000000000000000000000000000000000815260040160405180910390fd5b6001601582604051611b7c9190614c6b565b908152602001604051809103902060009054906101000a900460ff1660ff161415611bd3576040517f5eed8c8100000000000000000000000000000000000000000000000000000000815260040160405180910390fd5b6103cc600c5410611c10576040517f047ed50f00000000000000000000000000000000000000000000000000000000815260040160405180910390fd5b601154341015611c4c576040517fc813754a00000000000000000000000000000000000000000000000000000000815260040160405180910390fd5b600060095490506001600954611c62919061506f565b6009819055506001600c54611c77919061506f565b600c819055506001601585604051611c8f9190614c6b565b908152602001604051809103902060006101000a81548160ff021916908360ff160217905550611cbf3382613349565b611cc98185613523565b600954925050506001600881905550919050565b6000600954905090565b600047905090565b60008073ffffffffffffffffffffffffffffffffffffffff168273ffffffffffffffffffffffffffffffffffffffff161415611d60576040517f08c379a0000000000000000000000000000000000000000000000000000000008152600401611d5790614e5f565b60405180910390fd5b600360008373ffffffffffffffffffffffffffffffffffffffff1673ffffffffffffffffffffffffffffffffffffffff168152602001908152602001600020549050919050565b611daf6136a3565b611db96000613a80565b565b6000600a54905090565b600060026008541415611e0d576040517f08c379a0000000000000000000000000000000000000000000000000000000008152600401611e0490614f5f565b60405180910390fd5b60026008819055508160011515601460019054906101000a900460ff16151514611e63576040517f542c5fe600000000000000000000000000000000000000000000000000000000815260040160405180910390fd5b60011515611e6f610f2b565b151514611ea8576040517f2557aa1900000000000000000000000000000000000000000000000000000000815260040160405180910390fd5b6001611eb333611cef565b10611eea576040517f83b284d500000000000000000000000000000000000000000000000000000000815260040160405180910390fd5b61295c60095410611f27576040517f4bc055ee00000000000000000000000000000000000000000000000000000000815260040160405180910390fd5b6001601582604051611f399190614c6b565b908152602001604051809103902060009054906101000a900460ff1660ff161415611f90576040517f5eed8c8100000000000000000000000000000000000000000000000000000000815260040160405180910390fd5b601354341015611fcc576040517fc813754a00000000000000000000000000000000000000000000000000000000815260040160405180910390fd5b600060095490506001600954611fe2919061506f565b6009819055506001600e54611ff7919061506f565b600e81905550600160158560405161200f9190614c6b565b908152602001604051809103902060006101000a81548160ff021916908360ff16021790555061203f3382613349565b6120498185613523565b600954925050506001600881905550919050565b6120656136a3565b61206d613b46565b565b6120776136a3565b8060108190555050565b6000600760019054906101000a900473ffffffffffffffffffffffffffffffffffffffff16905090565b6000600260085414156120f3576040517f08c379a00000000000000000000000000000000000000000000000000000000081526004016120ea90614f5f565b60405180910390fd5b60026008819055508160011515601460009054906101000a900460ff16151514612149576040517faea22e0800000000000000000000000000000000000000000000000000000000815260040160405180910390fd5b61295c60095410612186576040517f4bc055ee00000000000000000000000000000000000000000000000000000000815260040160405180910390fd5b60016015826040516121989190614c6b565b908152602001604051809103902060009054906101000a900460ff1660ff1614156121ef576040517f5eed8c8100000000000000000000000000000000000000000000000000000000815260040160405180910390fd5b60d8600b541061222b576040517f047ed50f00000000000000000000000000000000000000000000000000000000815260040160405180910390fd5b601054341015612267576040517fc813754a00000000000000000000000000000000000000000000000000000000815260040160405180910390fd5b60006009549050600160095461227d919061506f565b6009819055506001600b54612292919061506f565b600b8190555060016015856040516122aa9190614c6b565b908152602001604051809103902060006101000a81548160ff021916908360ff1602179055506122da3382613349565b6122e48185613523565b600954925050506001600881905550919050565b6060600180546123079061523a565b80601f01602080910402602001604051908101604052809291908181526020018280546123339061523a565b80156123805780601f1061235557610100808354040283529160200191612380565b820191906000526020600020905b81548152906001019060200180831161236357829003601f168201915b5050505050905090565b601460009054906101000a900460ff1681565b600060016015836040516123b19190614c6b565b908152602001604051809103902060009054906101000a900460ff1660ff16149050919050565b6123ea6123e36135e2565b8383613ba9565b5050565b6123f66136a3565b8060128190555050565b61241161240b6135e2565b83613721565b612450576040517f08c379a000000000000000000000000000000000000000000000000000000000815260040161244790614f3f565b60405180910390fd5b61245c84848484613d16565b50505050565b606061246d82613d72565b9050919050565b601460019054906101000a900460ff1681565b73cae8b7cd1b0956d1ce2d77a0ad9a85420144750081565b6000600260085414156124e7576040517f08c379a00000000000000000000000000000000000000000000000000000000081526004016124de90614f5f565b60405180910390fd5b60026008819055508160011515601460019054906101000a900460ff1615151461253d576040517f542c5fe600000000000000000000000000000000000000000000000000000000815260040160405180910390fd5b60011515612549610f2b565b151514612582576040517f2557aa1900000000000000000000000000000000000000000000000000000000815260040160405180910390fd5b600161258d33611cef565b106125c4576040517f83b284d500000000000000000000000000000000000000000000000000000000815260040160405180910390fd5b61295c60095410612601576040517f4bc055ee00000000000000000000000000000000000000000000000000000000815260040160405180910390fd5b60016015826040516126139190614c6b565b908152602001604051809103902060009054906101000a900460ff1660ff16141561266a576040517f5eed8c8100000000000000000000000000000000000000000000000000000000815260040160405180910390fd5b6012543410156126a6576040517fc813754a00000000000000000000000000000000000000000000000000000000815260040160405180910390fd5b6000600954905060016009546126bc919061506f565b6009819055506001600d546126d1919061506f565b600d8190555060016015856040516126e99190614c6b565b908152602001604051809103902060006101000a81548160ff021916908360ff1602179055506127193382613349565b6127238185613523565b600954925050506001600881905550919050565b61273f6136a3565b600060095490506001600954612755919061506f565b600981905550600160158360405161276d9190614c6b565b908152602001604051809103902060006101000a81548160ff021916908360ff16021790555061279d8382613e85565b6127a78183613523565b505050565b6000600d54905090565b6000600260085414156127fe576040517f08c379a00000000000000000000000000000000000000000000000000000000081526004016127f590614f5f565b60405180910390fd5b60026008819055508160011515601460009054906101000a900460ff16151514612854576040517faea22e0800000000000000000000000000000000000000000000000000000000815260040160405180910390fd5b61295c60095410612891576040517f4bc055ee00000000000000000000000000000000000000000000000000000000815260040160405180910390fd5b60016015826040516128a39190614c6b565b908152602001604051809103902060009054906101000a900460ff1660ff1614156128fa576040517f5eed8c8100000000000000000000000000000000000000000000000000000000815260040160405180910390fd5b6028600a5410612936576040517f047ed50f00000000000000000000000000000000000000000000000000000000815260040160405180910390fd5b600f54341015612972576040517fc813754a00000000000000000000000000000000000000000000000000000000815260040160405180910390fd5b600060095490506001600954612988919061506f565b6009819055506001600a5461299d919061506f565b600a8190555060016015856040516129b59190614c6b565b908152602001604051809103902060006101000a81548160ff021916908360ff1602179055506129e53382613349565b6129ef8185613523565b600954925050506001600881905550919050565b600060026008541415612a4b576040517f08c379a0000000000000000000000000000000000000000000000000000000008152600401612a4290614f5f565b60405180910390fd5b60026008819055508160011515601460019054906101000a900460ff16151514612aa1576040517f542c5fe600000000000000000000000000000000000000000000000000000000815260040160405180910390fd5b60011515612aad610f2b565b151514612ae6576040517f2557aa1900000000000000000000000000000000000000000000000000000000815260040160405180910390fd5b6001612af133611cef565b10612b28576040517f83b284d500000000000000000000000000000000000000000000000000000000815260040160405180910390fd5b61295c60095410612b65576040517f4bc055ee00000000000000000000000000000000000000000000000000000000815260040160405180910390fd5b6001601582604051612b779190614c6b565b908152602001604051809103902060009054906101000a900460ff1660ff161415612bce576040517f5eed8c8100000000000000000000000000000000000000000000000000000000815260040160405180910390fd5b601154341015612c0a576040517fc813754a00000000000000000000000000000000000000000000000000000000815260040160405180910390fd5b600060095490506001600954612c20919061506f565b6009819055506001600c54612c35919061506f565b600c819055506001601585604051612c4d9190614c6b565b908152602001604051809103902060006101000a81548160ff021916908360ff160217905550612c7d3382613349565b612c878185613523565b600954925050506001600881905550919050565b600060026008541415612ce3576040517f08c379a0000000000000000000000000000000000000000000000000000000008152600401612cda90614f5f565b60405180910390fd5b60026008819055508160011515601460019054906101000a900460ff16151514612d39576040517f542c5fe600000000000000000000000000000000000000000000000000000000815260040160405180910390fd5b60011515612d45610f2b565b151514612d7e576040517f2557aa1900000000000000000000000000000000000000000000000000000000815260040160405180910390fd5b6001612d8933611cef565b10612dc0576040517f83b284d500000000000000000000000000000000000000000000000000000000815260040160405180910390fd5b61295c60095410612dfd576040517f4bc055ee00000000000000000000000000000000000000000000000000000000815260040160405180910390fd5b6001601582604051612e0f9190614c6b565b908152602001604051809103902060009054906101000a900460ff1660ff161415612e66576040517f5eed8c8100000000000000000000000000000000000000000000000000000000815260040160405180910390fd5b601054341015612ea2576040517fc813754a00000000000000000000000000000000000000000000000000000000815260040160405180910390fd5b600060095490506001600954612eb8919061506f565b6009819055506001600b54612ecd919061506f565b600b819055506001601585604051612ee59190614c6b565b908152602001604051809103902060006101000a81548160ff021916908360ff160217905550612f153382613349565b612f1f8185613523565b600954925050506001600881905550919050565b612f3b6136a3565b80600f8190555050565b600060026008541415612f8d576040517f08c379a0000000000000000000000000000000000000000000000000000000008152600401612f8490614f5f565b60405180910390fd5b60026008819055508160011515601460009054906101000a900460ff16151514612fe3576040517faea22e0800000000000000000000000000000000000000000000000000000000815260040160405180910390fd5b61295c60095410613020576040517f4bc055ee00000000000000000000000000000000000000000000000000000000815260040160405180910390fd5b60016015826040516130329190614c6b565b908152602001604051809103902060009054906101000a900460ff1660ff161415613089576040517f5eed8c8100000000000000000000000000000000000000000000000000000000815260040160405180910390fd5b610b40600d54106130c6576040517f047ed50f00000000000000000000000000000000000000000000000000000000815260040160405180910390fd5b601254341015613102576040517fc813754a00000000000000000000000000000000000000000000000000000000815260040160405180910390fd5b600060095490506001600954613118919061506f565b6009819055506001600d5461312d919061506f565b600d8190555060016015856040516131459190614c6b565b908152602001604051809103902060006101000a81548160ff021916908360ff1602179055506131753382613349565b61317f8185613523565b600954925050506001600881905550919050565b606060405180606001604052806035815260200161585360359139905090565b6000600c54905090565b6000600560008473ffffffffffffffffffffffffffffffffffffffff1673ffffffffffffffffffffffffffffffffffffffff16815260200190815260200160002060008373ffffffffffffffffffffffffffffffffffffffff1673ffffffffffffffffffffffffffffffffffffffff16815260200190815260200160002060009054906101000a900460ff16905092915050565b6000600b54905090565b6132636136a3565b600073ffffffffffffffffffffffffffffffffffffffff168173ffffffffffffffffffffffffffffffffffffffff1614156132d3576040517f08c379a00000000000000000000000000000000000000000000000000000000081526004016132ca90614d9f565b60405180910390fd5b6132dc81613a80565b50565b60007f01ffc9a7000000000000000000000000000000000000000000000000000000007bffffffffffffffffffffffffffffffffffffffffffffffffffffffff1916827bffffffffffffffffffffffffffffffffffffffffffffffffffffffff1916149050919050565b600073ffffffffffffffffffffffffffffffffffffffff168273ffffffffffffffffffffffffffffffffffffffff1614156133b9576040517f08c379a00000000000000000000000000000000000000000000000000000000081526004016133b090614ebf565b60405180910390fd5b6133c281613ea3565b15613402576040517f08c379a00000000000000000000000000000000000000000000000000000000081526004016133f990614ddf565b60405180910390fd5b61340e60008383613f0f565b6001600360008473ffffffffffffffffffffffffffffffffffffffff1673ffffffffffffffffffffffffffffffffffffffff168152602001908152602001600020600082825461345e919061506f565b92505081905550816002600083815260200190815260200160002060006101000a81548173ffffffffffffffffffffffffffffffffffffffff021916908373ffffffffffffffffffffffffffffffffffffffff160217905550808273ffffffffffffffffffffffffffffffffffffffff16600073ffffffffffffffffffffffffffffffffffffffff167fddf252ad1be2c89b69c2b068fc378daa952ba7f163c4a11628f55a4df523b3ef60405160405180910390a461351f60008383613f27565b5050565b61352c82613ea3565b61356b576040517f08c379a000000000000000000000000000000000000000000000000000000000815260040161356290614e7f565b60405180910390fd5b8060066000848152602001908152602001600020908051906020019061359292919061442b565b505050565b6135a081613ea3565b6135df576040517f08c379a00000000000000000000000000000000000000000000000000000000081526004016135d690614eff565b60405180910390fd5b50565b600033905090565b816004600083815260200190815260200160002060006101000a81548173ffffffffffffffffffffffffffffffffffffffff021916908373ffffffffffffffffffffffffffffffffffffffff160217905550808273ffffffffffffffffffffffffffffffffffffffff1661365d836119dd565b73ffffffffffffffffffffffffffffffffffffffff167f8c5be1e5ebec7d5bd14f71427d1e84f3dd0314c0f7b2291e5b200ac8c7c3b92560405160405180910390a45050565b6136ab6135e2565b73ffffffffffffffffffffffffffffffffffffffff166136c9612081565b73ffffffffffffffffffffffffffffffffffffffff161461371f576040517f08c379a000000000000000000000000000000000000000000000000000000000815260040161371690614edf565b60405180910390fd5b565b60008061372d836119dd565b90508073ffffffffffffffffffffffffffffffffffffffff168473ffffffffffffffffffffffffffffffffffffffff16148061376f575061376e81856131bd565b5b806137ad57508373ffffffffffffffffffffffffffffffffffffffff1661379584611074565b73ffffffffffffffffffffffffffffffffffffffff16145b91505092915050565b8273ffffffffffffffffffffffffffffffffffffffff166137d6826119dd565b73ffffffffffffffffffffffffffffffffffffffff161461382c576040517f08c379a000000000000000000000000000000000000000000000000000000000815260040161382390614dbf565b60405180910390fd5b600073ffffffffffffffffffffffffffffffffffffffff168273ffffffffffffffffffffffffffffffffffffffff16141561389c576040517f08c379a000000000000000000000000000000000000000000000000000000000815260040161389390614dff565b60405180910390fd5b6138a7838383613f0f565b6138b26000826135ea565b6001600360008573ffffffffffffffffffffffffffffffffffffffff1673ffffffffffffffffffffffffffffffffffffffff16815260200190815260200160002060008282546139029190615150565b925050819055506001600360008473ffffffffffffffffffffffffffffffffffffffff1673ffffffffffffffffffffffffffffffffffffffff1681526020019081526020016000206000828254613959919061506f565b92505081905550816002600083815260200190815260200160002060006101000a81548173ffffffffffffffffffffffffffffffffffffffff021916908373ffffffffffffffffffffffffffffffffffffffff160217905550808273ffffffffffffffffffffffffffffffffffffffff168473ffffffffffffffffffffffffffffffffffffffff167fddf252ad1be2c89b69c2b068fc378daa952ba7f163c4a11628f55a4df523b3ef60405160405180910390a4613a18838383613f27565b505050565b613a25613f2c565b6000600760006101000a81548160ff0219169083151502179055507f5db9ee0a495bf2e6ff9c91a7834c1ba4fdd244a5e8aa4e537bd38aeae4b073aa613a696135e2565b604051613a769190614cbb565b60405180910390a1565b6000600760019054906101000a900473ffffffffffffffffffffffffffffffffffffffff16905081600760016101000a81548173ffffffffffffffffffffffffffffffffffffffff021916908373ffffffffffffffffffffffffffffffffffffffff1602179055508173ffffffffffffffffffffffffffffffffffffffff168173ffffffffffffffffffffffffffffffffffffffff167f8be0079c531659141344cd1fd0a4f28419497f9722a3daafe3b4186f6b6457e060405160405180910390a35050565b613b4e613f75565b6001600760006101000a81548160ff0219169083151502179055507f62e78cea01bee320cd4e420270b5ea74000d11b0c9f74754ebdbfc544b05a258613b926135e2565b604051613b9f9190614cbb565b60405180910390a1565b8173ffffffffffffffffffffffffffffffffffffffff168373ffffffffffffffffffffffffffffffffffffffff161415613c18576040517f08c379a0000000000000000000000000000000000000000000000000000000008152600401613c0f90614e1f565b60405180910390fd5b80600560008573ffffffffffffffffffffffffffffffffffffffff1673ffffffffffffffffffffffffffffffffffffffff16815260200190815260200160002060008473ffffffffffffffffffffffffffffffffffffffff1673ffffffffffffffffffffffffffffffffffffffff16815260200190815260200160002060006101000a81548160ff0219169083151502179055508173ffffffffffffffffffffffffffffffffffffffff168373ffffffffffffffffffffffffffffffffffffffff167f17307eab39ab6107e8899845ad3d59bd9653f200f220920489ca2b5937696c3183604051613d099190614d22565b60405180910390a3505050565b613d218484846137b6565b613d2d84848484613fbf565b613d6c576040517f08c379a0000000000000000000000000000000000000000000000000000000008152600401613d6390614d7f565b60405180910390fd5b50505050565b6060613d7d82613597565b6000600660008481526020019081526020016000208054613d9d9061523a565b80601f0160208091040260200160405190810160405280929190818152602001828054613dc99061523a565b8015613e165780601f10613deb57610100808354040283529160200191613e16565b820191906000526020600020905b815481529060010190602001808311613df957829003601f168201915b505050505090506000613e27614156565b9050600081511415613e3d578192505050613e80565b600082511115613e72578082604051602001613e5a929190614c82565b60405160208183030381529060405292505050613e80565b613e7b84614193565b925050505b919050565b613e9f8282604051806020016040528060008152506141fb565b5050565b60008073ffffffffffffffffffffffffffffffffffffffff166002600084815260200190815260200160002060009054906101000a900473ffffffffffffffffffffffffffffffffffffffff1673ffffffffffffffffffffffffffffffffffffffff1614159050919050565b613f17613f75565b613f22838383614256565b505050565b505050565b613f346119b4565b613f73576040517f08c379a0000000000000000000000000000000000000000000000000000000008152600401613f6a90614d5f565b60405180910390fd5b565b613f7d6119b4565b15613fbd576040517f08c379a0000000000000000000000000000000000000000000000000000000008152600401613fb490614e3f565b60405180910390fd5b565b6000613fe08473ffffffffffffffffffffffffffffffffffffffff1661425b565b15614149578373ffffffffffffffffffffffffffffffffffffffff1663150b7a026140096135e2565b8786866040518563ffffffff1660e01b815260040161402b9493929190614cd6565b602060405180830381600087803b15801561404557600080fd5b505af192505050801561407657506040513d601f19601f820116820180604052508101906140739190614892565b60015b6140f9573d80600081146140a6576040519150601f19603f3d011682016040523d82523d6000602084013e6140ab565b606091505b506000815114156140f1576040517f08c379a00000000000000000000000000000000000000000000000000000000081526004016140e890614d7f565b60405180910390fd5b805181602001fd5b63150b7a0260e01b7bffffffffffffffffffffffffffffffffffffffffffffffffffffffff1916817bffffffffffffffffffffffffffffffffffffffffffffffffffffffff19161491505061414e565b600190505b949350505050565b60606040518060400160405280600781526020017f697066733a2f2f00000000000000000000000000000000000000000000000000815250905090565b606061419e82613597565b60006141a8614156565b905060008151116141c857604051806020016040528060008152506141f3565b806141d28461427e565b6040516020016141e3929190614c82565b6040516020818303038152906040525b915050919050565b6142058383613349565b6142126000848484613fbf565b614251576040517f08c379a000000000000000000000000000000000000000000000000000000000815260040161424890614d7f565b60405180910390fd5b505050565b505050565b6000808273ffffffffffffffffffffffffffffffffffffffff163b119050919050565b606060008214156142c6576040518060400160405280600181526020017f30000000000000000000000000000000000000000000000000000000000000008152509050614426565b600082905060005b600082146142f85780806142e19061529d565b915050600a826142f191906150c5565b91506142ce565b60008167ffffffffffffffff81111561433a577f4e487b7100000000000000000000000000000000000000000000000000000000600052604160045260246000fd5b6040519080825280601f01601f19166020018201604052801561436c5781602001600182028036833780820191505090505b5090505b6000851461441f576001826143859190615150565b9150600a8561439491906152e6565b60306143a0919061506f565b60f81b8183815181106143dc577f4e487b7100000000000000000000000000000000000000000000000000000000600052603260045260246000fd5b60200101907effffffffffffffffffffffffffffffffffffffffffffffffffffffffffffff1916908160001a905350600a8561441891906150c5565b9450614370565b8093505050505b919050565b8280546144379061523a565b90600052602060002090601f01602090048101928261445957600085556144a0565b82601f1061447257805160ff19168380011785556144a0565b828001600101855582156144a0579182015b8281111561449f578251825591602001919060010190614484565b5b5090506144ad91906144b1565b5090565b5b808211156144ca5760008160009055506001016144b2565b5090565b60006144e16144dc84614fbf565b614f9a565b9050828152602081018484840111156144f957600080fd5b6145048482856151f8565b509392505050565b600061451f61451a84614ff0565b614f9a565b90508281526020810184848401111561453757600080fd5b6145428482856151f8565b509392505050565b600081359050614559816157f6565b92915050565b60008135905061456e8161580d565b92915050565b6000815190506145838161580d565b92915050565b60008135905061459881615824565b92915050565b6000815190506145ad81615824565b92915050565b600082601f8301126145c457600080fd5b81356145d48482602086016144ce565b91505092915050565b600082601f8301126145ee57600080fd5b81356145fe84826020860161450c565b91505092915050565b6000813590506146168161583b565b92915050565b60006020828403121561462e57600080fd5b600061463c8482850161454a565b91505092915050565b6000806040838503121561465857600080fd5b60006146668582860161454a565b92505060206146778582860161454a565b9150509250929050565b60008060006060848603121561469657600080fd5b60006146a48682870161454a565b93505060206146b58682870161454a565b92505060406146c686828701614607565b9150509250925092565b600080600080608085870312156146e657600080fd5b60006146f48782880161454a565b94505060206147058782880161454a565b935050604061471687828801614607565b925050606085013567ffffffffffffffff81111561473357600080fd5b61473f878288016145b3565b91505092959194509250565b6000806040838503121561475e57600080fd5b600061476c8582860161454a565b925050602061477d8582860161455f565b9150509250929050565b6000806040838503121561479a57600080fd5b60006147a88582860161454a565b925050602083013567ffffffffffffffff8111156147c557600080fd5b6147d1858286016145dd565b9150509250929050565b600080604083850312156147ee57600080fd5b60006147fc8582860161454a565b925050602061480d85828601614607565b9150509250929050565b60006020828403121561482957600080fd5b60006148378482850161455f565b91505092915050565b60006020828403121561485257600080fd5b600061486084828501614574565b91505092915050565b60006020828403121561487b57600080fd5b600061488984828501614589565b91505092915050565b6000602082840312156148a457600080fd5b60006148b28482850161459e565b91505092915050565b6000602082840312156148cd57600080fd5b600082013567ffffffffffffffff8111156148e757600080fd5b6148f3848285016145dd565b91505092915050565b60006020828403121561490e57600080fd5b600061491c84828501614607565b91505092915050565b61492e81615184565b82525050565b61493d81615196565b82525050565b600061494e82615021565b6149588185615037565b9350614968818560208601615207565b614971816153d3565b840191505092915050565b60006149878261502c565b6149918185615053565b93506149a1818560208601615207565b6149aa816153d3565b840191505092915050565b60006149c08261502c565b6149ca8185615064565b93506149da818560208601615207565b80840191505092915050565b60006149f3601483615053565b91506149fe826153e4565b602082019050919050565b6000614a16603283615053565b9150614a218261540d565b604082019050919050565b6000614a39602683615053565b9150614a448261545c565b604082019050919050565b6000614a5c602583615053565b9150614a67826154ab565b604082019050919050565b6000614a7f601c83615053565b9150614a8a826154fa565b602082019050919050565b6000614aa2602483615053565b9150614aad82615523565b604082019050919050565b6000614ac5601983615053565b9150614ad082615572565b602082019050919050565b6000614ae8601083615053565b9150614af38261559b565b602082019050919050565b6000614b0b602983615053565b9150614b16826155c4565b604082019050919050565b6000614b2e602e83615053565b9150614b3982615613565b604082019050919050565b6000614b51603e83615053565b9150614b5c82615662565b604082019050919050565b6000614b74602083615053565b9150614b7f826156b1565b602082019050919050565b6000614b97602083615053565b9150614ba2826156da565b602082019050919050565b6000614bba601883615053565b9150614bc582615703565b602082019050919050565b6000614bdd602183615053565b9150614be88261572c565b604082019050919050565b6000614c00600083615048565b9150614c0b8261577b565b600082019050919050565b6000614c23602e83615053565b9150614c2e8261577e565b604082019050919050565b6000614c46601f83615053565b9150614c51826157cd565b602082019050919050565b614c65816151ee565b82525050565b6000614c7782846149b5565b915081905092915050565b6000614c8e82856149b5565b9150614c9a82846149b5565b91508190509392505050565b6000614cb182614bf3565b9150819050919050565b6000602082019050614cd06000830184614925565b92915050565b6000608082019050614ceb6000830187614925565b614cf86020830186614925565b614d056040830185614c5c565b8181036060830152614d178184614943565b905095945050505050565b6000602082019050614d376000830184614934565b92915050565b60006020820190508181036000830152614d57818461497c565b905092915050565b60006020820190508181036000830152614d78816149e6565b9050919050565b60006020820190508181036000830152614d9881614a09565b9050919050565b60006020820190508181036000830152614db881614a2c565b9050919050565b60006020820190508181036000830152614dd881614a4f565b9050919050565b60006020820190508181036000830152614df881614a72565b9050919050565b60006020820190508181036000830152614e1881614a95565b9050919050565b60006020820190508181036000830152614e3881614ab8565b9050919050565b60006020820190508181036000830152614e5881614adb565b9050919050565b60006020820190508181036000830152614e7881614afe565b9050919050565b60006020820190508181036000830152614e9881614b21565b9050919050565b60006020820190508181036000830152614eb881614b44565b9050919050565b60006020820190508181036000830152614ed881614b67565b9050919050565b60006020820190508181036000830152614ef881614b8a565b9050919050565b60006020820190508181036000830152614f1881614bad565b9050919050565b60006020820190508181036000830152614f3881614bd0565b9050919050565b60006020820190508181036000830152614f5881614c16565b9050919050565b60006020820190508181036000830152614f7881614c39565b9050919050565b6000602082019050614f946000830184614c5c565b92915050565b6000614fa4614fb5565b9050614fb0828261526c565b919050565b6000604051905090565b600067ffffffffffffffff821115614fda57614fd96153a4565b5b614fe3826153d3565b9050602081019050919050565b600067ffffffffffffffff82111561500b5761500a6153a4565b5b615014826153d3565b9050602081019050919050565b600081519050919050565b600081519050919050565b600082825260208201905092915050565b600081905092915050565b600082825260208201905092915050565b600081905092915050565b600061507a826151ee565b9150615085836151ee565b9250827fffffffffffffffffffffffffffffffffffffffffffffffffffffffffffffffff038211156150ba576150b9615317565b5b828201905092915050565b60006150d0826151ee565b91506150db836151ee565b9250826150eb576150ea615346565b5b828204905092915050565b6000615101826151ee565b915061510c836151ee565b9250817fffffffffffffffffffffffffffffffffffffffffffffffffffffffffffffffff048311821515161561514557615144615317565b5b828202905092915050565b600061515b826151ee565b9150615166836151ee565b92508282101561517957615178615317565b5b828203905092915050565b600061518f826151ce565b9050919050565b60008115159050919050565b60007fffffffff0000000000000000000000000000000000000000000000000000000082169050919050565b600073ffffffffffffffffffffffffffffffffffffffff82169050919050565b6000819050919050565b82818337600083830152505050565b60005b8381101561522557808201518184015260208101905061520a565b83811115615234576000848401525b50505050565b6000600282049050600182168061525257607f821691505b6020821081141561526657615265615375565b5b50919050565b615275826153d3565b810181811067ffffffffffffffff82111715615294576152936153a4565b5b80604052505050565b60006152a8826151ee565b91507fffffffffffffffffffffffffffffffffffffffffffffffffffffffffffffffff8214156152db576152da615317565b5b600182019050919050565b60006152f1826151ee565b91506152fc836151ee565b92508261530c5761530b615346565b5b828206905092915050565b7f4e487b7100000000000000000000000000000000000000000000000000000000600052601160045260246000fd5b7f4e487b7100000000000000000000000000000000000000000000000000000000600052601260045260246000fd5b7f4e487b7100000000000000000000000000000000000000000000000000000000600052602260045260246000fd5b7f4e487b7100000000000000000000000000000000000000000000000000000000600052604160045260246000fd5b6000601f19601f8301169050919050565b7f5061757361626c653a206e6f7420706175736564000000000000000000000000600082015250565b7f4552433732313a207472616e7366657220746f206e6f6e20455243373231526560008201527f63656976657220696d706c656d656e7465720000000000000000000000000000602082015250565b7f4f776e61626c653a206e6577206f776e657220697320746865207a65726f206160008201527f6464726573730000000000000000000000000000000000000000000000000000602082015250565b7f4552433732313a207472616e736665722066726f6d20696e636f72726563742060008201527f6f776e6572000000000000000000000000000000000000000000000000000000602082015250565b7f4552433732313a20746f6b656e20616c7265616479206d696e74656400000000600082015250565b7f4552433732313a207472616e7366657220746f20746865207a65726f2061646460008201527f7265737300000000000000000000000000000000000000000000000000000000602082015250565b7f4552433732313a20617070726f766520746f2063616c6c657200000000000000600082015250565b7f5061757361626c653a2070617573656400000000000000000000000000000000600082015250565b7f4552433732313a2061646472657373207a65726f206973206e6f74206120766160008201527f6c6964206f776e65720000000000000000000000000000000000000000000000602082015250565b7f45524337323155524953746f726167653a2055524920736574206f66206e6f6e60008201527f6578697374656e7420746f6b656e000000000000000000000000000000000000602082015250565b7f4552433732313a20617070726f76652063616c6c6572206973206e6f7420746f60008201527f6b656e206f776e6572206e6f7220617070726f76656420666f7220616c6c0000602082015250565b7f4552433732313a206d696e7420746f20746865207a65726f2061646472657373600082015250565b7f4f776e61626c653a2063616c6c6572206973206e6f7420746865206f776e6572600082015250565b7f4552433732313a20696e76616c696420746f6b656e2049440000000000000000600082015250565b7f4552433732313a20617070726f76616c20746f2063757272656e74206f776e6560008201527f7200000000000000000000000000000000000000000000000000000000000000602082015250565b50565b7f4552433732313a2063616c6c6572206973206e6f7420746f6b656e206f776e6560008201527f72206e6f7220617070726f766564000000000000000000000000000000000000602082015250565b7f5265656e7472616e637947756172643a207265656e7472616e742063616c6c00600082015250565b6157ff81615184565b811461580a57600080fd5b50565b61581681615196565b811461582157600080fd5b50565b61582d816151a2565b811461583857600080fd5b50565b615844816151ee565b811461584f57600080fd5b5056fe697066733a2f2f516d51385946324a615648426d4672725376754e766979464b59614e4a425a5452705574485559513556474d6659a2646970667358221220b035815a675a2272abbed100ff9e4432e7d55d1bde0bd6529690746e6f86c6df64736f6c63430008040033","opcodes":"PUSH2 0x140 PUSH1 0x40 MSTORE PUSH20 0xCAE8B7CD1B0956D1CE2D77A0AD9A854201447500 PUSH1 0x14 PUSH1 0x2 PUSH2 0x100 EXP DUP2 SLOAD DUP2 PUSH20 0xFFFFFFFFFFFFFFFFFFFFFFFFFFFFFFFFFFFFFFFF MUL NOT AND SWAP1 DUP4 PUSH20 0xFFFFFFFFFFFFFFFFFFFFFFFFFFFFFFFFFFFFFFFF AND MUL OR SWAP1 SSTORE POP CALLVALUE DUP1 ISZERO PUSH3 0x67 JUMPI PUSH1 0x0 DUP1 REVERT JUMPDEST POP PUSH1 0x40 MLOAD DUP1 PUSH1 0x40 ADD PUSH1 0x40 MSTORE DUP1 PUSH1 0xC DUP2 MSTORE PUSH1 0x20 ADD PUSH32 0x447261676F6E4B65657065720000000000000000000000000000000000000000 DUP2 MSTORE POP PUSH1 0x40 MLOAD DUP1 PUSH1 0x40 ADD PUSH1 0x40 MSTORE DUP1 PUSH1 0x3 DUP2 MSTORE PUSH1 0x20 ADD PUSH32 0x444B500000000000000000000000000000000000000000000000000000000000 DUP2 MSTORE POP DUP2 PUSH1 0x0 SWAP1 DUP1 MLOAD SWAP1 PUSH1 0x20 ADD SWAP1 PUSH3 0xEC SWAP3 SWAP2 SWAP1 PUSH3 0x44B JUMP JUMPDEST POP DUP1 PUSH1 0x1 SWAP1 DUP1 MLOAD SWAP1 PUSH1 0x20 ADD SWAP1 PUSH3 0x105 SWAP3 SWAP2 SWAP1 PUSH3 0x44B JUMP JUMPDEST POP POP POP PUSH1 0x0 PUSH1 0x7 PUSH1 0x0 PUSH2 0x100 EXP DUP2 SLOAD DUP2 PUSH1 0xFF MUL NOT AND SWAP1 DUP4 ISZERO ISZERO MUL OR SWAP1 SSTORE POP PUSH3 0x143 PUSH3 0x137 PUSH3 0x37D PUSH1 0x20 SHL PUSH1 0x20 SHR JUMP JUMPDEST PUSH3 0x385 PUSH1 0x20 SHL PUSH1 0x20 SHR JUMP JUMPDEST PUSH1 0x1 PUSH1 0x8 DUP2 SWAP1 SSTORE POP CALLER PUSH20 0xFFFFFFFFFFFFFFFFFFFFFFFFFFFFFFFFFFFFFFFF AND PUSH1 0x80 DUP2 PUSH20 0xFFFFFFFFFFFFFFFFFFFFFFFFFFFFFFFFFFFFFFFF AND PUSH1 0x60 SHL DUP2 MSTORE POP POP PUSH20 0xAB8483F64D9C6D1ECF9B849AE677DD3315835CB2 PUSH20 0xFFFFFFFFFFFFFFFFFFFFFFFFFFFFFFFFFFFFFFFF AND PUSH1 0xA0 DUP2 PUSH20 0xFFFFFFFFFFFFFFFFFFFFFFFFFFFFFFFFFFFFFFFF AND PUSH1 0x60 SHL DUP2 MSTORE POP POP PUSH20 0xAB8483F64D9C6D1ECF9B849AE677DD3315835CB2 PUSH20 0xFFFFFFFFFFFFFFFFFFFFFFFFFFFFFFFFFFFFFFFF AND PUSH1 0xC0 DUP2 PUSH20 0xFFFFFFFFFFFFFFFFFFFFFFFFFFFFFFFFFFFFFFFF AND PUSH1 0x60 SHL DUP2 MSTORE POP POP PUSH20 0xAB8483F64D9C6D1ECF9B849AE677DD3315835CB2 PUSH20 0xFFFFFFFFFFFFFFFFFFFFFFFFFFFFFFFFFFFFFFFF AND PUSH1 0xE0 DUP2 PUSH20 0xFFFFFFFFFFFFFFFFFFFFFFFFFFFFFFFFFFFFFFFF AND PUSH1 0x60 SHL DUP2 MSTORE POP POP PUSH20 0xAB8483F64D9C6D1ECF9B849AE677DD3315835CB2 PUSH20 0xFFFFFFFFFFFFFFFFFFFFFFFFFFFFFFFFFFFFFFFF AND PUSH2 0x100 DUP2 PUSH20 0xFFFFFFFFFFFFFFFFFFFFFFFFFFFFFFFFFFFFFFFF AND PUSH1 0x60 SHL DUP2 MSTORE POP POP PUSH20 0xAB8483F64D9C6D1ECF9B849AE677DD3315835CB2 PUSH20 0xFFFFFFFFFFFFFFFFFFFFFFFFFFFFFFFFFFFFFFFF AND PUSH2 0x120 DUP2 PUSH20 0xFFFFFFFFFFFFFFFFFFFFFFFFFFFFFFFFFFFFFFFF AND PUSH1 0x60 SHL DUP2 MSTORE POP POP PUSH7 0x11C37937E08000 PUSH1 0xF DUP2 SWAP1 SSTORE POP PUSH7 0x11C37937E08000 PUSH1 0x10 DUP2 SWAP1 SSTORE POP PUSH7 0x11C37937E08000 PUSH1 0x11 DUP2 SWAP1 SSTORE POP PUSH7 0x11C37937E08000 PUSH1 0x12 DUP2 SWAP1 SSTORE POP PUSH7 0x11C37937E08000 PUSH1 0x13 DUP2 SWAP1 SSTORE POP PUSH1 0x1 PUSH1 0x14 PUSH1 0x0 PUSH2 0x100 EXP DUP2 SLOAD DUP2 PUSH1 0xFF MUL NOT AND SWAP1 DUP4 ISZERO ISZERO MUL OR SWAP1 SSTORE POP PUSH1 0x1 PUSH1 0x14 PUSH1 0x1 PUSH2 0x100 EXP DUP2 SLOAD DUP2 PUSH1 0xFF MUL NOT AND SWAP1 DUP4 ISZERO ISZERO MUL OR SWAP1 SSTORE POP PUSH3 0x560 JUMP JUMPDEST PUSH1 0x0 CALLER SWAP1 POP SWAP1 JUMP JUMPDEST PUSH1 0x0 PUSH1 0x7 PUSH1 0x1 SWAP1 SLOAD SWAP1 PUSH2 0x100 EXP SWAP1 DIV PUSH20 0xFFFFFFFFFFFFFFFFFFFFFFFFFFFFFFFFFFFFFFFF AND SWAP1 POP DUP2 PUSH1 0x7 PUSH1 0x1 PUSH2 0x100 EXP DUP2 SLOAD DUP2 PUSH20 0xFFFFFFFFFFFFFFFFFFFFFFFFFFFFFFFFFFFFFFFF MUL NOT AND SWAP1 DUP4 PUSH20 0xFFFFFFFFFFFFFFFFFFFFFFFFFFFFFFFFFFFFFFFF AND MUL OR SWAP1 SSTORE POP DUP2 PUSH20 0xFFFFFFFFFFFFFFFFFFFFFFFFFFFFFFFFFFFFFFFF AND DUP2 PUSH20 0xFFFFFFFFFFFFFFFFFFFFFFFFFFFFFFFFFFFFFFFF AND PUSH32 0x8BE0079C531659141344CD1FD0A4F28419497F9722A3DAAFE3B4186F6B6457E0 PUSH1 0x40 MLOAD PUSH1 0x40 MLOAD DUP1 SWAP2 SUB SWAP1 LOG3 POP POP JUMP JUMPDEST DUP3 DUP1 SLOAD PUSH3 0x459 SWAP1 PUSH3 0x4FB JUMP JUMPDEST SWAP1 PUSH1 0x0 MSTORE PUSH1 0x20 PUSH1 0x0 KECCAK256 SWAP1 PUSH1 0x1F ADD PUSH1 0x20 SWAP1 DIV DUP2 ADD SWAP3 DUP3 PUSH3 0x47D JUMPI PUSH1 0x0 DUP6 SSTORE PUSH3 0x4C9 JUMP JUMPDEST DUP3 PUSH1 0x1F LT PUSH3 0x498 JUMPI DUP1 MLOAD PUSH1 0xFF NOT AND DUP4 DUP1 ADD OR DUP6 SSTORE PUSH3 0x4C9 JUMP JUMPDEST DUP3 DUP1 ADD PUSH1 0x1 ADD DUP6 SSTORE DUP3 ISZERO PUSH3 0x4C9 JUMPI SWAP2 DUP3 ADD JUMPDEST DUP3 DUP2 GT ISZERO PUSH3 0x4C8 JUMPI DUP3 MLOAD DUP3 SSTORE SWAP2 PUSH1 0x20 ADD SWAP2 SWAP1 PUSH1 0x1 ADD SWAP1 PUSH3 0x4AB JUMP JUMPDEST JUMPDEST POP SWAP1 POP PUSH3 0x4D8 SWAP2 SWAP1 PUSH3 0x4DC JUMP JUMPDEST POP SWAP1 JUMP JUMPDEST JUMPDEST DUP1 DUP3 GT ISZERO PUSH3 0x4F7 JUMPI PUSH1 0x0 DUP2 PUSH1 0x0 SWAP1 SSTORE POP PUSH1 0x1 ADD PUSH3 0x4DD JUMP JUMPDEST POP SWAP1 JUMP JUMPDEST PUSH1 0x0 PUSH1 0x2 DUP3 DIV SWAP1 POP PUSH1 0x1 DUP3 AND DUP1 PUSH3 0x514 JUMPI PUSH1 0x7F DUP3 AND SWAP2 POP JUMPDEST PUSH1 0x20 DUP3 LT DUP2 EQ ISZERO PUSH3 0x52B JUMPI PUSH3 0x52A PUSH3 0x531 JUMP JUMPDEST JUMPDEST POP SWAP2 SWAP1 POP JUMP JUMPDEST PUSH32 0x4E487B7100000000000000000000000000000000000000000000000000000000 PUSH1 0x0 MSTORE PUSH1 0x22 PUSH1 0x4 MSTORE PUSH1 0x24 PUSH1 0x0 REVERT JUMPDEST PUSH1 0x80 MLOAD PUSH1 0x60 SHR PUSH1 0xA0 MLOAD PUSH1 0x60 SHR PUSH1 0xC0 MLOAD PUSH1 0x60 SHR PUSH1 0xE0 MLOAD PUSH1 0x60 SHR PUSH2 0x100 MLOAD PUSH1 0x60 SHR PUSH2 0x120 MLOAD PUSH1 0x60 SHR PUSH2 0x58BD PUSH3 0x5C2 PUSH1 0x0 CODECOPY PUSH1 0x0 PUSH2 0x1864 ADD MSTORE PUSH1 0x0 PUSH2 0x17B6 ADD MSTORE PUSH1 0x0 PUSH2 0x1708 ADD MSTORE PUSH1 0x0 PUSH2 0x165A ADD MSTORE PUSH1 0x0 PUSH2 0x15AC ADD MSTORE PUSH1 0x0 PUSH2 0x1912 ADD MSTORE PUSH2 0x58BD PUSH1 0x0 RETURN INVALID PUSH1 0x80 PUSH1 0x40 MSTORE PUSH1 0x4 CALLDATASIZE LT PUSH2 0x2E4 JUMPI PUSH1 0x0 CALLDATALOAD PUSH1 0xE0 SHR DUP1 PUSH4 0x8456CB59 GT PUSH2 0x190 JUMPI DUP1 PUSH4 0xD1213DD3 GT PUSH2 0xDC JUMPI DUP1 PUSH4 0xDD2342BB GT PUSH2 0x95 JUMPI DUP1 PUSH4 0xE91A074C GT PUSH2 0x6F JUMPI DUP1 PUSH4 0xE91A074C EQ PUSH2 0xAF5 JUMPI DUP1 PUSH4 0xE985E9C5 EQ PUSH2 0xB20 JUMPI DUP1 PUSH4 0xEE383B13 EQ PUSH2 0xB5D JUMPI DUP1 PUSH4 0xF2FDE38B EQ PUSH2 0xB88 JUMPI PUSH2 0x2E4 JUMP JUMPDEST DUP1 PUSH4 0xDD2342BB EQ PUSH2 0xA71 JUMPI DUP1 PUSH4 0xE75CD261 EQ PUSH2 0xA9A JUMPI DUP1 PUSH4 0xE8A3D485 EQ PUSH2 0xACA JUMPI PUSH2 0x2E4 JUMP JUMPDEST DUP1 PUSH4 0xD1213DD3 EQ PUSH2 0x95D JUMPI DUP1 PUSH4 0xD204C45E EQ PUSH2 0x98D JUMPI DUP1 PUSH4 0xD2229AA4 EQ PUSH2 0x9B6 JUMPI DUP1 PUSH4 0xD4A88623 EQ PUSH2 0x9E1 JUMPI DUP1 PUSH4 0xDC7814E7 EQ PUSH2 0xA11 JUMPI DUP1 PUSH4 0xDD13FEFD EQ PUSH2 0xA41 JUMPI PUSH2 0x2E4 JUMP JUMPDEST DUP1 PUSH4 0x9F1CABC6 GT PUSH2 0x149 JUMPI DUP1 PUSH4 0xB88D4FDE GT PUSH2 0x123 JUMPI DUP1 PUSH4 0xB88D4FDE EQ PUSH2 0x8A1 JUMPI DUP1 PUSH4 0xC87B56DD EQ PUSH2 0x8CA JUMPI DUP1 PUSH4 0xCB9FE586 EQ PUSH2 0x907 JUMPI DUP1 PUSH4 0xCEA10198 EQ PUSH2 0x932 JUMPI PUSH2 0x2E4 JUMP JUMPDEST DUP1 PUSH4 0x9F1CABC6 EQ PUSH2 0x812 JUMPI DUP1 PUSH4 0xA22CB465 EQ PUSH2 0x84F JUMPI DUP1 PUSH4 0xB74CA315 EQ PUSH2 0x878 JUMPI PUSH2 0x2E4 JUMP JUMPDEST DUP1 PUSH4 0x8456CB59 EQ PUSH2 0x721 JUMPI DUP1 PUSH4 0x87960421 EQ PUSH2 0x738 JUMPI DUP1 PUSH4 0x8DA5CB5B EQ PUSH2 0x761 JUMPI DUP1 PUSH4 0x940548F7 EQ PUSH2 0x78C JUMPI DUP1 PUSH4 0x95D89B41 EQ PUSH2 0x7BC JUMPI DUP1 PUSH4 0x9DA3F8FD EQ PUSH2 0x7E7 JUMPI PUSH2 0x2E4 JUMP JUMPDEST DUP1 PUSH4 0x42842E0E GT PUSH2 0x24F JUMPI DUP1 PUSH4 0x64AC13A3 GT PUSH2 0x208 JUMPI DUP1 PUSH4 0x70A08231 GT PUSH2 0x1E2 JUMPI DUP1 PUSH4 0x70A08231 EQ PUSH2 0x672 JUMPI DUP1 PUSH4 0x715018A6 EQ PUSH2 0x6AF JUMPI DUP1 PUSH4 0x72A43DDF EQ PUSH2 0x6C6 JUMPI DUP1 PUSH4 0x7C2DC10C EQ PUSH2 0x6F1 JUMPI PUSH2 0x2E4 JUMP JUMPDEST DUP1 PUSH4 0x64AC13A3 EQ PUSH2 0x5EC JUMPI DUP1 PUSH4 0x6E02007D EQ PUSH2 0x61C JUMPI DUP1 PUSH4 0x6F9FB98A EQ PUSH2 0x647 JUMPI PUSH2 0x2E4 JUMP JUMPDEST DUP1 PUSH4 0x42842E0E EQ PUSH2 0x4FD JUMPI DUP1 PUSH4 0x47C6CE27 EQ PUSH2 0x526 JUMPI DUP1 PUSH4 0x57EA89B6 EQ PUSH2 0x551 JUMPI DUP1 PUSH4 0x5C975ABB EQ PUSH2 0x55B JUMPI DUP1 PUSH4 0x5E17B87F EQ PUSH2 0x586 JUMPI DUP1 PUSH4 0x6352211E EQ PUSH2 0x5AF JUMPI PUSH2 0x2E4 JUMP JUMPDEST DUP1 PUSH4 0xE1B3022 GT PUSH2 0x2A1 JUMPI DUP1 PUSH4 0xE1B3022 EQ PUSH2 0x412 JUMPI DUP1 PUSH4 0x14457327 EQ PUSH2 0x43B JUMPI DUP1 PUSH4 0x1F85E3CA EQ PUSH2 0x464 JUMPI DUP1 PUSH4 0x23B872DD EQ PUSH2 0x48D JUMPI DUP1 PUSH4 0x35966F2C EQ PUSH2 0x4B6 JUMPI DUP1 PUSH4 0x3F4BA83A EQ PUSH2 0x4E6 JUMPI PUSH2 0x2E4 JUMP JUMPDEST DUP1 PUSH4 0x1FFC9A7 EQ PUSH2 0x2E9 JUMPI DUP1 PUSH4 0x2084DDE EQ PUSH2 0x326 JUMPI DUP1 PUSH4 0x6F2057A EQ PUSH2 0x356 JUMPI DUP1 PUSH4 0x6FDDE03 EQ PUSH2 0x381 JUMPI DUP1 PUSH4 0x81812FC EQ PUSH2 0x3AC JUMPI DUP1 PUSH4 0x95EA7B3 EQ PUSH2 0x3E9 JUMPI JUMPDEST PUSH1 0x0 DUP1 REVERT JUMPDEST CALLVALUE DUP1 ISZERO PUSH2 0x2F5 JUMPI PUSH1 0x0 DUP1 REVERT JUMPDEST POP PUSH2 0x310 PUSH1 0x4 DUP1 CALLDATASIZE SUB DUP2 ADD SWAP1 PUSH2 0x30B SWAP2 SWAP1 PUSH2 0x4869 JUMP JUMPDEST PUSH2 0xBB1 JUMP JUMPDEST PUSH1 0x40 MLOAD PUSH2 0x31D SWAP2 SWAP1 PUSH2 0x4D22 JUMP JUMPDEST PUSH1 0x40 MLOAD DUP1 SWAP2 SUB SWAP1 RETURN JUMPDEST PUSH2 0x340 PUSH1 0x4 DUP1 CALLDATASIZE SUB DUP2 ADD SWAP1 PUSH2 0x33B SWAP2 SWAP1 PUSH2 0x48BB JUMP JUMPDEST PUSH2 0xC93 JUMP JUMPDEST PUSH1 0x40 MLOAD PUSH2 0x34D SWAP2 SWAP1 PUSH2 0x4F7F JUMP JUMPDEST PUSH1 0x40 MLOAD DUP1 SWAP2 SUB SWAP1 RETURN JUMPDEST CALLVALUE DUP1 ISZERO PUSH2 0x362 JUMPI PUSH1 0x0 DUP1 REVERT JUMPDEST POP PUSH2 0x36B PUSH2 0xF2B JUMP JUMPDEST PUSH1 0x40 MLOAD PUSH2 0x378 SWAP2 SWAP1 PUSH2 0x4D22 JUMP JUMPDEST PUSH1 0x40 MLOAD DUP1 SWAP2 SUB SWAP1 RETURN JUMPDEST CALLVALUE DUP1 ISZERO PUSH2 0x38D JUMPI PUSH1 0x0 DUP1 REVERT JUMPDEST POP PUSH2 0x396 PUSH2 0xFE2 JUMP JUMPDEST PUSH1 0x40 MLOAD PUSH2 0x3A3 SWAP2 SWAP1 PUSH2 0x4D3D JUMP JUMPDEST PUSH1 0x40 MLOAD DUP1 SWAP2 SUB SWAP1 RETURN JUMPDEST CALLVALUE DUP1 ISZERO PUSH2 0x3B8 JUMPI PUSH1 0x0 DUP1 REVERT JUMPDEST POP PUSH2 0x3D3 PUSH1 0x4 DUP1 CALLDATASIZE SUB DUP2 ADD SWAP1 PUSH2 0x3CE SWAP2 SWAP1 PUSH2 0x48FC JUMP JUMPDEST PUSH2 0x1074 JUMP JUMPDEST PUSH1 0x40 MLOAD PUSH2 0x3E0 SWAP2 SWAP1 PUSH2 0x4CBB JUMP JUMPDEST PUSH1 0x40 MLOAD DUP1 SWAP2 SUB SWAP1 RETURN JUMPDEST CALLVALUE DUP1 ISZERO PUSH2 0x3F5 JUMPI PUSH1 0x0 DUP1 REVERT JUMPDEST POP PUSH2 0x410 PUSH1 0x4 DUP1 CALLDATASIZE SUB DUP2 ADD SWAP1 PUSH2 0x40B SWAP2 SWAP1 PUSH2 0x47DB JUMP JUMPDEST PUSH2 0x10BA JUMP JUMPDEST STOP JUMPDEST CALLVALUE DUP1 ISZERO PUSH2 0x41E JUMPI PUSH1 0x0 DUP1 REVERT JUMPDEST POP PUSH2 0x439 PUSH1 0x4 DUP1 CALLDATASIZE SUB DUP2 ADD SWAP1 PUSH2 0x434 SWAP2 SWAP1 PUSH2 0x4817 JUMP JUMPDEST PUSH2 0x11D2 JUMP JUMPDEST STOP JUMPDEST CALLVALUE DUP1 ISZERO PUSH2 0x447 JUMPI PUSH1 0x0 DUP1 REVERT JUMPDEST POP PUSH2 0x462 PUSH1 0x4 DUP1 CALLDATASIZE SUB DUP2 ADD SWAP1 PUSH2 0x45D SWAP2 SWAP1 PUSH2 0x48FC JUMP JUMPDEST PUSH2 0x11F7 JUMP JUMPDEST STOP JUMPDEST CALLVALUE DUP1 ISZERO PUSH2 0x470 JUMPI PUSH1 0x0 DUP1 REVERT JUMPDEST POP PUSH2 0x48B PUSH1 0x4 DUP1 CALLDATASIZE SUB DUP2 ADD SWAP1 PUSH2 0x486 SWAP2 SWAP1 PUSH2 0x4817 JUMP JUMPDEST PUSH2 0x1209 JUMP JUMPDEST STOP JUMPDEST CALLVALUE DUP1 ISZERO PUSH2 0x499 JUMPI PUSH1 0x0 DUP1 REVERT JUMPDEST POP PUSH2 0x4B4 PUSH1 0x4 DUP1 CALLDATASIZE SUB DUP2 ADD SWAP1 PUSH2 0x4AF SWAP2 SWAP1 PUSH2 0x4681 JUMP JUMPDEST PUSH2 0x122E JUMP JUMPDEST STOP JUMPDEST PUSH2 0x4D0 PUSH1 0x4 DUP1 CALLDATASIZE SUB DUP2 ADD SWAP1 PUSH2 0x4CB SWAP2 SWAP1 PUSH2 0x48BB JUMP JUMPDEST PUSH2 0x128E JUMP JUMPDEST PUSH1 0x40 MLOAD PUSH2 0x4DD SWAP2 SWAP1 PUSH2 0x4F7F JUMP JUMPDEST PUSH1 0x40 MLOAD DUP1 SWAP2 SUB SWAP1 RETURN JUMPDEST CALLVALUE DUP1 ISZERO PUSH2 0x4F2 JUMPI PUSH1 0x0 DUP1 REVERT JUMPDEST POP PUSH2 0x4FB PUSH2 0x14DC JUMP JUMPDEST STOP JUMPDEST CALLVALUE DUP1 ISZERO PUSH2 0x509 JUMPI PUSH1 0x0 DUP1 REVERT JUMPDEST POP PUSH2 0x524 PUSH1 0x4 DUP1 CALLDATASIZE SUB DUP2 ADD SWAP1 PUSH2 0x51F SWAP2 SWAP1 PUSH2 0x4681 JUMP JUMPDEST PUSH2 0x14EE JUMP JUMPDEST STOP JUMPDEST CALLVALUE DUP1 ISZERO PUSH2 0x532 JUMPI PUSH1 0x0 DUP1 REVERT JUMPDEST POP PUSH2 0x53B PUSH2 0x150E JUMP JUMPDEST PUSH1 0x40 MLOAD PUSH2 0x548 SWAP2 SWAP1 PUSH2 0x4F7F JUMP JUMPDEST PUSH1 0x40 MLOAD DUP1 SWAP2 SUB SWAP1 RETURN JUMPDEST PUSH2 0x559 PUSH2 0x1518 JUMP JUMPDEST STOP JUMPDEST CALLVALUE DUP1 ISZERO PUSH2 0x567 JUMPI PUSH1 0x0 DUP1 REVERT JUMPDEST POP PUSH2 0x570 PUSH2 0x19B4 JUMP JUMPDEST PUSH1 0x40 MLOAD PUSH2 0x57D SWAP2 SWAP1 PUSH2 0x4D22 JUMP JUMPDEST PUSH1 0x40 MLOAD DUP1 SWAP2 SUB SWAP1 RETURN JUMPDEST CALLVALUE DUP1 ISZERO PUSH2 0x592 JUMPI PUSH1 0x0 DUP1 REVERT JUMPDEST POP PUSH2 0x5AD PUSH1 0x4 DUP1 CALLDATASIZE SUB DUP2 ADD SWAP1 PUSH2 0x5A8 SWAP2 SWAP1 PUSH2 0x48FC JUMP JUMPDEST PUSH2 0x19CB JUMP JUMPDEST STOP JUMPDEST CALLVALUE DUP1 ISZERO PUSH2 0x5BB JUMPI PUSH1 0x0 DUP1 REVERT JUMPDEST POP PUSH2 0x5D6 PUSH1 0x4 DUP1 CALLDATASIZE SUB DUP2 ADD SWAP1 PUSH2 0x5D1 SWAP2 SWAP1 PUSH2 0x48FC JUMP JUMPDEST PUSH2 0x19DD JUMP JUMPDEST PUSH1 0x40 MLOAD PUSH2 0x5E3 SWAP2 SWAP1 PUSH2 0x4CBB JUMP JUMPDEST PUSH1 0x40 MLOAD DUP1 SWAP2 SUB SWAP1 RETURN JUMPDEST PUSH2 0x606 PUSH1 0x4 DUP1 CALLDATASIZE SUB DUP2 ADD SWAP1 PUSH2 0x601 SWAP2 SWAP1 PUSH2 0x48BB JUMP JUMPDEST PUSH2 0x1A8F JUMP JUMPDEST PUSH1 0x40 MLOAD PUSH2 0x613 SWAP2 SWAP1 PUSH2 0x4F7F JUMP JUMPDEST PUSH1 0x40 MLOAD DUP1 SWAP2 SUB SWAP1 RETURN JUMPDEST CALLVALUE DUP1 ISZERO PUSH2 0x628 JUMPI PUSH1 0x0 DUP1 REVERT JUMPDEST POP PUSH2 0x631 PUSH2 0x1CDD JUMP JUMPDEST PUSH1 0x40 MLOAD PUSH2 0x63E SWAP2 SWAP1 PUSH2 0x4F7F JUMP JUMPDEST PUSH1 0x40 MLOAD DUP1 SWAP2 SUB SWAP1 RETURN JUMPDEST CALLVALUE DUP1 ISZERO PUSH2 0x653 JUMPI PUSH1 0x0 DUP1 REVERT JUMPDEST POP PUSH2 0x65C PUSH2 0x1CE7 JUMP JUMPDEST PUSH1 0x40 MLOAD PUSH2 0x669 SWAP2 SWAP1 PUSH2 0x4F7F JUMP JUMPDEST PUSH1 0x40 MLOAD DUP1 SWAP2 SUB SWAP1 RETURN JUMPDEST CALLVALUE DUP1 ISZERO PUSH2 0x67E JUMPI PUSH1 0x0 DUP1 REVERT JUMPDEST POP PUSH2 0x699 PUSH1 0x4 DUP1 CALLDATASIZE SUB DUP2 ADD SWAP1 PUSH2 0x694 SWAP2 SWAP1 PUSH2 0x461C JUMP JUMPDEST PUSH2 0x1CEF JUMP JUMPDEST PUSH1 0x40 MLOAD PUSH2 0x6A6 SWAP2 SWAP1 PUSH2 0x4F7F JUMP JUMPDEST PUSH1 0x40 MLOAD DUP1 SWAP2 SUB SWAP1 RETURN JUMPDEST CALLVALUE DUP1 ISZERO PUSH2 0x6BB JUMPI PUSH1 0x0 DUP1 REVERT JUMPDEST POP PUSH2 0x6C4 PUSH2 0x1DA7 JUMP JUMPDEST STOP JUMPDEST CALLVALUE DUP1 ISZERO PUSH2 0x6D2 JUMPI PUSH1 0x0 DUP1 REVERT JUMPDEST POP PUSH2 0x6DB PUSH2 0x1DBB JUMP JUMPDEST PUSH1 0x40 MLOAD PUSH2 0x6E8 SWAP2 SWAP1 PUSH2 0x4F7F JUMP JUMPDEST PUSH1 0x40 MLOAD DUP1 SWAP2 SUB SWAP1 RETURN JUMPDEST PUSH2 0x70B PUSH1 0x4 DUP1 CALLDATASIZE SUB DUP2 ADD SWAP1 PUSH2 0x706 SWAP2 SWAP1 PUSH2 0x48BB JUMP JUMPDEST PUSH2 0x1DC5 JUMP JUMPDEST PUSH1 0x40 MLOAD PUSH2 0x718 SWAP2 SWAP1 PUSH2 0x4F7F JUMP JUMPDEST PUSH1 0x40 MLOAD DUP1 SWAP2 SUB SWAP1 RETURN JUMPDEST CALLVALUE DUP1 ISZERO PUSH2 0x72D JUMPI PUSH1 0x0 DUP1 REVERT JUMPDEST POP PUSH2 0x736 PUSH2 0x205D JUMP JUMPDEST STOP JUMPDEST CALLVALUE DUP1 ISZERO PUSH2 0x744 JUMPI PUSH1 0x0 DUP1 REVERT JUMPDEST POP PUSH2 0x75F PUSH1 0x4 DUP1 CALLDATASIZE SUB DUP2 ADD SWAP1 PUSH2 0x75A SWAP2 SWAP1 PUSH2 0x48FC JUMP JUMPDEST PUSH2 0x206F JUMP JUMPDEST STOP JUMPDEST CALLVALUE DUP1 ISZERO PUSH2 0x76D JUMPI PUSH1 0x0 DUP1 REVERT JUMPDEST POP PUSH2 0x776 PUSH2 0x2081 JUMP JUMPDEST PUSH1 0x40 MLOAD PUSH2 0x783 SWAP2 SWAP1 PUSH2 0x4CBB JUMP JUMPDEST PUSH1 0x40 MLOAD DUP1 SWAP2 SUB SWAP1 RETURN JUMPDEST PUSH2 0x7A6 PUSH1 0x4 DUP1 CALLDATASIZE SUB DUP2 ADD SWAP1 PUSH2 0x7A1 SWAP2 SWAP1 PUSH2 0x48BB JUMP JUMPDEST PUSH2 0x20AB JUMP JUMPDEST PUSH1 0x40 MLOAD PUSH2 0x7B3 SWAP2 SWAP1 PUSH2 0x4F7F JUMP JUMPDEST PUSH1 0x40 MLOAD DUP1 SWAP2 SUB SWAP1 RETURN JUMPDEST CALLVALUE DUP1 ISZERO PUSH2 0x7C8 JUMPI PUSH1 0x0 DUP1 REVERT JUMPDEST POP PUSH2 0x7D1 PUSH2 0x22F8 JUMP JUMPDEST PUSH1 0x40 MLOAD PUSH2 0x7DE SWAP2 SWAP1 PUSH2 0x4D3D JUMP JUMPDEST PUSH1 0x40 MLOAD DUP1 SWAP2 SUB SWAP1 RETURN JUMPDEST CALLVALUE DUP1 ISZERO PUSH2 0x7F3 JUMPI PUSH1 0x0 DUP1 REVERT JUMPDEST POP PUSH2 0x7FC PUSH2 0x238A JUMP JUMPDEST PUSH1 0x40 MLOAD PUSH2 0x809 SWAP2 SWAP1 PUSH2 0x4D22 JUMP JUMPDEST PUSH1 0x40 MLOAD DUP1 SWAP2 SUB SWAP1 RETURN JUMPDEST CALLVALUE DUP1 ISZERO PUSH2 0x81E JUMPI PUSH1 0x0 DUP1 REVERT JUMPDEST POP PUSH2 0x839 PUSH1 0x4 DUP1 CALLDATASIZE SUB DUP2 ADD SWAP1 PUSH2 0x834 SWAP2 SWAP1 PUSH2 0x48BB JUMP JUMPDEST PUSH2 0x239D JUMP JUMPDEST PUSH1 0x40 MLOAD PUSH2 0x846 SWAP2 SWAP1 PUSH2 0x4D22 JUMP JUMPDEST PUSH1 0x40 MLOAD DUP1 SWAP2 SUB SWAP1 RETURN JUMPDEST CALLVALUE DUP1 ISZERO PUSH2 0x85B JUMPI PUSH1 0x0 DUP1 REVERT JUMPDEST POP PUSH2 0x876 PUSH1 0x4 DUP1 CALLDATASIZE SUB DUP2 ADD SWAP1 PUSH2 0x871 SWAP2 SWAP1 PUSH2 0x474B JUMP JUMPDEST PUSH2 0x23D8 JUMP JUMPDEST STOP JUMPDEST CALLVALUE DUP1 ISZERO PUSH2 0x884 JUMPI PUSH1 0x0 DUP1 REVERT JUMPDEST POP PUSH2 0x89F PUSH1 0x4 DUP1 CALLDATASIZE SUB DUP2 ADD SWAP1 PUSH2 0x89A SWAP2 SWAP1 PUSH2 0x48FC JUMP JUMPDEST PUSH2 0x23EE JUMP JUMPDEST STOP JUMPDEST CALLVALUE DUP1 ISZERO PUSH2 0x8AD JUMPI PUSH1 0x0 DUP1 REVERT JUMPDEST POP PUSH2 0x8C8 PUSH1 0x4 DUP1 CALLDATASIZE SUB DUP2 ADD SWAP1 PUSH2 0x8C3 SWAP2 SWAP1 PUSH2 0x46D0 JUMP JUMPDEST PUSH2 0x2400 JUMP JUMPDEST STOP JUMPDEST CALLVALUE DUP1 ISZERO PUSH2 0x8D6 JUMPI PUSH1 0x0 DUP1 REVERT JUMPDEST POP PUSH2 0x8F1 PUSH1 0x4 DUP1 CALLDATASIZE SUB DUP2 ADD SWAP1 PUSH2 0x8EC SWAP2 SWAP1 PUSH2 0x48FC JUMP JUMPDEST PUSH2 0x2462 JUMP JUMPDEST PUSH1 0x40 MLOAD PUSH2 0x8FE SWAP2 SWAP1 PUSH2 0x4D3D JUMP JUMPDEST PUSH1 0x40 MLOAD DUP1 SWAP2 SUB SWAP1 RETURN JUMPDEST CALLVALUE DUP1 ISZERO PUSH2 0x913 JUMPI PUSH1 0x0 DUP1 REVERT JUMPDEST POP PUSH2 0x91C PUSH2 0x2474 JUMP JUMPDEST PUSH1 0x40 MLOAD PUSH2 0x929 SWAP2 SWAP1 PUSH2 0x4D22 JUMP JUMPDEST PUSH1 0x40 MLOAD DUP1 SWAP2 SUB SWAP1 RETURN JUMPDEST CALLVALUE DUP1 ISZERO PUSH2 0x93E JUMPI PUSH1 0x0 DUP1 REVERT JUMPDEST POP PUSH2 0x947 PUSH2 0x2487 JUMP JUMPDEST PUSH1 0x40 MLOAD PUSH2 0x954 SWAP2 SWAP1 PUSH2 0x4CBB JUMP JUMPDEST PUSH1 0x40 MLOAD DUP1 SWAP2 SUB SWAP1 RETURN JUMPDEST PUSH2 0x977 PUSH1 0x4 DUP1 CALLDATASIZE SUB DUP2 ADD SWAP1 PUSH2 0x972 SWAP2 SWAP1 PUSH2 0x48BB JUMP JUMPDEST PUSH2 0x249F JUMP JUMPDEST PUSH1 0x40 MLOAD PUSH2 0x984 SWAP2 SWAP1 PUSH2 0x4F7F JUMP JUMPDEST PUSH1 0x40 MLOAD DUP1 SWAP2 SUB SWAP1 RETURN JUMPDEST CALLVALUE DUP1 ISZERO PUSH2 0x999 JUMPI PUSH1 0x0 DUP1 REVERT JUMPDEST POP PUSH2 0x9B4 PUSH1 0x4 DUP1 CALLDATASIZE SUB DUP2 ADD SWAP1 PUSH2 0x9AF SWAP2 SWAP1 PUSH2 0x4787 JUMP JUMPDEST PUSH2 0x2737 JUMP JUMPDEST STOP JUMPDEST CALLVALUE DUP1 ISZERO PUSH2 0x9C2 JUMPI PUSH1 0x0 DUP1 REVERT JUMPDEST POP PUSH2 0x9CB PUSH2 0x27AC JUMP JUMPDEST PUSH1 0x40 MLOAD PUSH2 0x9D8 SWAP2 SWAP1 PUSH2 0x4F7F JUMP JUMPDEST PUSH1 0x40 MLOAD DUP1 SWAP2 SUB SWAP1 RETURN JUMPDEST PUSH2 0x9FB PUSH1 0x4 DUP1 CALLDATASIZE SUB DUP2 ADD SWAP1 PUSH2 0x9F6 SWAP2 SWAP1 PUSH2 0x48BB JUMP JUMPDEST PUSH2 0x27B6 JUMP JUMPDEST PUSH1 0x40 MLOAD PUSH2 0xA08 SWAP2 SWAP1 PUSH2 0x4F7F JUMP JUMPDEST PUSH1 0x40 MLOAD DUP1 SWAP2 SUB SWAP1 RETURN JUMPDEST PUSH2 0xA2B PUSH1 0x4 DUP1 CALLDATASIZE SUB DUP2 ADD SWAP1 PUSH2 0xA26 SWAP2 SWAP1 PUSH2 0x48BB JUMP JUMPDEST PUSH2 0x2A03 JUMP JUMPDEST PUSH1 0x40 MLOAD PUSH2 0xA38 SWAP2 SWAP1 PUSH2 0x4F7F JUMP JUMPDEST PUSH1 0x40 MLOAD DUP1 SWAP2 SUB SWAP1 RETURN JUMPDEST PUSH2 0xA5B PUSH1 0x4 DUP1 CALLDATASIZE SUB DUP2 ADD SWAP1 PUSH2 0xA56 SWAP2 SWAP1 PUSH2 0x48BB JUMP JUMPDEST PUSH2 0x2C9B JUMP JUMPDEST PUSH1 0x40 MLOAD PUSH2 0xA68 SWAP2 SWAP1 PUSH2 0x4F7F JUMP JUMPDEST PUSH1 0x40 MLOAD DUP1 SWAP2 SUB SWAP1 RETURN JUMPDEST CALLVALUE DUP1 ISZERO PUSH2 0xA7D JUMPI PUSH1 0x0 DUP1 REVERT JUMPDEST POP PUSH2 0xA98 PUSH1 0x4 DUP1 CALLDATASIZE SUB DUP2 ADD SWAP1 PUSH2 0xA93 SWAP2 SWAP1 PUSH2 0x48FC JUMP JUMPDEST PUSH2 0x2F33 JUMP JUMPDEST STOP JUMPDEST PUSH2 0xAB4 PUSH1 0x4 DUP1 CALLDATASIZE SUB DUP2 ADD SWAP1 PUSH2 0xAAF SWAP2 SWAP1 PUSH2 0x48BB JUMP JUMPDEST PUSH2 0x2F45 JUMP JUMPDEST PUSH1 0x40 MLOAD PUSH2 0xAC1 SWAP2 SWAP1 PUSH2 0x4F7F JUMP JUMPDEST PUSH1 0x40 MLOAD DUP1 SWAP2 SUB SWAP1 RETURN JUMPDEST CALLVALUE DUP1 ISZERO PUSH2 0xAD6 JUMPI PUSH1 0x0 DUP1 REVERT JUMPDEST POP PUSH2 0xADF PUSH2 0x3193 JUMP JUMPDEST PUSH1 0x40 MLOAD PUSH2 0xAEC SWAP2 SWAP1 PUSH2 0x4D3D JUMP JUMPDEST PUSH1 0x40 MLOAD DUP1 SWAP2 SUB SWAP1 RETURN JUMPDEST CALLVALUE DUP1 ISZERO PUSH2 0xB01 JUMPI PUSH1 0x0 DUP1 REVERT JUMPDEST POP PUSH2 0xB0A PUSH2 0x31B3 JUMP JUMPDEST PUSH1 0x40 MLOAD PUSH2 0xB17 SWAP2 SWAP1 PUSH2 0x4F7F JUMP JUMPDEST PUSH1 0x40 MLOAD DUP1 SWAP2 SUB SWAP1 RETURN JUMPDEST CALLVALUE DUP1 ISZERO PUSH2 0xB2C JUMPI PUSH1 0x0 DUP1 REVERT JUMPDEST POP PUSH2 0xB47 PUSH1 0x4 DUP1 CALLDATASIZE SUB DUP2 ADD SWAP1 PUSH2 0xB42 SWAP2 SWAP1 PUSH2 0x4645 JUMP JUMPDEST PUSH2 0x31BD JUMP JUMPDEST PUSH1 0x40 MLOAD PUSH2 0xB54 SWAP2 SWAP1 PUSH2 0x4D22 JUMP JUMPDEST PUSH1 0x40 MLOAD DUP1 SWAP2 SUB SWAP1 RETURN JUMPDEST CALLVALUE DUP1 ISZERO PUSH2 0xB69 JUMPI PUSH1 0x0 DUP1 REVERT JUMPDEST POP PUSH2 0xB72 PUSH2 0x3251 JUMP JUMPDEST PUSH1 0x40 MLOAD PUSH2 0xB7F SWAP2 SWAP1 PUSH2 0x4F7F JUMP JUMPDEST PUSH1 0x40 MLOAD DUP1 SWAP2 SUB SWAP1 RETURN JUMPDEST CALLVALUE DUP1 ISZERO PUSH2 0xB94 JUMPI PUSH1 0x0 DUP1 REVERT JUMPDEST POP PUSH2 0xBAF PUSH1 0x4 DUP1 CALLDATASIZE SUB DUP2 ADD SWAP1 PUSH2 0xBAA SWAP2 SWAP1 PUSH2 0x461C JUMP JUMPDEST PUSH2 0x325B JUMP JUMPDEST STOP JUMPDEST PUSH1 0x0 PUSH32 0x80AC58CD00000000000000000000000000000000000000000000000000000000 PUSH28 0xFFFFFFFFFFFFFFFFFFFFFFFFFFFFFFFFFFFFFFFFFFFFFFFFFFFFFFFF NOT AND DUP3 PUSH28 0xFFFFFFFFFFFFFFFFFFFFFFFFFFFFFFFFFFFFFFFFFFFFFFFFFFFFFFFF NOT AND EQ DUP1 PUSH2 0xC7C JUMPI POP PUSH32 0x5B5E139F00000000000000000000000000000000000000000000000000000000 PUSH28 0xFFFFFFFFFFFFFFFFFFFFFFFFFFFFFFFFFFFFFFFFFFFFFFFFFFFFFFFF NOT AND DUP3 PUSH28 0xFFFFFFFFFFFFFFFFFFFFFFFFFFFFFFFFFFFFFFFFFFFFFFFFFFFFFFFF NOT AND EQ JUMPDEST DUP1 PUSH2 0xC8C JUMPI POP PUSH2 0xC8B DUP3 PUSH2 0x32DF JUMP JUMPDEST JUMPDEST SWAP1 POP SWAP2 SWAP1 POP JUMP JUMPDEST PUSH1 0x0 PUSH1 0x2 PUSH1 0x8 SLOAD EQ ISZERO PUSH2 0xCDB JUMPI PUSH1 0x40 MLOAD PUSH32 0x8C379A000000000000000000000000000000000000000000000000000000000 DUP2 MSTORE PUSH1 0x4 ADD PUSH2 0xCD2 SWAP1 PUSH2 0x4F5F JUMP JUMPDEST PUSH1 0x40 MLOAD DUP1 SWAP2 SUB SWAP1 REVERT JUMPDEST PUSH1 0x2 PUSH1 0x8 DUP2 SWAP1 SSTORE POP DUP2 PUSH1 0x1 ISZERO ISZERO PUSH1 0x14 PUSH1 0x1 SWAP1 SLOAD SWAP1 PUSH2 0x100 EXP SWAP1 DIV PUSH1 0xFF AND ISZERO ISZERO EQ PUSH2 0xD31 JUMPI PUSH1 0x40 MLOAD PUSH32 0x542C5FE600000000000000000000000000000000000000000000000000000000 DUP2 MSTORE PUSH1 0x4 ADD PUSH1 0x40 MLOAD DUP1 SWAP2 SUB SWAP1 REVERT JUMPDEST PUSH1 0x1 ISZERO ISZERO PUSH2 0xD3D PUSH2 0xF2B JUMP JUMPDEST ISZERO ISZERO EQ PUSH2 0xD76 JUMPI PUSH1 0x40 MLOAD PUSH32 0x2557AA1900000000000000000000000000000000000000000000000000000000 DUP2 MSTORE PUSH1 0x4 ADD PUSH1 0x40 MLOAD DUP1 SWAP2 SUB SWAP1 REVERT JUMPDEST PUSH1 0x1 PUSH2 0xD81 CALLER PUSH2 0x1CEF JUMP JUMPDEST LT PUSH2 0xDB8 JUMPI PUSH1 0x40 MLOAD PUSH32 0x83B284D500000000000000000000000000000000000000000000000000000000 DUP2 MSTORE PUSH1 0x4 ADD PUSH1 0x40 MLOAD DUP1 SWAP2 SUB SWAP1 REVERT JUMPDEST PUSH2 0x295C PUSH1 0x9 SLOAD LT PUSH2 0xDF5 JUMPI PUSH1 0x40 MLOAD PUSH32 0x4BC055EE00000000000000000000000000000000000000000000000000000000 DUP2 MSTORE PUSH1 0x4 ADD PUSH1 0x40 MLOAD DUP1 SWAP2 SUB SWAP1 REVERT JUMPDEST PUSH1 0x1 PUSH1 0x15 DUP3 PUSH1 0x40 MLOAD PUSH2 0xE07 SWAP2 SWAP1 PUSH2 0x4C6B JUMP JUMPDEST SWAP1 DUP2 MSTORE PUSH1 0x20 ADD PUSH1 0x40 MLOAD DUP1 SWAP2 SUB SWAP1 KECCAK256 PUSH1 0x0 SWAP1 SLOAD SWAP1 PUSH2 0x100 EXP SWAP1 DIV PUSH1 0xFF AND PUSH1 0xFF AND EQ ISZERO PUSH2 0xE5E JUMPI PUSH1 0x40 MLOAD PUSH32 0x5EED8C8100000000000000000000000000000000000000000000000000000000 DUP2 MSTORE PUSH1 0x4 ADD PUSH1 0x40 MLOAD DUP1 SWAP2 SUB SWAP1 REVERT JUMPDEST PUSH1 0xF SLOAD CALLVALUE LT ISZERO PUSH2 0xE9A JUMPI PUSH1 0x40 MLOAD PUSH32 0xC813754A00000000000000000000000000000000000000000000000000000000 DUP2 MSTORE PUSH1 0x4 ADD PUSH1 0x40 MLOAD DUP1 SWAP2 SUB SWAP1 REVERT JUMPDEST PUSH1 0x0 PUSH1 0x9 SLOAD SWAP1 POP PUSH1 0x1 PUSH1 0x9 SLOAD PUSH2 0xEB0 SWAP2 SWAP1 PUSH2 0x506F JUMP JUMPDEST PUSH1 0x9 DUP2 SWAP1 SSTORE POP PUSH1 0x1 PUSH1 0xA SLOAD PUSH2 0xEC5 SWAP2 SWAP1 PUSH2 0x506F JUMP JUMPDEST PUSH1 0xA DUP2 SWAP1 SSTORE POP PUSH1 0x1 PUSH1 0x15 DUP6 PUSH1 0x40 MLOAD PUSH2 0xEDD SWAP2 SWAP1 PUSH2 0x4C6B JUMP JUMPDEST SWAP1 DUP2 MSTORE PUSH1 0x20 ADD PUSH1 0x40 MLOAD DUP1 SWAP2 SUB SWAP1 KECCAK256 PUSH1 0x0 PUSH2 0x100 EXP DUP2 SLOAD DUP2 PUSH1 0xFF MUL NOT AND SWAP1 DUP4 PUSH1 0xFF AND MUL OR SWAP1 SSTORE POP PUSH2 0xF0D CALLER DUP3 PUSH2 0x3349 JUMP JUMPDEST PUSH2 0xF17 DUP2 DUP6 PUSH2 0x3523 JUMP JUMPDEST PUSH1 0x9 SLOAD SWAP3 POP POP POP PUSH1 0x1 PUSH1 0x8 DUP2 SWAP1 SSTORE POP SWAP2 SWAP1 POP JUMP JUMPDEST PUSH1 0x0 DUP1 PUSH1 0x14 PUSH1 0x2 SWAP1 SLOAD SWAP1 PUSH2 0x100 EXP SWAP1 DIV PUSH20 0xFFFFFFFFFFFFFFFFFFFFFFFFFFFFFFFFFFFFFFFF AND PUSH20 0xFFFFFFFFFFFFFFFFFFFFFFFFFFFFFFFFFFFFFFFF AND PUSH4 0x13F44D10 CALLER PUSH1 0x40 MLOAD DUP3 PUSH4 0xFFFFFFFF AND PUSH1 0xE0 SHL DUP2 MSTORE PUSH1 0x4 ADD PUSH2 0xF89 SWAP2 SWAP1 PUSH2 0x4CBB JUMP JUMPDEST PUSH1 0x20 PUSH1 0x40 MLOAD DUP1 DUP4 SUB DUP2 DUP7 DUP1 EXTCODESIZE ISZERO DUP1 ISZERO PUSH2 0xFA1 JUMPI PUSH1 0x0 DUP1 REVERT JUMPDEST POP GAS STATICCALL ISZERO DUP1 ISZERO PUSH2 0xFB5 JUMPI RETURNDATASIZE PUSH1 0x0 DUP1 RETURNDATACOPY RETURNDATASIZE PUSH1 0x0 REVERT JUMPDEST POP POP POP POP PUSH1 0x40 MLOAD RETURNDATASIZE PUSH1 0x1F NOT PUSH1 0x1F DUP3 ADD AND DUP3 ADD DUP1 PUSH1 0x40 MSTORE POP DUP2 ADD SWAP1 PUSH2 0xFD9 SWAP2 SWAP1 PUSH2 0x4840 JUMP JUMPDEST SWAP1 POP DUP1 SWAP2 POP POP SWAP1 JUMP JUMPDEST PUSH1 0x60 PUSH1 0x0 DUP1 SLOAD PUSH2 0xFF1 SWAP1 PUSH2 0x523A JUMP JUMPDEST DUP1 PUSH1 0x1F ADD PUSH1 0x20 DUP1 SWAP2 DIV MUL PUSH1 0x20 ADD PUSH1 0x40 MLOAD SWAP1 DUP2 ADD PUSH1 0x40 MSTORE DUP1 SWAP3 SWAP2 SWAP1 DUP2 DUP2 MSTORE PUSH1 0x20 ADD DUP3 DUP1 SLOAD PUSH2 0x101D SWAP1 PUSH2 0x523A JUMP JUMPDEST DUP1 ISZERO PUSH2 0x106A JUMPI DUP1 PUSH1 0x1F LT PUSH2 0x103F JUMPI PUSH2 0x100 DUP1 DUP4 SLOAD DIV MUL DUP4 MSTORE SWAP2 PUSH1 0x20 ADD SWAP2 PUSH2 0x106A JUMP JUMPDEST DUP3 ADD SWAP2 SWAP1 PUSH1 0x0 MSTORE PUSH1 0x20 PUSH1 0x0 KECCAK256 SWAP1 JUMPDEST DUP2 SLOAD DUP2 MSTORE SWAP1 PUSH1 0x1 ADD SWAP1 PUSH1 0x20 ADD DUP1 DUP4 GT PUSH2 0x104D JUMPI DUP3 SWAP1 SUB PUSH1 0x1F AND DUP3 ADD SWAP2 JUMPDEST POP POP POP POP POP SWAP1 POP SWAP1 JUMP JUMPDEST PUSH1 0x0 PUSH2 0x107F DUP3 PUSH2 0x3597 JUMP JUMPDEST PUSH1 0x4 PUSH1 0x0 DUP4 DUP2 MSTORE PUSH1 0x20 ADD SWAP1 DUP2 MSTORE PUSH1 0x20 ADD PUSH1 0x0 KECCAK256 PUSH1 0x0 SWAP1 SLOAD SWAP1 PUSH2 0x100 EXP SWAP1 DIV PUSH20 0xFFFFFFFFFFFFFFFFFFFFFFFFFFFFFFFFFFFFFFFF AND SWAP1 POP SWAP2 SWAP1 POP JUMP JUMPDEST PUSH1 0x0 PUSH2 0x10C5 DUP3 PUSH2 0x19DD JUMP JUMPDEST SWAP1 POP DUP1 PUSH20 0xFFFFFFFFFFFFFFFFFFFFFFFFFFFFFFFFFFFFFFFF AND DUP4 PUSH20 0xFFFFFFFFFFFFFFFFFFFFFFFFFFFFFFFFFFFFFFFF AND EQ ISZERO PUSH2 0x1136 JUMPI PUSH1 0x40 MLOAD PUSH32 0x8C379A000000000000000000000000000000000000000000000000000000000 DUP2 MSTORE PUSH1 0x4 ADD PUSH2 0x112D SWAP1 PUSH2 0x4F1F JUMP JUMPDEST PUSH1 0x40 MLOAD DUP1 SWAP2 SUB SWAP1 REVERT JUMPDEST DUP1 PUSH20 0xFFFFFFFFFFFFFFFFFFFFFFFFFFFFFFFFFFFFFFFF AND PUSH2 0x1155 PUSH2 0x35E2 JUMP JUMPDEST PUSH20 0xFFFFFFFFFFFFFFFFFFFFFFFFFFFFFFFFFFFFFFFF AND EQ DUP1 PUSH2 0x1184 JUMPI POP PUSH2 0x1183 DUP2 PUSH2 0x117E PUSH2 0x35E2 JUMP JUMPDEST PUSH2 0x31BD JUMP JUMPDEST JUMPDEST PUSH2 0x11C3 JUMPI PUSH1 0x40 MLOAD PUSH32 0x8C379A000000000000000000000000000000000000000000000000000000000 DUP2 MSTORE PUSH1 0x4 ADD PUSH2 0x11BA SWAP1 PUSH2 0x4E9F JUMP JUMPDEST PUSH1 0x40 MLOAD DUP1 SWAP2 SUB SWAP1 REVERT JUMPDEST PUSH2 0x11CD DUP4 DUP4 PUSH2 0x35EA JUMP JUMPDEST POP POP POP JUMP JUMPDEST PUSH2 0x11DA PUSH2 0x36A3 JUMP JUMPDEST DUP1 PUSH1 0x14 PUSH1 0x1 PUSH2 0x100 EXP DUP2 SLOAD DUP2 PUSH1 0xFF MUL NOT AND SWAP1 DUP4 ISZERO ISZERO MUL OR SWAP1 SSTORE POP POP JUMP JUMPDEST PUSH2 0x11FF PUSH2 0x36A3 JUMP JUMPDEST DUP1 PUSH1 0x11 DUP2 SWAP1 SSTORE POP POP JUMP JUMPDEST PUSH2 0x1211 PUSH2 0x36A3 JUMP JUMPDEST DUP1 PUSH1 0x14 PUSH1 0x0 PUSH2 0x100 EXP DUP2 SLOAD DUP2 PUSH1 0xFF MUL NOT AND SWAP1 DUP4 ISZERO ISZERO MUL OR SWAP1 SSTORE POP POP JUMP JUMPDEST PUSH2 0x123F PUSH2 0x1239 PUSH2 0x35E2 JUMP JUMPDEST DUP3 PUSH2 0x3721 JUMP JUMPDEST PUSH2 0x127E JUMPI PUSH1 0x40 MLOAD PUSH32 0x8C379A000000000000000000000000000000000000000000000000000000000 DUP2 MSTORE PUSH1 0x4 ADD PUSH2 0x1275 SWAP1 PUSH2 0x4F3F JUMP JUMPDEST PUSH1 0x40 MLOAD DUP1 SWAP2 SUB SWAP1 REVERT JUMPDEST PUSH2 0x1289 DUP4 DUP4 DUP4 PUSH2 0x37B6 JUMP JUMPDEST POP POP POP JUMP JUMPDEST PUSH1 0x0 PUSH1 0x2 PUSH1 0x8 SLOAD EQ ISZERO PUSH2 0x12D6 JUMPI PUSH1 0x40 MLOAD PUSH32 0x8C379A000000000000000000000000000000000000000000000000000000000 DUP2 MSTORE PUSH1 0x4 ADD PUSH2 0x12CD SWAP1 PUSH2 0x4F5F JUMP JUMPDEST PUSH1 0x40 MLOAD DUP1 SWAP2 SUB SWAP1 REVERT JUMPDEST PUSH1 0x2 PUSH1 0x8 DUP2 SWAP1 SSTORE POP DUP2 PUSH1 0x1 ISZERO ISZERO PUSH1 0x14 PUSH1 0x0 SWAP1 SLOAD SWAP1 PUSH2 0x100 EXP SWAP1 DIV PUSH1 0xFF AND ISZERO ISZERO EQ PUSH2 0x132C JUMPI PUSH1 0x40 MLOAD PUSH32 0xAEA22E0800000000000000000000000000000000000000000000000000000000 DUP2 MSTORE PUSH1 0x4 ADD PUSH1 0x40 MLOAD DUP1 SWAP2 SUB SWAP1 REVERT JUMPDEST PUSH2 0x295C PUSH1 0x9 SLOAD LT PUSH2 0x1369 JUMPI PUSH1 0x40 MLOAD PUSH32 0x4BC055EE00000000000000000000000000000000000000000000000000000000 DUP2 MSTORE PUSH1 0x4 ADD PUSH1 0x40 MLOAD DUP1 SWAP2 SUB SWAP1 REVERT JUMPDEST PUSH1 0x1 PUSH1 0x15 DUP3 PUSH1 0x40 MLOAD PUSH2 0x137B SWAP2 SWAP1 PUSH2 0x4C6B JUMP JUMPDEST SWAP1 DUP2 MSTORE PUSH1 0x20 ADD PUSH1 0x40 MLOAD DUP1 SWAP2 SUB SWAP1 KECCAK256 PUSH1 0x0 SWAP1 SLOAD SWAP1 PUSH2 0x100 EXP SWAP1 DIV PUSH1 0xFF AND PUSH1 0xFF AND EQ ISZERO PUSH2 0x13D2 JUMPI PUSH1 0x40 MLOAD PUSH32 0x5EED8C8100000000000000000000000000000000000000000000000000000000 DUP2 MSTORE PUSH1 0x4 ADD PUSH1 0x40 MLOAD DUP1 SWAP2 SUB SWAP1 REVERT JUMPDEST PUSH2 0x1950 PUSH1 0xE SLOAD LT PUSH2 0x140F JUMPI PUSH1 0x40 MLOAD PUSH32 0x47ED50F00000000000000000000000000000000000000000000000000000000 DUP2 MSTORE PUSH1 0x4 ADD PUSH1 0x40 MLOAD DUP1 SWAP2 SUB SWAP1 REVERT JUMPDEST PUSH1 0x13 SLOAD CALLVALUE LT ISZERO PUSH2 0x144B JUMPI PUSH1 0x40 MLOAD PUSH32 0xC813754A00000000000000000000000000000000000000000000000000000000 DUP2 MSTORE PUSH1 0x4 ADD PUSH1 0x40 MLOAD DUP1 SWAP2 SUB SWAP1 REVERT JUMPDEST PUSH1 0x0 PUSH1 0x9 SLOAD SWAP1 POP PUSH1 0x1 PUSH1 0x9 SLOAD PUSH2 0x1461 SWAP2 SWAP1 PUSH2 0x506F JUMP JUMPDEST PUSH1 0x9 DUP2 SWAP1 SSTORE POP PUSH1 0x1 PUSH1 0xE SLOAD PUSH2 0x1476 SWAP2 SWAP1 PUSH2 0x506F JUMP JUMPDEST PUSH1 0xE DUP2 SWAP1 SSTORE POP PUSH1 0x1 PUSH1 0x15 DUP6 PUSH1 0x40 MLOAD PUSH2 0x148E SWAP2 SWAP1 PUSH2 0x4C6B JUMP JUMPDEST SWAP1 DUP2 MSTORE PUSH1 0x20 ADD PUSH1 0x40 MLOAD DUP1 SWAP2 SUB SWAP1 KECCAK256 PUSH1 0x0 PUSH2 0x100 EXP DUP2 SLOAD DUP2 PUSH1 0xFF MUL NOT AND SWAP1 DUP4 PUSH1 0xFF AND MUL OR SWAP1 SSTORE POP PUSH2 0x14BE CALLER DUP3 PUSH2 0x3349 JUMP JUMPDEST PUSH2 0x14C8 DUP2 DUP6 PUSH2 0x3523 JUMP JUMPDEST PUSH1 0x9 SLOAD SWAP3 POP POP POP PUSH1 0x1 PUSH1 0x8 DUP2 SWAP1 SSTORE POP SWAP2 SWAP1 POP JUMP JUMPDEST PUSH2 0x14E4 PUSH2 0x36A3 JUMP JUMPDEST PUSH2 0x14EC PUSH2 0x3A1D JUMP JUMPDEST JUMP JUMPDEST PUSH2 0x1509 DUP4 DUP4 DUP4 PUSH1 0x40 MLOAD DUP1 PUSH1 0x20 ADD PUSH1 0x40 MSTORE DUP1 PUSH1 0x0 DUP2 MSTORE POP PUSH2 0x2400 JUMP JUMPDEST POP POP POP JUMP JUMPDEST PUSH1 0x0 PUSH1 0xE SLOAD SWAP1 POP SWAP1 JUMP JUMPDEST PUSH1 0x2 PUSH1 0x8 SLOAD EQ ISZERO PUSH2 0x155E JUMPI PUSH1 0x40 MLOAD PUSH32 0x8C379A000000000000000000000000000000000000000000000000000000000 DUP2 MSTORE PUSH1 0x4 ADD PUSH2 0x1555 SWAP1 PUSH2 0x4F5F JUMP JUMPDEST PUSH1 0x40 MLOAD DUP1 SWAP2 SUB SWAP1 REVERT JUMPDEST PUSH1 0x2 PUSH1 0x8 DUP2 SWAP1 SSTORE POP PUSH2 0x156E PUSH2 0x36A3 JUMP JUMPDEST PUSH1 0x0 SELFBALANCE GT PUSH2 0x15A8 JUMPI PUSH1 0x40 MLOAD PUSH32 0x73297BBE00000000000000000000000000000000000000000000000000000000 DUP2 MSTORE PUSH1 0x4 ADD PUSH1 0x40 MLOAD DUP1 SWAP2 SUB SWAP1 REVERT JUMPDEST PUSH1 0x0 PUSH32 0x0 PUSH20 0xFFFFFFFFFFFFFFFFFFFFFFFFFFFFFFFFFFFFFFFF AND PUSH1 0x64 PUSH1 0x1 SELFBALANCE PUSH2 0x15F0 SWAP2 SWAP1 PUSH2 0x50F6 JUMP JUMPDEST PUSH2 0x15FA SWAP2 SWAP1 PUSH2 0x50C5 JUMP JUMPDEST PUSH1 0x40 MLOAD PUSH2 0x1606 SWAP1 PUSH2 0x4CA6 JUMP JUMPDEST PUSH1 0x0 PUSH1 0x40 MLOAD DUP1 DUP4 SUB DUP2 DUP6 DUP8 GAS CALL SWAP3 POP POP POP RETURNDATASIZE DUP1 PUSH1 0x0 DUP2 EQ PUSH2 0x1643 JUMPI PUSH1 0x40 MLOAD SWAP2 POP PUSH1 0x1F NOT PUSH1 0x3F RETURNDATASIZE ADD AND DUP3 ADD PUSH1 0x40 MSTORE RETURNDATASIZE DUP3 MSTORE RETURNDATASIZE PUSH1 0x0 PUSH1 0x20 DUP5 ADD RETURNDATACOPY PUSH2 0x1648 JUMP JUMPDEST PUSH1 0x60 SWAP2 POP JUMPDEST POP POP SWAP1 POP DUP1 PUSH2 0x1656 JUMPI PUSH1 0x0 DUP1 REVERT JUMPDEST PUSH1 0x0 PUSH32 0x0 PUSH20 0xFFFFFFFFFFFFFFFFFFFFFFFFFFFFFFFFFFFFFFFF AND PUSH1 0x64 PUSH1 0x1 SELFBALANCE PUSH2 0x169E SWAP2 SWAP1 PUSH2 0x50F6 JUMP JUMPDEST PUSH2 0x16A8 SWAP2 SWAP1 PUSH2 0x50C5 JUMP JUMPDEST PUSH1 0x40 MLOAD PUSH2 0x16B4 SWAP1 PUSH2 0x4CA6 JUMP JUMPDEST PUSH1 0x0 PUSH1 0x40 MLOAD DUP1 DUP4 SUB DUP2 DUP6 DUP8 GAS CALL SWAP3 POP POP POP RETURNDATASIZE DUP1 PUSH1 0x0 DUP2 EQ PUSH2 0x16F1 JUMPI PUSH1 0x40 MLOAD SWAP2 POP PUSH1 0x1F NOT PUSH1 0x3F RETURNDATASIZE ADD AND DUP3 ADD PUSH1 0x40 MSTORE RETURNDATASIZE DUP3 MSTORE RETURNDATASIZE PUSH1 0x0 PUSH1 0x20 DUP5 ADD RETURNDATACOPY PUSH2 0x16F6 JUMP JUMPDEST PUSH1 0x60 SWAP2 POP JUMPDEST POP POP SWAP1 POP DUP1 PUSH2 0x1704 JUMPI PUSH1 0x0 DUP1 REVERT JUMPDEST PUSH1 0x0 PUSH32 0x0 PUSH20 0xFFFFFFFFFFFFFFFFFFFFFFFFFFFFFFFFFFFFFFFF AND PUSH1 0x64 PUSH1 0x1 SELFBALANCE PUSH2 0x174C SWAP2 SWAP1 PUSH2 0x50F6 JUMP JUMPDEST PUSH2 0x1756 SWAP2 SWAP1 PUSH2 0x50C5 JUMP JUMPDEST PUSH1 0x40 MLOAD PUSH2 0x1762 SWAP1 PUSH2 0x4CA6 JUMP JUMPDEST PUSH1 0x0 PUSH1 0x40 MLOAD DUP1 DUP4 SUB DUP2 DUP6 DUP8 GAS CALL SWAP3 POP POP POP RETURNDATASIZE DUP1 PUSH1 0x0 DUP2 EQ PUSH2 0x179F JUMPI PUSH1 0x40 MLOAD SWAP2 POP PUSH1 0x1F NOT PUSH1 0x3F RETURNDATASIZE ADD AND DUP3 ADD PUSH1 0x40 MSTORE RETURNDATASIZE DUP3 MSTORE RETURNDATASIZE PUSH1 0x0 PUSH1 0x20 DUP5 ADD RETURNDATACOPY PUSH2 0x17A4 JUMP JUMPDEST PUSH1 0x60 SWAP2 POP JUMPDEST POP POP SWAP1 POP DUP1 PUSH2 0x17B2 JUMPI PUSH1 0x0 DUP1 REVERT JUMPDEST PUSH1 0x0 PUSH32 0x0 PUSH20 0xFFFFFFFFFFFFFFFFFFFFFFFFFFFFFFFFFFFFFFFF AND PUSH1 0x64 PUSH1 0x1 SELFBALANCE PUSH2 0x17FA SWAP2 SWAP1 PUSH2 0x50F6 JUMP JUMPDEST PUSH2 0x1804 SWAP2 SWAP1 PUSH2 0x50C5 JUMP JUMPDEST PUSH1 0x40 MLOAD PUSH2 0x1810 SWAP1 PUSH2 0x4CA6 JUMP JUMPDEST PUSH1 0x0 PUSH1 0x40 MLOAD DUP1 DUP4 SUB DUP2 DUP6 DUP8 GAS CALL SWAP3 POP POP POP RETURNDATASIZE DUP1 PUSH1 0x0 DUP2 EQ PUSH2 0x184D JUMPI PUSH1 0x40 MLOAD SWAP2 POP PUSH1 0x1F NOT PUSH1 0x3F RETURNDATASIZE ADD AND DUP3 ADD PUSH1 0x40 MSTORE RETURNDATASIZE DUP3 MSTORE RETURNDATASIZE PUSH1 0x0 PUSH1 0x20 DUP5 ADD RETURNDATACOPY PUSH2 0x1852 JUMP JUMPDEST PUSH1 0x60 SWAP2 POP JUMPDEST POP POP SWAP1 POP DUP1 PUSH2 0x1860 JUMPI PUSH1 0x0 DUP1 REVERT JUMPDEST PUSH1 0x0 PUSH32 0x0 PUSH20 0xFFFFFFFFFFFFFFFFFFFFFFFFFFFFFFFFFFFFFFFF AND PUSH1 0x64 PUSH1 0x1 SELFBALANCE PUSH2 0x18A8 SWAP2 SWAP1 PUSH2 0x50F6 JUMP JUMPDEST PUSH2 0x18B2 SWAP2 SWAP1 PUSH2 0x50C5 JUMP JUMPDEST PUSH1 0x40 MLOAD PUSH2 0x18BE SWAP1 PUSH2 0x4CA6 JUMP JUMPDEST PUSH1 0x0 PUSH1 0x40 MLOAD DUP1 DUP4 SUB DUP2 DUP6 DUP8 GAS CALL SWAP3 POP POP POP RETURNDATASIZE DUP1 PUSH1 0x0 DUP2 EQ PUSH2 0x18FB JUMPI PUSH1 0x40 MLOAD SWAP2 POP PUSH1 0x1F NOT PUSH1 0x3F RETURNDATASIZE ADD AND DUP3 ADD PUSH1 0x40 MSTORE RETURNDATASIZE DUP3 MSTORE RETURNDATASIZE PUSH1 0x0 PUSH1 0x20 DUP5 ADD RETURNDATACOPY PUSH2 0x1900 JUMP JUMPDEST PUSH1 0x60 SWAP2 POP JUMPDEST POP POP SWAP1 POP DUP1 PUSH2 0x190E JUMPI PUSH1 0x0 DUP1 REVERT JUMPDEST PUSH1 0x0 PUSH32 0x0 PUSH20 0xFFFFFFFFFFFFFFFFFFFFFFFFFFFFFFFFFFFFFFFF AND SELFBALANCE PUSH1 0x40 MLOAD PUSH2 0x1954 SWAP1 PUSH2 0x4CA6 JUMP JUMPDEST PUSH1 0x0 PUSH1 0x40 MLOAD DUP1 DUP4 SUB DUP2 DUP6 DUP8 GAS CALL SWAP3 POP POP POP RETURNDATASIZE DUP1 PUSH1 0x0 DUP2 EQ PUSH2 0x1991 JUMPI PUSH1 0x40 MLOAD SWAP2 POP PUSH1 0x1F NOT PUSH1 0x3F RETURNDATASIZE ADD AND DUP3 ADD PUSH1 0x40 MSTORE RETURNDATASIZE DUP3 MSTORE RETURNDATASIZE PUSH1 0x0 PUSH1 0x20 DUP5 ADD RETURNDATACOPY PUSH2 0x1996 JUMP JUMPDEST PUSH1 0x60 SWAP2 POP JUMPDEST POP POP SWAP1 POP DUP1 PUSH2 0x19A4 JUMPI PUSH1 0x0 DUP1 REVERT JUMPDEST POP POP POP POP POP POP PUSH1 0x1 PUSH1 0x8 DUP2 SWAP1 SSTORE POP JUMP JUMPDEST PUSH1 0x0 PUSH1 0x7 PUSH1 0x0 SWAP1 SLOAD SWAP1 PUSH2 0x100 EXP SWAP1 DIV PUSH1 0xFF AND SWAP1 POP SWAP1 JUMP JUMPDEST PUSH2 0x19D3 PUSH2 0x36A3 JUMP JUMPDEST DUP1 PUSH1 0x13 DUP2 SWAP1 SSTORE POP POP JUMP JUMPDEST PUSH1 0x0 DUP1 PUSH1 0x2 PUSH1 0x0 DUP5 DUP2 MSTORE PUSH1 0x20 ADD SWAP1 DUP2 MSTORE PUSH1 0x20 ADD PUSH1 0x0 KECCAK256 PUSH1 0x0 SWAP1 SLOAD SWAP1 PUSH2 0x100 EXP SWAP1 DIV PUSH20 0xFFFFFFFFFFFFFFFFFFFFFFFFFFFFFFFFFFFFFFFF AND SWAP1 POP PUSH1 0x0 PUSH20 0xFFFFFFFFFFFFFFFFFFFFFFFFFFFFFFFFFFFFFFFF AND DUP2 PUSH20 0xFFFFFFFFFFFFFFFFFFFFFFFFFFFFFFFFFFFFFFFF AND EQ ISZERO PUSH2 0x1A86 JUMPI PUSH1 0x40 MLOAD PUSH32 0x8C379A000000000000000000000000000000000000000000000000000000000 DUP2 MSTORE PUSH1 0x4 ADD PUSH2 0x1A7D SWAP1 PUSH2 0x4EFF JUMP JUMPDEST PUSH1 0x40 MLOAD DUP1 SWAP2 SUB SWAP1 REVERT JUMPDEST DUP1 SWAP2 POP POP SWAP2 SWAP1 POP JUMP JUMPDEST PUSH1 0x0 PUSH1 0x2 PUSH1 0x8 SLOAD EQ ISZERO PUSH2 0x1AD7 JUMPI PUSH1 0x40 MLOAD PUSH32 0x8C379A000000000000000000000000000000000000000000000000000000000 DUP2 MSTORE PUSH1 0x4 ADD PUSH2 0x1ACE SWAP1 PUSH2 0x4F5F JUMP JUMPDEST PUSH1 0x40 MLOAD DUP1 SWAP2 SUB SWAP1 REVERT JUMPDEST PUSH1 0x2 PUSH1 0x8 DUP2 SWAP1 SSTORE POP DUP2 PUSH1 0x1 ISZERO ISZERO PUSH1 0x14 PUSH1 0x0 SWAP1 SLOAD SWAP1 PUSH2 0x100 EXP SWAP1 DIV PUSH1 0xFF AND ISZERO ISZERO EQ PUSH2 0x1B2D JUMPI PUSH1 0x40 MLOAD PUSH32 0xAEA22E0800000000000000000000000000000000000000000000000000000000 DUP2 MSTORE PUSH1 0x4 ADD PUSH1 0x40 MLOAD DUP1 SWAP2 SUB SWAP1 REVERT JUMPDEST PUSH2 0x295C PUSH1 0x9 SLOAD LT PUSH2 0x1B6A JUMPI PUSH1 0x40 MLOAD PUSH32 0x4BC055EE00000000000000000000000000000000000000000000000000000000 DUP2 MSTORE PUSH1 0x4 ADD PUSH1 0x40 MLOAD DUP1 SWAP2 SUB SWAP1 REVERT JUMPDEST PUSH1 0x1 PUSH1 0x15 DUP3 PUSH1 0x40 MLOAD PUSH2 0x1B7C SWAP2 SWAP1 PUSH2 0x4C6B JUMP JUMPDEST SWAP1 DUP2 MSTORE PUSH1 0x20 ADD PUSH1 0x40 MLOAD DUP1 SWAP2 SUB SWAP1 KECCAK256 PUSH1 0x0 SWAP1 SLOAD SWAP1 PUSH2 0x100 EXP SWAP1 DIV PUSH1 0xFF AND PUSH1 0xFF AND EQ ISZERO PUSH2 0x1BD3 JUMPI PUSH1 0x40 MLOAD PUSH32 0x5EED8C8100000000000000000000000000000000000000000000000000000000 DUP2 MSTORE PUSH1 0x4 ADD PUSH1 0x40 MLOAD DUP1 SWAP2 SUB SWAP1 REVERT JUMPDEST PUSH2 0x3CC PUSH1 0xC SLOAD LT PUSH2 0x1C10 JUMPI PUSH1 0x40 MLOAD PUSH32 0x47ED50F00000000000000000000000000000000000000000000000000000000 DUP2 MSTORE PUSH1 0x4 ADD PUSH1 0x40 MLOAD DUP1 SWAP2 SUB SWAP1 REVERT JUMPDEST PUSH1 0x11 SLOAD CALLVALUE LT ISZERO PUSH2 0x1C4C JUMPI PUSH1 0x40 MLOAD PUSH32 0xC813754A00000000000000000000000000000000000000000000000000000000 DUP2 MSTORE PUSH1 0x4 ADD PUSH1 0x40 MLOAD DUP1 SWAP2 SUB SWAP1 REVERT JUMPDEST PUSH1 0x0 PUSH1 0x9 SLOAD SWAP1 POP PUSH1 0x1 PUSH1 0x9 SLOAD PUSH2 0x1C62 SWAP2 SWAP1 PUSH2 0x506F JUMP JUMPDEST PUSH1 0x9 DUP2 SWAP1 SSTORE POP PUSH1 0x1 PUSH1 0xC SLOAD PUSH2 0x1C77 SWAP2 SWAP1 PUSH2 0x506F JUMP JUMPDEST PUSH1 0xC DUP2 SWAP1 SSTORE POP PUSH1 0x1 PUSH1 0x15 DUP6 PUSH1 0x40 MLOAD PUSH2 0x1C8F SWAP2 SWAP1 PUSH2 0x4C6B JUMP JUMPDEST SWAP1 DUP2 MSTORE PUSH1 0x20 ADD PUSH1 0x40 MLOAD DUP1 SWAP2 SUB SWAP1 KECCAK256 PUSH1 0x0 PUSH2 0x100 EXP DUP2 SLOAD DUP2 PUSH1 0xFF MUL NOT AND SWAP1 DUP4 PUSH1 0xFF AND MUL OR SWAP1 SSTORE POP PUSH2 0x1CBF CALLER DUP3 PUSH2 0x3349 JUMP JUMPDEST PUSH2 0x1CC9 DUP2 DUP6 PUSH2 0x3523 JUMP JUMPDEST PUSH1 0x9 SLOAD SWAP3 POP POP POP PUSH1 0x1 PUSH1 0x8 DUP2 SWAP1 SSTORE POP SWAP2 SWAP1 POP JUMP JUMPDEST PUSH1 0x0 PUSH1 0x9 SLOAD SWAP1 POP SWAP1 JUMP JUMPDEST PUSH1 0x0 SELFBALANCE SWAP1 POP SWAP1 JUMP JUMPDEST PUSH1 0x0 DUP1 PUSH20 0xFFFFFFFFFFFFFFFFFFFFFFFFFFFFFFFFFFFFFFFF AND DUP3 PUSH20 0xFFFFFFFFFFFFFFFFFFFFFFFFFFFFFFFFFFFFFFFF AND EQ ISZERO PUSH2 0x1D60 JUMPI PUSH1 0x40 MLOAD PUSH32 0x8C379A000000000000000000000000000000000000000000000000000000000 DUP2 MSTORE PUSH1 0x4 ADD PUSH2 0x1D57 SWAP1 PUSH2 0x4E5F JUMP JUMPDEST PUSH1 0x40 MLOAD DUP1 SWAP2 SUB SWAP1 REVERT JUMPDEST PUSH1 0x3 PUSH1 0x0 DUP4 PUSH20 0xFFFFFFFFFFFFFFFFFFFFFFFFFFFFFFFFFFFFFFFF AND PUSH20 0xFFFFFFFFFFFFFFFFFFFFFFFFFFFFFFFFFFFFFFFF AND DUP2 MSTORE PUSH1 0x20 ADD SWAP1 DUP2 MSTORE PUSH1 0x20 ADD PUSH1 0x0 KECCAK256 SLOAD SWAP1 POP SWAP2 SWAP1 POP JUMP JUMPDEST PUSH2 0x1DAF PUSH2 0x36A3 JUMP JUMPDEST PUSH2 0x1DB9 PUSH1 0x0 PUSH2 0x3A80 JUMP JUMPDEST JUMP JUMPDEST PUSH1 0x0 PUSH1 0xA SLOAD SWAP1 POP SWAP1 JUMP JUMPDEST PUSH1 0x0 PUSH1 0x2 PUSH1 0x8 SLOAD EQ ISZERO PUSH2 0x1E0D JUMPI PUSH1 0x40 MLOAD PUSH32 0x8C379A000000000000000000000000000000000000000000000000000000000 DUP2 MSTORE PUSH1 0x4 ADD PUSH2 0x1E04 SWAP1 PUSH2 0x4F5F JUMP JUMPDEST PUSH1 0x40 MLOAD DUP1 SWAP2 SUB SWAP1 REVERT JUMPDEST PUSH1 0x2 PUSH1 0x8 DUP2 SWAP1 SSTORE POP DUP2 PUSH1 0x1 ISZERO ISZERO PUSH1 0x14 PUSH1 0x1 SWAP1 SLOAD SWAP1 PUSH2 0x100 EXP SWAP1 DIV PUSH1 0xFF AND ISZERO ISZERO EQ PUSH2 0x1E63 JUMPI PUSH1 0x40 MLOAD PUSH32 0x542C5FE600000000000000000000000000000000000000000000000000000000 DUP2 MSTORE PUSH1 0x4 ADD PUSH1 0x40 MLOAD DUP1 SWAP2 SUB SWAP1 REVERT JUMPDEST PUSH1 0x1 ISZERO ISZERO PUSH2 0x1E6F PUSH2 0xF2B JUMP JUMPDEST ISZERO ISZERO EQ PUSH2 0x1EA8 JUMPI PUSH1 0x40 MLOAD PUSH32 0x2557AA1900000000000000000000000000000000000000000000000000000000 DUP2 MSTORE PUSH1 0x4 ADD PUSH1 0x40 MLOAD DUP1 SWAP2 SUB SWAP1 REVERT JUMPDEST PUSH1 0x1 PUSH2 0x1EB3 CALLER PUSH2 0x1CEF JUMP JUMPDEST LT PUSH2 0x1EEA JUMPI PUSH1 0x40 MLOAD PUSH32 0x83B284D500000000000000000000000000000000000000000000000000000000 DUP2 MSTORE PUSH1 0x4 ADD PUSH1 0x40 MLOAD DUP1 SWAP2 SUB SWAP1 REVERT JUMPDEST PUSH2 0x295C PUSH1 0x9 SLOAD LT PUSH2 0x1F27 JUMPI PUSH1 0x40 MLOAD PUSH32 0x4BC055EE00000000000000000000000000000000000000000000000000000000 DUP2 MSTORE PUSH1 0x4 ADD PUSH1 0x40 MLOAD DUP1 SWAP2 SUB SWAP1 REVERT JUMPDEST PUSH1 0x1 PUSH1 0x15 DUP3 PUSH1 0x40 MLOAD PUSH2 0x1F39 SWAP2 SWAP1 PUSH2 0x4C6B JUMP JUMPDEST SWAP1 DUP2 MSTORE PUSH1 0x20 ADD PUSH1 0x40 MLOAD DUP1 SWAP2 SUB SWAP1 KECCAK256 PUSH1 0x0 SWAP1 SLOAD SWAP1 PUSH2 0x100 EXP SWAP1 DIV PUSH1 0xFF AND PUSH1 0xFF AND EQ ISZERO PUSH2 0x1F90 JUMPI PUSH1 0x40 MLOAD PUSH32 0x5EED8C8100000000000000000000000000000000000000000000000000000000 DUP2 MSTORE PUSH1 0x4 ADD PUSH1 0x40 MLOAD DUP1 SWAP2 SUB SWAP1 REVERT JUMPDEST PUSH1 0x13 SLOAD CALLVALUE LT ISZERO PUSH2 0x1FCC JUMPI PUSH1 0x40 MLOAD PUSH32 0xC813754A00000000000000000000000000000000000000000000000000000000 DUP2 MSTORE PUSH1 0x4 ADD PUSH1 0x40 MLOAD DUP1 SWAP2 SUB SWAP1 REVERT JUMPDEST PUSH1 0x0 PUSH1 0x9 SLOAD SWAP1 POP PUSH1 0x1 PUSH1 0x9 SLOAD PUSH2 0x1FE2 SWAP2 SWAP1 PUSH2 0x506F JUMP JUMPDEST PUSH1 0x9 DUP2 SWAP1 SSTORE POP PUSH1 0x1 PUSH1 0xE SLOAD PUSH2 0x1FF7 SWAP2 SWAP1 PUSH2 0x506F JUMP JUMPDEST PUSH1 0xE DUP2 SWAP1 SSTORE POP PUSH1 0x1 PUSH1 0x15 DUP6 PUSH1 0x40 MLOAD PUSH2 0x200F SWAP2 SWAP1 PUSH2 0x4C6B JUMP JUMPDEST SWAP1 DUP2 MSTORE PUSH1 0x20 ADD PUSH1 0x40 MLOAD DUP1 SWAP2 SUB SWAP1 KECCAK256 PUSH1 0x0 PUSH2 0x100 EXP DUP2 SLOAD DUP2 PUSH1 0xFF MUL NOT AND SWAP1 DUP4 PUSH1 0xFF AND MUL OR SWAP1 SSTORE POP PUSH2 0x203F CALLER DUP3 PUSH2 0x3349 JUMP JUMPDEST PUSH2 0x2049 DUP2 DUP6 PUSH2 0x3523 JUMP JUMPDEST PUSH1 0x9 SLOAD SWAP3 POP POP POP PUSH1 0x1 PUSH1 0x8 DUP2 SWAP1 SSTORE POP SWAP2 SWAP1 POP JUMP JUMPDEST PUSH2 0x2065 PUSH2 0x36A3 JUMP JUMPDEST PUSH2 0x206D PUSH2 0x3B46 JUMP JUMPDEST JUMP JUMPDEST PUSH2 0x2077 PUSH2 0x36A3 JUMP JUMPDEST DUP1 PUSH1 0x10 DUP2 SWAP1 SSTORE POP POP JUMP JUMPDEST PUSH1 0x0 PUSH1 0x7 PUSH1 0x1 SWAP1 SLOAD SWAP1 PUSH2 0x100 EXP SWAP1 DIV PUSH20 0xFFFFFFFFFFFFFFFFFFFFFFFFFFFFFFFFFFFFFFFF AND SWAP1 POP SWAP1 JUMP JUMPDEST PUSH1 0x0 PUSH1 0x2 PUSH1 0x8 SLOAD EQ ISZERO PUSH2 0x20F3 JUMPI PUSH1 0x40 MLOAD PUSH32 0x8C379A000000000000000000000000000000000000000000000000000000000 DUP2 MSTORE PUSH1 0x4 ADD PUSH2 0x20EA SWAP1 PUSH2 0x4F5F JUMP JUMPDEST PUSH1 0x40 MLOAD DUP1 SWAP2 SUB SWAP1 REVERT JUMPDEST PUSH1 0x2 PUSH1 0x8 DUP2 SWAP1 SSTORE POP DUP2 PUSH1 0x1 ISZERO ISZERO PUSH1 0x14 PUSH1 0x0 SWAP1 SLOAD SWAP1 PUSH2 0x100 EXP SWAP1 DIV PUSH1 0xFF AND ISZERO ISZERO EQ PUSH2 0x2149 JUMPI PUSH1 0x40 MLOAD PUSH32 0xAEA22E0800000000000000000000000000000000000000000000000000000000 DUP2 MSTORE PUSH1 0x4 ADD PUSH1 0x40 MLOAD DUP1 SWAP2 SUB SWAP1 REVERT JUMPDEST PUSH2 0x295C PUSH1 0x9 SLOAD LT PUSH2 0x2186 JUMPI PUSH1 0x40 MLOAD PUSH32 0x4BC055EE00000000000000000000000000000000000000000000000000000000 DUP2 MSTORE PUSH1 0x4 ADD PUSH1 0x40 MLOAD DUP1 SWAP2 SUB SWAP1 REVERT JUMPDEST PUSH1 0x1 PUSH1 0x15 DUP3 PUSH1 0x40 MLOAD PUSH2 0x2198 SWAP2 SWAP1 PUSH2 0x4C6B JUMP JUMPDEST SWAP1 DUP2 MSTORE PUSH1 0x20 ADD PUSH1 0x40 MLOAD DUP1 SWAP2 SUB SWAP1 KECCAK256 PUSH1 0x0 SWAP1 SLOAD SWAP1 PUSH2 0x100 EXP SWAP1 DIV PUSH1 0xFF AND PUSH1 0xFF AND EQ ISZERO PUSH2 0x21EF JUMPI PUSH1 0x40 MLOAD PUSH32 0x5EED8C8100000000000000000000000000000000000000000000000000000000 DUP2 MSTORE PUSH1 0x4 ADD PUSH1 0x40 MLOAD DUP1 SWAP2 SUB SWAP1 REVERT JUMPDEST PUSH1 0xD8 PUSH1 0xB SLOAD LT PUSH2 0x222B JUMPI PUSH1 0x40 MLOAD PUSH32 0x47ED50F00000000000000000000000000000000000000000000000000000000 DUP2 MSTORE PUSH1 0x4 ADD PUSH1 0x40 MLOAD DUP1 SWAP2 SUB SWAP1 REVERT JUMPDEST PUSH1 0x10 SLOAD CALLVALUE LT ISZERO PUSH2 0x2267 JUMPI PUSH1 0x40 MLOAD PUSH32 0xC813754A00000000000000000000000000000000000000000000000000000000 DUP2 MSTORE PUSH1 0x4 ADD PUSH1 0x40 MLOAD DUP1 SWAP2 SUB SWAP1 REVERT JUMPDEST PUSH1 0x0 PUSH1 0x9 SLOAD SWAP1 POP PUSH1 0x1 PUSH1 0x9 SLOAD PUSH2 0x227D SWAP2 SWAP1 PUSH2 0x506F JUMP JUMPDEST PUSH1 0x9 DUP2 SWAP1 SSTORE POP PUSH1 0x1 PUSH1 0xB SLOAD PUSH2 0x2292 SWAP2 SWAP1 PUSH2 0x506F JUMP JUMPDEST PUSH1 0xB DUP2 SWAP1 SSTORE POP PUSH1 0x1 PUSH1 0x15 DUP6 PUSH1 0x40 MLOAD PUSH2 0x22AA SWAP2 SWAP1 PUSH2 0x4C6B JUMP JUMPDEST SWAP1 DUP2 MSTORE PUSH1 0x20 ADD PUSH1 0x40 MLOAD DUP1 SWAP2 SUB SWAP1 KECCAK256 PUSH1 0x0 PUSH2 0x100 EXP DUP2 SLOAD DUP2 PUSH1 0xFF MUL NOT AND SWAP1 DUP4 PUSH1 0xFF AND MUL OR SWAP1 SSTORE POP PUSH2 0x22DA CALLER DUP3 PUSH2 0x3349 JUMP JUMPDEST PUSH2 0x22E4 DUP2 DUP6 PUSH2 0x3523 JUMP JUMPDEST PUSH1 0x9 SLOAD SWAP3 POP POP POP PUSH1 0x1 PUSH1 0x8 DUP2 SWAP1 SSTORE POP SWAP2 SWAP1 POP JUMP JUMPDEST PUSH1 0x60 PUSH1 0x1 DUP1 SLOAD PUSH2 0x2307 SWAP1 PUSH2 0x523A JUMP JUMPDEST DUP1 PUSH1 0x1F ADD PUSH1 0x20 DUP1 SWAP2 DIV MUL PUSH1 0x20 ADD PUSH1 0x40 MLOAD SWAP1 DUP2 ADD PUSH1 0x40 MSTORE DUP1 SWAP3 SWAP2 SWAP1 DUP2 DUP2 MSTORE PUSH1 0x20 ADD DUP3 DUP1 SLOAD PUSH2 0x2333 SWAP1 PUSH2 0x523A JUMP JUMPDEST DUP1 ISZERO PUSH2 0x2380 JUMPI DUP1 PUSH1 0x1F LT PUSH2 0x2355 JUMPI PUSH2 0x100 DUP1 DUP4 SLOAD DIV MUL DUP4 MSTORE SWAP2 PUSH1 0x20 ADD SWAP2 PUSH2 0x2380 JUMP JUMPDEST DUP3 ADD SWAP2 SWAP1 PUSH1 0x0 MSTORE PUSH1 0x20 PUSH1 0x0 KECCAK256 SWAP1 JUMPDEST DUP2 SLOAD DUP2 MSTORE SWAP1 PUSH1 0x1 ADD SWAP1 PUSH1 0x20 ADD DUP1 DUP4 GT PUSH2 0x2363 JUMPI DUP3 SWAP1 SUB PUSH1 0x1F AND DUP3 ADD SWAP2 JUMPDEST POP POP POP POP POP SWAP1 POP SWAP1 JUMP JUMPDEST PUSH1 0x14 PUSH1 0x0 SWAP1 SLOAD SWAP1 PUSH2 0x100 EXP SWAP1 DIV PUSH1 0xFF AND DUP2 JUMP JUMPDEST PUSH1 0x0 PUSH1 0x1 PUSH1 0x15 DUP4 PUSH1 0x40 MLOAD PUSH2 0x23B1 SWAP2 SWAP1 PUSH2 0x4C6B JUMP JUMPDEST SWAP1 DUP2 MSTORE PUSH1 0x20 ADD PUSH1 0x40 MLOAD DUP1 SWAP2 SUB SWAP1 KECCAK256 PUSH1 0x0 SWAP1 SLOAD SWAP1 PUSH2 0x100 EXP SWAP1 DIV PUSH1 0xFF AND PUSH1 0xFF AND EQ SWAP1 POP SWAP2 SWAP1 POP JUMP JUMPDEST PUSH2 0x23EA PUSH2 0x23E3 PUSH2 0x35E2 JUMP JUMPDEST DUP4 DUP4 PUSH2 0x3BA9 JUMP JUMPDEST POP POP JUMP JUMPDEST PUSH2 0x23F6 PUSH2 0x36A3 JUMP JUMPDEST DUP1 PUSH1 0x12 DUP2 SWAP1 SSTORE POP POP JUMP JUMPDEST PUSH2 0x2411 PUSH2 0x240B PUSH2 0x35E2 JUMP JUMPDEST DUP4 PUSH2 0x3721 JUMP JUMPDEST PUSH2 0x2450 JUMPI PUSH1 0x40 MLOAD PUSH32 0x8C379A000000000000000000000000000000000000000000000000000000000 DUP2 MSTORE PUSH1 0x4 ADD PUSH2 0x2447 SWAP1 PUSH2 0x4F3F JUMP JUMPDEST PUSH1 0x40 MLOAD DUP1 SWAP2 SUB SWAP1 REVERT JUMPDEST PUSH2 0x245C DUP5 DUP5 DUP5 DUP5 PUSH2 0x3D16 JUMP JUMPDEST POP POP POP POP JUMP JUMPDEST PUSH1 0x60 PUSH2 0x246D DUP3 PUSH2 0x3D72 JUMP JUMPDEST SWAP1 POP SWAP2 SWAP1 POP JUMP JUMPDEST PUSH1 0x14 PUSH1 0x1 SWAP1 SLOAD SWAP1 PUSH2 0x100 EXP SWAP1 DIV PUSH1 0xFF AND DUP2 JUMP JUMPDEST PUSH20 0xCAE8B7CD1B0956D1CE2D77A0AD9A854201447500 DUP2 JUMP JUMPDEST PUSH1 0x0 PUSH1 0x2 PUSH1 0x8 SLOAD EQ ISZERO PUSH2 0x24E7 JUMPI PUSH1 0x40 MLOAD PUSH32 0x8C379A000000000000000000000000000000000000000000000000000000000 DUP2 MSTORE PUSH1 0x4 ADD PUSH2 0x24DE SWAP1 PUSH2 0x4F5F JUMP JUMPDEST PUSH1 0x40 MLOAD DUP1 SWAP2 SUB SWAP1 REVERT JUMPDEST PUSH1 0x2 PUSH1 0x8 DUP2 SWAP1 SSTORE POP DUP2 PUSH1 0x1 ISZERO ISZERO PUSH1 0x14 PUSH1 0x1 SWAP1 SLOAD SWAP1 PUSH2 0x100 EXP SWAP1 DIV PUSH1 0xFF AND ISZERO ISZERO EQ PUSH2 0x253D JUMPI PUSH1 0x40 MLOAD PUSH32 0x542C5FE600000000000000000000000000000000000000000000000000000000 DUP2 MSTORE PUSH1 0x4 ADD PUSH1 0x40 MLOAD DUP1 SWAP2 SUB SWAP1 REVERT JUMPDEST PUSH1 0x1 ISZERO ISZERO PUSH2 0x2549 PUSH2 0xF2B JUMP JUMPDEST ISZERO ISZERO EQ PUSH2 0x2582 JUMPI PUSH1 0x40 MLOAD PUSH32 0x2557AA1900000000000000000000000000000000000000000000000000000000 DUP2 MSTORE PUSH1 0x4 ADD PUSH1 0x40 MLOAD DUP1 SWAP2 SUB SWAP1 REVERT JUMPDEST PUSH1 0x1 PUSH2 0x258D CALLER PUSH2 0x1CEF JUMP JUMPDEST LT PUSH2 0x25C4 JUMPI PUSH1 0x40 MLOAD PUSH32 0x83B284D500000000000000000000000000000000000000000000000000000000 DUP2 MSTORE PUSH1 0x4 ADD PUSH1 0x40 MLOAD DUP1 SWAP2 SUB SWAP1 REVERT JUMPDEST PUSH2 0x295C PUSH1 0x9 SLOAD LT PUSH2 0x2601 JUMPI PUSH1 0x40 MLOAD PUSH32 0x4BC055EE00000000000000000000000000000000000000000000000000000000 DUP2 MSTORE PUSH1 0x4 ADD PUSH1 0x40 MLOAD DUP1 SWAP2 SUB SWAP1 REVERT JUMPDEST PUSH1 0x1 PUSH1 0x15 DUP3 PUSH1 0x40 MLOAD PUSH2 0x2613 SWAP2 SWAP1 PUSH2 0x4C6B JUMP JUMPDEST SWAP1 DUP2 MSTORE PUSH1 0x20 ADD PUSH1 0x40 MLOAD DUP1 SWAP2 SUB SWAP1 KECCAK256 PUSH1 0x0 SWAP1 SLOAD SWAP1 PUSH2 0x100 EXP SWAP1 DIV PUSH1 0xFF AND PUSH1 0xFF AND EQ ISZERO PUSH2 0x266A JUMPI PUSH1 0x40 MLOAD PUSH32 0x5EED8C8100000000000000000000000000000000000000000000000000000000 DUP2 MSTORE PUSH1 0x4 ADD PUSH1 0x40 MLOAD DUP1 SWAP2 SUB SWAP1 REVERT JUMPDEST PUSH1 0x12 SLOAD CALLVALUE LT ISZERO PUSH2 0x26A6 JUMPI PUSH1 0x40 MLOAD PUSH32 0xC813754A00000000000000000000000000000000000000000000000000000000 DUP2 MSTORE PUSH1 0x4 ADD PUSH1 0x40 MLOAD DUP1 SWAP2 SUB SWAP1 REVERT JUMPDEST PUSH1 0x0 PUSH1 0x9 SLOAD SWAP1 POP PUSH1 0x1 PUSH1 0x9 SLOAD PUSH2 0x26BC SWAP2 SWAP1 PUSH2 0x506F JUMP JUMPDEST PUSH1 0x9 DUP2 SWAP1 SSTORE POP PUSH1 0x1 PUSH1 0xD SLOAD PUSH2 0x26D1 SWAP2 SWAP1 PUSH2 0x506F JUMP JUMPDEST PUSH1 0xD DUP2 SWAP1 SSTORE POP PUSH1 0x1 PUSH1 0x15 DUP6 PUSH1 0x40 MLOAD PUSH2 0x26E9 SWAP2 SWAP1 PUSH2 0x4C6B JUMP JUMPDEST SWAP1 DUP2 MSTORE PUSH1 0x20 ADD PUSH1 0x40 MLOAD DUP1 SWAP2 SUB SWAP1 KECCAK256 PUSH1 0x0 PUSH2 0x100 EXP DUP2 SLOAD DUP2 PUSH1 0xFF MUL NOT AND SWAP1 DUP4 PUSH1 0xFF AND MUL OR SWAP1 SSTORE POP PUSH2 0x2719 CALLER DUP3 PUSH2 0x3349 JUMP JUMPDEST PUSH2 0x2723 DUP2 DUP6 PUSH2 0x3523 JUMP JUMPDEST PUSH1 0x9 SLOAD SWAP3 POP POP POP PUSH1 0x1 PUSH1 0x8 DUP2 SWAP1 SSTORE POP SWAP2 SWAP1 POP JUMP JUMPDEST PUSH2 0x273F PUSH2 0x36A3 JUMP JUMPDEST PUSH1 0x0 PUSH1 0x9 SLOAD SWAP1 POP PUSH1 0x1 PUSH1 0x9 SLOAD PUSH2 0x2755 SWAP2 SWAP1 PUSH2 0x506F JUMP JUMPDEST PUSH1 0x9 DUP2 SWAP1 SSTORE POP PUSH1 0x1 PUSH1 0x15 DUP4 PUSH1 0x40 MLOAD PUSH2 0x276D SWAP2 SWAP1 PUSH2 0x4C6B JUMP JUMPDEST SWAP1 DUP2 MSTORE PUSH1 0x20 ADD PUSH1 0x40 MLOAD DUP1 SWAP2 SUB SWAP1 KECCAK256 PUSH1 0x0 PUSH2 0x100 EXP DUP2 SLOAD DUP2 PUSH1 0xFF MUL NOT AND SWAP1 DUP4 PUSH1 0xFF AND MUL OR SWAP1 SSTORE POP PUSH2 0x279D DUP4 DUP3 PUSH2 0x3E85 JUMP JUMPDEST PUSH2 0x27A7 DUP2 DUP4 PUSH2 0x3523 JUMP JUMPDEST POP POP POP JUMP JUMPDEST PUSH1 0x0 PUSH1 0xD SLOAD SWAP1 POP SWAP1 JUMP JUMPDEST PUSH1 0x0 PUSH1 0x2 PUSH1 0x8 SLOAD EQ ISZERO PUSH2 0x27FE JUMPI PUSH1 0x40 MLOAD PUSH32 0x8C379A000000000000000000000000000000000000000000000000000000000 DUP2 MSTORE PUSH1 0x4 ADD PUSH2 0x27F5 SWAP1 PUSH2 0x4F5F JUMP JUMPDEST PUSH1 0x40 MLOAD DUP1 SWAP2 SUB SWAP1 REVERT JUMPDEST PUSH1 0x2 PUSH1 0x8 DUP2 SWAP1 SSTORE POP DUP2 PUSH1 0x1 ISZERO ISZERO PUSH1 0x14 PUSH1 0x0 SWAP1 SLOAD SWAP1 PUSH2 0x100 EXP SWAP1 DIV PUSH1 0xFF AND ISZERO ISZERO EQ PUSH2 0x2854 JUMPI PUSH1 0x40 MLOAD PUSH32 0xAEA22E0800000000000000000000000000000000000000000000000000000000 DUP2 MSTORE PUSH1 0x4 ADD PUSH1 0x40 MLOAD DUP1 SWAP2 SUB SWAP1 REVERT JUMPDEST PUSH2 0x295C PUSH1 0x9 SLOAD LT PUSH2 0x2891 JUMPI PUSH1 0x40 MLOAD PUSH32 0x4BC055EE00000000000000000000000000000000000000000000000000000000 DUP2 MSTORE PUSH1 0x4 ADD PUSH1 0x40 MLOAD DUP1 SWAP2 SUB SWAP1 REVERT JUMPDEST PUSH1 0x1 PUSH1 0x15 DUP3 PUSH1 0x40 MLOAD PUSH2 0x28A3 SWAP2 SWAP1 PUSH2 0x4C6B JUMP JUMPDEST SWAP1 DUP2 MSTORE PUSH1 0x20 ADD PUSH1 0x40 MLOAD DUP1 SWAP2 SUB SWAP1 KECCAK256 PUSH1 0x0 SWAP1 SLOAD SWAP1 PUSH2 0x100 EXP SWAP1 DIV PUSH1 0xFF AND PUSH1 0xFF AND EQ ISZERO PUSH2 0x28FA JUMPI PUSH1 0x40 MLOAD PUSH32 0x5EED8C8100000000000000000000000000000000000000000000000000000000 DUP2 MSTORE PUSH1 0x4 ADD PUSH1 0x40 MLOAD DUP1 SWAP2 SUB SWAP1 REVERT JUMPDEST PUSH1 0x28 PUSH1 0xA SLOAD LT PUSH2 0x2936 JUMPI PUSH1 0x40 MLOAD PUSH32 0x47ED50F00000000000000000000000000000000000000000000000000000000 DUP2 MSTORE PUSH1 0x4 ADD PUSH1 0x40 MLOAD DUP1 SWAP2 SUB SWAP1 REVERT JUMPDEST PUSH1 0xF SLOAD CALLVALUE LT ISZERO PUSH2 0x2972 JUMPI PUSH1 0x40 MLOAD PUSH32 0xC813754A00000000000000000000000000000000000000000000000000000000 DUP2 MSTORE PUSH1 0x4 ADD PUSH1 0x40 MLOAD DUP1 SWAP2 SUB SWAP1 REVERT JUMPDEST PUSH1 0x0 PUSH1 0x9 SLOAD SWAP1 POP PUSH1 0x1 PUSH1 0x9 SLOAD PUSH2 0x2988 SWAP2 SWAP1 PUSH2 0x506F JUMP JUMPDEST PUSH1 0x9 DUP2 SWAP1 SSTORE POP PUSH1 0x1 PUSH1 0xA SLOAD PUSH2 0x299D SWAP2 SWAP1 PUSH2 0x506F JUMP JUMPDEST PUSH1 0xA DUP2 SWAP1 SSTORE POP PUSH1 0x1 PUSH1 0x15 DUP6 PUSH1 0x40 MLOAD PUSH2 0x29B5 SWAP2 SWAP1 PUSH2 0x4C6B JUMP JUMPDEST SWAP1 DUP2 MSTORE PUSH1 0x20 ADD PUSH1 0x40 MLOAD DUP1 SWAP2 SUB SWAP1 KECCAK256 PUSH1 0x0 PUSH2 0x100 EXP DUP2 SLOAD DUP2 PUSH1 0xFF MUL NOT AND SWAP1 DUP4 PUSH1 0xFF AND MUL OR SWAP1 SSTORE POP PUSH2 0x29E5 CALLER DUP3 PUSH2 0x3349 JUMP JUMPDEST PUSH2 0x29EF DUP2 DUP6 PUSH2 0x3523 JUMP JUMPDEST PUSH1 0x9 SLOAD SWAP3 POP POP POP PUSH1 0x1 PUSH1 0x8 DUP2 SWAP1 SSTORE POP SWAP2 SWAP1 POP JUMP JUMPDEST PUSH1 0x0 PUSH1 0x2 PUSH1 0x8 SLOAD EQ ISZERO PUSH2 0x2A4B JUMPI PUSH1 0x40 MLOAD PUSH32 0x8C379A000000000000000000000000000000000000000000000000000000000 DUP2 MSTORE PUSH1 0x4 ADD PUSH2 0x2A42 SWAP1 PUSH2 0x4F5F JUMP JUMPDEST PUSH1 0x40 MLOAD DUP1 SWAP2 SUB SWAP1 REVERT JUMPDEST PUSH1 0x2 PUSH1 0x8 DUP2 SWAP1 SSTORE POP DUP2 PUSH1 0x1 ISZERO ISZERO PUSH1 0x14 PUSH1 0x1 SWAP1 SLOAD SWAP1 PUSH2 0x100 EXP SWAP1 DIV PUSH1 0xFF AND ISZERO ISZERO EQ PUSH2 0x2AA1 JUMPI PUSH1 0x40 MLOAD PUSH32 0x542C5FE600000000000000000000000000000000000000000000000000000000 DUP2 MSTORE PUSH1 0x4 ADD PUSH1 0x40 MLOAD DUP1 SWAP2 SUB SWAP1 REVERT JUMPDEST PUSH1 0x1 ISZERO ISZERO PUSH2 0x2AAD PUSH2 0xF2B JUMP JUMPDEST ISZERO ISZERO EQ PUSH2 0x2AE6 JUMPI PUSH1 0x40 MLOAD PUSH32 0x2557AA1900000000000000000000000000000000000000000000000000000000 DUP2 MSTORE PUSH1 0x4 ADD PUSH1 0x40 MLOAD DUP1 SWAP2 SUB SWAP1 REVERT JUMPDEST PUSH1 0x1 PUSH2 0x2AF1 CALLER PUSH2 0x1CEF JUMP JUMPDEST LT PUSH2 0x2B28 JUMPI PUSH1 0x40 MLOAD PUSH32 0x83B284D500000000000000000000000000000000000000000000000000000000 DUP2 MSTORE PUSH1 0x4 ADD PUSH1 0x40 MLOAD DUP1 SWAP2 SUB SWAP1 REVERT JUMPDEST PUSH2 0x295C PUSH1 0x9 SLOAD LT PUSH2 0x2B65 JUMPI PUSH1 0x40 MLOAD PUSH32 0x4BC055EE00000000000000000000000000000000000000000000000000000000 DUP2 MSTORE PUSH1 0x4 ADD PUSH1 0x40 MLOAD DUP1 SWAP2 SUB SWAP1 REVERT JUMPDEST PUSH1 0x1 PUSH1 0x15 DUP3 PUSH1 0x40 MLOAD PUSH2 0x2B77 SWAP2 SWAP1 PUSH2 0x4C6B JUMP JUMPDEST SWAP1 DUP2 MSTORE PUSH1 0x20 ADD PUSH1 0x40 MLOAD DUP1 SWAP2 SUB SWAP1 KECCAK256 PUSH1 0x0 SWAP1 SLOAD SWAP1 PUSH2 0x100 EXP SWAP1 DIV PUSH1 0xFF AND PUSH1 0xFF AND EQ ISZERO PUSH2 0x2BCE JUMPI PUSH1 0x40 MLOAD PUSH32 0x5EED8C8100000000000000000000000000000000000000000000000000000000 DUP2 MSTORE PUSH1 0x4 ADD PUSH1 0x40 MLOAD DUP1 SWAP2 SUB SWAP1 REVERT JUMPDEST PUSH1 0x11 SLOAD CALLVALUE LT ISZERO PUSH2 0x2C0A JUMPI PUSH1 0x40 MLOAD PUSH32 0xC813754A00000000000000000000000000000000000000000000000000000000 DUP2 MSTORE PUSH1 0x4 ADD PUSH1 0x40 MLOAD DUP1 SWAP2 SUB SWAP1 REVERT JUMPDEST PUSH1 0x0 PUSH1 0x9 SLOAD SWAP1 POP PUSH1 0x1 PUSH1 0x9 SLOAD PUSH2 0x2C20 SWAP2 SWAP1 PUSH2 0x506F JUMP JUMPDEST PUSH1 0x9 DUP2 SWAP1 SSTORE POP PUSH1 0x1 PUSH1 0xC SLOAD PUSH2 0x2C35 SWAP2 SWAP1 PUSH2 0x506F JUMP JUMPDEST PUSH1 0xC DUP2 SWAP1 SSTORE POP PUSH1 0x1 PUSH1 0x15 DUP6 PUSH1 0x40 MLOAD PUSH2 0x2C4D SWAP2 SWAP1 PUSH2 0x4C6B JUMP JUMPDEST SWAP1 DUP2 MSTORE PUSH1 0x20 ADD PUSH1 0x40 MLOAD DUP1 SWAP2 SUB SWAP1 KECCAK256 PUSH1 0x0 PUSH2 0x100 EXP DUP2 SLOAD DUP2 PUSH1 0xFF MUL NOT AND SWAP1 DUP4 PUSH1 0xFF AND MUL OR SWAP1 SSTORE POP PUSH2 0x2C7D CALLER DUP3 PUSH2 0x3349 JUMP JUMPDEST PUSH2 0x2C87 DUP2 DUP6 PUSH2 0x3523 JUMP JUMPDEST PUSH1 0x9 SLOAD SWAP3 POP POP POP PUSH1 0x1 PUSH1 0x8 DUP2 SWAP1 SSTORE POP SWAP2 SWAP1 POP JUMP JUMPDEST PUSH1 0x0 PUSH1 0x2 PUSH1 0x8 SLOAD EQ ISZERO PUSH2 0x2CE3 JUMPI PUSH1 0x40 MLOAD PUSH32 0x8C379A000000000000000000000000000000000000000000000000000000000 DUP2 MSTORE PUSH1 0x4 ADD PUSH2 0x2CDA SWAP1 PUSH2 0x4F5F JUMP JUMPDEST PUSH1 0x40 MLOAD DUP1 SWAP2 SUB SWAP1 REVERT JUMPDEST PUSH1 0x2 PUSH1 0x8 DUP2 SWAP1 SSTORE POP DUP2 PUSH1 0x1 ISZERO ISZERO PUSH1 0x14 PUSH1 0x1 SWAP1 SLOAD SWAP1 PUSH2 0x100 EXP SWAP1 DIV PUSH1 0xFF AND ISZERO ISZERO EQ PUSH2 0x2D39 JUMPI PUSH1 0x40 MLOAD PUSH32 0x542C5FE600000000000000000000000000000000000000000000000000000000 DUP2 MSTORE PUSH1 0x4 ADD PUSH1 0x40 MLOAD DUP1 SWAP2 SUB SWAP1 REVERT JUMPDEST PUSH1 0x1 ISZERO ISZERO PUSH2 0x2D45 PUSH2 0xF2B JUMP JUMPDEST ISZERO ISZERO EQ PUSH2 0x2D7E JUMPI PUSH1 0x40 MLOAD PUSH32 0x2557AA1900000000000000000000000000000000000000000000000000000000 DUP2 MSTORE PUSH1 0x4 ADD PUSH1 0x40 MLOAD DUP1 SWAP2 SUB SWAP1 REVERT JUMPDEST PUSH1 0x1 PUSH2 0x2D89 CALLER PUSH2 0x1CEF JUMP JUMPDEST LT PUSH2 0x2DC0 JUMPI PUSH1 0x40 MLOAD PUSH32 0x83B284D500000000000000000000000000000000000000000000000000000000 DUP2 MSTORE PUSH1 0x4 ADD PUSH1 0x40 MLOAD DUP1 SWAP2 SUB SWAP1 REVERT JUMPDEST PUSH2 0x295C PUSH1 0x9 SLOAD LT PUSH2 0x2DFD JUMPI PUSH1 0x40 MLOAD PUSH32 0x4BC055EE00000000000000000000000000000000000000000000000000000000 DUP2 MSTORE PUSH1 0x4 ADD PUSH1 0x40 MLOAD DUP1 SWAP2 SUB SWAP1 REVERT JUMPDEST PUSH1 0x1 PUSH1 0x15 DUP3 PUSH1 0x40 MLOAD PUSH2 0x2E0F SWAP2 SWAP1 PUSH2 0x4C6B JUMP JUMPDEST SWAP1 DUP2 MSTORE PUSH1 0x20 ADD PUSH1 0x40 MLOAD DUP1 SWAP2 SUB SWAP1 KECCAK256 PUSH1 0x0 SWAP1 SLOAD SWAP1 PUSH2 0x100 EXP SWAP1 DIV PUSH1 0xFF AND PUSH1 0xFF AND EQ ISZERO PUSH2 0x2E66 JUMPI PUSH1 0x40 MLOAD PUSH32 0x5EED8C8100000000000000000000000000000000000000000000000000000000 DUP2 MSTORE PUSH1 0x4 ADD PUSH1 0x40 MLOAD DUP1 SWAP2 SUB SWAP1 REVERT JUMPDEST PUSH1 0x10 SLOAD CALLVALUE LT ISZERO PUSH2 0x2EA2 JUMPI PUSH1 0x40 MLOAD PUSH32 0xC813754A00000000000000000000000000000000000000000000000000000000 DUP2 MSTORE PUSH1 0x4 ADD PUSH1 0x40 MLOAD DUP1 SWAP2 SUB SWAP1 REVERT JUMPDEST PUSH1 0x0 PUSH1 0x9 SLOAD SWAP1 POP PUSH1 0x1 PUSH1 0x9 SLOAD PUSH2 0x2EB8 SWAP2 SWAP1 PUSH2 0x506F JUMP JUMPDEST PUSH1 0x9 DUP2 SWAP1 SSTORE POP PUSH1 0x1 PUSH1 0xB SLOAD PUSH2 0x2ECD SWAP2 SWAP1 PUSH2 0x506F JUMP JUMPDEST PUSH1 0xB DUP2 SWAP1 SSTORE POP PUSH1 0x1 PUSH1 0x15 DUP6 PUSH1 0x40 MLOAD PUSH2 0x2EE5 SWAP2 SWAP1 PUSH2 0x4C6B JUMP JUMPDEST SWAP1 DUP2 MSTORE PUSH1 0x20 ADD PUSH1 0x40 MLOAD DUP1 SWAP2 SUB SWAP1 KECCAK256 PUSH1 0x0 PUSH2 0x100 EXP DUP2 SLOAD DUP2 PUSH1 0xFF MUL NOT AND SWAP1 DUP4 PUSH1 0xFF AND MUL OR SWAP1 SSTORE POP PUSH2 0x2F15 CALLER DUP3 PUSH2 0x3349 JUMP JUMPDEST PUSH2 0x2F1F DUP2 DUP6 PUSH2 0x3523 JUMP JUMPDEST PUSH1 0x9 SLOAD SWAP3 POP POP POP PUSH1 0x1 PUSH1 0x8 DUP2 SWAP1 SSTORE POP SWAP2 SWAP1 POP JUMP JUMPDEST PUSH2 0x2F3B PUSH2 0x36A3 JUMP JUMPDEST DUP1 PUSH1 0xF DUP2 SWAP1 SSTORE POP POP JUMP JUMPDEST PUSH1 0x0 PUSH1 0x2 PUSH1 0x8 SLOAD EQ ISZERO PUSH2 0x2F8D JUMPI PUSH1 0x40 MLOAD PUSH32 0x8C379A000000000000000000000000000000000000000000000000000000000 DUP2 MSTORE PUSH1 0x4 ADD PUSH2 0x2F84 SWAP1 PUSH2 0x4F5F JUMP JUMPDEST PUSH1 0x40 MLOAD DUP1 SWAP2 SUB SWAP1 REVERT JUMPDEST PUSH1 0x2 PUSH1 0x8 DUP2 SWAP1 SSTORE POP DUP2 PUSH1 0x1 ISZERO ISZERO PUSH1 0x14 PUSH1 0x0 SWAP1 SLOAD SWAP1 PUSH2 0x100 EXP SWAP1 DIV PUSH1 0xFF AND ISZERO ISZERO EQ PUSH2 0x2FE3 JUMPI PUSH1 0x40 MLOAD PUSH32 0xAEA22E0800000000000000000000000000000000000000000000000000000000 DUP2 MSTORE PUSH1 0x4 ADD PUSH1 0x40 MLOAD DUP1 SWAP2 SUB SWAP1 REVERT JUMPDEST PUSH2 0x295C PUSH1 0x9 SLOAD LT PUSH2 0x3020 JUMPI PUSH1 0x40 MLOAD PUSH32 0x4BC055EE00000000000000000000000000000000000000000000000000000000 DUP2 MSTORE PUSH1 0x4 ADD PUSH1 0x40 MLOAD DUP1 SWAP2 SUB SWAP1 REVERT JUMPDEST PUSH1 0x1 PUSH1 0x15 DUP3 PUSH1 0x40 MLOAD PUSH2 0x3032 SWAP2 SWAP1 PUSH2 0x4C6B JUMP JUMPDEST SWAP1 DUP2 MSTORE PUSH1 0x20 ADD PUSH1 0x40 MLOAD DUP1 SWAP2 SUB SWAP1 KECCAK256 PUSH1 0x0 SWAP1 SLOAD SWAP1 PUSH2 0x100 EXP SWAP1 DIV PUSH1 0xFF AND PUSH1 0xFF AND EQ ISZERO PUSH2 0x3089 JUMPI PUSH1 0x40 MLOAD PUSH32 0x5EED8C8100000000000000000000000000000000000000000000000000000000 DUP2 MSTORE PUSH1 0x4 ADD PUSH1 0x40 MLOAD DUP1 SWAP2 SUB SWAP1 REVERT JUMPDEST PUSH2 0xB40 PUSH1 0xD SLOAD LT PUSH2 0x30C6 JUMPI PUSH1 0x40 MLOAD PUSH32 0x47ED50F00000000000000000000000000000000000000000000000000000000 DUP2 MSTORE PUSH1 0x4 ADD PUSH1 0x40 MLOAD DUP1 SWAP2 SUB SWAP1 REVERT JUMPDEST PUSH1 0x12 SLOAD CALLVALUE LT ISZERO PUSH2 0x3102 JUMPI PUSH1 0x40 MLOAD PUSH32 0xC813754A00000000000000000000000000000000000000000000000000000000 DUP2 MSTORE PUSH1 0x4 ADD PUSH1 0x40 MLOAD DUP1 SWAP2 SUB SWAP1 REVERT JUMPDEST PUSH1 0x0 PUSH1 0x9 SLOAD SWAP1 POP PUSH1 0x1 PUSH1 0x9 SLOAD PUSH2 0x3118 SWAP2 SWAP1 PUSH2 0x506F JUMP JUMPDEST PUSH1 0x9 DUP2 SWAP1 SSTORE POP PUSH1 0x1 PUSH1 0xD SLOAD PUSH2 0x312D SWAP2 SWAP1 PUSH2 0x506F JUMP JUMPDEST PUSH1 0xD DUP2 SWAP1 SSTORE POP PUSH1 0x1 PUSH1 0x15 DUP6 PUSH1 0x40 MLOAD PUSH2 0x3145 SWAP2 SWAP1 PUSH2 0x4C6B JUMP JUMPDEST SWAP1 DUP2 MSTORE PUSH1 0x20 ADD PUSH1 0x40 MLOAD DUP1 SWAP2 SUB SWAP1 KECCAK256 PUSH1 0x0 PUSH2 0x100 EXP DUP2 SLOAD DUP2 PUSH1 0xFF MUL NOT AND SWAP1 DUP4 PUSH1 0xFF AND MUL OR SWAP1 SSTORE POP PUSH2 0x3175 CALLER DUP3 PUSH2 0x3349 JUMP JUMPDEST PUSH2 0x317F DUP2 DUP6 PUSH2 0x3523 JUMP JUMPDEST PUSH1 0x9 SLOAD SWAP3 POP POP POP PUSH1 0x1 PUSH1 0x8 DUP2 SWAP1 SSTORE POP SWAP2 SWAP1 POP JUMP JUMPDEST PUSH1 0x60 PUSH1 0x40 MLOAD DUP1 PUSH1 0x60 ADD PUSH1 0x40 MSTORE DUP1 PUSH1 0x35 DUP2 MSTORE PUSH1 0x20 ADD PUSH2 0x5853 PUSH1 0x35 SWAP2 CODECOPY SWAP1 POP SWAP1 JUMP JUMPDEST PUSH1 0x0 PUSH1 0xC SLOAD SWAP1 POP SWAP1 JUMP JUMPDEST PUSH1 0x0 PUSH1 0x5 PUSH1 0x0 DUP5 PUSH20 0xFFFFFFFFFFFFFFFFFFFFFFFFFFFFFFFFFFFFFFFF AND PUSH20 0xFFFFFFFFFFFFFFFFFFFFFFFFFFFFFFFFFFFFFFFF AND DUP2 MSTORE PUSH1 0x20 ADD SWAP1 DUP2 MSTORE PUSH1 0x20 ADD PUSH1 0x0 KECCAK256 PUSH1 0x0 DUP4 PUSH20 0xFFFFFFFFFFFFFFFFFFFFFFFFFFFFFFFFFFFFFFFF AND PUSH20 0xFFFFFFFFFFFFFFFFFFFFFFFFFFFFFFFFFFFFFFFF AND DUP2 MSTORE PUSH1 0x20 ADD SWAP1 DUP2 MSTORE PUSH1 0x20 ADD PUSH1 0x0 KECCAK256 PUSH1 0x0 SWAP1 SLOAD SWAP1 PUSH2 0x100 EXP SWAP1 DIV PUSH1 0xFF AND SWAP1 POP SWAP3 SWAP2 POP POP JUMP JUMPDEST PUSH1 0x0 PUSH1 0xB SLOAD SWAP1 POP SWAP1 JUMP JUMPDEST PUSH2 0x3263 PUSH2 0x36A3 JUMP JUMPDEST PUSH1 0x0 PUSH20 0xFFFFFFFFFFFFFFFFFFFFFFFFFFFFFFFFFFFFFFFF AND DUP2 PUSH20 0xFFFFFFFFFFFFFFFFFFFFFFFFFFFFFFFFFFFFFFFF AND EQ ISZERO PUSH2 0x32D3 JUMPI PUSH1 0x40 MLOAD PUSH32 0x8C379A000000000000000000000000000000000000000000000000000000000 DUP2 MSTORE PUSH1 0x4 ADD PUSH2 0x32CA SWAP1 PUSH2 0x4D9F JUMP JUMPDEST PUSH1 0x40 MLOAD DUP1 SWAP2 SUB SWAP1 REVERT JUMPDEST PUSH2 0x32DC DUP2 PUSH2 0x3A80 JUMP JUMPDEST POP JUMP JUMPDEST PUSH1 0x0 PUSH32 0x1FFC9A700000000000000000000000000000000000000000000000000000000 PUSH28 0xFFFFFFFFFFFFFFFFFFFFFFFFFFFFFFFFFFFFFFFFFFFFFFFFFFFFFFFF NOT AND DUP3 PUSH28 0xFFFFFFFFFFFFFFFFFFFFFFFFFFFFFFFFFFFFFFFFFFFFFFFFFFFFFFFF NOT AND EQ SWAP1 POP SWAP2 SWAP1 POP JUMP JUMPDEST PUSH1 0x0 PUSH20 0xFFFFFFFFFFFFFFFFFFFFFFFFFFFFFFFFFFFFFFFF AND DUP3 PUSH20 0xFFFFFFFFFFFFFFFFFFFFFFFFFFFFFFFFFFFFFFFF AND EQ ISZERO PUSH2 0x33B9 JUMPI PUSH1 0x40 MLOAD PUSH32 0x8C379A000000000000000000000000000000000000000000000000000000000 DUP2 MSTORE PUSH1 0x4 ADD PUSH2 0x33B0 SWAP1 PUSH2 0x4EBF JUMP JUMPDEST PUSH1 0x40 MLOAD DUP1 SWAP2 SUB SWAP1 REVERT JUMPDEST PUSH2 0x33C2 DUP2 PUSH2 0x3EA3 JUMP JUMPDEST ISZERO PUSH2 0x3402 JUMPI PUSH1 0x40 MLOAD PUSH32 0x8C379A000000000000000000000000000000000000000000000000000000000 DUP2 MSTORE PUSH1 0x4 ADD PUSH2 0x33F9 SWAP1 PUSH2 0x4DDF JUMP JUMPDEST PUSH1 0x40 MLOAD DUP1 SWAP2 SUB SWAP1 REVERT JUMPDEST PUSH2 0x340E PUSH1 0x0 DUP4 DUP4 PUSH2 0x3F0F JUMP JUMPDEST PUSH1 0x1 PUSH1 0x3 PUSH1 0x0 DUP5 PUSH20 0xFFFFFFFFFFFFFFFFFFFFFFFFFFFFFFFFFFFFFFFF AND PUSH20 0xFFFFFFFFFFFFFFFFFFFFFFFFFFFFFFFFFFFFFFFF AND DUP2 MSTORE PUSH1 0x20 ADD SWAP1 DUP2 MSTORE PUSH1 0x20 ADD PUSH1 0x0 KECCAK256 PUSH1 0x0 DUP3 DUP3 SLOAD PUSH2 0x345E SWAP2 SWAP1 PUSH2 0x506F JUMP JUMPDEST SWAP3 POP POP DUP2 SWAP1 SSTORE POP DUP2 PUSH1 0x2 PUSH1 0x0 DUP4 DUP2 MSTORE PUSH1 0x20 ADD SWAP1 DUP2 MSTORE PUSH1 0x20 ADD PUSH1 0x0 KECCAK256 PUSH1 0x0 PUSH2 0x100 EXP DUP2 SLOAD DUP2 PUSH20 0xFFFFFFFFFFFFFFFFFFFFFFFFFFFFFFFFFFFFFFFF MUL NOT AND SWAP1 DUP4 PUSH20 0xFFFFFFFFFFFFFFFFFFFFFFFFFFFFFFFFFFFFFFFF AND MUL OR SWAP1 SSTORE POP DUP1 DUP3 PUSH20 0xFFFFFFFFFFFFFFFFFFFFFFFFFFFFFFFFFFFFFFFF AND PUSH1 0x0 PUSH20 0xFFFFFFFFFFFFFFFFFFFFFFFFFFFFFFFFFFFFFFFF AND PUSH32 0xDDF252AD1BE2C89B69C2B068FC378DAA952BA7F163C4A11628F55A4DF523B3EF PUSH1 0x40 MLOAD PUSH1 0x40 MLOAD DUP1 SWAP2 SUB SWAP1 LOG4 PUSH2 0x351F PUSH1 0x0 DUP4 DUP4 PUSH2 0x3F27 JUMP JUMPDEST POP POP JUMP JUMPDEST PUSH2 0x352C DUP3 PUSH2 0x3EA3 JUMP JUMPDEST PUSH2 0x356B JUMPI PUSH1 0x40 MLOAD PUSH32 0x8C379A000000000000000000000000000000000000000000000000000000000 DUP2 MSTORE PUSH1 0x4 ADD PUSH2 0x3562 SWAP1 PUSH2 0x4E7F JUMP JUMPDEST PUSH1 0x40 MLOAD DUP1 SWAP2 SUB SWAP1 REVERT JUMPDEST DUP1 PUSH1 0x6 PUSH1 0x0 DUP5 DUP2 MSTORE PUSH1 0x20 ADD SWAP1 DUP2 MSTORE PUSH1 0x20 ADD PUSH1 0x0 KECCAK256 SWAP1 DUP1 MLOAD SWAP1 PUSH1 0x20 ADD SWAP1 PUSH2 0x3592 SWAP3 SWAP2 SWAP1 PUSH2 0x442B JUMP JUMPDEST POP POP POP JUMP JUMPDEST PUSH2 0x35A0 DUP2 PUSH2 0x3EA3 JUMP JUMPDEST PUSH2 0x35DF JUMPI PUSH1 0x40 MLOAD PUSH32 0x8C379A000000000000000000000000000000000000000000000000000000000 DUP2 MSTORE PUSH1 0x4 ADD PUSH2 0x35D6 SWAP1 PUSH2 0x4EFF JUMP JUMPDEST PUSH1 0x40 MLOAD DUP1 SWAP2 SUB SWAP1 REVERT JUMPDEST POP JUMP JUMPDEST PUSH1 0x0 CALLER SWAP1 POP SWAP1 JUMP JUMPDEST DUP2 PUSH1 0x4 PUSH1 0x0 DUP4 DUP2 MSTORE PUSH1 0x20 ADD SWAP1 DUP2 MSTORE PUSH1 0x20 ADD PUSH1 0x0 KECCAK256 PUSH1 0x0 PUSH2 0x100 EXP DUP2 SLOAD DUP2 PUSH20 0xFFFFFFFFFFFFFFFFFFFFFFFFFFFFFFFFFFFFFFFF MUL NOT AND SWAP1 DUP4 PUSH20 0xFFFFFFFFFFFFFFFFFFFFFFFFFFFFFFFFFFFFFFFF AND MUL OR SWAP1 SSTORE POP DUP1 DUP3 PUSH20 0xFFFFFFFFFFFFFFFFFFFFFFFFFFFFFFFFFFFFFFFF AND PUSH2 0x365D DUP4 PUSH2 0x19DD JUMP JUMPDEST PUSH20 0xFFFFFFFFFFFFFFFFFFFFFFFFFFFFFFFFFFFFFFFF AND PUSH32 0x8C5BE1E5EBEC7D5BD14F71427D1E84F3DD0314C0F7B2291E5B200AC8C7C3B925 PUSH1 0x40 MLOAD PUSH1 0x40 MLOAD DUP1 SWAP2 SUB SWAP1 LOG4 POP POP JUMP JUMPDEST PUSH2 0x36AB PUSH2 0x35E2 JUMP JUMPDEST PUSH20 0xFFFFFFFFFFFFFFFFFFFFFFFFFFFFFFFFFFFFFFFF AND PUSH2 0x36C9 PUSH2 0x2081 JUMP JUMPDEST PUSH20 0xFFFFFFFFFFFFFFFFFFFFFFFFFFFFFFFFFFFFFFFF AND EQ PUSH2 0x371F JUMPI PUSH1 0x40 MLOAD PUSH32 0x8C379A000000000000000000000000000000000000000000000000000000000 DUP2 MSTORE PUSH1 0x4 ADD PUSH2 0x3716 SWAP1 PUSH2 0x4EDF JUMP JUMPDEST PUSH1 0x40 MLOAD DUP1 SWAP2 SUB SWAP1 REVERT JUMPDEST JUMP JUMPDEST PUSH1 0x0 DUP1 PUSH2 0x372D DUP4 PUSH2 0x19DD JUMP JUMPDEST SWAP1 POP DUP1 PUSH20 0xFFFFFFFFFFFFFFFFFFFFFFFFFFFFFFFFFFFFFFFF AND DUP5 PUSH20 0xFFFFFFFFFFFFFFFFFFFFFFFFFFFFFFFFFFFFFFFF AND EQ DUP1 PUSH2 0x376F JUMPI POP PUSH2 0x376E DUP2 DUP6 PUSH2 0x31BD JUMP JUMPDEST JUMPDEST DUP1 PUSH2 0x37AD JUMPI POP DUP4 PUSH20 0xFFFFFFFFFFFFFFFFFFFFFFFFFFFFFFFFFFFFFFFF AND PUSH2 0x3795 DUP5 PUSH2 0x1074 JUMP JUMPDEST PUSH20 0xFFFFFFFFFFFFFFFFFFFFFFFFFFFFFFFFFFFFFFFF AND EQ JUMPDEST SWAP2 POP POP SWAP3 SWAP2 POP POP JUMP JUMPDEST DUP3 PUSH20 0xFFFFFFFFFFFFFFFFFFFFFFFFFFFFFFFFFFFFFFFF AND PUSH2 0x37D6 DUP3 PUSH2 0x19DD JUMP JUMPDEST PUSH20 0xFFFFFFFFFFFFFFFFFFFFFFFFFFFFFFFFFFFFFFFF AND EQ PUSH2 0x382C JUMPI PUSH1 0x40 MLOAD PUSH32 0x8C379A000000000000000000000000000000000000000000000000000000000 DUP2 MSTORE PUSH1 0x4 ADD PUSH2 0x3823 SWAP1 PUSH2 0x4DBF JUMP JUMPDEST PUSH1 0x40 MLOAD DUP1 SWAP2 SUB SWAP1 REVERT JUMPDEST PUSH1 0x0 PUSH20 0xFFFFFFFFFFFFFFFFFFFFFFFFFFFFFFFFFFFFFFFF AND DUP3 PUSH20 0xFFFFFFFFFFFFFFFFFFFFFFFFFFFFFFFFFFFFFFFF AND EQ ISZERO PUSH2 0x389C JUMPI PUSH1 0x40 MLOAD PUSH32 0x8C379A000000000000000000000000000000000000000000000000000000000 DUP2 MSTORE PUSH1 0x4 ADD PUSH2 0x3893 SWAP1 PUSH2 0x4DFF JUMP JUMPDEST PUSH1 0x40 MLOAD DUP1 SWAP2 SUB SWAP1 REVERT JUMPDEST PUSH2 0x38A7 DUP4 DUP4 DUP4 PUSH2 0x3F0F JUMP JUMPDEST PUSH2 0x38B2 PUSH1 0x0 DUP3 PUSH2 0x35EA JUMP JUMPDEST PUSH1 0x1 PUSH1 0x3 PUSH1 0x0 DUP6 PUSH20 0xFFFFFFFFFFFFFFFFFFFFFFFFFFFFFFFFFFFFFFFF AND PUSH20 0xFFFFFFFFFFFFFFFFFFFFFFFFFFFFFFFFFFFFFFFF AND DUP2 MSTORE PUSH1 0x20 ADD SWAP1 DUP2 MSTORE PUSH1 0x20 ADD PUSH1 0x0 KECCAK256 PUSH1 0x0 DUP3 DUP3 SLOAD PUSH2 0x3902 SWAP2 SWAP1 PUSH2 0x5150 JUMP JUMPDEST SWAP3 POP POP DUP2 SWAP1 SSTORE POP PUSH1 0x1 PUSH1 0x3 PUSH1 0x0 DUP5 PUSH20 0xFFFFFFFFFFFFFFFFFFFFFFFFFFFFFFFFFFFFFFFF AND PUSH20 0xFFFFFFFFFFFFFFFFFFFFFFFFFFFFFFFFFFFFFFFF AND DUP2 MSTORE PUSH1 0x20 ADD SWAP1 DUP2 MSTORE PUSH1 0x20 ADD PUSH1 0x0 KECCAK256 PUSH1 0x0 DUP3 DUP3 SLOAD PUSH2 0x3959 SWAP2 SWAP1 PUSH2 0x506F JUMP JUMPDEST SWAP3 POP POP DUP2 SWAP1 SSTORE POP DUP2 PUSH1 0x2 PUSH1 0x0 DUP4 DUP2 MSTORE PUSH1 0x20 ADD SWAP1 DUP2 MSTORE PUSH1 0x20 ADD PUSH1 0x0 KECCAK256 PUSH1 0x0 PUSH2 0x100 EXP DUP2 SLOAD DUP2 PUSH20 0xFFFFFFFFFFFFFFFFFFFFFFFFFFFFFFFFFFFFFFFF MUL NOT AND SWAP1 DUP4 PUSH20 0xFFFFFFFFFFFFFFFFFFFFFFFFFFFFFFFFFFFFFFFF AND MUL OR SWAP1 SSTORE POP DUP1 DUP3 PUSH20 0xFFFFFFFFFFFFFFFFFFFFFFFFFFFFFFFFFFFFFFFF AND DUP5 PUSH20 0xFFFFFFFFFFFFFFFFFFFFFFFFFFFFFFFFFFFFFFFF AND PUSH32 0xDDF252AD1BE2C89B69C2B068FC378DAA952BA7F163C4A11628F55A4DF523B3EF PUSH1 0x40 MLOAD PUSH1 0x40 MLOAD DUP1 SWAP2 SUB SWAP1 LOG4 PUSH2 0x3A18 DUP4 DUP4 DUP4 PUSH2 0x3F27 JUMP JUMPDEST POP POP POP JUMP JUMPDEST PUSH2 0x3A25 PUSH2 0x3F2C JUMP JUMPDEST PUSH1 0x0 PUSH1 0x7 PUSH1 0x0 PUSH2 0x100 EXP DUP2 SLOAD DUP2 PUSH1 0xFF MUL NOT AND SWAP1 DUP4 ISZERO ISZERO MUL OR SWAP1 SSTORE POP PUSH32 0x5DB9EE0A495BF2E6FF9C91A7834C1BA4FDD244A5E8AA4E537BD38AEAE4B073AA PUSH2 0x3A69 PUSH2 0x35E2 JUMP JUMPDEST PUSH1 0x40 MLOAD PUSH2 0x3A76 SWAP2 SWAP1 PUSH2 0x4CBB JUMP JUMPDEST PUSH1 0x40 MLOAD DUP1 SWAP2 SUB SWAP1 LOG1 JUMP JUMPDEST PUSH1 0x0 PUSH1 0x7 PUSH1 0x1 SWAP1 SLOAD SWAP1 PUSH2 0x100 EXP SWAP1 DIV PUSH20 0xFFFFFFFFFFFFFFFFFFFFFFFFFFFFFFFFFFFFFFFF AND SWAP1 POP DUP2 PUSH1 0x7 PUSH1 0x1 PUSH2 0x100 EXP DUP2 SLOAD DUP2 PUSH20 0xFFFFFFFFFFFFFFFFFFFFFFFFFFFFFFFFFFFFFFFF MUL NOT AND SWAP1 DUP4 PUSH20 0xFFFFFFFFFFFFFFFFFFFFFFFFFFFFFFFFFFFFFFFF AND MUL OR SWAP1 SSTORE POP DUP2 PUSH20 0xFFFFFFFFFFFFFFFFFFFFFFFFFFFFFFFFFFFFFFFF AND DUP2 PUSH20 0xFFFFFFFFFFFFFFFFFFFFFFFFFFFFFFFFFFFFFFFF AND PUSH32 0x8BE0079C531659141344CD1FD0A4F28419497F9722A3DAAFE3B4186F6B6457E0 PUSH1 0x40 MLOAD PUSH1 0x40 MLOAD DUP1 SWAP2 SUB SWAP1 LOG3 POP POP JUMP JUMPDEST PUSH2 0x3B4E PUSH2 0x3F75 JUMP JUMPDEST PUSH1 0x1 PUSH1 0x7 PUSH1 0x0 PUSH2 0x100 EXP DUP2 SLOAD DUP2 PUSH1 0xFF MUL NOT AND SWAP1 DUP4 ISZERO ISZERO MUL OR SWAP1 SSTORE POP PUSH32 0x62E78CEA01BEE320CD4E420270B5EA74000D11B0C9F74754EBDBFC544B05A258 PUSH2 0x3B92 PUSH2 0x35E2 JUMP JUMPDEST PUSH1 0x40 MLOAD PUSH2 0x3B9F SWAP2 SWAP1 PUSH2 0x4CBB JUMP JUMPDEST PUSH1 0x40 MLOAD DUP1 SWAP2 SUB SWAP1 LOG1 JUMP JUMPDEST DUP2 PUSH20 0xFFFFFFFFFFFFFFFFFFFFFFFFFFFFFFFFFFFFFFFF AND DUP4 PUSH20 0xFFFFFFFFFFFFFFFFFFFFFFFFFFFFFFFFFFFFFFFF AND EQ ISZERO PUSH2 0x3C18 JUMPI PUSH1 0x40 MLOAD PUSH32 0x8C379A000000000000000000000000000000000000000000000000000000000 DUP2 MSTORE PUSH1 0x4 ADD PUSH2 0x3C0F SWAP1 PUSH2 0x4E1F JUMP JUMPDEST PUSH1 0x40 MLOAD DUP1 SWAP2 SUB SWAP1 REVERT JUMPDEST DUP1 PUSH1 0x5 PUSH1 0x0 DUP6 PUSH20 0xFFFFFFFFFFFFFFFFFFFFFFFFFFFFFFFFFFFFFFFF AND PUSH20 0xFFFFFFFFFFFFFFFFFFFFFFFFFFFFFFFFFFFFFFFF AND DUP2 MSTORE PUSH1 0x20 ADD SWAP1 DUP2 MSTORE PUSH1 0x20 ADD PUSH1 0x0 KECCAK256 PUSH1 0x0 DUP5 PUSH20 0xFFFFFFFFFFFFFFFFFFFFFFFFFFFFFFFFFFFFFFFF AND PUSH20 0xFFFFFFFFFFFFFFFFFFFFFFFFFFFFFFFFFFFFFFFF AND DUP2 MSTORE PUSH1 0x20 ADD SWAP1 DUP2 MSTORE PUSH1 0x20 ADD PUSH1 0x0 KECCAK256 PUSH1 0x0 PUSH2 0x100 EXP DUP2 SLOAD DUP2 PUSH1 0xFF MUL NOT AND SWAP1 DUP4 ISZERO ISZERO MUL OR SWAP1 SSTORE POP DUP2 PUSH20 0xFFFFFFFFFFFFFFFFFFFFFFFFFFFFFFFFFFFFFFFF AND DUP4 PUSH20 0xFFFFFFFFFFFFFFFFFFFFFFFFFFFFFFFFFFFFFFFF AND PUSH32 0x17307EAB39AB6107E8899845AD3D59BD9653F200F220920489CA2B5937696C31 DUP4 PUSH1 0x40 MLOAD PUSH2 0x3D09 SWAP2 SWAP1 PUSH2 0x4D22 JUMP JUMPDEST PUSH1 0x40 MLOAD DUP1 SWAP2 SUB SWAP1 LOG3 POP POP POP JUMP JUMPDEST PUSH2 0x3D21 DUP5 DUP5 DUP5 PUSH2 0x37B6 JUMP JUMPDEST PUSH2 0x3D2D DUP5 DUP5 DUP5 DUP5 PUSH2 0x3FBF JUMP JUMPDEST PUSH2 0x3D6C JUMPI PUSH1 0x40 MLOAD PUSH32 0x8C379A000000000000000000000000000000000000000000000000000000000 DUP2 MSTORE PUSH1 0x4 ADD PUSH2 0x3D63 SWAP1 PUSH2 0x4D7F JUMP JUMPDEST PUSH1 0x40 MLOAD DUP1 SWAP2 SUB SWAP1 REVERT JUMPDEST POP POP POP POP JUMP JUMPDEST PUSH1 0x60 PUSH2 0x3D7D DUP3 PUSH2 0x3597 JUMP JUMPDEST PUSH1 0x0 PUSH1 0x6 PUSH1 0x0 DUP5 DUP2 MSTORE PUSH1 0x20 ADD SWAP1 DUP2 MSTORE PUSH1 0x20 ADD PUSH1 0x0 KECCAK256 DUP1 SLOAD PUSH2 0x3D9D SWAP1 PUSH2 0x523A JUMP JUMPDEST DUP1 PUSH1 0x1F ADD PUSH1 0x20 DUP1 SWAP2 DIV MUL PUSH1 0x20 ADD PUSH1 0x40 MLOAD SWAP1 DUP2 ADD PUSH1 0x40 MSTORE DUP1 SWAP3 SWAP2 SWAP1 DUP2 DUP2 MSTORE PUSH1 0x20 ADD DUP3 DUP1 SLOAD PUSH2 0x3DC9 SWAP1 PUSH2 0x523A JUMP JUMPDEST DUP1 ISZERO PUSH2 0x3E16 JUMPI DUP1 PUSH1 0x1F LT PUSH2 0x3DEB JUMPI PUSH2 0x100 DUP1 DUP4 SLOAD DIV MUL DUP4 MSTORE SWAP2 PUSH1 0x20 ADD SWAP2 PUSH2 0x3E16 JUMP JUMPDEST DUP3 ADD SWAP2 SWAP1 PUSH1 0x0 MSTORE PUSH1 0x20 PUSH1 0x0 KECCAK256 SWAP1 JUMPDEST DUP2 SLOAD DUP2 MSTORE SWAP1 PUSH1 0x1 ADD SWAP1 PUSH1 0x20 ADD DUP1 DUP4 GT PUSH2 0x3DF9 JUMPI DUP3 SWAP1 SUB PUSH1 0x1F AND DUP3 ADD SWAP2 JUMPDEST POP POP POP POP POP SWAP1 POP PUSH1 0x0 PUSH2 0x3E27 PUSH2 0x4156 JUMP JUMPDEST SWAP1 POP PUSH1 0x0 DUP2 MLOAD EQ ISZERO PUSH2 0x3E3D JUMPI DUP2 SWAP3 POP POP POP PUSH2 0x3E80 JUMP JUMPDEST PUSH1 0x0 DUP3 MLOAD GT ISZERO PUSH2 0x3E72 JUMPI DUP1 DUP3 PUSH1 0x40 MLOAD PUSH1 0x20 ADD PUSH2 0x3E5A SWAP3 SWAP2 SWAP1 PUSH2 0x4C82 JUMP JUMPDEST PUSH1 0x40 MLOAD PUSH1 0x20 DUP2 DUP4 SUB SUB DUP2 MSTORE SWAP1 PUSH1 0x40 MSTORE SWAP3 POP POP POP PUSH2 0x3E80 JUMP JUMPDEST PUSH2 0x3E7B DUP5 PUSH2 0x4193 JUMP JUMPDEST SWAP3 POP POP POP JUMPDEST SWAP2 SWAP1 POP JUMP JUMPDEST PUSH2 0x3E9F DUP3 DUP3 PUSH1 0x40 MLOAD DUP1 PUSH1 0x20 ADD PUSH1 0x40 MSTORE DUP1 PUSH1 0x0 DUP2 MSTORE POP PUSH2 0x41FB JUMP JUMPDEST POP POP JUMP JUMPDEST PUSH1 0x0 DUP1 PUSH20 0xFFFFFFFFFFFFFFFFFFFFFFFFFFFFFFFFFFFFFFFF AND PUSH1 0x2 PUSH1 0x0 DUP5 DUP2 MSTORE PUSH1 0x20 ADD SWAP1 DUP2 MSTORE PUSH1 0x20 ADD PUSH1 0x0 KECCAK256 PUSH1 0x0 SWAP1 SLOAD SWAP1 PUSH2 0x100 EXP SWAP1 DIV PUSH20 0xFFFFFFFFFFFFFFFFFFFFFFFFFFFFFFFFFFFFFFFF AND PUSH20 0xFFFFFFFFFFFFFFFFFFFFFFFFFFFFFFFFFFFFFFFF AND EQ ISZERO SWAP1 POP SWAP2 SWAP1 POP JUMP JUMPDEST PUSH2 0x3F17 PUSH2 0x3F75 JUMP JUMPDEST PUSH2 0x3F22 DUP4 DUP4 DUP4 PUSH2 0x4256 JUMP JUMPDEST POP POP POP JUMP JUMPDEST POP POP POP JUMP JUMPDEST PUSH2 0x3F34 PUSH2 0x19B4 JUMP JUMPDEST PUSH2 0x3F73 JUMPI PUSH1 0x40 MLOAD PUSH32 0x8C379A000000000000000000000000000000000000000000000000000000000 DUP2 MSTORE PUSH1 0x4 ADD PUSH2 0x3F6A SWAP1 PUSH2 0x4D5F JUMP JUMPDEST PUSH1 0x40 MLOAD DUP1 SWAP2 SUB SWAP1 REVERT JUMPDEST JUMP JUMPDEST PUSH2 0x3F7D PUSH2 0x19B4 JUMP JUMPDEST ISZERO PUSH2 0x3FBD JUMPI PUSH1 0x40 MLOAD PUSH32 0x8C379A000000000000000000000000000000000000000000000000000000000 DUP2 MSTORE PUSH1 0x4 ADD PUSH2 0x3FB4 SWAP1 PUSH2 0x4E3F JUMP JUMPDEST PUSH1 0x40 MLOAD DUP1 SWAP2 SUB SWAP1 REVERT JUMPDEST JUMP JUMPDEST PUSH1 0x0 PUSH2 0x3FE0 DUP5 PUSH20 0xFFFFFFFFFFFFFFFFFFFFFFFFFFFFFFFFFFFFFFFF AND PUSH2 0x425B JUMP JUMPDEST ISZERO PUSH2 0x4149 JUMPI DUP4 PUSH20 0xFFFFFFFFFFFFFFFFFFFFFFFFFFFFFFFFFFFFFFFF AND PUSH4 0x150B7A02 PUSH2 0x4009 PUSH2 0x35E2 JUMP JUMPDEST DUP8 DUP7 DUP7 PUSH1 0x40 MLOAD DUP6 PUSH4 0xFFFFFFFF AND PUSH1 0xE0 SHL DUP2 MSTORE PUSH1 0x4 ADD PUSH2 0x402B SWAP5 SWAP4 SWAP3 SWAP2 SWAP1 PUSH2 0x4CD6 JUMP JUMPDEST PUSH1 0x20 PUSH1 0x40 MLOAD DUP1 DUP4 SUB DUP2 PUSH1 0x0 DUP8 DUP1 EXTCODESIZE ISZERO DUP1 ISZERO PUSH2 0x4045 JUMPI PUSH1 0x0 DUP1 REVERT JUMPDEST POP GAS CALL SWAP3 POP POP POP DUP1 ISZERO PUSH2 0x4076 JUMPI POP PUSH1 0x40 MLOAD RETURNDATASIZE PUSH1 0x1F NOT PUSH1 0x1F DUP3 ADD AND DUP3 ADD DUP1 PUSH1 0x40 MSTORE POP DUP2 ADD SWAP1 PUSH2 0x4073 SWAP2 SWAP1 PUSH2 0x4892 JUMP JUMPDEST PUSH1 0x1 JUMPDEST PUSH2 0x40F9 JUMPI RETURNDATASIZE DUP1 PUSH1 0x0 DUP2 EQ PUSH2 0x40A6 JUMPI PUSH1 0x40 MLOAD SWAP2 POP PUSH1 0x1F NOT PUSH1 0x3F RETURNDATASIZE ADD AND DUP3 ADD PUSH1 0x40 MSTORE RETURNDATASIZE DUP3 MSTORE RETURNDATASIZE PUSH1 0x0 PUSH1 0x20 DUP5 ADD RETURNDATACOPY PUSH2 0x40AB JUMP JUMPDEST PUSH1 0x60 SWAP2 POP JUMPDEST POP PUSH1 0x0 DUP2 MLOAD EQ ISZERO PUSH2 0x40F1 JUMPI PUSH1 0x40 MLOAD PUSH32 0x8C379A000000000000000000000000000000000000000000000000000000000 DUP2 MSTORE PUSH1 0x4 ADD PUSH2 0x40E8 SWAP1 PUSH2 0x4D7F JUMP JUMPDEST PUSH1 0x40 MLOAD DUP1 SWAP2 SUB SWAP1 REVERT JUMPDEST DUP1 MLOAD DUP2 PUSH1 0x20 ADD REVERT JUMPDEST PUSH4 0x150B7A02 PUSH1 0xE0 SHL PUSH28 0xFFFFFFFFFFFFFFFFFFFFFFFFFFFFFFFFFFFFFFFFFFFFFFFFFFFFFFFF NOT AND DUP2 PUSH28 0xFFFFFFFFFFFFFFFFFFFFFFFFFFFFFFFFFFFFFFFFFFFFFFFFFFFFFFFF NOT AND EQ SWAP2 POP POP PUSH2 0x414E JUMP JUMPDEST PUSH1 0x1 SWAP1 POP JUMPDEST SWAP5 SWAP4 POP POP POP POP JUMP JUMPDEST PUSH1 0x60 PUSH1 0x40 MLOAD DUP1 PUSH1 0x40 ADD PUSH1 0x40 MSTORE DUP1 PUSH1 0x7 DUP2 MSTORE PUSH1 0x20 ADD PUSH32 0x697066733A2F2F00000000000000000000000000000000000000000000000000 DUP2 MSTORE POP SWAP1 POP SWAP1 JUMP JUMPDEST PUSH1 0x60 PUSH2 0x419E DUP3 PUSH2 0x3597 JUMP JUMPDEST PUSH1 0x0 PUSH2 0x41A8 PUSH2 0x4156 JUMP JUMPDEST SWAP1 POP PUSH1 0x0 DUP2 MLOAD GT PUSH2 0x41C8 JUMPI PUSH1 0x40 MLOAD DUP1 PUSH1 0x20 ADD PUSH1 0x40 MSTORE DUP1 PUSH1 0x0 DUP2 MSTORE POP PUSH2 0x41F3 JUMP JUMPDEST DUP1 PUSH2 0x41D2 DUP5 PUSH2 0x427E JUMP JUMPDEST PUSH1 0x40 MLOAD PUSH1 0x20 ADD PUSH2 0x41E3 SWAP3 SWAP2 SWAP1 PUSH2 0x4C82 JUMP JUMPDEST PUSH1 0x40 MLOAD PUSH1 0x20 DUP2 DUP4 SUB SUB DUP2 MSTORE SWAP1 PUSH1 0x40 MSTORE JUMPDEST SWAP2 POP POP SWAP2 SWAP1 POP JUMP JUMPDEST PUSH2 0x4205 DUP4 DUP4 PUSH2 0x3349 JUMP JUMPDEST PUSH2 0x4212 PUSH1 0x0 DUP5 DUP5 DUP5 PUSH2 0x3FBF JUMP JUMPDEST PUSH2 0x4251 JUMPI PUSH1 0x40 MLOAD PUSH32 0x8C379A000000000000000000000000000000000000000000000000000000000 DUP2 MSTORE PUSH1 0x4 ADD PUSH2 0x4248 SWAP1 PUSH2 0x4D7F JUMP JUMPDEST PUSH1 0x40 MLOAD DUP1 SWAP2 SUB SWAP1 REVERT JUMPDEST POP POP POP JUMP JUMPDEST POP POP POP JUMP JUMPDEST PUSH1 0x0 DUP1 DUP3 PUSH20 0xFFFFFFFFFFFFFFFFFFFFFFFFFFFFFFFFFFFFFFFF AND EXTCODESIZE GT SWAP1 POP SWAP2 SWAP1 POP JUMP JUMPDEST PUSH1 0x60 PUSH1 0x0 DUP3 EQ ISZERO PUSH2 0x42C6 JUMPI PUSH1 0x40 MLOAD DUP1 PUSH1 0x40 ADD PUSH1 0x40 MSTORE DUP1 PUSH1 0x1 DUP2 MSTORE PUSH1 0x20 ADD PUSH32 0x3000000000000000000000000000000000000000000000000000000000000000 DUP2 MSTORE POP SWAP1 POP PUSH2 0x4426 JUMP JUMPDEST PUSH1 0x0 DUP3 SWAP1 POP PUSH1 0x0 JUMPDEST PUSH1 0x0 DUP3 EQ PUSH2 0x42F8 JUMPI DUP1 DUP1 PUSH2 0x42E1 SWAP1 PUSH2 0x529D JUMP JUMPDEST SWAP2 POP POP PUSH1 0xA DUP3 PUSH2 0x42F1 SWAP2 SWAP1 PUSH2 0x50C5 JUMP JUMPDEST SWAP2 POP PUSH2 0x42CE JUMP JUMPDEST PUSH1 0x0 DUP2 PUSH8 0xFFFFFFFFFFFFFFFF DUP2 GT ISZERO PUSH2 0x433A JUMPI PUSH32 0x4E487B7100000000000000000000000000000000000000000000000000000000 PUSH1 0x0 MSTORE PUSH1 0x41 PUSH1 0x4 MSTORE PUSH1 0x24 PUSH1 0x0 REVERT JUMPDEST PUSH1 0x40 MLOAD SWAP1 DUP1 DUP3 MSTORE DUP1 PUSH1 0x1F ADD PUSH1 0x1F NOT AND PUSH1 0x20 ADD DUP3 ADD PUSH1 0x40 MSTORE DUP1 ISZERO PUSH2 0x436C JUMPI DUP2 PUSH1 0x20 ADD PUSH1 0x1 DUP3 MUL DUP1 CALLDATASIZE DUP4 CALLDATACOPY DUP1 DUP3 ADD SWAP2 POP POP SWAP1 POP JUMPDEST POP SWAP1 POP JUMPDEST PUSH1 0x0 DUP6 EQ PUSH2 0x441F JUMPI PUSH1 0x1 DUP3 PUSH2 0x4385 SWAP2 SWAP1 PUSH2 0x5150 JUMP JUMPDEST SWAP2 POP PUSH1 0xA DUP6 PUSH2 0x4394 SWAP2 SWAP1 PUSH2 0x52E6 JUMP JUMPDEST PUSH1 0x30 PUSH2 0x43A0 SWAP2 SWAP1 PUSH2 0x506F JUMP JUMPDEST PUSH1 0xF8 SHL DUP2 DUP4 DUP2 MLOAD DUP2 LT PUSH2 0x43DC JUMPI PUSH32 0x4E487B7100000000000000000000000000000000000000000000000000000000 PUSH1 0x0 MSTORE PUSH1 0x32 PUSH1 0x4 MSTORE PUSH1 0x24 PUSH1 0x0 REVERT JUMPDEST PUSH1 0x20 ADD ADD SWAP1 PUSH31 0xFFFFFFFFFFFFFFFFFFFFFFFFFFFFFFFFFFFFFFFFFFFFFFFFFFFFFFFFFFFFFF NOT AND SWAP1 DUP2 PUSH1 0x0 BYTE SWAP1 MSTORE8 POP PUSH1 0xA DUP6 PUSH2 0x4418 SWAP2 SWAP1 PUSH2 0x50C5 JUMP JUMPDEST SWAP5 POP PUSH2 0x4370 JUMP JUMPDEST DUP1 SWAP4 POP POP POP POP JUMPDEST SWAP2 SWAP1 POP JUMP JUMPDEST DUP3 DUP1 SLOAD PUSH2 0x4437 SWAP1 PUSH2 0x523A JUMP JUMPDEST SWAP1 PUSH1 0x0 MSTORE PUSH1 0x20 PUSH1 0x0 KECCAK256 SWAP1 PUSH1 0x1F ADD PUSH1 0x20 SWAP1 DIV DUP2 ADD SWAP3 DUP3 PUSH2 0x4459 JUMPI PUSH1 0x0 DUP6 SSTORE PUSH2 0x44A0 JUMP JUMPDEST DUP3 PUSH1 0x1F LT PUSH2 0x4472 JUMPI DUP1 MLOAD PUSH1 0xFF NOT AND DUP4 DUP1 ADD OR DUP6 SSTORE PUSH2 0x44A0 JUMP JUMPDEST DUP3 DUP1 ADD PUSH1 0x1 ADD DUP6 SSTORE DUP3 ISZERO PUSH2 0x44A0 JUMPI SWAP2 DUP3 ADD JUMPDEST DUP3 DUP2 GT ISZERO PUSH2 0x449F JUMPI DUP3 MLOAD DUP3 SSTORE SWAP2 PUSH1 0x20 ADD SWAP2 SWAP1 PUSH1 0x1 ADD SWAP1 PUSH2 0x4484 JUMP JUMPDEST JUMPDEST POP SWAP1 POP PUSH2 0x44AD SWAP2 SWAP1 PUSH2 0x44B1 JUMP JUMPDEST POP SWAP1 JUMP JUMPDEST JUMPDEST DUP1 DUP3 GT ISZERO PUSH2 0x44CA JUMPI PUSH1 0x0 DUP2 PUSH1 0x0 SWAP1 SSTORE POP PUSH1 0x1 ADD PUSH2 0x44B2 JUMP JUMPDEST POP SWAP1 JUMP JUMPDEST PUSH1 0x0 PUSH2 0x44E1 PUSH2 0x44DC DUP5 PUSH2 0x4FBF JUMP JUMPDEST PUSH2 0x4F9A JUMP JUMPDEST SWAP1 POP DUP3 DUP2 MSTORE PUSH1 0x20 DUP2 ADD DUP5 DUP5 DUP5 ADD GT ISZERO PUSH2 0x44F9 JUMPI PUSH1 0x0 DUP1 REVERT JUMPDEST PUSH2 0x4504 DUP5 DUP3 DUP6 PUSH2 0x51F8 JUMP JUMPDEST POP SWAP4 SWAP3 POP POP POP JUMP JUMPDEST PUSH1 0x0 PUSH2 0x451F PUSH2 0x451A DUP5 PUSH2 0x4FF0 JUMP JUMPDEST PUSH2 0x4F9A JUMP JUMPDEST SWAP1 POP DUP3 DUP2 MSTORE PUSH1 0x20 DUP2 ADD DUP5 DUP5 DUP5 ADD GT ISZERO PUSH2 0x4537 JUMPI PUSH1 0x0 DUP1 REVERT JUMPDEST PUSH2 0x4542 DUP5 DUP3 DUP6 PUSH2 0x51F8 JUMP JUMPDEST POP SWAP4 SWAP3 POP POP POP JUMP JUMPDEST PUSH1 0x0 DUP2 CALLDATALOAD SWAP1 POP PUSH2 0x4559 DUP2 PUSH2 0x57F6 JUMP JUMPDEST SWAP3 SWAP2 POP POP JUMP JUMPDEST PUSH1 0x0 DUP2 CALLDATALOAD SWAP1 POP PUSH2 0x456E DUP2 PUSH2 0x580D JUMP JUMPDEST SWAP3 SWAP2 POP POP JUMP JUMPDEST PUSH1 0x0 DUP2 MLOAD SWAP1 POP PUSH2 0x4583 DUP2 PUSH2 0x580D JUMP JUMPDEST SWAP3 SWAP2 POP POP JUMP JUMPDEST PUSH1 0x0 DUP2 CALLDATALOAD SWAP1 POP PUSH2 0x4598 DUP2 PUSH2 0x5824 JUMP JUMPDEST SWAP3 SWAP2 POP POP JUMP JUMPDEST PUSH1 0x0 DUP2 MLOAD SWAP1 POP PUSH2 0x45AD DUP2 PUSH2 0x5824 JUMP JUMPDEST SWAP3 SWAP2 POP POP JUMP JUMPDEST PUSH1 0x0 DUP3 PUSH1 0x1F DUP4 ADD SLT PUSH2 0x45C4 JUMPI PUSH1 0x0 DUP1 REVERT JUMPDEST DUP2 CALLDATALOAD PUSH2 0x45D4 DUP5 DUP3 PUSH1 0x20 DUP7 ADD PUSH2 0x44CE JUMP JUMPDEST SWAP2 POP POP SWAP3 SWAP2 POP POP JUMP JUMPDEST PUSH1 0x0 DUP3 PUSH1 0x1F DUP4 ADD SLT PUSH2 0x45EE JUMPI PUSH1 0x0 DUP1 REVERT JUMPDEST DUP2 CALLDATALOAD PUSH2 0x45FE DUP5 DUP3 PUSH1 0x20 DUP7 ADD PUSH2 0x450C JUMP JUMPDEST SWAP2 POP POP SWAP3 SWAP2 POP POP JUMP JUMPDEST PUSH1 0x0 DUP2 CALLDATALOAD SWAP1 POP PUSH2 0x4616 DUP2 PUSH2 0x583B JUMP JUMPDEST SWAP3 SWAP2 POP POP JUMP JUMPDEST PUSH1 0x0 PUSH1 0x20 DUP3 DUP5 SUB SLT ISZERO PUSH2 0x462E JUMPI PUSH1 0x0 DUP1 REVERT JUMPDEST PUSH1 0x0 PUSH2 0x463C DUP5 DUP3 DUP6 ADD PUSH2 0x454A JUMP JUMPDEST SWAP2 POP POP SWAP3 SWAP2 POP POP JUMP JUMPDEST PUSH1 0x0 DUP1 PUSH1 0x40 DUP4 DUP6 SUB SLT ISZERO PUSH2 0x4658 JUMPI PUSH1 0x0 DUP1 REVERT JUMPDEST PUSH1 0x0 PUSH2 0x4666 DUP6 DUP3 DUP7 ADD PUSH2 0x454A JUMP JUMPDEST SWAP3 POP POP PUSH1 0x20 PUSH2 0x4677 DUP6 DUP3 DUP7 ADD PUSH2 0x454A JUMP JUMPDEST SWAP2 POP POP SWAP3 POP SWAP3 SWAP1 POP JUMP JUMPDEST PUSH1 0x0 DUP1 PUSH1 0x0 PUSH1 0x60 DUP5 DUP7 SUB SLT ISZERO PUSH2 0x4696 JUMPI PUSH1 0x0 DUP1 REVERT JUMPDEST PUSH1 0x0 PUSH2 0x46A4 DUP7 DUP3 DUP8 ADD PUSH2 0x454A JUMP JUMPDEST SWAP4 POP POP PUSH1 0x20 PUSH2 0x46B5 DUP7 DUP3 DUP8 ADD PUSH2 0x454A JUMP JUMPDEST SWAP3 POP POP PUSH1 0x40 PUSH2 0x46C6 DUP7 DUP3 DUP8 ADD PUSH2 0x4607 JUMP JUMPDEST SWAP2 POP POP SWAP3 POP SWAP3 POP SWAP3 JUMP JUMPDEST PUSH1 0x0 DUP1 PUSH1 0x0 DUP1 PUSH1 0x80 DUP6 DUP8 SUB SLT ISZERO PUSH2 0x46E6 JUMPI PUSH1 0x0 DUP1 REVERT JUMPDEST PUSH1 0x0 PUSH2 0x46F4 DUP8 DUP3 DUP9 ADD PUSH2 0x454A JUMP JUMPDEST SWAP5 POP POP PUSH1 0x20 PUSH2 0x4705 DUP8 DUP3 DUP9 ADD PUSH2 0x454A JUMP JUMPDEST SWAP4 POP POP PUSH1 0x40 PUSH2 0x4716 DUP8 DUP3 DUP9 ADD PUSH2 0x4607 JUMP JUMPDEST SWAP3 POP POP PUSH1 0x60 DUP6 ADD CALLDATALOAD PUSH8 0xFFFFFFFFFFFFFFFF DUP2 GT ISZERO PUSH2 0x4733 JUMPI PUSH1 0x0 DUP1 REVERT JUMPDEST PUSH2 0x473F DUP8 DUP3 DUP9 ADD PUSH2 0x45B3 JUMP JUMPDEST SWAP2 POP POP SWAP3 SWAP6 SWAP2 SWAP5 POP SWAP3 POP JUMP JUMPDEST PUSH1 0x0 DUP1 PUSH1 0x40 DUP4 DUP6 SUB SLT ISZERO PUSH2 0x475E JUMPI PUSH1 0x0 DUP1 REVERT JUMPDEST PUSH1 0x0 PUSH2 0x476C DUP6 DUP3 DUP7 ADD PUSH2 0x454A JUMP JUMPDEST SWAP3 POP POP PUSH1 0x20 PUSH2 0x477D DUP6 DUP3 DUP7 ADD PUSH2 0x455F JUMP JUMPDEST SWAP2 POP POP SWAP3 POP SWAP3 SWAP1 POP JUMP JUMPDEST PUSH1 0x0 DUP1 PUSH1 0x40 DUP4 DUP6 SUB SLT ISZERO PUSH2 0x479A JUMPI PUSH1 0x0 DUP1 REVERT JUMPDEST PUSH1 0x0 PUSH2 0x47A8 DUP6 DUP3 DUP7 ADD PUSH2 0x454A JUMP JUMPDEST SWAP3 POP POP PUSH1 0x20 DUP4 ADD CALLDATALOAD PUSH8 0xFFFFFFFFFFFFFFFF DUP2 GT ISZERO PUSH2 0x47C5 JUMPI PUSH1 0x0 DUP1 REVERT JUMPDEST PUSH2 0x47D1 DUP6 DUP3 DUP7 ADD PUSH2 0x45DD JUMP JUMPDEST SWAP2 POP POP SWAP3 POP SWAP3 SWAP1 POP JUMP JUMPDEST PUSH1 0x0 DUP1 PUSH1 0x40 DUP4 DUP6 SUB SLT ISZERO PUSH2 0x47EE JUMPI PUSH1 0x0 DUP1 REVERT JUMPDEST PUSH1 0x0 PUSH2 0x47FC DUP6 DUP3 DUP7 ADD PUSH2 0x454A JUMP JUMPDEST SWAP3 POP POP PUSH1 0x20 PUSH2 0x480D DUP6 DUP3 DUP7 ADD PUSH2 0x4607 JUMP JUMPDEST SWAP2 POP POP SWAP3 POP SWAP3 SWAP1 POP JUMP JUMPDEST PUSH1 0x0 PUSH1 0x20 DUP3 DUP5 SUB SLT ISZERO PUSH2 0x4829 JUMPI PUSH1 0x0 DUP1 REVERT JUMPDEST PUSH1 0x0 PUSH2 0x4837 DUP5 DUP3 DUP6 ADD PUSH2 0x455F JUMP JUMPDEST SWAP2 POP POP SWAP3 SWAP2 POP POP JUMP JUMPDEST PUSH1 0x0 PUSH1 0x20 DUP3 DUP5 SUB SLT ISZERO PUSH2 0x4852 JUMPI PUSH1 0x0 DUP1 REVERT JUMPDEST PUSH1 0x0 PUSH2 0x4860 DUP5 DUP3 DUP6 ADD PUSH2 0x4574 JUMP JUMPDEST SWAP2 POP POP SWAP3 SWAP2 POP POP JUMP JUMPDEST PUSH1 0x0 PUSH1 0x20 DUP3 DUP5 SUB SLT ISZERO PUSH2 0x487B JUMPI PUSH1 0x0 DUP1 REVERT JUMPDEST PUSH1 0x0 PUSH2 0x4889 DUP5 DUP3 DUP6 ADD PUSH2 0x4589 JUMP JUMPDEST SWAP2 POP POP SWAP3 SWAP2 POP POP JUMP JUMPDEST PUSH1 0x0 PUSH1 0x20 DUP3 DUP5 SUB SLT ISZERO PUSH2 0x48A4 JUMPI PUSH1 0x0 DUP1 REVERT JUMPDEST PUSH1 0x0 PUSH2 0x48B2 DUP5 DUP3 DUP6 ADD PUSH2 0x459E JUMP JUMPDEST SWAP2 POP POP SWAP3 SWAP2 POP POP JUMP JUMPDEST PUSH1 0x0 PUSH1 0x20 DUP3 DUP5 SUB SLT ISZERO PUSH2 0x48CD JUMPI PUSH1 0x0 DUP1 REVERT JUMPDEST PUSH1 0x0 DUP3 ADD CALLDATALOAD PUSH8 0xFFFFFFFFFFFFFFFF DUP2 GT ISZERO PUSH2 0x48E7 JUMPI PUSH1 0x0 DUP1 REVERT JUMPDEST PUSH2 0x48F3 DUP5 DUP3 DUP6 ADD PUSH2 0x45DD JUMP JUMPDEST SWAP2 POP POP SWAP3 SWAP2 POP POP JUMP JUMPDEST PUSH1 0x0 PUSH1 0x20 DUP3 DUP5 SUB SLT ISZERO PUSH2 0x490E JUMPI PUSH1 0x0 DUP1 REVERT JUMPDEST PUSH1 0x0 PUSH2 0x491C DUP5 DUP3 DUP6 ADD PUSH2 0x4607 JUMP JUMPDEST SWAP2 POP POP SWAP3 SWAP2 POP POP JUMP JUMPDEST PUSH2 0x492E DUP2 PUSH2 0x5184 JUMP JUMPDEST DUP3 MSTORE POP POP JUMP JUMPDEST PUSH2 0x493D DUP2 PUSH2 0x5196 JUMP JUMPDEST DUP3 MSTORE POP POP JUMP JUMPDEST PUSH1 0x0 PUSH2 0x494E DUP3 PUSH2 0x5021 JUMP JUMPDEST PUSH2 0x4958 DUP2 DUP6 PUSH2 0x5037 JUMP JUMPDEST SWAP4 POP PUSH2 0x4968 DUP2 DUP6 PUSH1 0x20 DUP7 ADD PUSH2 0x5207 JUMP JUMPDEST PUSH2 0x4971 DUP2 PUSH2 0x53D3 JUMP JUMPDEST DUP5 ADD SWAP2 POP POP SWAP3 SWAP2 POP POP JUMP JUMPDEST PUSH1 0x0 PUSH2 0x4987 DUP3 PUSH2 0x502C JUMP JUMPDEST PUSH2 0x4991 DUP2 DUP6 PUSH2 0x5053 JUMP JUMPDEST SWAP4 POP PUSH2 0x49A1 DUP2 DUP6 PUSH1 0x20 DUP7 ADD PUSH2 0x5207 JUMP JUMPDEST PUSH2 0x49AA DUP2 PUSH2 0x53D3 JUMP JUMPDEST DUP5 ADD SWAP2 POP POP SWAP3 SWAP2 POP POP JUMP JUMPDEST PUSH1 0x0 PUSH2 0x49C0 DUP3 PUSH2 0x502C JUMP JUMPDEST PUSH2 0x49CA DUP2 DUP6 PUSH2 0x5064 JUMP JUMPDEST SWAP4 POP PUSH2 0x49DA DUP2 DUP6 PUSH1 0x20 DUP7 ADD PUSH2 0x5207 JUMP JUMPDEST DUP1 DUP5 ADD SWAP2 POP POP SWAP3 SWAP2 POP POP JUMP JUMPDEST PUSH1 0x0 PUSH2 0x49F3 PUSH1 0x14 DUP4 PUSH2 0x5053 JUMP JUMPDEST SWAP2 POP PUSH2 0x49FE DUP3 PUSH2 0x53E4 JUMP JUMPDEST PUSH1 0x20 DUP3 ADD SWAP1 POP SWAP2 SWAP1 POP JUMP JUMPDEST PUSH1 0x0 PUSH2 0x4A16 PUSH1 0x32 DUP4 PUSH2 0x5053 JUMP JUMPDEST SWAP2 POP PUSH2 0x4A21 DUP3 PUSH2 0x540D JUMP JUMPDEST PUSH1 0x40 DUP3 ADD SWAP1 POP SWAP2 SWAP1 POP JUMP JUMPDEST PUSH1 0x0 PUSH2 0x4A39 PUSH1 0x26 DUP4 PUSH2 0x5053 JUMP JUMPDEST SWAP2 POP PUSH2 0x4A44 DUP3 PUSH2 0x545C JUMP JUMPDEST PUSH1 0x40 DUP3 ADD SWAP1 POP SWAP2 SWAP1 POP JUMP JUMPDEST PUSH1 0x0 PUSH2 0x4A5C PUSH1 0x25 DUP4 PUSH2 0x5053 JUMP JUMPDEST SWAP2 POP PUSH2 0x4A67 DUP3 PUSH2 0x54AB JUMP JUMPDEST PUSH1 0x40 DUP3 ADD SWAP1 POP SWAP2 SWAP1 POP JUMP JUMPDEST PUSH1 0x0 PUSH2 0x4A7F PUSH1 0x1C DUP4 PUSH2 0x5053 JUMP JUMPDEST SWAP2 POP PUSH2 0x4A8A DUP3 PUSH2 0x54FA JUMP JUMPDEST PUSH1 0x20 DUP3 ADD SWAP1 POP SWAP2 SWAP1 POP JUMP JUMPDEST PUSH1 0x0 PUSH2 0x4AA2 PUSH1 0x24 DUP4 PUSH2 0x5053 JUMP JUMPDEST SWAP2 POP PUSH2 0x4AAD DUP3 PUSH2 0x5523 JUMP JUMPDEST PUSH1 0x40 DUP3 ADD SWAP1 POP SWAP2 SWAP1 POP JUMP JUMPDEST PUSH1 0x0 PUSH2 0x4AC5 PUSH1 0x19 DUP4 PUSH2 0x5053 JUMP JUMPDEST SWAP2 POP PUSH2 0x4AD0 DUP3 PUSH2 0x5572 JUMP JUMPDEST PUSH1 0x20 DUP3 ADD SWAP1 POP SWAP2 SWAP1 POP JUMP JUMPDEST PUSH1 0x0 PUSH2 0x4AE8 PUSH1 0x10 DUP4 PUSH2 0x5053 JUMP JUMPDEST SWAP2 POP PUSH2 0x4AF3 DUP3 PUSH2 0x559B JUMP JUMPDEST PUSH1 0x20 DUP3 ADD SWAP1 POP SWAP2 SWAP1 POP JUMP JUMPDEST PUSH1 0x0 PUSH2 0x4B0B PUSH1 0x29 DUP4 PUSH2 0x5053 JUMP JUMPDEST SWAP2 POP PUSH2 0x4B16 DUP3 PUSH2 0x55C4 JUMP JUMPDEST PUSH1 0x40 DUP3 ADD SWAP1 POP SWAP2 SWAP1 POP JUMP JUMPDEST PUSH1 0x0 PUSH2 0x4B2E PUSH1 0x2E DUP4 PUSH2 0x5053 JUMP JUMPDEST SWAP2 POP PUSH2 0x4B39 DUP3 PUSH2 0x5613 JUMP JUMPDEST PUSH1 0x40 DUP3 ADD SWAP1 POP SWAP2 SWAP1 POP JUMP JUMPDEST PUSH1 0x0 PUSH2 0x4B51 PUSH1 0x3E DUP4 PUSH2 0x5053 JUMP JUMPDEST SWAP2 POP PUSH2 0x4B5C DUP3 PUSH2 0x5662 JUMP JUMPDEST PUSH1 0x40 DUP3 ADD SWAP1 POP SWAP2 SWAP1 POP JUMP JUMPDEST PUSH1 0x0 PUSH2 0x4B74 PUSH1 0x20 DUP4 PUSH2 0x5053 JUMP JUMPDEST SWAP2 POP PUSH2 0x4B7F DUP3 PUSH2 0x56B1 JUMP JUMPDEST PUSH1 0x20 DUP3 ADD SWAP1 POP SWAP2 SWAP1 POP JUMP JUMPDEST PUSH1 0x0 PUSH2 0x4B97 PUSH1 0x20 DUP4 PUSH2 0x5053 JUMP JUMPDEST SWAP2 POP PUSH2 0x4BA2 DUP3 PUSH2 0x56DA JUMP JUMPDEST PUSH1 0x20 DUP3 ADD SWAP1 POP SWAP2 SWAP1 POP JUMP JUMPDEST PUSH1 0x0 PUSH2 0x4BBA PUSH1 0x18 DUP4 PUSH2 0x5053 JUMP JUMPDEST SWAP2 POP PUSH2 0x4BC5 DUP3 PUSH2 0x5703 JUMP JUMPDEST PUSH1 0x20 DUP3 ADD SWAP1 POP SWAP2 SWAP1 POP JUMP JUMPDEST PUSH1 0x0 PUSH2 0x4BDD PUSH1 0x21 DUP4 PUSH2 0x5053 JUMP JUMPDEST SWAP2 POP PUSH2 0x4BE8 DUP3 PUSH2 0x572C JUMP JUMPDEST PUSH1 0x40 DUP3 ADD SWAP1 POP SWAP2 SWAP1 POP JUMP JUMPDEST PUSH1 0x0 PUSH2 0x4C00 PUSH1 0x0 DUP4 PUSH2 0x5048 JUMP JUMPDEST SWAP2 POP PUSH2 0x4C0B DUP3 PUSH2 0x577B JUMP JUMPDEST PUSH1 0x0 DUP3 ADD SWAP1 POP SWAP2 SWAP1 POP JUMP JUMPDEST PUSH1 0x0 PUSH2 0x4C23 PUSH1 0x2E DUP4 PUSH2 0x5053 JUMP JUMPDEST SWAP2 POP PUSH2 0x4C2E DUP3 PUSH2 0x577E JUMP JUMPDEST PUSH1 0x40 DUP3 ADD SWAP1 POP SWAP2 SWAP1 POP JUMP JUMPDEST PUSH1 0x0 PUSH2 0x4C46 PUSH1 0x1F DUP4 PUSH2 0x5053 JUMP JUMPDEST SWAP2 POP PUSH2 0x4C51 DUP3 PUSH2 0x57CD JUMP JUMPDEST PUSH1 0x20 DUP3 ADD SWAP1 POP SWAP2 SWAP1 POP JUMP JUMPDEST PUSH2 0x4C65 DUP2 PUSH2 0x51EE JUMP JUMPDEST DUP3 MSTORE POP POP JUMP JUMPDEST PUSH1 0x0 PUSH2 0x4C77 DUP3 DUP5 PUSH2 0x49B5 JUMP JUMPDEST SWAP2 POP DUP2 SWAP1 POP SWAP3 SWAP2 POP POP JUMP JUMPDEST PUSH1 0x0 PUSH2 0x4C8E DUP3 DUP6 PUSH2 0x49B5 JUMP JUMPDEST SWAP2 POP PUSH2 0x4C9A DUP3 DUP5 PUSH2 0x49B5 JUMP JUMPDEST SWAP2 POP DUP2 SWAP1 POP SWAP4 SWAP3 POP POP POP JUMP JUMPDEST PUSH1 0x0 PUSH2 0x4CB1 DUP3 PUSH2 0x4BF3 JUMP JUMPDEST SWAP2 POP DUP2 SWAP1 POP SWAP2 SWAP1 POP JUMP JUMPDEST PUSH1 0x0 PUSH1 0x20 DUP3 ADD SWAP1 POP PUSH2 0x4CD0 PUSH1 0x0 DUP4 ADD DUP5 PUSH2 0x4925 JUMP JUMPDEST SWAP3 SWAP2 POP POP JUMP JUMPDEST PUSH1 0x0 PUSH1 0x80 DUP3 ADD SWAP1 POP PUSH2 0x4CEB PUSH1 0x0 DUP4 ADD DUP8 PUSH2 0x4925 JUMP JUMPDEST PUSH2 0x4CF8 PUSH1 0x20 DUP4 ADD DUP7 PUSH2 0x4925 JUMP JUMPDEST PUSH2 0x4D05 PUSH1 0x40 DUP4 ADD DUP6 PUSH2 0x4C5C JUMP JUMPDEST DUP2 DUP2 SUB PUSH1 0x60 DUP4 ADD MSTORE PUSH2 0x4D17 DUP2 DUP5 PUSH2 0x4943 JUMP JUMPDEST SWAP1 POP SWAP6 SWAP5 POP POP POP POP POP JUMP JUMPDEST PUSH1 0x0 PUSH1 0x20 DUP3 ADD SWAP1 POP PUSH2 0x4D37 PUSH1 0x0 DUP4 ADD DUP5 PUSH2 0x4934 JUMP JUMPDEST SWAP3 SWAP2 POP POP JUMP JUMPDEST PUSH1 0x0 PUSH1 0x20 DUP3 ADD SWAP1 POP DUP2 DUP2 SUB PUSH1 0x0 DUP4 ADD MSTORE PUSH2 0x4D57 DUP2 DUP5 PUSH2 0x497C JUMP JUMPDEST SWAP1 POP SWAP3 SWAP2 POP POP JUMP JUMPDEST PUSH1 0x0 PUSH1 0x20 DUP3 ADD SWAP1 POP DUP2 DUP2 SUB PUSH1 0x0 DUP4 ADD MSTORE PUSH2 0x4D78 DUP2 PUSH2 0x49E6 JUMP JUMPDEST SWAP1 POP SWAP2 SWAP1 POP JUMP JUMPDEST PUSH1 0x0 PUSH1 0x20 DUP3 ADD SWAP1 POP DUP2 DUP2 SUB PUSH1 0x0 DUP4 ADD MSTORE PUSH2 0x4D98 DUP2 PUSH2 0x4A09 JUMP JUMPDEST SWAP1 POP SWAP2 SWAP1 POP JUMP JUMPDEST PUSH1 0x0 PUSH1 0x20 DUP3 ADD SWAP1 POP DUP2 DUP2 SUB PUSH1 0x0 DUP4 ADD MSTORE PUSH2 0x4DB8 DUP2 PUSH2 0x4A2C JUMP JUMPDEST SWAP1 POP SWAP2 SWAP1 POP JUMP JUMPDEST PUSH1 0x0 PUSH1 0x20 DUP3 ADD SWAP1 POP DUP2 DUP2 SUB PUSH1 0x0 DUP4 ADD MSTORE PUSH2 0x4DD8 DUP2 PUSH2 0x4A4F JUMP JUMPDEST SWAP1 POP SWAP2 SWAP1 POP JUMP JUMPDEST PUSH1 0x0 PUSH1 0x20 DUP3 ADD SWAP1 POP DUP2 DUP2 SUB PUSH1 0x0 DUP4 ADD MSTORE PUSH2 0x4DF8 DUP2 PUSH2 0x4A72 JUMP JUMPDEST SWAP1 POP SWAP2 SWAP1 POP JUMP JUMPDEST PUSH1 0x0 PUSH1 0x20 DUP3 ADD SWAP1 POP DUP2 DUP2 SUB PUSH1 0x0 DUP4 ADD MSTORE PUSH2 0x4E18 DUP2 PUSH2 0x4A95 JUMP JUMPDEST SWAP1 POP SWAP2 SWAP1 POP JUMP JUMPDEST PUSH1 0x0 PUSH1 0x20 DUP3 ADD SWAP1 POP DUP2 DUP2 SUB PUSH1 0x0 DUP4 ADD MSTORE PUSH2 0x4E38 DUP2 PUSH2 0x4AB8 JUMP JUMPDEST SWAP1 POP SWAP2 SWAP1 POP JUMP JUMPDEST PUSH1 0x0 PUSH1 0x20 DUP3 ADD SWAP1 POP DUP2 DUP2 SUB PUSH1 0x0 DUP4 ADD MSTORE PUSH2 0x4E58 DUP2 PUSH2 0x4ADB JUMP JUMPDEST SWAP1 POP SWAP2 SWAP1 POP JUMP JUMPDEST PUSH1 0x0 PUSH1 0x20 DUP3 ADD SWAP1 POP DUP2 DUP2 SUB PUSH1 0x0 DUP4 ADD MSTORE PUSH2 0x4E78 DUP2 PUSH2 0x4AFE JUMP JUMPDEST SWAP1 POP SWAP2 SWAP1 POP JUMP JUMPDEST PUSH1 0x0 PUSH1 0x20 DUP3 ADD SWAP1 POP DUP2 DUP2 SUB PUSH1 0x0 DUP4 ADD MSTORE PUSH2 0x4E98 DUP2 PUSH2 0x4B21 JUMP JUMPDEST SWAP1 POP SWAP2 SWAP1 POP JUMP JUMPDEST PUSH1 0x0 PUSH1 0x20 DUP3 ADD SWAP1 POP DUP2 DUP2 SUB PUSH1 0x0 DUP4 ADD MSTORE PUSH2 0x4EB8 DUP2 PUSH2 0x4B44 JUMP JUMPDEST SWAP1 POP SWAP2 SWAP1 POP JUMP JUMPDEST PUSH1 0x0 PUSH1 0x20 DUP3 ADD SWAP1 POP DUP2 DUP2 SUB PUSH1 0x0 DUP4 ADD MSTORE PUSH2 0x4ED8 DUP2 PUSH2 0x4B67 JUMP JUMPDEST SWAP1 POP SWAP2 SWAP1 POP JUMP JUMPDEST PUSH1 0x0 PUSH1 0x20 DUP3 ADD SWAP1 POP DUP2 DUP2 SUB PUSH1 0x0 DUP4 ADD MSTORE PUSH2 0x4EF8 DUP2 PUSH2 0x4B8A JUMP JUMPDEST SWAP1 POP SWAP2 SWAP1 POP JUMP JUMPDEST PUSH1 0x0 PUSH1 0x20 DUP3 ADD SWAP1 POP DUP2 DUP2 SUB PUSH1 0x0 DUP4 ADD MSTORE PUSH2 0x4F18 DUP2 PUSH2 0x4BAD JUMP JUMPDEST SWAP1 POP SWAP2 SWAP1 POP JUMP JUMPDEST PUSH1 0x0 PUSH1 0x20 DUP3 ADD SWAP1 POP DUP2 DUP2 SUB PUSH1 0x0 DUP4 ADD MSTORE PUSH2 0x4F38 DUP2 PUSH2 0x4BD0 JUMP JUMPDEST SWAP1 POP SWAP2 SWAP1 POP JUMP JUMPDEST PUSH1 0x0 PUSH1 0x20 DUP3 ADD SWAP1 POP DUP2 DUP2 SUB PUSH1 0x0 DUP4 ADD MSTORE PUSH2 0x4F58 DUP2 PUSH2 0x4C16 JUMP JUMPDEST SWAP1 POP SWAP2 SWAP1 POP JUMP JUMPDEST PUSH1 0x0 PUSH1 0x20 DUP3 ADD SWAP1 POP DUP2 DUP2 SUB PUSH1 0x0 DUP4 ADD MSTORE PUSH2 0x4F78 DUP2 PUSH2 0x4C39 JUMP JUMPDEST SWAP1 POP SWAP2 SWAP1 POP JUMP JUMPDEST PUSH1 0x0 PUSH1 0x20 DUP3 ADD SWAP1 POP PUSH2 0x4F94 PUSH1 0x0 DUP4 ADD DUP5 PUSH2 0x4C5C JUMP JUMPDEST SWAP3 SWAP2 POP POP JUMP JUMPDEST PUSH1 0x0 PUSH2 0x4FA4 PUSH2 0x4FB5 JUMP JUMPDEST SWAP1 POP PUSH2 0x4FB0 DUP3 DUP3 PUSH2 0x526C JUMP JUMPDEST SWAP2 SWAP1 POP JUMP JUMPDEST PUSH1 0x0 PUSH1 0x40 MLOAD SWAP1 POP SWAP1 JUMP JUMPDEST PUSH1 0x0 PUSH8 0xFFFFFFFFFFFFFFFF DUP3 GT ISZERO PUSH2 0x4FDA JUMPI PUSH2 0x4FD9 PUSH2 0x53A4 JUMP JUMPDEST JUMPDEST PUSH2 0x4FE3 DUP3 PUSH2 0x53D3 JUMP JUMPDEST SWAP1 POP PUSH1 0x20 DUP2 ADD SWAP1 POP SWAP2 SWAP1 POP JUMP JUMPDEST PUSH1 0x0 PUSH8 0xFFFFFFFFFFFFFFFF DUP3 GT ISZERO PUSH2 0x500B JUMPI PUSH2 0x500A PUSH2 0x53A4 JUMP JUMPDEST JUMPDEST PUSH2 0x5014 DUP3 PUSH2 0x53D3 JUMP JUMPDEST SWAP1 POP PUSH1 0x20 DUP2 ADD SWAP1 POP SWAP2 SWAP1 POP JUMP JUMPDEST PUSH1 0x0 DUP2 MLOAD SWAP1 POP SWAP2 SWAP1 POP JUMP JUMPDEST PUSH1 0x0 DUP2 MLOAD SWAP1 POP SWAP2 SWAP1 POP JUMP JUMPDEST PUSH1 0x0 DUP3 DUP3 MSTORE PUSH1 0x20 DUP3 ADD SWAP1 POP SWAP3 SWAP2 POP POP JUMP JUMPDEST PUSH1 0x0 DUP2 SWAP1 POP SWAP3 SWAP2 POP POP JUMP JUMPDEST PUSH1 0x0 DUP3 DUP3 MSTORE PUSH1 0x20 DUP3 ADD SWAP1 POP SWAP3 SWAP2 POP POP JUMP JUMPDEST PUSH1 0x0 DUP2 SWAP1 POP SWAP3 SWAP2 POP POP JUMP JUMPDEST PUSH1 0x0 PUSH2 0x507A DUP3 PUSH2 0x51EE JUMP JUMPDEST SWAP2 POP PUSH2 0x5085 DUP4 PUSH2 0x51EE JUMP JUMPDEST SWAP3 POP DUP3 PUSH32 0xFFFFFFFFFFFFFFFFFFFFFFFFFFFFFFFFFFFFFFFFFFFFFFFFFFFFFFFFFFFFFFFF SUB DUP3 GT ISZERO PUSH2 0x50BA JUMPI PUSH2 0x50B9 PUSH2 0x5317 JUMP JUMPDEST JUMPDEST DUP3 DUP3 ADD SWAP1 POP SWAP3 SWAP2 POP POP JUMP JUMPDEST PUSH1 0x0 PUSH2 0x50D0 DUP3 PUSH2 0x51EE JUMP JUMPDEST SWAP2 POP PUSH2 0x50DB DUP4 PUSH2 0x51EE JUMP JUMPDEST SWAP3 POP DUP3 PUSH2 0x50EB JUMPI PUSH2 0x50EA PUSH2 0x5346 JUMP JUMPDEST JUMPDEST DUP3 DUP3 DIV SWAP1 POP SWAP3 SWAP2 POP POP JUMP JUMPDEST PUSH1 0x0 PUSH2 0x5101 DUP3 PUSH2 0x51EE JUMP JUMPDEST SWAP2 POP PUSH2 0x510C DUP4 PUSH2 0x51EE JUMP JUMPDEST SWAP3 POP DUP2 PUSH32 0xFFFFFFFFFFFFFFFFFFFFFFFFFFFFFFFFFFFFFFFFFFFFFFFFFFFFFFFFFFFFFFFF DIV DUP4 GT DUP3 ISZERO ISZERO AND ISZERO PUSH2 0x5145 JUMPI PUSH2 0x5144 PUSH2 0x5317 JUMP JUMPDEST JUMPDEST DUP3 DUP3 MUL SWAP1 POP SWAP3 SWAP2 POP POP JUMP JUMPDEST PUSH1 0x0 PUSH2 0x515B DUP3 PUSH2 0x51EE JUMP JUMPDEST SWAP2 POP PUSH2 0x5166 DUP4 PUSH2 0x51EE JUMP JUMPDEST SWAP3 POP DUP3 DUP3 LT ISZERO PUSH2 0x5179 JUMPI PUSH2 0x5178 PUSH2 0x5317 JUMP JUMPDEST JUMPDEST DUP3 DUP3 SUB SWAP1 POP SWAP3 SWAP2 POP POP JUMP JUMPDEST PUSH1 0x0 PUSH2 0x518F DUP3 PUSH2 0x51CE JUMP JUMPDEST SWAP1 POP SWAP2 SWAP1 POP JUMP JUMPDEST PUSH1 0x0 DUP2 ISZERO ISZERO SWAP1 POP SWAP2 SWAP1 POP JUMP JUMPDEST PUSH1 0x0 PUSH32 0xFFFFFFFF00000000000000000000000000000000000000000000000000000000 DUP3 AND SWAP1 POP SWAP2 SWAP1 POP JUMP JUMPDEST PUSH1 0x0 PUSH20 0xFFFFFFFFFFFFFFFFFFFFFFFFFFFFFFFFFFFFFFFF DUP3 AND SWAP1 POP SWAP2 SWAP1 POP JUMP JUMPDEST PUSH1 0x0 DUP2 SWAP1 POP SWAP2 SWAP1 POP JUMP JUMPDEST DUP3 DUP2 DUP4 CALLDATACOPY PUSH1 0x0 DUP4 DUP4 ADD MSTORE POP POP POP JUMP JUMPDEST PUSH1 0x0 JUMPDEST DUP4 DUP2 LT ISZERO PUSH2 0x5225 JUMPI DUP1 DUP3 ADD MLOAD DUP2 DUP5 ADD MSTORE PUSH1 0x20 DUP2 ADD SWAP1 POP PUSH2 0x520A JUMP JUMPDEST DUP4 DUP2 GT ISZERO PUSH2 0x5234 JUMPI PUSH1 0x0 DUP5 DUP5 ADD MSTORE JUMPDEST POP POP POP POP JUMP JUMPDEST PUSH1 0x0 PUSH1 0x2 DUP3 DIV SWAP1 POP PUSH1 0x1 DUP3 AND DUP1 PUSH2 0x5252 JUMPI PUSH1 0x7F DUP3 AND SWAP2 POP JUMPDEST PUSH1 0x20 DUP3 LT DUP2 EQ ISZERO PUSH2 0x5266 JUMPI PUSH2 0x5265 PUSH2 0x5375 JUMP JUMPDEST JUMPDEST POP SWAP2 SWAP1 POP JUMP JUMPDEST PUSH2 0x5275 DUP3 PUSH2 0x53D3 JUMP JUMPDEST DUP2 ADD DUP2 DUP2 LT PUSH8 0xFFFFFFFFFFFFFFFF DUP3 GT OR ISZERO PUSH2 0x5294 JUMPI PUSH2 0x5293 PUSH2 0x53A4 JUMP JUMPDEST JUMPDEST DUP1 PUSH1 0x40 MSTORE POP POP POP JUMP JUMPDEST PUSH1 0x0 PUSH2 0x52A8 DUP3 PUSH2 0x51EE JUMP JUMPDEST SWAP2 POP PUSH32 0xFFFFFFFFFFFFFFFFFFFFFFFFFFFFFFFFFFFFFFFFFFFFFFFFFFFFFFFFFFFFFFFF DUP3 EQ ISZERO PUSH2 0x52DB JUMPI PUSH2 0x52DA PUSH2 0x5317 JUMP JUMPDEST JUMPDEST PUSH1 0x1 DUP3 ADD SWAP1 POP SWAP2 SWAP1 POP JUMP JUMPDEST PUSH1 0x0 PUSH2 0x52F1 DUP3 PUSH2 0x51EE JUMP JUMPDEST SWAP2 POP PUSH2 0x52FC DUP4 PUSH2 0x51EE JUMP JUMPDEST SWAP3 POP DUP3 PUSH2 0x530C JUMPI PUSH2 0x530B PUSH2 0x5346 JUMP JUMPDEST JUMPDEST DUP3 DUP3 MOD SWAP1 POP SWAP3 SWAP2 POP POP JUMP JUMPDEST PUSH32 0x4E487B7100000000000000000000000000000000000000000000000000000000 PUSH1 0x0 MSTORE PUSH1 0x11 PUSH1 0x4 MSTORE PUSH1 0x24 PUSH1 0x0 REVERT JUMPDEST PUSH32 0x4E487B7100000000000000000000000000000000000000000000000000000000 PUSH1 0x0 MSTORE PUSH1 0x12 PUSH1 0x4 MSTORE PUSH1 0x24 PUSH1 0x0 REVERT JUMPDEST PUSH32 0x4E487B7100000000000000000000000000000000000000000000000000000000 PUSH1 0x0 MSTORE PUSH1 0x22 PUSH1 0x4 MSTORE PUSH1 0x24 PUSH1 0x0 REVERT JUMPDEST PUSH32 0x4E487B7100000000000000000000000000000000000000000000000000000000 PUSH1 0x0 MSTORE PUSH1 0x41 PUSH1 0x4 MSTORE PUSH1 0x24 PUSH1 0x0 REVERT JUMPDEST PUSH1 0x0 PUSH1 0x1F NOT PUSH1 0x1F DUP4 ADD AND SWAP1 POP SWAP2 SWAP1 POP JUMP JUMPDEST PUSH32 0x5061757361626C653A206E6F7420706175736564000000000000000000000000 PUSH1 0x0 DUP3 ADD MSTORE POP JUMP JUMPDEST PUSH32 0x4552433732313A207472616E7366657220746F206E6F6E204552433732315265 PUSH1 0x0 DUP3 ADD MSTORE PUSH32 0x63656976657220696D706C656D656E7465720000000000000000000000000000 PUSH1 0x20 DUP3 ADD MSTORE POP JUMP JUMPDEST PUSH32 0x4F776E61626C653A206E6577206F776E657220697320746865207A65726F2061 PUSH1 0x0 DUP3 ADD MSTORE PUSH32 0x6464726573730000000000000000000000000000000000000000000000000000 PUSH1 0x20 DUP3 ADD MSTORE POP JUMP JUMPDEST PUSH32 0x4552433732313A207472616E736665722066726F6D20696E636F727265637420 PUSH1 0x0 DUP3 ADD MSTORE PUSH32 0x6F776E6572000000000000000000000000000000000000000000000000000000 PUSH1 0x20 DUP3 ADD MSTORE POP JUMP JUMPDEST PUSH32 0x4552433732313A20746F6B656E20616C7265616479206D696E74656400000000 PUSH1 0x0 DUP3 ADD MSTORE POP JUMP JUMPDEST PUSH32 0x4552433732313A207472616E7366657220746F20746865207A65726F20616464 PUSH1 0x0 DUP3 ADD MSTORE PUSH32 0x7265737300000000000000000000000000000000000000000000000000000000 PUSH1 0x20 DUP3 ADD MSTORE POP JUMP JUMPDEST PUSH32 0x4552433732313A20617070726F766520746F2063616C6C657200000000000000 PUSH1 0x0 DUP3 ADD MSTORE POP JUMP JUMPDEST PUSH32 0x5061757361626C653A2070617573656400000000000000000000000000000000 PUSH1 0x0 DUP3 ADD MSTORE POP JUMP JUMPDEST PUSH32 0x4552433732313A2061646472657373207A65726F206973206E6F742061207661 PUSH1 0x0 DUP3 ADD MSTORE PUSH32 0x6C6964206F776E65720000000000000000000000000000000000000000000000 PUSH1 0x20 DUP3 ADD MSTORE POP JUMP JUMPDEST PUSH32 0x45524337323155524953746F726167653A2055524920736574206F66206E6F6E PUSH1 0x0 DUP3 ADD MSTORE PUSH32 0x6578697374656E7420746F6B656E000000000000000000000000000000000000 PUSH1 0x20 DUP3 ADD MSTORE POP JUMP JUMPDEST PUSH32 0x4552433732313A20617070726F76652063616C6C6572206973206E6F7420746F PUSH1 0x0 DUP3 ADD MSTORE PUSH32 0x6B656E206F776E6572206E6F7220617070726F76656420666F7220616C6C0000 PUSH1 0x20 DUP3 ADD MSTORE POP JUMP JUMPDEST PUSH32 0x4552433732313A206D696E7420746F20746865207A65726F2061646472657373 PUSH1 0x0 DUP3 ADD MSTORE POP JUMP JUMPDEST PUSH32 0x4F776E61626C653A2063616C6C6572206973206E6F7420746865206F776E6572 PUSH1 0x0 DUP3 ADD MSTORE POP JUMP JUMPDEST PUSH32 0x4552433732313A20696E76616C696420746F6B656E2049440000000000000000 PUSH1 0x0 DUP3 ADD MSTORE POP JUMP JUMPDEST PUSH32 0x4552433732313A20617070726F76616C20746F2063757272656E74206F776E65 PUSH1 0x0 DUP3 ADD MSTORE PUSH32 0x7200000000000000000000000000000000000000000000000000000000000000 PUSH1 0x20 DUP3 ADD MSTORE POP JUMP JUMPDEST POP JUMP JUMPDEST PUSH32 0x4552433732313A2063616C6C6572206973206E6F7420746F6B656E206F776E65 PUSH1 0x0 DUP3 ADD MSTORE PUSH32 0x72206E6F7220617070726F766564000000000000000000000000000000000000 PUSH1 0x20 DUP3 ADD MSTORE POP JUMP JUMPDEST PUSH32 0x5265656E7472616E637947756172643A207265656E7472616E742063616C6C00 PUSH1 0x0 DUP3 ADD MSTORE POP JUMP JUMPDEST PUSH2 0x57FF DUP2 PUSH2 0x5184 JUMP JUMPDEST DUP2 EQ PUSH2 0x580A JUMPI PUSH1 0x0 DUP1 REVERT JUMPDEST POP JUMP JUMPDEST PUSH2 0x5816 DUP2 PUSH2 0x5196 JUMP JUMPDEST DUP2 EQ PUSH2 0x5821 JUMPI PUSH1 0x0 DUP1 REVERT JUMPDEST POP JUMP JUMPDEST PUSH2 0x582D DUP2 PUSH2 0x51A2 JUMP JUMPDEST DUP2 EQ PUSH2 0x5838 JUMPI PUSH1 0x0 DUP1 REVERT JUMPDEST POP JUMP JUMPDEST PUSH2 0x5844 DUP2 PUSH2 0x51EE JUMP JUMPDEST DUP2 EQ PUSH2 0x584F JUMPI PUSH1 0x0 DUP1 REVERT JUMPDEST POP JUMP INVALID PUSH10 0x7066733A2F2F516D5138 MSIZE CHAINID ORIGIN 0x4A PUSH2 0x5648 TIMESTAMP PUSH14 0x4672725376754E766979464B5961 0x4E 0x4A TIMESTAMP GAS SLOAD MSTORE PUSH17 0x5574485559513556474D6659A264697066 PUSH20 0x58221220B035815A675A2272ABBED100FF9E4432 0xE7 0xD5 0x5D SHL 0xDE SIGNEXTEND 0xD6 MSTORE SWAP7 SWAP1 PUSH21 0x6E6F86C6DF64736F6C634300080400330000000000 "},"methodIdentifiers":{"WHITELIST_CONTRACT()":"cea10198","Withdraw()":"57ea89b6","approve(address,uint256)":"095ea7b3","balanceOf(address)":"70a08231","checkWhitelist()":"06f2057a","contractURI()":"e8a3d485","getApproved(uint256)":"081812fc","getContractBalance()":"6f9fb98a","getTokenCounter()":"6e02007d","getTokenCounter_Common()":"47c6ce27","getTokenCounter_Legendary()":"72a43ddf","getTokenCounter_Rare()":"e91a074c","getTokenCounter_UltraRare()":"ee383b13","getTokenCounter_Uncommon()":"d2229aa4","isApprovedForAll(address,address)":"e985e9c5","isContentOwned(string)":"9f1cabc6","mintStatus()":"9da3f8fd","name()":"06fdde03","owner()":"8da5cb5b","ownerOf(uint256)":"6352211e","pause()":"8456cb59","paused()":"5c975abb","payToMint_Common(string)":"35966f2c","payToMint_Legendary(string)":"d4a88623","payToMint_Rare(string)":"64ac13a3","payToMint_UltraRare(string)":"940548f7","payToMint_Uncommon(string)":"e75cd261","renounceOwnership()":"715018a6","safeMint(address,string)":"d204c45e","safeTransferFrom(address,address,uint256)":"42842e0e","safeTransferFrom(address,address,uint256,bytes)":"b88d4fde","setApprovalForAll(address,bool)":"a22cb465","setMintStatus(bool)":"1f85e3ca","setPriceCollectionD(uint256)":"b74ca315","setPrice_Common(uint256)":"5e17b87f","setPrice_Legendary(uint256)":"dd2342bb","setPrice_Rare(uint256)":"14457327","setPrice_UltraRare(uint256)":"87960421","setWhitelistMintStatus(bool)":"0e1b3022","supportsInterface(bytes4)":"01ffc9a7","symbol()":"95d89b41","tokenURI(uint256)":"c87b56dd","transferFrom(address,address,uint256)":"23b872dd","transferOwnership(address)":"f2fde38b","unpause()":"3f4ba83a","whitelistMintStatus()":"cb9fe586","whitelistMinting_Common(string)":"7c2dc10c","whitelistMinting_Legendary(string)":"02084dde","whitelistMinting_Rare(string)":"dc7814e7","whitelistMinting_UltraRare(string)":"dd13fefd","whitelistMinting_Uncommon(string)":"d1213dd3"}}}}}