{
  "_format": "hh-sol-artifact-1",
  "contractName": "KubicsNFT_V3",
  "sourceName": "contracts/KubicsNFT_V3.sol",
  "abi": [
    {
      "inputs": [],
      "stateMutability": "nonpayable",
      "type": "constructor"
    },
    {
      "inputs": [],
      "name": "Kubics__MintALimitReached",
      "type": "error"
    },
    {
      "inputs": [],
      "name": "Kubics__MintClosed",
      "type": "error"
    },
    {
      "inputs": [],
      "name": "Kubics__MintLimitReached",
      "type": "error"
    },
    {
      "inputs": [],
      "name": "Kubics__NFTMinted",
      "type": "error"
    },
    {
      "inputs": [],
      "name": "Kubics__NeedToPayUp",
      "type": "error"
    },
    {
      "inputs": [],
      "name": "Kubics__NotInTheWhitelist",
      "type": "error"
    },
    {
      "inputs": [],
      "name": "Kubics__NotMoneyInContract",
      "type": "error"
    },
    {
      "inputs": [],
      "name": "Kubics__WhitelistLimit",
      "type": "error"
    },
    {
      "inputs": [],
      "name": "Kubics__WhitelistMintClosed",
      "type": "error"
    },
    {
      "anonymous": false,
      "inputs": [
        {
          "indexed": true,
          "internalType": "address",
          "name": "owner",
          "type": "address"
        },
        {
          "indexed": true,
          "internalType": "address",
          "name": "approved",
          "type": "address"
        },
        {
          "indexed": true,
          "internalType": "uint256",
          "name": "tokenId",
          "type": "uint256"
        }
      ],
      "name": "Approval",
      "type": "event"
    },
    {
      "anonymous": false,
      "inputs": [
        {
          "indexed": true,
          "internalType": "address",
          "name": "owner",
          "type": "address"
        },
        {
          "indexed": true,
          "internalType": "address",
          "name": "operator",
          "type": "address"
        },
        {
          "indexed": false,
          "internalType": "bool",
          "name": "approved",
          "type": "bool"
        }
      ],
      "name": "ApprovalForAll",
      "type": "event"
    },
    {
      "anonymous": false,
      "inputs": [
        {
          "indexed": true,
          "internalType": "address",
          "name": "previousOwner",
          "type": "address"
        },
        {
          "indexed": true,
          "internalType": "address",
          "name": "newOwner",
          "type": "address"
        }
      ],
      "name": "OwnershipTransferred",
      "type": "event"
    },
    {
      "anonymous": false,
      "inputs": [
        {
          "indexed": true,
          "internalType": "address",
          "name": "from",
          "type": "address"
        },
        {
          "indexed": true,
          "internalType": "address",
          "name": "to",
          "type": "address"
        },
        {
          "indexed": true,
          "internalType": "uint256",
          "name": "tokenId",
          "type": "uint256"
        }
      ],
      "name": "Transfer",
      "type": "event"
    },
    {
      "inputs": [],
      "name": "WHITELIST_CONTRACT",
      "outputs": [
        {
          "internalType": "address",
          "name": "",
          "type": "address"
        }
      ],
      "stateMutability": "view",
      "type": "function"
    },
    {
      "inputs": [],
      "name": "Withdraw",
      "outputs": [],
      "stateMutability": "payable",
      "type": "function"
    },
    {
      "inputs": [
        {
          "internalType": "address",
          "name": "to",
          "type": "address"
        },
        {
          "internalType": "uint256",
          "name": "tokenId",
          "type": "uint256"
        }
      ],
      "name": "approve",
      "outputs": [],
      "stateMutability": "nonpayable",
      "type": "function"
    },
    {
      "inputs": [
        {
          "internalType": "address",
          "name": "owner",
          "type": "address"
        }
      ],
      "name": "balanceOf",
      "outputs": [
        {
          "internalType": "uint256",
          "name": "",
          "type": "uint256"
        }
      ],
      "stateMutability": "view",
      "type": "function"
    },
    {
      "inputs": [],
      "name": "checkWhitelist",
      "outputs": [
        {
          "internalType": "bool",
          "name": "",
          "type": "bool"
        }
      ],
      "stateMutability": "view",
      "type": "function"
    },
    {
      "inputs": [],
      "name": "contractURI",
      "outputs": [
        {
          "internalType": "string",
          "name": "",
          "type": "string"
        }
      ],
      "stateMutability": "pure",
      "type": "function"
    },
    {
      "inputs": [
        {
          "internalType": "uint256",
          "name": "tokenId",
          "type": "uint256"
        }
      ],
      "name": "getApproved",
      "outputs": [
        {
          "internalType": "address",
          "name": "",
          "type": "address"
        }
      ],
      "stateMutability": "view",
      "type": "function"
    },
    {
      "inputs": [],
      "name": "getContractBalance",
      "outputs": [
        {
          "internalType": "uint256",
          "name": "",
          "type": "uint256"
        }
      ],
      "stateMutability": "view",
      "type": "function"
    },
    {
      "inputs": [],
      "name": "getTokenCounter",
      "outputs": [
        {
          "internalType": "uint256",
          "name": "",
          "type": "uint256"
        }
      ],
      "stateMutability": "view",
      "type": "function"
    },
    {
      "inputs": [],
      "name": "getTokenCounterA",
      "outputs": [
        {
          "internalType": "uint256",
          "name": "",
          "type": "uint256"
        }
      ],
      "stateMutability": "view",
      "type": "function"
    },
    {
      "inputs": [],
      "name": "getTokenCounterB",
      "outputs": [
        {
          "internalType": "uint256",
          "name": "",
          "type": "uint256"
        }
      ],
      "stateMutability": "view",
      "type": "function"
    },
    {
      "inputs": [],
      "name": "getTokenCounterC",
      "outputs": [
        {
          "internalType": "uint256",
          "name": "",
          "type": "uint256"
        }
      ],
      "stateMutability": "view",
      "type": "function"
    },
    {
      "inputs": [],
      "name": "getTokenCounterD",
      "outputs": [
        {
          "internalType": "uint256",
          "name": "",
          "type": "uint256"
        }
      ],
      "stateMutability": "view",
      "type": "function"
    },
    {
      "inputs": [],
      "name": "getTokenCounterE",
      "outputs": [
        {
          "internalType": "uint256",
          "name": "",
          "type": "uint256"
        }
      ],
      "stateMutability": "view",
      "type": "function"
    },
    {
      "inputs": [
        {
          "internalType": "address",
          "name": "owner",
          "type": "address"
        },
        {
          "internalType": "address",
          "name": "operator",
          "type": "address"
        }
      ],
      "name": "isApprovedForAll",
      "outputs": [
        {
          "internalType": "bool",
          "name": "",
          "type": "bool"
        }
      ],
      "stateMutability": "view",
      "type": "function"
    },
    {
      "inputs": [
        {
          "internalType": "string",
          "name": "uri",
          "type": "string"
        }
      ],
      "name": "isContentOwned",
      "outputs": [
        {
          "internalType": "bool",
          "name": "",
          "type": "bool"
        }
      ],
      "stateMutability": "view",
      "type": "function"
    },
    {
      "inputs": [],
      "name": "mintStatus",
      "outputs": [
        {
          "internalType": "bool",
          "name": "",
          "type": "bool"
        }
      ],
      "stateMutability": "view",
      "type": "function"
    },
    {
      "inputs": [],
      "name": "name",
      "outputs": [
        {
          "internalType": "string",
          "name": "",
          "type": "string"
        }
      ],
      "stateMutability": "view",
      "type": "function"
    },
    {
      "inputs": [],
      "name": "owner",
      "outputs": [
        {
          "internalType": "address",
          "name": "",
          "type": "address"
        }
      ],
      "stateMutability": "view",
      "type": "function"
    },
    {
      "inputs": [
        {
          "internalType": "uint256",
          "name": "tokenId",
          "type": "uint256"
        }
      ],
      "name": "ownerOf",
      "outputs": [
        {
          "internalType": "address",
          "name": "",
          "type": "address"
        }
      ],
      "stateMutability": "view",
      "type": "function"
    },
    {
      "inputs": [
        {
          "internalType": "string",
          "name": "metadataURI",
          "type": "string"
        }
      ],
      "name": "payToMintA",
      "outputs": [
        {
          "internalType": "uint256",
          "name": "",
          "type": "uint256"
        }
      ],
      "stateMutability": "payable",
      "type": "function"
    },
    {
      "inputs": [
        {
          "internalType": "string",
          "name": "metadataURI",
          "type": "string"
        }
      ],
      "name": "payToMintB",
      "outputs": [
        {
          "internalType": "uint256",
          "name": "",
          "type": "uint256"
        }
      ],
      "stateMutability": "payable",
      "type": "function"
    },
    {
      "inputs": [
        {
          "internalType": "string",
          "name": "metadataURI",
          "type": "string"
        }
      ],
      "name": "payToMintC",
      "outputs": [
        {
          "internalType": "uint256",
          "name": "",
          "type": "uint256"
        }
      ],
      "stateMutability": "payable",
      "type": "function"
    },
    {
      "inputs": [
        {
          "internalType": "string",
          "name": "metadataURI",
          "type": "string"
        }
      ],
      "name": "payToMintD",
      "outputs": [
        {
          "internalType": "uint256",
          "name": "",
          "type": "uint256"
        }
      ],
      "stateMutability": "payable",
      "type": "function"
    },
    {
      "inputs": [
        {
          "internalType": "string",
          "name": "metadataURI",
          "type": "string"
        }
      ],
      "name": "payToMintE",
      "outputs": [
        {
          "internalType": "uint256",
          "name": "",
          "type": "uint256"
        }
      ],
      "stateMutability": "payable",
      "type": "function"
    },
    {
      "inputs": [],
      "name": "renounceOwnership",
      "outputs": [],
      "stateMutability": "nonpayable",
      "type": "function"
    },
    {
      "inputs": [
        {
          "internalType": "address",
          "name": "to",
          "type": "address"
        },
        {
          "internalType": "string",
          "name": "metadataURI",
          "type": "string"
        }
      ],
      "name": "safeMint",
      "outputs": [],
      "stateMutability": "nonpayable",
      "type": "function"
    },
    {
      "inputs": [
        {
          "internalType": "address",
          "name": "from",
          "type": "address"
        },
        {
          "internalType": "address",
          "name": "to",
          "type": "address"
        },
        {
          "internalType": "uint256",
          "name": "tokenId",
          "type": "uint256"
        }
      ],
      "name": "safeTransferFrom",
      "outputs": [],
      "stateMutability": "nonpayable",
      "type": "function"
    },
    {
      "inputs": [
        {
          "internalType": "address",
          "name": "from",
          "type": "address"
        },
        {
          "internalType": "address",
          "name": "to",
          "type": "address"
        },
        {
          "internalType": "uint256",
          "name": "tokenId",
          "type": "uint256"
        },
        {
          "internalType": "bytes",
          "name": "data",
          "type": "bytes"
        }
      ],
      "name": "safeTransferFrom",
      "outputs": [],
      "stateMutability": "nonpayable",
      "type": "function"
    },
    {
      "inputs": [
        {
          "internalType": "address",
          "name": "operator",
          "type": "address"
        },
        {
          "internalType": "bool",
          "name": "approved",
          "type": "bool"
        }
      ],
      "name": "setApprovalForAll",
      "outputs": [],
      "stateMutability": "nonpayable",
      "type": "function"
    },
    {
      "inputs": [
        {
          "internalType": "bool",
          "name": "status",
          "type": "bool"
        }
      ],
      "name": "setMintStatus",
      "outputs": [],
      "stateMutability": "nonpayable",
      "type": "function"
    },
    {
      "inputs": [
        {
          "internalType": "uint256",
          "name": "newPriceA",
          "type": "uint256"
        }
      ],
      "name": "setPriceCollectionA",
      "outputs": [],
      "stateMutability": "nonpayable",
      "type": "function"
    },
    {
      "inputs": [
        {
          "internalType": "uint256",
          "name": "newPriceB",
          "type": "uint256"
        }
      ],
      "name": "setPriceCollectionB",
      "outputs": [],
      "stateMutability": "nonpayable",
      "type": "function"
    },
    {
      "inputs": [
        {
          "internalType": "uint256",
          "name": "newPriceC",
          "type": "uint256"
        }
      ],
      "name": "setPriceCollectionC",
      "outputs": [],
      "stateMutability": "nonpayable",
      "type": "function"
    },
    {
      "inputs": [
        {
          "internalType": "uint256",
          "name": "newPriceD",
          "type": "uint256"
        }
      ],
      "name": "setPriceCollectionD",
      "outputs": [],
      "stateMutability": "nonpayable",
      "type": "function"
    },
    {
      "inputs": [
        {
          "internalType": "uint256",
          "name": "newPriceE",
          "type": "uint256"
        }
      ],
      "name": "setPriceCollectionE",
      "outputs": [],
      "stateMutability": "nonpayable",
      "type": "function"
    },
    {
      "inputs": [
        {
          "internalType": "bool",
          "name": "status",
          "type": "bool"
        }
      ],
      "name": "setWhitelistMintStatus",
      "outputs": [],
      "stateMutability": "nonpayable",
      "type": "function"
    },
    {
      "inputs": [
        {
          "internalType": "bytes4",
          "name": "interfaceId",
          "type": "bytes4"
        }
      ],
      "name": "supportsInterface",
      "outputs": [
        {
          "internalType": "bool",
          "name": "",
          "type": "bool"
        }
      ],
      "stateMutability": "view",
      "type": "function"
    },
    {
      "inputs": [],
      "name": "symbol",
      "outputs": [
        {
          "internalType": "string",
          "name": "",
          "type": "string"
        }
      ],
      "stateMutability": "view",
      "type": "function"
    },
    {
      "inputs": [
        {
          "internalType": "uint256",
          "name": "index",
          "type": "uint256"
        }
      ],
      "name": "tokenByIndex",
      "outputs": [
        {
          "internalType": "uint256",
          "name": "",
          "type": "uint256"
        }
      ],
      "stateMutability": "view",
      "type": "function"
    },
    {
      "inputs": [
        {
          "internalType": "address",
          "name": "owner",
          "type": "address"
        },
        {
          "internalType": "uint256",
          "name": "index",
          "type": "uint256"
        }
      ],
      "name": "tokenOfOwnerByIndex",
      "outputs": [
        {
          "internalType": "uint256",
          "name": "",
          "type": "uint256"
        }
      ],
      "stateMutability": "view",
      "type": "function"
    },
    {
      "inputs": [
        {
          "internalType": "uint256",
          "name": "tokenId",
          "type": "uint256"
        }
      ],
      "name": "tokenURI",
      "outputs": [
        {
          "internalType": "string",
          "name": "",
          "type": "string"
        }
      ],
      "stateMutability": "view",
      "type": "function"
    },
    {
      "inputs": [],
      "name": "totalSupply",
      "outputs": [
        {
          "internalType": "uint256",
          "name": "",
          "type": "uint256"
        }
      ],
      "stateMutability": "view",
      "type": "function"
    },
    {
      "inputs": [
        {
          "internalType": "address",
          "name": "from",
          "type": "address"
        },
        {
          "internalType": "address",
          "name": "to",
          "type": "address"
        },
        {
          "internalType": "uint256",
          "name": "tokenId",
          "type": "uint256"
        }
      ],
      "name": "transferFrom",
      "outputs": [],
      "stateMutability": "nonpayable",
      "type": "function"
    },
    {
      "inputs": [
        {
          "internalType": "address",
          "name": "newOwner",
          "type": "address"
        }
      ],
      "name": "transferOwnership",
      "outputs": [],
      "stateMutability": "nonpayable",
      "type": "function"
    },
    {
      "inputs": [],
      "name": "whitelistMintStatus",
      "outputs": [
        {
          "internalType": "bool",
          "name": "",
          "type": "bool"
        }
      ],
      "stateMutability": "view",
      "type": "function"
    },
    {
      "inputs": [
        {
          "internalType": "string",
          "name": "metadataURI",
          "type": "string"
        }
      ],
      "name": "whitelistMintingA",
      "outputs": [
        {
          "internalType": "uint256",
          "name": "",
          "type": "uint256"
        }
      ],
      "stateMutability": "payable",
      "type": "function"
    },
    {
      "inputs": [
        {
          "internalType": "string",
          "name": "metadataURI",
          "type": "string"
        }
      ],
      "name": "whitelistMintingB",
      "outputs": [
        {
          "internalType": "uint256",
          "name": "",
          "type": "uint256"
        }
      ],
      "stateMutability": "payable",
      "type": "function"
    },
    {
      "inputs": [
        {
          "internalType": "string",
          "name": "metadataURI",
          "type": "string"
        }
      ],
      "name": "whitelistMintingC",
      "outputs": [
        {
          "internalType": "uint256",
          "name": "",
          "type": "uint256"
        }
      ],
      "stateMutability": "payable",
      "type": "function"
    },
    {
      "inputs": [
        {
          "internalType": "string",
          "name": "metadataURI",
          "type": "string"
        }
      ],
      "name": "whitelistMintingD",
      "outputs": [
        {
          "internalType": "uint256",
          "name": "",
          "type": "uint256"
        }
      ],
      "stateMutability": "payable",
      "type": "function"
    },
    {
      "inputs": [
        {
          "internalType": "string",
          "name": "metadataURI",
          "type": "string"
        }
      ],
      "name": "whitelistMintingE",
      "outputs": [
        {
          "internalType": "uint256",
          "name": "",
          "type": "uint256"
        }
      ],
      "stateMutability": "payable",
      "type": "function"
    }
  ],
  "bytecode": "0x61014060405273ec9e66f1f4f544201660c766b265d76503e854eb601d60026101000a81548173ffffffffffffffffffffffffffffffffffffffff021916908373ffffffffffffffffffffffffffffffffffffffff1602179055503480156200006757600080fd5b506040518060400160405280600981526020017f4b75626963735f563300000000000000000000000000000000000000000000008152506040518060400160405280600381526020017f4b424300000000000000000000000000000000000000000000000000000000008152508160009080519060200190620000ec92919062000476565b5080600190805190602001906200010592919062000476565b505050620001286200011c620003a860201b60201c565b620003b060201b60201c565b6001600c819055503373ffffffffffffffffffffffffffffffffffffffff1660808173ffffffffffffffffffffffffffffffffffffffff1660601b8152505073ab8483f64d9c6d1ecf9b849ae677dd3315835cb273ffffffffffffffffffffffffffffffffffffffff1660a08173ffffffffffffffffffffffffffffffffffffffff1660601b8152505073ab8483f64d9c6d1ecf9b849ae677dd3315835cb273ffffffffffffffffffffffffffffffffffffffff1660c08173ffffffffffffffffffffffffffffffffffffffff1660601b8152505073ab8483f64d9c6d1ecf9b849ae677dd3315835cb273ffffffffffffffffffffffffffffffffffffffff1660e08173ffffffffffffffffffffffffffffffffffffffff1660601b8152505073ab8483f64d9c6d1ecf9b849ae677dd3315835cb273ffffffffffffffffffffffffffffffffffffffff166101008173ffffffffffffffffffffffffffffffffffffffff1660601b8152505073ab8483f64d9c6d1ecf9b849ae677dd3315835cb273ffffffffffffffffffffffffffffffffffffffff166101208173ffffffffffffffffffffffffffffffffffffffff1660601b815250506611c37937e080006013819055506611c37937e080006014819055506611c37937e080006015819055506611c37937e080006016819055506611c37937e0800060178190555066038d7ea4c6800060188190555066038d7ea4c6800060198190555066038d7ea4c68000601a8190555066038d7ea4c68000601b8190555066038d7ea4c68000601c819055506001601d60006101000a81548160ff0219169083151502179055506000601d60016101000a81548160ff0219169083151502179055506200058b565b600033905090565b6000600b60009054906101000a900473ffffffffffffffffffffffffffffffffffffffff16905081600b60006101000a81548173ffffffffffffffffffffffffffffffffffffffff021916908373ffffffffffffffffffffffffffffffffffffffff1602179055508173ffffffffffffffffffffffffffffffffffffffff168173ffffffffffffffffffffffffffffffffffffffff167f8be0079c531659141344cd1fd0a4f28419497f9722a3daafe3b4186f6b6457e060405160405180910390a35050565b828054620004849062000526565b90600052602060002090601f016020900481019282620004a85760008555620004f4565b82601f10620004c357805160ff1916838001178555620004f4565b82800160010185558215620004f4579182015b82811115620004f3578251825591602001919060010190620004d6565b5b50905062000503919062000507565b5090565b5b808211156200052257600081600090555060010162000508565b5090565b600060028204905060018216806200053f57607f821691505b602082108114156200055657620005556200055c565b5b50919050565b7f4e487b7100000000000000000000000000000000000000000000000000000000600052602260045260246000fd5b60805160601c60a05160601c60c05160601c60e05160601c6101005160601c6101205160601c615e1a620005ed6000396000611691015260006115e30152600061153501526000611487015260006113d90152600061173f0152615e1a6000f3fe6080604052600436106102e45760003560e01c80637b64305911610190578063c002d9dc116100dc578063d204c45e11610095578063e8a3d4851161006f578063e8a3d48514610b41578063e985e9c514610b6c578063f2fde38b14610ba9578063f42cd99314610bd2576102e4565b8063d204c45e14610abd578063d6b8570714610ae6578063e79564e414610b16576102e4565b8063c002d9dc146109a1578063c199b528146109d1578063c87b56dd146109fa578063ca33178614610a37578063cb9fe58614610a67578063cea1019814610a92576102e4565b8063a22cb46511610149578063b262535a11610123578063b262535a146108f4578063b5757ca21461091f578063b74ca3151461094f578063b88d4fde14610978576102e4565b8063a22cb46514610870578063a3cc532614610899578063a48bcdd0146108c9576102e4565b80637b643059146107595780638da5cb5b1461078957806395d89b41146107b45780639da3f8fd146107df5780639ddd5d311461080a5780639f1cabc614610833576102e4565b80632f745c591161024f5780636352211e116102085780636e02007d116101e25780636e02007d146106af5780636f9fb98a146106da57806370a0823114610705578063715018a614610742576102e4565b80636352211e146106125780636811157d1461064f5780636855b0e31461067f576102e4565b80632f745c591461050a5780634198289f1461054757806342842e0e146105725780634f6ccce71461059b57806357ea89b6146105d85780635f20cc19146105e2576102e4565b80630f029237116102a15780630f0292371461040b57806313f0a3ac1461043457806318160ddd146104645780631a92b51d1461048f5780631f85e3ca146104b857806323b872dd146104e1576102e4565b806301ffc9a7146102e957806306f2057a1461032657806306fdde0314610351578063081812fc1461037c578063095ea7b3146103b95780630e1b3022146103e2575b600080fd5b3480156102f557600080fd5b50610310600480360381019061030b9190614d7a565b610bfd565b60405161031d9190615233565b60405180910390f35b34801561033257600080fd5b5061033b610c0f565b6040516103489190615233565b60405180910390f35b34801561035d57600080fd5b50610366610cc6565b604051610373919061524e565b60405180910390f35b34801561038857600080fd5b506103a3600480360381019061039e9190614e0d565b610d58565b6040516103b091906151cc565b60405180910390f35b3480156103c557600080fd5b506103e060048036038101906103db9190614cec565b610d9e565b005b3480156103ee57600080fd5b5061040960048036038101906104049190614d28565b610eb6565b005b34801561041757600080fd5b50610432600480360381019061042d9190614e0d565b610edb565b005b61044e60048036038101906104499190614dcc565b610eed565b60405161045b9190615490565b60405180910390f35b34801561047057600080fd5b5061047961113b565b6040516104869190615490565b60405180910390f35b34801561049b57600080fd5b506104b660048036038101906104b19190614e0d565b611148565b005b3480156104c457600080fd5b506104df60048036038101906104da9190614d28565b61115a565b005b3480156104ed57600080fd5b5061050860048036038101906105039190614b92565b61117f565b005b34801561051657600080fd5b50610531600480360381019061052c9190614cec565b6111df565b60405161053e9190615490565b60405180910390f35b34801561055357600080fd5b5061055c611284565b6040516105699190615490565b60405180910390f35b34801561057e57600080fd5b5061059960048036038101906105949190614b92565b61128e565b005b3480156105a757600080fd5b506105c260048036038101906105bd9190614e0d565b6112ae565b6040516105cf9190615490565b60405180910390f35b6105e0611345565b005b6105fc60048036038101906105f79190614dcc565b6117e1565b6040516106099190615490565b60405180910390f35b34801561061e57600080fd5b5061063960048036038101906106349190614e0d565b611a2e565b60405161064691906151cc565b60405180910390f35b61066960048036038101906106649190614dcc565b611ae0565b6040516106769190615490565b60405180910390f35b61069960048036038101906106949190614dcc565b611d78565b6040516106a69190615490565b60405180910390f35b3480156106bb57600080fd5b506106c4612010565b6040516106d19190615490565b60405180910390f35b3480156106e657600080fd5b506106ef61201a565b6040516106fc9190615490565b60405180910390f35b34801561071157600080fd5b5061072c60048036038101906107279190614b2d565b612022565b6040516107399190615490565b60405180910390f35b34801561074e57600080fd5b506107576120da565b005b610773600480360381019061076e9190614dcc565b6120ee565b6040516107809190615490565b60405180910390f35b34801561079557600080fd5b5061079e61233c565b6040516107ab91906151cc565b60405180910390f35b3480156107c057600080fd5b506107c9612366565b6040516107d6919061524e565b60405180910390f35b3480156107eb57600080fd5b506107f46123f8565b6040516108019190615233565b60405180910390f35b34801561081657600080fd5b50610831600480360381019061082c9190614e0d565b61240b565b005b34801561083f57600080fd5b5061085a60048036038101906108559190614dcc565b61241d565b6040516108679190615233565b60405180910390f35b34801561087c57600080fd5b5061089760048036038101906108929190614c5c565b612458565b005b6108b360048036038101906108ae9190614dcc565b61246e565b6040516108c09190615490565b60405180910390f35b3480156108d557600080fd5b506108de6126bc565b6040516108eb9190615490565b60405180910390f35b34801561090057600080fd5b506109096126c6565b6040516109169190615490565b60405180910390f35b61093960048036038101906109349190614dcc565b6126d0565b6040516109469190615490565b60405180910390f35b34801561095b57600080fd5b5061097660048036038101906109719190614e0d565b612968565b005b34801561098457600080fd5b5061099f600480360381019061099a9190614be1565b61297a565b005b6109bb60048036038101906109b69190614dcc565b6129dc565b6040516109c89190615490565b60405180910390f35b3480156109dd57600080fd5b506109f860048036038101906109f39190614e0d565b612c74565b005b348015610a0657600080fd5b50610a216004803603810190610a1c9190614e0d565b612c86565b604051610a2e919061524e565b60405180910390f35b610a516004803603810190610a4c9190614dcc565b612c98565b604051610a5e9190615490565b60405180910390f35b348015610a7357600080fd5b50610a7c612f30565b604051610a899190615233565b60405180910390f35b348015610a9e57600080fd5b50610aa7612f43565b604051610ab491906151cc565b60405180910390f35b348015610ac957600080fd5b50610ae46004803603810190610adf9190614c98565b612f5b565b005b610b006004803603810190610afb9190614dcc565b612fd0565b604051610b0d9190615490565b60405180910390f35b348015610b2257600080fd5b50610b2b61321d565b604051610b389190615490565b60405180910390f35b348015610b4d57600080fd5b50610b56613227565b604051610b63919061524e565b60405180910390f35b348015610b7857600080fd5b50610b936004803603810190610b8e9190614b56565b613247565b604051610ba09190615233565b60405180910390f35b348015610bb557600080fd5b50610bd06004803603810190610bcb9190614b2d565b6132db565b005b348015610bde57600080fd5b50610be761335f565b604051610bf49190615490565b60405180910390f35b6000610c0882613369565b9050919050565b600080601d60029054906101000a900473ffffffffffffffffffffffffffffffffffffffff1673ffffffffffffffffffffffffffffffffffffffff166313f44d10336040518263ffffffff1660e01b8152600401610c6d91906151cc565b60206040518083038186803b158015610c8557600080fd5b505afa158015610c99573d6000803e3d6000fd5b505050506040513d601f19601f82011682018060405250810190610cbd9190614d51565b90508091505090565b606060008054610cd59061574b565b80601f0160208091040260200160405190810160405280929190818152602001828054610d019061574b565b8015610d4e5780601f10610d2357610100808354040283529160200191610d4e565b820191906000526020600020905b815481529060010190602001808311610d3157829003601f168201915b5050505050905090565b6000610d63826133e3565b6004600083815260200190815260200160002060009054906101000a900473ffffffffffffffffffffffffffffffffffffffff169050919050565b6000610da982611a2e565b90508073ffffffffffffffffffffffffffffffffffffffff168373ffffffffffffffffffffffffffffffffffffffff161415610e1a576040517f08c379a0000000000000000000000000000000000000000000000000000000008152600401610e1190615410565b60405180910390fd5b8073ffffffffffffffffffffffffffffffffffffffff16610e3961342e565b73ffffffffffffffffffffffffffffffffffffffff161480610e685750610e6781610e6261342e565b613247565b5b610ea7576040517f08c379a0000000000000000000000000000000000000000000000000000000008152600401610e9e90615390565b60405180910390fd5b610eb18383613436565b505050565b610ebe6134ef565b80601d60016101000a81548160ff02191690831515021790555050565b610ee36134ef565b8060138190555050565b60006002600c541415610f35576040517f08c379a0000000000000000000000000000000000000000000000000000000008152600401610f2c90615470565b60405180910390fd5b6002600c819055508160011515601d60009054906101000a900460ff16151514610f8b576040517faea22e0800000000000000000000000000000000000000000000000000000000815260040160405180910390fd5b612710600d5410610fc8576040517f4bc055ee00000000000000000000000000000000000000000000000000000000815260040160405180910390fd5b6001601e82604051610fda919061517c565b908152602001604051809103902060009054906101000a900460ff1660ff161415611031576040517f5eed8c8100000000000000000000000000000000000000000000000000000000815260040160405180910390fd5b6101906010541061106e576040517f047ed50f00000000000000000000000000000000000000000000000000000000815260040160405180910390fd5b6015543410156110aa576040517fc813754a00000000000000000000000000000000000000000000000000000000815260040160405180910390fd5b6000600d5490506001600d546110c09190615580565b600d8190555060016010546110d59190615580565b6010819055506001601e856040516110ed919061517c565b908152602001604051809103902060006101000a81548160ff021916908360ff16021790555061111d338261356d565b6111278185613747565b600d54925050506001600c81905550919050565b6000600980549050905090565b6111506134ef565b8060178190555050565b6111626134ef565b80601d60006101000a81548160ff02191690831515021790555050565b61119061118a61342e565b826137bb565b6111cf576040517f08c379a00000000000000000000000000000000000000000000000000000000081526004016111c690615450565b60405180910390fd5b6111da838383613850565b505050565b60006111ea83612022565b821061122b576040517f08c379a000000000000000000000000000000000000000000000000000000000815260040161122290615270565b60405180910390fd5b600760008473ffffffffffffffffffffffffffffffffffffffff1673ffffffffffffffffffffffffffffffffffffffff168152602001908152602001600020600083815260200190815260200160002054905092915050565b6000601254905090565b6112a98383836040518060200160405280600081525061297a565b505050565b60006112b861113b565b82106112f9576040517f08c379a00000000000000000000000000000000000000000000000000000000081526004016112f090615430565b60405180910390fd5b60098281548110611333577f4e487b7100000000000000000000000000000000000000000000000000000000600052603260045260246000fd5b90600052602060002001549050919050565b6002600c54141561138b576040517f08c379a000000000000000000000000000000000000000000000000000000000815260040161138290615470565b60405180910390fd5b6002600c8190555061139b6134ef565b600047116113d5576040517f73297bbe00000000000000000000000000000000000000000000000000000000815260040160405180910390fd5b60007f000000000000000000000000000000000000000000000000000000000000000073ffffffffffffffffffffffffffffffffffffffff16606460014761141d9190615607565b61142791906155d6565b604051611433906151b7565b60006040518083038185875af1925050503d8060008114611470576040519150601f19603f3d011682016040523d82523d6000602084013e611475565b606091505b505090508061148357600080fd5b60007f000000000000000000000000000000000000000000000000000000000000000073ffffffffffffffffffffffffffffffffffffffff1660646001476114cb9190615607565b6114d591906155d6565b6040516114e1906151b7565b60006040518083038185875af1925050503d806000811461151e576040519150601f19603f3d011682016040523d82523d6000602084013e611523565b606091505b505090508061153157600080fd5b60007f000000000000000000000000000000000000000000000000000000000000000073ffffffffffffffffffffffffffffffffffffffff1660646001476115799190615607565b61158391906155d6565b60405161158f906151b7565b60006040518083038185875af1925050503d80600081146115cc576040519150601f19603f3d011682016040523d82523d6000602084013e6115d1565b606091505b50509050806115df57600080fd5b60007f000000000000000000000000000000000000000000000000000000000000000073ffffffffffffffffffffffffffffffffffffffff1660646001476116279190615607565b61163191906155d6565b60405161163d906151b7565b60006040518083038185875af1925050503d806000811461167a576040519150601f19603f3d011682016040523d82523d6000602084013e61167f565b606091505b505090508061168d57600080fd5b60007f000000000000000000000000000000000000000000000000000000000000000073ffffffffffffffffffffffffffffffffffffffff1660646001476116d59190615607565b6116df91906155d6565b6040516116eb906151b7565b60006040518083038185875af1925050503d8060008114611728576040519150601f19603f3d011682016040523d82523d6000602084013e61172d565b606091505b505090508061173b57600080fd5b60007f000000000000000000000000000000000000000000000000000000000000000073ffffffffffffffffffffffffffffffffffffffff1647604051611781906151b7565b60006040518083038185875af1925050503d80600081146117be576040519150601f19603f3d011682016040523d82523d6000602084013e6117c3565b606091505b50509050806117d157600080fd5b5050505050506001600c81905550565b60006002600c541415611829576040517f08c379a000000000000000000000000000000000000000000000000000000000815260040161182090615470565b60405180910390fd5b6002600c819055508160011515601d60009054906101000a900460ff1615151461187f576040517faea22e0800000000000000000000000000000000000000000000000000000000815260040160405180910390fd5b612710600d54106118bc576040517f4bc055ee00000000000000000000000000000000000000000000000000000000815260040160405180910390fd5b6001601e826040516118ce919061517c565b908152602001604051809103902060009054906101000a900460ff1660ff161415611925576040517f5eed8c8100000000000000000000000000000000000000000000000000000000815260040160405180910390fd5b600a60125410611961576040517f047ed50f00000000000000000000000000000000000000000000000000000000815260040160405180910390fd5b60175434101561199d576040517fc813754a00000000000000000000000000000000000000000000000000000000815260040160405180910390fd5b6000600d5490506001600d546119b39190615580565b600d8190555060016012546119c89190615580565b6012819055506001601e856040516119e0919061517c565b908152602001604051809103902060006101000a81548160ff021916908360ff160217905550611a10338261356d565b611a1a8185613747565b600d54925050506001600c81905550919050565b6000806002600084815260200190815260200160002060009054906101000a900473ffffffffffffffffffffffffffffffffffffffff169050600073ffffffffffffffffffffffffffffffffffffffff168173ffffffffffffffffffffffffffffffffffffffff161415611ad7576040517f08c379a0000000000000000000000000000000000000000000000000000000008152600401611ace906153f0565b60405180910390fd5b80915050919050565b60006002600c541415611b28576040517f08c379a0000000000000000000000000000000000000000000000000000000008152600401611b1f90615470565b60405180910390fd5b6002600c819055508160011515601d60019054906101000a900460ff16151514611b7e576040517f542c5fe600000000000000000000000000000000000000000000000000000000815260040160405180910390fd5b60011515611b8a610c0f565b151514611bc3576040517f2557aa1900000000000000000000000000000000000000000000000000000000815260040160405180910390fd5b6001611bce33612022565b10611c05576040517f83b284d500000000000000000000000000000000000000000000000000000000815260040160405180910390fd5b612710600d5410611c42576040517f4bc055ee00000000000000000000000000000000000000000000000000000000815260040160405180910390fd5b6001601e82604051611c54919061517c565b908152602001604051809103902060009054906101000a900460ff1660ff161415611cab576040517f5eed8c8100000000000000000000000000000000000000000000000000000000815260040160405180910390fd5b601c54341015611ce7576040517fc813754a00000000000000000000000000000000000000000000000000000000815260040160405180910390fd5b6000600d5490506001600d54611cfd9190615580565b600d819055506001601254611d129190615580565b6012819055506001601e85604051611d2a919061517c565b908152602001604051809103902060006101000a81548160ff021916908360ff160217905550611d5a338261356d565b611d648185613747565b600d54925050506001600c81905550919050565b60006002600c541415611dc0576040517f08c379a0000000000000000000000000000000000000000000000000000000008152600401611db790615470565b60405180910390fd5b6002600c819055508160011515601d60019054906101000a900460ff16151514611e16576040517f542c5fe600000000000000000000000000000000000000000000000000000000815260040160405180910390fd5b60011515611e22610c0f565b151514611e5b576040517f2557aa1900000000000000000000000000000000000000000000000000000000815260040160405180910390fd5b6001611e6633612022565b10611e9d576040517f83b284d500000000000000000000000000000000000000000000000000000000815260040160405180910390fd5b612710600d5410611eda576040517f4bc055ee00000000000000000000000000000000000000000000000000000000815260040160405180910390fd5b6001601e82604051611eec919061517c565b908152602001604051809103902060009054906101000a900460ff1660ff161415611f43576040517f5eed8c8100000000000000000000000000000000000000000000000000000000815260040160405180910390fd5b601a54341015611f7f576040517fc813754a00000000000000000000000000000000000000000000000000000000815260040160405180910390fd5b6000600d5490506001600d54611f959190615580565b600d819055506001601054611faa9190615580565b6010819055506001601e85604051611fc2919061517c565b908152602001604051809103902060006101000a81548160ff021916908360ff160217905550611ff2338261356d565b611ffc8185613747565b600d54925050506001600c81905550919050565b6000600d54905090565b600047905090565b60008073ffffffffffffffffffffffffffffffffffffffff168273ffffffffffffffffffffffffffffffffffffffff161415612093576040517f08c379a000000000000000000000000000000000000000000000000000000000815260040161208a90615350565b60405180910390fd5b600360008373ffffffffffffffffffffffffffffffffffffffff1673ffffffffffffffffffffffffffffffffffffffff168152602001908152602001600020549050919050565b6120e26134ef565b6120ec6000613ab7565b565b60006002600c541415612136576040517f08c379a000000000000000000000000000000000000000000000000000000000815260040161212d90615470565b60405180910390fd5b6002600c819055508160011515601d60009054906101000a900460ff1615151461218c576040517faea22e0800000000000000000000000000000000000000000000000000000000815260040160405180910390fd5b612710600d54106121c9576040517f4bc055ee00000000000000000000000000000000000000000000000000000000815260040160405180910390fd5b6001601e826040516121db919061517c565b908152602001604051809103902060009054906101000a900460ff1660ff161415612232576040517f5eed8c8100000000000000000000000000000000000000000000000000000000815260040160405180910390fd5b6109c4600f541061226f576040517f047ed50f00000000000000000000000000000000000000000000000000000000815260040160405180910390fd5b6014543410156122ab576040517fc813754a00000000000000000000000000000000000000000000000000000000815260040160405180910390fd5b6000600d5490506001600d546122c19190615580565b600d819055506001600f546122d69190615580565b600f819055506001601e856040516122ee919061517c565b908152602001604051809103902060006101000a81548160ff021916908360ff16021790555061231e338261356d565b6123288185613747565b600d54925050506001600c81905550919050565b6000600b60009054906101000a900473ffffffffffffffffffffffffffffffffffffffff16905090565b6060600180546123759061574b565b80601f01602080910402602001604051908101604052809291908181526020018280546123a19061574b565b80156123ee5780601f106123c3576101008083540402835291602001916123ee565b820191906000526020600020905b8154815290600101906020018083116123d157829003601f168201915b5050505050905090565b601d60009054906101000a900460ff1681565b6124136134ef565b8060158190555050565b60006001601e83604051612431919061517c565b908152602001604051809103902060009054906101000a900460ff1660ff16149050919050565b61246a61246361342e565b8383613b7d565b5050565b60006002600c5414156124b6576040517f08c379a00000000000000000000000000000000000000000000000000000000081526004016124ad90615470565b60405180910390fd5b6002600c819055508160011515601d60009054906101000a900460ff1615151461250c576040517faea22e0800000000000000000000000000000000000000000000000000000000815260040160405180910390fd5b612710600d5410612549576040517f4bc055ee00000000000000000000000000000000000000000000000000000000815260040160405180910390fd5b6001601e8260405161255b919061517c565b908152602001604051809103902060009054906101000a900460ff1660ff1614156125b2576040517f5eed8c8100000000000000000000000000000000000000000000000000000000815260040160405180910390fd5b611b58600e54106125ef576040517f047ed50f00000000000000000000000000000000000000000000000000000000815260040160405180910390fd5b60135434101561262b576040517fc813754a00000000000000000000000000000000000000000000000000000000815260040160405180910390fd5b6000600d5490506001600d546126419190615580565b600d819055506001600e546126569190615580565b600e819055506001601e8560405161266e919061517c565b908152602001604051809103902060006101000a81548160ff021916908360ff16021790555061269e338261356d565b6126a88185613747565b600d54925050506001600c81905550919050565b6000600e54905090565b6000601054905090565b60006002600c541415612718576040517f08c379a000000000000000000000000000000000000000000000000000000000815260040161270f90615470565b60405180910390fd5b6002600c819055508160011515601d60019054906101000a900460ff1615151461276e576040517f542c5fe600000000000000000000000000000000000000000000000000000000815260040160405180910390fd5b6001151561277a610c0f565b1515146127b3576040517f2557aa1900000000000000000000000000000000000000000000000000000000815260040160405180910390fd5b60016127be33612022565b106127f5576040517f83b284d500000000000000000000000000000000000000000000000000000000815260040160405180910390fd5b612710600d5410612832576040517f4bc055ee00000000000000000000000000000000000000000000000000000000815260040160405180910390fd5b6001601e82604051612844919061517c565b908152602001604051809103902060009054906101000a900460ff1660ff16141561289b576040517f5eed8c8100000000000000000000000000000000000000000000000000000000815260040160405180910390fd5b6018543410156128d7576040517fc813754a00000000000000000000000000000000000000000000000000000000815260040160405180910390fd5b6000600d5490506001600d546128ed9190615580565b600d819055506001600e546129029190615580565b600e819055506001601e8560405161291a919061517c565b908152602001604051809103902060006101000a81548160ff021916908360ff16021790555061294a338261356d565b6129548185613747565b600d54925050506001600c81905550919050565b6129706134ef565b8060168190555050565b61298b61298561342e565b836137bb565b6129ca576040517f08c379a00000000000000000000000000000000000000000000000000000000081526004016129c190615450565b60405180910390fd5b6129d684848484613cea565b50505050565b60006002600c541415612a24576040517f08c379a0000000000000000000000000000000000000000000000000000000008152600401612a1b90615470565b60405180910390fd5b6002600c819055508160011515601d60019054906101000a900460ff16151514612a7a576040517f542c5fe600000000000000000000000000000000000000000000000000000000815260040160405180910390fd5b60011515612a86610c0f565b151514612abf576040517f2557aa1900000000000000000000000000000000000000000000000000000000815260040160405180910390fd5b6001612aca33612022565b10612b01576040517f83b284d500000000000000000000000000000000000000000000000000000000815260040160405180910390fd5b612710600d5410612b3e576040517f4bc055ee00000000000000000000000000000000000000000000000000000000815260040160405180910390fd5b6001601e82604051612b50919061517c565b908152602001604051809103902060009054906101000a900460ff1660ff161415612ba7576040517f5eed8c8100000000000000000000000000000000000000000000000000000000815260040160405180910390fd5b601954341015612be3576040517fc813754a00000000000000000000000000000000000000000000000000000000815260040160405180910390fd5b6000600d5490506001600d54612bf99190615580565b600d819055506001600f54612c0e9190615580565b600f819055506001601e85604051612c26919061517c565b908152602001604051809103902060006101000a81548160ff021916908360ff160217905550612c56338261356d565b612c608185613747565b600d54925050506001600c81905550919050565b612c7c6134ef565b8060148190555050565b6060612c9182613d46565b9050919050565b60006002600c541415612ce0576040517f08c379a0000000000000000000000000000000000000000000000000000000008152600401612cd790615470565b60405180910390fd5b6002600c819055508160011515601d60019054906101000a900460ff16151514612d36576040517f542c5fe600000000000000000000000000000000000000000000000000000000815260040160405180910390fd5b60011515612d42610c0f565b151514612d7b576040517f2557aa1900000000000000000000000000000000000000000000000000000000815260040160405180910390fd5b6001612d8633612022565b10612dbd576040517f83b284d500000000000000000000000000000000000000000000000000000000815260040160405180910390fd5b612710600d5410612dfa576040517f4bc055ee00000000000000000000000000000000000000000000000000000000815260040160405180910390fd5b6001601e82604051612e0c919061517c565b908152602001604051809103902060009054906101000a900460ff1660ff161415612e63576040517f5eed8c8100000000000000000000000000000000000000000000000000000000815260040160405180910390fd5b601b54341015612e9f576040517fc813754a00000000000000000000000000000000000000000000000000000000815260040160405180910390fd5b6000600d5490506001600d54612eb59190615580565b600d819055506001601154612eca9190615580565b6011819055506001601e85604051612ee2919061517c565b908152602001604051809103902060006101000a81548160ff021916908360ff160217905550612f12338261356d565b612f1c8185613747565b600d54925050506001600c81905550919050565b601d60019054906101000a900460ff1681565b73ec9e66f1f4f544201660c766b265d76503e854eb81565b612f636134ef565b6000600d5490506001600d54612f799190615580565b600d819055506001601e83604051612f91919061517c565b908152602001604051809103902060006101000a81548160ff021916908360ff160217905550612fc18382613e59565b612fcb8183613747565b505050565b60006002600c541415613018576040517f08c379a000000000000000000000000000000000000000000000000000000000815260040161300f90615470565b60405180910390fd5b6002600c819055508160011515601d60009054906101000a900460ff1615151461306e576040517faea22e0800000000000000000000000000000000000000000000000000000000815260040160405180910390fd5b612710600d54106130ab576040517f4bc055ee00000000000000000000000000000000000000000000000000000000815260040160405180910390fd5b6001601e826040516130bd919061517c565b908152602001604051809103902060009054906101000a900460ff1660ff161415613114576040517f5eed8c8100000000000000000000000000000000000000000000000000000000815260040160405180910390fd5b605a60115410613150576040517f047ed50f00000000000000000000000000000000000000000000000000000000815260040160405180910390fd5b60165434101561318c576040517fc813754a00000000000000000000000000000000000000000000000000000000815260040160405180910390fd5b6000600d5490506001600d546131a29190615580565b600d8190555060016011546131b79190615580565b6011819055506001601e856040516131cf919061517c565b908152602001604051809103902060006101000a81548160ff021916908360ff1602179055506131ff338261356d565b6132098185613747565b600d54925050506001600c81905550919050565b6000601154905090565b6060604051806060016040528060358152602001615db060359139905090565b6000600560008473ffffffffffffffffffffffffffffffffffffffff1673ffffffffffffffffffffffffffffffffffffffff16815260200190815260200160002060008373ffffffffffffffffffffffffffffffffffffffff1673ffffffffffffffffffffffffffffffffffffffff16815260200190815260200160002060009054906101000a900460ff16905092915050565b6132e36134ef565b600073ffffffffffffffffffffffffffffffffffffffff168173ffffffffffffffffffffffffffffffffffffffff161415613353576040517f08c379a000000000000000000000000000000000000000000000000000000000815260040161334a906152b0565b60405180910390fd5b61335c81613ab7565b50565b6000600f54905090565b60007f780e9d63000000000000000000000000000000000000000000000000000000007bffffffffffffffffffffffffffffffffffffffffffffffffffffffff1916827bffffffffffffffffffffffffffffffffffffffffffffffffffffffff191614806133dc57506133db82613e77565b5b9050919050565b6133ec81613f59565b61342b576040517f08c379a0000000000000000000000000000000000000000000000000000000008152600401613422906153f0565b60405180910390fd5b50565b600033905090565b816004600083815260200190815260200160002060006101000a81548173ffffffffffffffffffffffffffffffffffffffff021916908373ffffffffffffffffffffffffffffffffffffffff160217905550808273ffffffffffffffffffffffffffffffffffffffff166134a983611a2e565b73ffffffffffffffffffffffffffffffffffffffff167f8c5be1e5ebec7d5bd14f71427d1e84f3dd0314c0f7b2291e5b200ac8c7c3b92560405160405180910390a45050565b6134f761342e565b73ffffffffffffffffffffffffffffffffffffffff1661351561233c565b73ffffffffffffffffffffffffffffffffffffffff161461356b576040517f08c379a0000000000000000000000000000000000000000000000000000000008152600401613562906153d0565b60405180910390fd5b565b600073ffffffffffffffffffffffffffffffffffffffff168273ffffffffffffffffffffffffffffffffffffffff1614156135dd576040517f08c379a00000000000000000000000000000000000000000000000000000000081526004016135d4906153b0565b60405180910390fd5b6135e681613f59565b15613626576040517f08c379a000000000000000000000000000000000000000000000000000000000815260040161361d906152f0565b60405180910390fd5b61363260008383613fc5565b6001600360008473ffffffffffffffffffffffffffffffffffffffff1673ffffffffffffffffffffffffffffffffffffffff16815260200190815260200160002060008282546136829190615580565b92505081905550816002600083815260200190815260200160002060006101000a81548173ffffffffffffffffffffffffffffffffffffffff021916908373ffffffffffffffffffffffffffffffffffffffff160217905550808273ffffffffffffffffffffffffffffffffffffffff16600073ffffffffffffffffffffffffffffffffffffffff167fddf252ad1be2c89b69c2b068fc378daa952ba7f163c4a11628f55a4df523b3ef60405160405180910390a461374360008383613fd5565b5050565b61375082613f59565b61378f576040517f08c379a000000000000000000000000000000000000000000000000000000000815260040161378690615370565b60405180910390fd5b806006600084815260200190815260200160002090805190602001906137b692919061493c565b505050565b6000806137c783611a2e565b90508073ffffffffffffffffffffffffffffffffffffffff168473ffffffffffffffffffffffffffffffffffffffff16148061380957506138088185613247565b5b8061384757508373ffffffffffffffffffffffffffffffffffffffff1661382f84610d58565b73ffffffffffffffffffffffffffffffffffffffff16145b91505092915050565b8273ffffffffffffffffffffffffffffffffffffffff1661387082611a2e565b73ffffffffffffffffffffffffffffffffffffffff16146138c6576040517f08c379a00000000000000000000000000000000000000000000000000000000081526004016138bd906152d0565b60405180910390fd5b600073ffffffffffffffffffffffffffffffffffffffff168273ffffffffffffffffffffffffffffffffffffffff161415613936576040517f08c379a000000000000000000000000000000000000000000000000000000000815260040161392d90615310565b60405180910390fd5b613941838383613fc5565b61394c600082613436565b6001600360008573ffffffffffffffffffffffffffffffffffffffff1673ffffffffffffffffffffffffffffffffffffffff168152602001908152602001600020600082825461399c9190615661565b925050819055506001600360008473ffffffffffffffffffffffffffffffffffffffff1673ffffffffffffffffffffffffffffffffffffffff16815260200190815260200160002060008282546139f39190615580565b92505081905550816002600083815260200190815260200160002060006101000a81548173ffffffffffffffffffffffffffffffffffffffff021916908373ffffffffffffffffffffffffffffffffffffffff160217905550808273ffffffffffffffffffffffffffffffffffffffff168473ffffffffffffffffffffffffffffffffffffffff167fddf252ad1be2c89b69c2b068fc378daa952ba7f163c4a11628f55a4df523b3ef60405160405180910390a4613ab2838383613fd5565b505050565b6000600b60009054906101000a900473ffffffffffffffffffffffffffffffffffffffff16905081600b60006101000a81548173ffffffffffffffffffffffffffffffffffffffff021916908373ffffffffffffffffffffffffffffffffffffffff1602179055508173ffffffffffffffffffffffffffffffffffffffff168173ffffffffffffffffffffffffffffffffffffffff167f8be0079c531659141344cd1fd0a4f28419497f9722a3daafe3b4186f6b6457e060405160405180910390a35050565b8173ffffffffffffffffffffffffffffffffffffffff168373ffffffffffffffffffffffffffffffffffffffff161415613bec576040517f08c379a0000000000000000000000000000000000000000000000000000000008152600401613be390615330565b60405180910390fd5b80600560008573ffffffffffffffffffffffffffffffffffffffff1673ffffffffffffffffffffffffffffffffffffffff16815260200190815260200160002060008473ffffffffffffffffffffffffffffffffffffffff1673ffffffffffffffffffffffffffffffffffffffff16815260200190815260200160002060006101000a81548160ff0219169083151502179055508173ffffffffffffffffffffffffffffffffffffffff168373ffffffffffffffffffffffffffffffffffffffff167f17307eab39ab6107e8899845ad3d59bd9653f200f220920489ca2b5937696c3183604051613cdd9190615233565b60405180910390a3505050565b613cf5848484613850565b613d0184848484613fda565b613d40576040517f08c379a0000000000000000000000000000000000000000000000000000000008152600401613d3790615290565b60405180910390fd5b50505050565b6060613d51826133e3565b6000600660008481526020019081526020016000208054613d719061574b565b80601f0160208091040260200160405190810160405280929190818152602001828054613d9d9061574b565b8015613dea5780601f10613dbf57610100808354040283529160200191613dea565b820191906000526020600020905b815481529060010190602001808311613dcd57829003601f168201915b505050505090506000613dfb614171565b9050600081511415613e11578192505050613e54565b600082511115613e46578082604051602001613e2e929190615193565b60405160208183030381529060405292505050613e54565b613e4f846141ae565b925050505b919050565b613e73828260405180602001604052806000815250614216565b5050565b60007f80ac58cd000000000000000000000000000000000000000000000000000000007bffffffffffffffffffffffffffffffffffffffffffffffffffffffff1916827bffffffffffffffffffffffffffffffffffffffffffffffffffffffff19161480613f4257507f5b5e139f000000000000000000000000000000000000000000000000000000007bffffffffffffffffffffffffffffffffffffffffffffffffffffffff1916827bffffffffffffffffffffffffffffffffffffffffffffffffffffffff1916145b80613f525750613f5182614271565b5b9050919050565b60008073ffffffffffffffffffffffffffffffffffffffff166002600084815260200190815260200160002060009054906101000a900473ffffffffffffffffffffffffffffffffffffffff1673ffffffffffffffffffffffffffffffffffffffff1614159050919050565b613fd08383836142db565b505050565b505050565b6000613ffb8473ffffffffffffffffffffffffffffffffffffffff166143ef565b15614164578373ffffffffffffffffffffffffffffffffffffffff1663150b7a0261402461342e565b8786866040518563ffffffff1660e01b815260040161404694939291906151e7565b602060405180830381600087803b15801561406057600080fd5b505af192505050801561409157506040513d601f19601f8201168201806040525081019061408e9190614da3565b60015b614114573d80600081146140c1576040519150601f19603f3d011682016040523d82523d6000602084013e6140c6565b606091505b5060008151141561410c576040517f08c379a000000000000000000000000000000000000000000000000000000000815260040161410390615290565b60405180910390fd5b805181602001fd5b63150b7a0260e01b7bffffffffffffffffffffffffffffffffffffffffffffffffffffffff1916817bffffffffffffffffffffffffffffffffffffffffffffffffffffffff191614915050614169565b600190505b949350505050565b60606040518060400160405280600781526020017f697066733a2f2f00000000000000000000000000000000000000000000000000815250905090565b60606141b9826133e3565b60006141c3614171565b905060008151116141e3576040518060200160405280600081525061420e565b806141ed84614412565b6040516020016141fe929190615193565b6040516020818303038152906040525b915050919050565b614220838361356d565b61422d6000848484613fda565b61426c576040517f08c379a000000000000000000000000000000000000000000000000000000000815260040161426390615290565b60405180910390fd5b505050565b60007f01ffc9a7000000000000000000000000000000000000000000000000000000007bffffffffffffffffffffffffffffffffffffffffffffffffffffffff1916827bffffffffffffffffffffffffffffffffffffffffffffffffffffffff1916149050919050565b6142e68383836145bf565b600073ffffffffffffffffffffffffffffffffffffffff168373ffffffffffffffffffffffffffffffffffffffff16141561432957614324816145c4565b614368565b8173ffffffffffffffffffffffffffffffffffffffff168373ffffffffffffffffffffffffffffffffffffffff161461436757614366838261460d565b5b5b600073ffffffffffffffffffffffffffffffffffffffff168273ffffffffffffffffffffffffffffffffffffffff1614156143ab576143a68161477a565b6143ea565b8273ffffffffffffffffffffffffffffffffffffffff168273ffffffffffffffffffffffffffffffffffffffff16146143e9576143e882826148bd565b5b5b505050565b6000808273ffffffffffffffffffffffffffffffffffffffff163b119050919050565b6060600082141561445a576040518060400160405280600181526020017f300000000000000000000000000000000000000000000000000000000000000081525090506145ba565b600082905060005b6000821461448c578080614475906157ae565b915050600a8261448591906155d6565b9150614462565b60008167ffffffffffffffff8111156144ce577f4e487b7100000000000000000000000000000000000000000000000000000000600052604160045260246000fd5b6040519080825280601f01601f1916602001820160405280156145005781602001600182028036833780820191505090505b5090505b600085146145b3576001826145199190615661565b9150600a8561452891906157f7565b60306145349190615580565b60f81b818381518110614570577f4e487b7100000000000000000000000000000000000000000000000000000000600052603260045260246000fd5b60200101907effffffffffffffffffffffffffffffffffffffffffffffffffffffffffffff1916908160001a905350600a856145ac91906155d6565b9450614504565b8093505050505b919050565b505050565b600980549050600a600083815260200190815260200160002081905550600981908060018154018082558091505060019003906000526020600020016000909190919091505550565b6000600161461a84612022565b6146249190615661565b9050600060086000848152602001908152602001600020549050818114614709576000600760008673ffffffffffffffffffffffffffffffffffffffff1673ffffffffffffffffffffffffffffffffffffffff168152602001908152602001600020600084815260200190815260200160002054905080600760008773ffffffffffffffffffffffffffffffffffffffff1673ffffffffffffffffffffffffffffffffffffffff168152602001908152602001600020600084815260200190815260200160002081905550816008600083815260200190815260200160002081905550505b6008600084815260200190815260200160002060009055600760008573ffffffffffffffffffffffffffffffffffffffff1673ffffffffffffffffffffffffffffffffffffffff16815260200190815260200160002060008381526020019081526020016000206000905550505050565b6000600160098054905061478e9190615661565b90506000600a60008481526020019081526020016000205490506000600983815481106147e4577f4e487b7100000000000000000000000000000000000000000000000000000000600052603260045260246000fd5b90600052602060002001549050806009838154811061482c577f4e487b7100000000000000000000000000000000000000000000000000000000600052603260045260246000fd5b906000526020600020018190555081600a600083815260200190815260200160002081905550600a60008581526020019081526020016000206000905560098054806148a1577f4e487b7100000000000000000000000000000000000000000000000000000000600052603160045260246000fd5b6001900381819060005260206000200160009055905550505050565b60006148c883612022565b905081600760008573ffffffffffffffffffffffffffffffffffffffff1673ffffffffffffffffffffffffffffffffffffffff168152602001908152602001600020600083815260200190815260200160002081905550806008600084815260200190815260200160002081905550505050565b8280546149489061574b565b90600052602060002090601f01602090048101928261496a57600085556149b1565b82601f1061498357805160ff19168380011785556149b1565b828001600101855582156149b1579182015b828111156149b0578251825591602001919060010190614995565b5b5090506149be91906149c2565b5090565b5b808211156149db5760008160009055506001016149c3565b5090565b60006149f26149ed846154d0565b6154ab565b905082815260208101848484011115614a0a57600080fd5b614a15848285615709565b509392505050565b6000614a30614a2b84615501565b6154ab565b905082815260208101848484011115614a4857600080fd5b614a53848285615709565b509392505050565b600081359050614a6a81615d53565b92915050565b600081359050614a7f81615d6a565b92915050565b600081519050614a9481615d6a565b92915050565b600081359050614aa981615d81565b92915050565b600081519050614abe81615d81565b92915050565b600082601f830112614ad557600080fd5b8135614ae58482602086016149df565b91505092915050565b600082601f830112614aff57600080fd5b8135614b0f848260208601614a1d565b91505092915050565b600081359050614b2781615d98565b92915050565b600060208284031215614b3f57600080fd5b6000614b4d84828501614a5b565b91505092915050565b60008060408385031215614b6957600080fd5b6000614b7785828601614a5b565b9250506020614b8885828601614a5b565b9150509250929050565b600080600060608486031215614ba757600080fd5b6000614bb586828701614a5b565b9350506020614bc686828701614a5b565b9250506040614bd786828701614b18565b9150509250925092565b60008060008060808587031215614bf757600080fd5b6000614c0587828801614a5b565b9450506020614c1687828801614a5b565b9350506040614c2787828801614b18565b925050606085013567ffffffffffffffff811115614c4457600080fd5b614c5087828801614ac4565b91505092959194509250565b60008060408385031215614c6f57600080fd5b6000614c7d85828601614a5b565b9250506020614c8e85828601614a70565b9150509250929050565b60008060408385031215614cab57600080fd5b6000614cb985828601614a5b565b925050602083013567ffffffffffffffff811115614cd657600080fd5b614ce285828601614aee565b9150509250929050565b60008060408385031215614cff57600080fd5b6000614d0d85828601614a5b565b9250506020614d1e85828601614b18565b9150509250929050565b600060208284031215614d3a57600080fd5b6000614d4884828501614a70565b91505092915050565b600060208284031215614d6357600080fd5b6000614d7184828501614a85565b91505092915050565b600060208284031215614d8c57600080fd5b6000614d9a84828501614a9a565b91505092915050565b600060208284031215614db557600080fd5b6000614dc384828501614aaf565b91505092915050565b600060208284031215614dde57600080fd5b600082013567ffffffffffffffff811115614df857600080fd5b614e0484828501614aee565b91505092915050565b600060208284031215614e1f57600080fd5b6000614e2d84828501614b18565b91505092915050565b614e3f81615695565b82525050565b614e4e816156a7565b82525050565b6000614e5f82615532565b614e698185615548565b9350614e79818560208601615718565b614e82816158e4565b840191505092915050565b6000614e988261553d565b614ea28185615564565b9350614eb2818560208601615718565b614ebb816158e4565b840191505092915050565b6000614ed18261553d565b614edb8185615575565b9350614eeb818560208601615718565b80840191505092915050565b6000614f04602b83615564565b9150614f0f826158f5565b604082019050919050565b6000614f27603283615564565b9150614f3282615944565b604082019050919050565b6000614f4a602683615564565b9150614f5582615993565b604082019050919050565b6000614f6d602583615564565b9150614f78826159e2565b604082019050919050565b6000614f90601c83615564565b9150614f9b82615a31565b602082019050919050565b6000614fb3602483615564565b9150614fbe82615a5a565b604082019050919050565b6000614fd6601983615564565b9150614fe182615aa9565b602082019050919050565b6000614ff9602983615564565b915061500482615ad2565b604082019050919050565b600061501c602e83615564565b915061502782615b21565b604082019050919050565b600061503f603e83615564565b915061504a82615b70565b604082019050919050565b6000615062602083615564565b915061506d82615bbf565b602082019050919050565b6000615085602083615564565b915061509082615be8565b602082019050919050565b60006150a8601883615564565b91506150b382615c11565b602082019050919050565b60006150cb602183615564565b91506150d682615c3a565b604082019050919050565b60006150ee600083615559565b91506150f982615c89565b600082019050919050565b6000615111602c83615564565b915061511c82615c8c565b604082019050919050565b6000615134602e83615564565b915061513f82615cdb565b604082019050919050565b6000615157601f83615564565b915061516282615d2a565b602082019050919050565b615176816156ff565b82525050565b60006151888284614ec6565b915081905092915050565b600061519f8285614ec6565b91506151ab8284614ec6565b91508190509392505050565b60006151c2826150e1565b9150819050919050565b60006020820190506151e16000830184614e36565b92915050565b60006080820190506151fc6000830187614e36565b6152096020830186614e36565b615216604083018561516d565b81810360608301526152288184614e54565b905095945050505050565b60006020820190506152486000830184614e45565b92915050565b600060208201905081810360008301526152688184614e8d565b905092915050565b6000602082019050818103600083015261528981614ef7565b9050919050565b600060208201905081810360008301526152a981614f1a565b9050919050565b600060208201905081810360008301526152c981614f3d565b9050919050565b600060208201905081810360008301526152e981614f60565b9050919050565b6000602082019050818103600083015261530981614f83565b9050919050565b6000602082019050818103600083015261532981614fa6565b9050919050565b6000602082019050818103600083015261534981614fc9565b9050919050565b6000602082019050818103600083015261536981614fec565b9050919050565b600060208201905081810360008301526153898161500f565b9050919050565b600060208201905081810360008301526153a981615032565b9050919050565b600060208201905081810360008301526153c981615055565b9050919050565b600060208201905081810360008301526153e981615078565b9050919050565b600060208201905081810360008301526154098161509b565b9050919050565b60006020820190508181036000830152615429816150be565b9050919050565b6000602082019050818103600083015261544981615104565b9050919050565b6000602082019050818103600083015261546981615127565b9050919050565b600060208201905081810360008301526154898161514a565b9050919050565b60006020820190506154a5600083018461516d565b92915050565b60006154b56154c6565b90506154c1828261577d565b919050565b6000604051905090565b600067ffffffffffffffff8211156154eb576154ea6158b5565b5b6154f4826158e4565b9050602081019050919050565b600067ffffffffffffffff82111561551c5761551b6158b5565b5b615525826158e4565b9050602081019050919050565b600081519050919050565b600081519050919050565b600082825260208201905092915050565b600081905092915050565b600082825260208201905092915050565b600081905092915050565b600061558b826156ff565b9150615596836156ff565b9250827fffffffffffffffffffffffffffffffffffffffffffffffffffffffffffffffff038211156155cb576155ca615828565b5b828201905092915050565b60006155e1826156ff565b91506155ec836156ff565b9250826155fc576155fb615857565b5b828204905092915050565b6000615612826156ff565b915061561d836156ff565b9250817fffffffffffffffffffffffffffffffffffffffffffffffffffffffffffffffff048311821515161561565657615655615828565b5b828202905092915050565b600061566c826156ff565b9150615677836156ff565b92508282101561568a57615689615828565b5b828203905092915050565b60006156a0826156df565b9050919050565b60008115159050919050565b60007fffffffff0000000000000000000000000000000000000000000000000000000082169050919050565b600073ffffffffffffffffffffffffffffffffffffffff82169050919050565b6000819050919050565b82818337600083830152505050565b60005b8381101561573657808201518184015260208101905061571b565b83811115615745576000848401525b50505050565b6000600282049050600182168061576357607f821691505b6020821081141561577757615776615886565b5b50919050565b615786826158e4565b810181811067ffffffffffffffff821117156157a5576157a46158b5565b5b80604052505050565b60006157b9826156ff565b91507fffffffffffffffffffffffffffffffffffffffffffffffffffffffffffffffff8214156157ec576157eb615828565b5b600182019050919050565b6000615802826156ff565b915061580d836156ff565b92508261581d5761581c615857565b5b828206905092915050565b7f4e487b7100000000000000000000000000000000000000000000000000000000600052601160045260246000fd5b7f4e487b7100000000000000000000000000000000000000000000000000000000600052601260045260246000fd5b7f4e487b7100000000000000000000000000000000000000000000000000000000600052602260045260246000fd5b7f4e487b7100000000000000000000000000000000000000000000000000000000600052604160045260246000fd5b6000601f19601f8301169050919050565b7f455243373231456e756d657261626c653a206f776e657220696e646578206f7560008201527f74206f6620626f756e6473000000000000000000000000000000000000000000602082015250565b7f4552433732313a207472616e7366657220746f206e6f6e20455243373231526560008201527f63656976657220696d706c656d656e7465720000000000000000000000000000602082015250565b7f4f776e61626c653a206e6577206f776e657220697320746865207a65726f206160008201527f6464726573730000000000000000000000000000000000000000000000000000602082015250565b7f4552433732313a207472616e736665722066726f6d20696e636f72726563742060008201527f6f776e6572000000000000000000000000000000000000000000000000000000602082015250565b7f4552433732313a20746f6b656e20616c7265616479206d696e74656400000000600082015250565b7f4552433732313a207472616e7366657220746f20746865207a65726f2061646460008201527f7265737300000000000000000000000000000000000000000000000000000000602082015250565b7f4552433732313a20617070726f766520746f2063616c6c657200000000000000600082015250565b7f4552433732313a2061646472657373207a65726f206973206e6f74206120766160008201527f6c6964206f776e65720000000000000000000000000000000000000000000000602082015250565b7f45524337323155524953746f726167653a2055524920736574206f66206e6f6e60008201527f6578697374656e7420746f6b656e000000000000000000000000000000000000602082015250565b7f4552433732313a20617070726f76652063616c6c6572206973206e6f7420746f60008201527f6b656e206f776e6572206e6f7220617070726f76656420666f7220616c6c0000602082015250565b7f4552433732313a206d696e7420746f20746865207a65726f2061646472657373600082015250565b7f4f776e61626c653a2063616c6c6572206973206e6f7420746865206f776e6572600082015250565b7f4552433732313a20696e76616c696420746f6b656e2049440000000000000000600082015250565b7f4552433732313a20617070726f76616c20746f2063757272656e74206f776e6560008201527f7200000000000000000000000000000000000000000000000000000000000000602082015250565b50565b7f455243373231456e756d657261626c653a20676c6f62616c20696e646578206f60008201527f7574206f6620626f756e64730000000000000000000000000000000000000000602082015250565b7f4552433732313a2063616c6c6572206973206e6f7420746f6b656e206f776e6560008201527f72206e6f7220617070726f766564000000000000000000000000000000000000602082015250565b7f5265656e7472616e637947756172643a207265656e7472616e742063616c6c00600082015250565b615d5c81615695565b8114615d6757600080fd5b50565b615d73816156a7565b8114615d7e57600080fd5b50565b615d8a816156b3565b8114615d9557600080fd5b50565b615da1816156ff565b8114615dac57600080fd5b5056fe697066733a2f2f516d627a7850673656467766575a4674416650757232786d33524d464532746e5776524757543836726764564473a2646970667358221220d0b3dd5ae0a4eeac0c91793f4b3167938ac1a8c66c5823c3c0cb79c6846353c364736f6c63430008040033",
  "linkReferences": {},
  "deployedLinkReferences": {}
}