{
  "_format": "hh-sol-artifact-1",
  "contractName": "KubicsNFT",
  "sourceName": "contracts/KubicsNFT.sol",
  "abi": [
    {
      "inputs": [],
      "stateMutability": "nonpayable",
      "type": "constructor"
    },
    {
      "anonymous": false,
      "inputs": [
        {
          "indexed": true,
          "internalType": "address",
          "name": "owner",
          "type": "address"
        },
        {
          "indexed": true,
          "internalType": "address",
          "name": "approved",
          "type": "address"
        },
        {
          "indexed": true,
          "internalType": "uint256",
          "name": "tokenId",
          "type": "uint256"
        }
      ],
      "name": "Approval",
      "type": "event"
    },
    {
      "anonymous": false,
      "inputs": [
        {
          "indexed": true,
          "internalType": "address",
          "name": "owner",
          "type": "address"
        },
        {
          "indexed": true,
          "internalType": "address",
          "name": "operator",
          "type": "address"
        },
        {
          "indexed": false,
          "internalType": "bool",
          "name": "approved",
          "type": "bool"
        }
      ],
      "name": "ApprovalForAll",
      "type": "event"
    },
    {
      "anonymous": false,
      "inputs": [
        {
          "indexed": true,
          "internalType": "address",
          "name": "previousOwner",
          "type": "address"
        },
        {
          "indexed": true,
          "internalType": "address",
          "name": "newOwner",
          "type": "address"
        }
      ],
      "name": "OwnershipTransferred",
      "type": "event"
    },
    {
      "anonymous": false,
      "inputs": [
        {
          "indexed": false,
          "internalType": "address",
          "name": "account",
          "type": "address"
        }
      ],
      "name": "Paused",
      "type": "event"
    },
    {
      "anonymous": false,
      "inputs": [
        {
          "indexed": true,
          "internalType": "address",
          "name": "from",
          "type": "address"
        },
        {
          "indexed": true,
          "internalType": "address",
          "name": "to",
          "type": "address"
        },
        {
          "indexed": true,
          "internalType": "uint256",
          "name": "tokenId",
          "type": "uint256"
        }
      ],
      "name": "Transfer",
      "type": "event"
    },
    {
      "anonymous": false,
      "inputs": [
        {
          "indexed": false,
          "internalType": "address",
          "name": "account",
          "type": "address"
        }
      ],
      "name": "Unpaused",
      "type": "event"
    },
    {
      "inputs": [],
      "name": "WHITELIST_CONTRACT",
      "outputs": [
        {
          "internalType": "address",
          "name": "",
          "type": "address"
        }
      ],
      "stateMutability": "view",
      "type": "function"
    },
    {
      "inputs": [],
      "name": "Withdraw",
      "outputs": [],
      "stateMutability": "payable",
      "type": "function"
    },
    {
      "inputs": [
        {
          "internalType": "address",
          "name": "to",
          "type": "address"
        },
        {
          "internalType": "uint256",
          "name": "tokenId",
          "type": "uint256"
        }
      ],
      "name": "approve",
      "outputs": [],
      "stateMutability": "nonpayable",
      "type": "function"
    },
    {
      "inputs": [
        {
          "internalType": "address",
          "name": "owner",
          "type": "address"
        }
      ],
      "name": "balanceOf",
      "outputs": [
        {
          "internalType": "uint256",
          "name": "",
          "type": "uint256"
        }
      ],
      "stateMutability": "view",
      "type": "function"
    },
    {
      "inputs": [],
      "name": "checkWhitelist",
      "outputs": [
        {
          "internalType": "bool",
          "name": "",
          "type": "bool"
        }
      ],
      "stateMutability": "view",
      "type": "function"
    },
    {
      "inputs": [],
      "name": "contractURI",
      "outputs": [
        {
          "internalType": "string",
          "name": "",
          "type": "string"
        }
      ],
      "stateMutability": "pure",
      "type": "function"
    },
    {
      "inputs": [
        {
          "internalType": "uint256",
          "name": "tokenId",
          "type": "uint256"
        }
      ],
      "name": "getApproved",
      "outputs": [
        {
          "internalType": "address",
          "name": "",
          "type": "address"
        }
      ],
      "stateMutability": "view",
      "type": "function"
    },
    {
      "inputs": [],
      "name": "getContractBalance",
      "outputs": [
        {
          "internalType": "uint256",
          "name": "",
          "type": "uint256"
        }
      ],
      "stateMutability": "view",
      "type": "function"
    },
    {
      "inputs": [],
      "name": "getTokenCounter",
      "outputs": [
        {
          "internalType": "uint256",
          "name": "",
          "type": "uint256"
        }
      ],
      "stateMutability": "view",
      "type": "function"
    },
    {
      "inputs": [
        {
          "internalType": "address",
          "name": "owner",
          "type": "address"
        },
        {
          "internalType": "address",
          "name": "operator",
          "type": "address"
        }
      ],
      "name": "isApprovedForAll",
      "outputs": [
        {
          "internalType": "bool",
          "name": "",
          "type": "bool"
        }
      ],
      "stateMutability": "view",
      "type": "function"
    },
    {
      "inputs": [
        {
          "internalType": "string",
          "name": "uri",
          "type": "string"
        }
      ],
      "name": "isContentOwned",
      "outputs": [
        {
          "internalType": "bool",
          "name": "",
          "type": "bool"
        }
      ],
      "stateMutability": "view",
      "type": "function"
    },
    {
      "inputs": [],
      "name": "mintStatus",
      "outputs": [
        {
          "internalType": "bool",
          "name": "",
          "type": "bool"
        }
      ],
      "stateMutability": "view",
      "type": "function"
    },
    {
      "inputs": [],
      "name": "name",
      "outputs": [
        {
          "internalType": "string",
          "name": "",
          "type": "string"
        }
      ],
      "stateMutability": "view",
      "type": "function"
    },
    {
      "inputs": [],
      "name": "owner",
      "outputs": [
        {
          "internalType": "address",
          "name": "",
          "type": "address"
        }
      ],
      "stateMutability": "view",
      "type": "function"
    },
    {
      "inputs": [
        {
          "internalType": "uint256",
          "name": "tokenId",
          "type": "uint256"
        }
      ],
      "name": "ownerOf",
      "outputs": [
        {
          "internalType": "address",
          "name": "",
          "type": "address"
        }
      ],
      "stateMutability": "view",
      "type": "function"
    },
    {
      "inputs": [],
      "name": "pause",
      "outputs": [],
      "stateMutability": "nonpayable",
      "type": "function"
    },
    {
      "inputs": [],
      "name": "paused",
      "outputs": [
        {
          "internalType": "bool",
          "name": "",
          "type": "bool"
        }
      ],
      "stateMutability": "view",
      "type": "function"
    },
    {
      "inputs": [
        {
          "internalType": "string",
          "name": "metadataURI",
          "type": "string"
        }
      ],
      "name": "payToMint",
      "outputs": [
        {
          "internalType": "uint256",
          "name": "",
          "type": "uint256"
        }
      ],
      "stateMutability": "payable",
      "type": "function"
    },
    {
      "inputs": [],
      "name": "renounceOwnership",
      "outputs": [],
      "stateMutability": "nonpayable",
      "type": "function"
    },
    {
      "inputs": [
        {
          "internalType": "address",
          "name": "to",
          "type": "address"
        },
        {
          "internalType": "string",
          "name": "metadataURI",
          "type": "string"
        }
      ],
      "name": "safeMint",
      "outputs": [],
      "stateMutability": "nonpayable",
      "type": "function"
    },
    {
      "inputs": [
        {
          "internalType": "address",
          "name": "from",
          "type": "address"
        },
        {
          "internalType": "address",
          "name": "to",
          "type": "address"
        },
        {
          "internalType": "uint256",
          "name": "tokenId",
          "type": "uint256"
        }
      ],
      "name": "safeTransferFrom",
      "outputs": [],
      "stateMutability": "nonpayable",
      "type": "function"
    },
    {
      "inputs": [
        {
          "internalType": "address",
          "name": "from",
          "type": "address"
        },
        {
          "internalType": "address",
          "name": "to",
          "type": "address"
        },
        {
          "internalType": "uint256",
          "name": "tokenId",
          "type": "uint256"
        },
        {
          "internalType": "bytes",
          "name": "data",
          "type": "bytes"
        }
      ],
      "name": "safeTransferFrom",
      "outputs": [],
      "stateMutability": "nonpayable",
      "type": "function"
    },
    {
      "inputs": [
        {
          "internalType": "address",
          "name": "operator",
          "type": "address"
        },
        {
          "internalType": "bool",
          "name": "approved",
          "type": "bool"
        }
      ],
      "name": "setApprovalForAll",
      "outputs": [],
      "stateMutability": "nonpayable",
      "type": "function"
    },
    {
      "inputs": [
        {
          "internalType": "bool",
          "name": "status",
          "type": "bool"
        }
      ],
      "name": "setMintStatus",
      "outputs": [],
      "stateMutability": "nonpayable",
      "type": "function"
    },
    {
      "inputs": [
        {
          "internalType": "uint256",
          "name": "newPriceA",
          "type": "uint256"
        }
      ],
      "name": "setPriceCollectionA",
      "outputs": [],
      "stateMutability": "nonpayable",
      "type": "function"
    },
    {
      "inputs": [
        {
          "internalType": "bool",
          "name": "whitelistStatus",
          "type": "bool"
        }
      ],
      "name": "setWhitelistMintStatus",
      "outputs": [],
      "stateMutability": "nonpayable",
      "type": "function"
    },
    {
      "inputs": [
        {
          "internalType": "bytes4",
          "name": "interfaceId",
          "type": "bytes4"
        }
      ],
      "name": "supportsInterface",
      "outputs": [
        {
          "internalType": "bool",
          "name": "",
          "type": "bool"
        }
      ],
      "stateMutability": "view",
      "type": "function"
    },
    {
      "inputs": [],
      "name": "symbol",
      "outputs": [
        {
          "internalType": "string",
          "name": "",
          "type": "string"
        }
      ],
      "stateMutability": "view",
      "type": "function"
    },
    {
      "inputs": [
        {
          "internalType": "uint256",
          "name": "tokenId",
          "type": "uint256"
        }
      ],
      "name": "tokenURI",
      "outputs": [
        {
          "internalType": "string",
          "name": "",
          "type": "string"
        }
      ],
      "stateMutability": "view",
      "type": "function"
    },
    {
      "inputs": [
        {
          "internalType": "address",
          "name": "from",
          "type": "address"
        },
        {
          "internalType": "address",
          "name": "to",
          "type": "address"
        },
        {
          "internalType": "uint256",
          "name": "tokenId",
          "type": "uint256"
        }
      ],
      "name": "transferFrom",
      "outputs": [],
      "stateMutability": "nonpayable",
      "type": "function"
    },
    {
      "inputs": [
        {
          "internalType": "address",
          "name": "newOwner",
          "type": "address"
        }
      ],
      "name": "transferOwnership",
      "outputs": [],
      "stateMutability": "nonpayable",
      "type": "function"
    },
    {
      "inputs": [],
      "name": "unpause",
      "outputs": [],
      "stateMutability": "nonpayable",
      "type": "function"
    },
    {
      "inputs": [],
      "name": "whitelistMintStatus",
      "outputs": [
        {
          "internalType": "bool",
          "name": "",
          "type": "bool"
        }
      ],
      "stateMutability": "view",
      "type": "function"
    },
    {
      "inputs": [
        {
          "internalType": "string",
          "name": "metadataURI",
          "type": "string"
        }
      ],
      "name": "whitelistMinting",
      "outputs": [
        {
          "internalType": "uint256",
          "name": "",
          "type": "uint256"
        }
      ],
      "stateMutability": "payable",
      "type": "function"
    }
  ],
  "bytecode": "0x60a060405273d9145cce52d386f254917e481eb44e9943f39138600b60026101000a81548173ffffffffffffffffffffffffffffffffffffffff021916908373ffffffffffffffffffffffffffffffffffffffff1602179055503480156200006657600080fd5b506040518060400160405280600681526020017f4b756269637300000000000000000000000000000000000000000000000000008152506040518060400160405280600381526020017f4b424300000000000000000000000000000000000000000000000000000000008152508160009080519060200190620000eb9291906200029f565b508060019080519060200190620001049291906200029f565b5050506000600760006101000a81548160ff0219169083151502179055506200014262000136620001d160201b60201c565b620001d960201b60201c565b3373ffffffffffffffffffffffffffffffffffffffff1660808173ffffffffffffffffffffffffffffffffffffffff1660601b815250506611c37937e0800060098190555066038d7ea4c68000600a819055506001600b60006101000a81548160ff0219169083151502179055506000600b60016101000a81548160ff021916908315150217905550620003b4565b600033905090565b6000600760019054906101000a900473ffffffffffffffffffffffffffffffffffffffff16905081600760016101000a81548173ffffffffffffffffffffffffffffffffffffffff021916908373ffffffffffffffffffffffffffffffffffffffff1602179055508173ffffffffffffffffffffffffffffffffffffffff168173ffffffffffffffffffffffffffffffffffffffff167f8be0079c531659141344cd1fd0a4f28419497f9722a3daafe3b4186f6b6457e060405160405180910390a35050565b828054620002ad906200034f565b90600052602060002090601f016020900481019282620002d157600085556200031d565b82601f10620002ec57805160ff19168380011785556200031d565b828001600101855582156200031d579182015b828111156200031c578251825591602001919060010190620002ff565b5b5090506200032c919062000330565b5090565b5b808211156200034b57600081600090555060010162000331565b5090565b600060028204905060018216806200036857607f821691505b602082108114156200037f576200037e62000385565b5b50919050565b7f4e487b7100000000000000000000000000000000000000000000000000000000600052602260045260246000fd5b60805160601c61400f620003d3600039600061115c015261400f6000f3fe6080604052600436106101f95760003560e01c80636f9fb98a1161010d578063a22cb465116100a0578063cea101981161006f578063cea10198146106e6578063d204c45e14610711578063e8a3d4851461073a578063e985e9c514610765578063f2fde38b146107a2576101f9565b8063a22cb4651461062c578063b88d4fde14610655578063c87b56dd1461067e578063cb9fe586146106bb576101f9565b80638da5cb5b116100dc5780638da5cb5b1461056e57806395d89b41146105995780639da3f8fd146105c45780639f1cabc6146105ef576101f9565b80636f9fb98a146104d857806370a0823114610503578063715018a6146105405780638456cb5914610557576101f9565b80631f85e3ca11610190578063537efe311161015f578063537efe311461040b57806357ea89b61461043b5780635c975abb146104455780636352211e146104705780636e02007d146104ad576101f9565b80631f85e3ca1461037957806323b872dd146103a25780633f4ba83a146103cb57806342842e0e146103e2576101f9565b8063095ea7b3116101cc578063095ea7b3146102ce5780630e1b3022146102f75780630f029237146103205780631478723414610349576101f9565b806301ffc9a7146101fe57806306f2057a1461023b57806306fdde0314610266578063081812fc14610291575b600080fd5b34801561020a57600080fd5b5061022560048036038101906102209190612ca1565b6107cb565b604051610232919061324f565b60405180910390f35b34801561024757600080fd5b506102506108ad565b60405161025d919061324f565b60405180910390f35b34801561027257600080fd5b5061027b610964565b604051610288919061326a565b60405180910390f35b34801561029d57600080fd5b506102b860048036038101906102b39190612d34565b6109f6565b6040516102c591906131e8565b60405180910390f35b3480156102da57600080fd5b506102f560048036038101906102f09190612c13565b610a3c565b005b34801561030357600080fd5b5061031e60048036038101906103199190612c4f565b610b54565b005b34801561032c57600080fd5b5061034760048036038101906103429190612d34565b610b79565b005b610363600480360381019061035e9190612cf3565b610b8b565b604051610370919061358c565b60405180910390f35b34801561038557600080fd5b506103a0600480360381019061039b9190612c4f565b610dec565b005b3480156103ae57600080fd5b506103c960048036038101906103c49190612ab9565b610e11565b005b3480156103d757600080fd5b506103e0610e71565b005b3480156103ee57600080fd5b5061040960048036038101906104049190612ab9565b610e83565b005b61042560048036038101906104209190612cf3565b610ea3565b604051610432919061358c565b60405180910390f35b61044361106b565b005b34801561045157600080fd5b5061045a6111f2565b604051610467919061324f565b60405180910390f35b34801561047c57600080fd5b5061049760048036038101906104929190612d34565b611209565b6040516104a491906131e8565b60405180910390f35b3480156104b957600080fd5b506104c26112bb565b6040516104cf919061358c565b60405180910390f35b3480156104e457600080fd5b506104ed6112c5565b6040516104fa919061358c565b60405180910390f35b34801561050f57600080fd5b5061052a60048036038101906105259190612a54565b6112cd565b604051610537919061358c565b60405180910390f35b34801561054c57600080fd5b50610555611385565b005b34801561056357600080fd5b5061056c611399565b005b34801561057a57600080fd5b506105836113ab565b60405161059091906131e8565b60405180910390f35b3480156105a557600080fd5b506105ae6113d5565b6040516105bb919061326a565b60405180910390f35b3480156105d057600080fd5b506105d9611467565b6040516105e6919061324f565b60405180910390f35b3480156105fb57600080fd5b5061061660048036038101906106119190612cf3565b61147a565b604051610623919061324f565b60405180910390f35b34801561063857600080fd5b50610653600480360381019061064e9190612b83565b6114b5565b005b34801561066157600080fd5b5061067c60048036038101906106779190612b08565b6114cb565b005b34801561068a57600080fd5b506106a560048036038101906106a09190612d34565b61152d565b6040516106b2919061326a565b60405180910390f35b3480156106c757600080fd5b506106d061153f565b6040516106dd919061324f565b60405180910390f35b3480156106f257600080fd5b506106fb611552565b60405161070891906131e8565b60405180910390f35b34801561071d57600080fd5b5061073860048036038101906107339190612bbf565b61156a565b005b34801561074657600080fd5b5061074f6115df565b60405161075c919061326a565b60405180910390f35b34801561077157600080fd5b5061078c60048036038101906107879190612a7d565b6115ff565b604051610799919061324f565b60405180910390f35b3480156107ae57600080fd5b506107c960048036038101906107c49190612a54565b611693565b005b60007f80ac58cd000000000000000000000000000000000000000000000000000000007bffffffffffffffffffffffffffffffffffffffffffffffffffffffff1916827bffffffffffffffffffffffffffffffffffffffffffffffffffffffff1916148061089657507f5b5e139f000000000000000000000000000000000000000000000000000000007bffffffffffffffffffffffffffffffffffffffffffffffffffffffff1916827bffffffffffffffffffffffffffffffffffffffffffffffffffffffff1916145b806108a657506108a582611717565b5b9050919050565b600080600b60029054906101000a900473ffffffffffffffffffffffffffffffffffffffff1673ffffffffffffffffffffffffffffffffffffffff166313f44d10336040518263ffffffff1660e01b815260040161090b91906131e8565b60206040518083038186803b15801561092357600080fd5b505afa158015610937573d6000803e3d6000fd5b505050506040513d601f19601f8201168201806040525081019061095b9190612c78565b90508091505090565b60606000805461097390613847565b80601f016020809104026020016040519081016040528092919081815260200182805461099f90613847565b80156109ec5780601f106109c1576101008083540402835291602001916109ec565b820191906000526020600020905b8154815290600101906020018083116109cf57829003601f168201915b5050505050905090565b6000610a0182611781565b6004600083815260200190815260200160002060009054906101000a900473ffffffffffffffffffffffffffffffffffffffff169050919050565b6000610a4782611209565b90508073ffffffffffffffffffffffffffffffffffffffff168373ffffffffffffffffffffffffffffffffffffffff161415610ab8576040517f08c379a0000000000000000000000000000000000000000000000000000000008152600401610aaf906134ac565b60405180910390fd5b8073ffffffffffffffffffffffffffffffffffffffff16610ad76117cc565b73ffffffffffffffffffffffffffffffffffffffff161480610b065750610b0581610b006117cc565b6115ff565b5b610b45576040517f08c379a0000000000000000000000000000000000000000000000000000000008152600401610b3c9061340c565b60405180910390fd5b610b4f83836117d4565b505050565b610b5c61188d565b80600b60016101000a81548160ff02191690831515021790555050565b610b8161188d565b8060098190555050565b600060011515600b60019054906101000a900460ff16151514610be3576040517f08c379a0000000000000000000000000000000000000000000000000000000008152600401610bda9061350c565b60405180910390fd5b60011515610bef6108ad565b151514610c31576040517f08c379a0000000000000000000000000000000000000000000000000000000008152600401610c28906134cc565b60405180910390fd5b61271060085410610c77576040517f08c379a0000000000000000000000000000000000000000000000000000000008152600401610c6e9061354c565b60405180910390fd5b6001600c83604051610c899190613198565b908152602001604051809103902060009054906101000a900460ff1660ff161415610ce9576040517f08c379a0000000000000000000000000000000000000000000000000000000008152600401610ce0906134ec565b60405180910390fd5b600a54341015610d2e576040517f08c379a0000000000000000000000000000000000000000000000000000000008152600401610d259061356c565b60405180910390fd5b6001610d39336112cd565b10610d79576040517f08c379a0000000000000000000000000000000000000000000000000000000008152600401610d709061346c565b60405180910390fd5b600060085490506001600854610d8f919061367c565b6008819055506001600c84604051610da79190613198565b908152602001604051809103902060006101000a81548160ff021916908360ff160217905550610dd7338261190b565b610de18184611ae5565b600854915050919050565b610df461188d565b80600b60006101000a81548160ff02191690831515021790555050565b610e22610e1c6117cc565b82611b59565b610e61576040517f08c379a0000000000000000000000000000000000000000000000000000000008152600401610e589061352c565b60405180910390fd5b610e6c838383611bee565b505050565b610e7961188d565b610e81611e55565b565b610e9e838383604051806020016040528060008152506114cb565b505050565b600060011515600b60009054906101000a900460ff16151514610efb576040517f08c379a0000000000000000000000000000000000000000000000000000000008152600401610ef29061330c565b60405180910390fd5b61271060085410610f41576040517f08c379a0000000000000000000000000000000000000000000000000000000008152600401610f389061354c565b60405180910390fd5b6001600c83604051610f539190613198565b908152602001604051809103902060009054906101000a900460ff1660ff161415610fb3576040517f08c379a0000000000000000000000000000000000000000000000000000000008152600401610faa906134ec565b60405180910390fd5b600954341015610ff8576040517f08c379a0000000000000000000000000000000000000000000000000000000008152600401610fef9061356c565b60405180910390fd5b60006008549050600160085461100e919061367c565b6008819055506001600c846040516110269190613198565b908152602001604051809103902060006101000a81548160ff021916908360ff160217905550611056338261190b565b6110608184611ae5565b600854915050919050565b61107361188d565b600047116110b6576040517f08c379a00000000000000000000000000000000000000000000000000000000081526004016110ad9061334c565b60405180910390fd5b600073cfe3d942a24f6ece0057c0f96380abe20a4ad1b473ffffffffffffffffffffffffffffffffffffffff1660646001476110f29190613703565b6110fc91906136d2565b604051611108906131d3565b60006040518083038185875af1925050503d8060008114611145576040519150601f19603f3d011682016040523d82523d6000602084013e61114a565b606091505b505090508061115857600080fd5b60007f000000000000000000000000000000000000000000000000000000000000000073ffffffffffffffffffffffffffffffffffffffff164760405161119e906131d3565b60006040518083038185875af1925050503d80600081146111db576040519150601f19603f3d011682016040523d82523d6000602084013e6111e0565b606091505b50509050806111ee57600080fd5b5050565b6000600760009054906101000a900460ff16905090565b6000806002600084815260200190815260200160002060009054906101000a900473ffffffffffffffffffffffffffffffffffffffff169050600073ffffffffffffffffffffffffffffffffffffffff168173ffffffffffffffffffffffffffffffffffffffff1614156112b2576040517f08c379a00000000000000000000000000000000000000000000000000000000081526004016112a99061348c565b60405180910390fd5b80915050919050565b6000600854905090565b600047905090565b60008073ffffffffffffffffffffffffffffffffffffffff168273ffffffffffffffffffffffffffffffffffffffff16141561133e576040517f08c379a0000000000000000000000000000000000000000000000000000000008152600401611335906133cc565b60405180910390fd5b600360008373ffffffffffffffffffffffffffffffffffffffff1673ffffffffffffffffffffffffffffffffffffffff168152602001908152602001600020549050919050565b61138d61188d565b6113976000611eb8565b565b6113a161188d565b6113a9611f7e565b565b6000600760019054906101000a900473ffffffffffffffffffffffffffffffffffffffff16905090565b6060600180546113e490613847565b80601f016020809104026020016040519081016040528092919081815260200182805461141090613847565b801561145d5780601f106114325761010080835404028352916020019161145d565b820191906000526020600020905b81548152906001019060200180831161144057829003601f168201915b5050505050905090565b600b60009054906101000a900460ff1681565b60006001600c8360405161148e9190613198565b908152602001604051809103902060009054906101000a900460ff1660ff16149050919050565b6114c76114c06117cc565b8383611fe1565b5050565b6114dc6114d66117cc565b83611b59565b61151b576040517f08c379a00000000000000000000000000000000000000000000000000000000081526004016115129061352c565b60405180910390fd5b6115278484848461214e565b50505050565b6060611538826121aa565b9050919050565b600b60019054906101000a900460ff1681565b73d9145cce52d386f254917e481eb44e9943f3913881565b61157261188d565b600060085490506001600854611588919061367c565b6008819055506001600c836040516115a09190613198565b908152602001604051809103902060006101000a81548160ff021916908360ff1602179055506115d083826122bd565b6115da8183611ae5565b505050565b6060604051806060016040528060358152602001613fa560359139905090565b6000600560008473ffffffffffffffffffffffffffffffffffffffff1673ffffffffffffffffffffffffffffffffffffffff16815260200190815260200160002060008373ffffffffffffffffffffffffffffffffffffffff1673ffffffffffffffffffffffffffffffffffffffff16815260200190815260200160002060009054906101000a900460ff16905092915050565b61169b61188d565b600073ffffffffffffffffffffffffffffffffffffffff168173ffffffffffffffffffffffffffffffffffffffff16141561170b576040517f08c379a0000000000000000000000000000000000000000000000000000000008152600401611702906132cc565b60405180910390fd5b61171481611eb8565b50565b60007f01ffc9a7000000000000000000000000000000000000000000000000000000007bffffffffffffffffffffffffffffffffffffffffffffffffffffffff1916827bffffffffffffffffffffffffffffffffffffffffffffffffffffffff1916149050919050565b61178a816122db565b6117c9576040517f08c379a00000000000000000000000000000000000000000000000000000000081526004016117c09061348c565b60405180910390fd5b50565b600033905090565b816004600083815260200190815260200160002060006101000a81548173ffffffffffffffffffffffffffffffffffffffff021916908373ffffffffffffffffffffffffffffffffffffffff160217905550808273ffffffffffffffffffffffffffffffffffffffff1661184783611209565b73ffffffffffffffffffffffffffffffffffffffff167f8c5be1e5ebec7d5bd14f71427d1e84f3dd0314c0f7b2291e5b200ac8c7c3b92560405160405180910390a45050565b6118956117cc565b73ffffffffffffffffffffffffffffffffffffffff166118b36113ab565b73ffffffffffffffffffffffffffffffffffffffff1614611909576040517f08c379a00000000000000000000000000000000000000000000000000000000081526004016119009061344c565b60405180910390fd5b565b600073ffffffffffffffffffffffffffffffffffffffff168273ffffffffffffffffffffffffffffffffffffffff16141561197b576040517f08c379a00000000000000000000000000000000000000000000000000000000081526004016119729061342c565b60405180910390fd5b611984816122db565b156119c4576040517f08c379a00000000000000000000000000000000000000000000000000000000081526004016119bb9061332c565b60405180910390fd5b6119d060008383612347565b6001600360008473ffffffffffffffffffffffffffffffffffffffff1673ffffffffffffffffffffffffffffffffffffffff1681526020019081526020016000206000828254611a20919061367c565b92505081905550816002600083815260200190815260200160002060006101000a81548173ffffffffffffffffffffffffffffffffffffffff021916908373ffffffffffffffffffffffffffffffffffffffff160217905550808273ffffffffffffffffffffffffffffffffffffffff16600073ffffffffffffffffffffffffffffffffffffffff167fddf252ad1be2c89b69c2b068fc378daa952ba7f163c4a11628f55a4df523b3ef60405160405180910390a4611ae16000838361235f565b5050565b611aee826122db565b611b2d576040517f08c379a0000000000000000000000000000000000000000000000000000000008152600401611b24906133ec565b60405180910390fd5b80600660008481526020019081526020016000209080519060200190611b54929190612863565b505050565b600080611b6583611209565b90508073ffffffffffffffffffffffffffffffffffffffff168473ffffffffffffffffffffffffffffffffffffffff161480611ba75750611ba681856115ff565b5b80611be557508373ffffffffffffffffffffffffffffffffffffffff16611bcd846109f6565b73ffffffffffffffffffffffffffffffffffffffff16145b91505092915050565b8273ffffffffffffffffffffffffffffffffffffffff16611c0e82611209565b73ffffffffffffffffffffffffffffffffffffffff1614611c64576040517f08c379a0000000000000000000000000000000000000000000000000000000008152600401611c5b906132ec565b60405180910390fd5b600073ffffffffffffffffffffffffffffffffffffffff168273ffffffffffffffffffffffffffffffffffffffff161415611cd4576040517f08c379a0000000000000000000000000000000000000000000000000000000008152600401611ccb9061336c565b60405180910390fd5b611cdf838383612347565b611cea6000826117d4565b6001600360008573ffffffffffffffffffffffffffffffffffffffff1673ffffffffffffffffffffffffffffffffffffffff1681526020019081526020016000206000828254611d3a919061375d565b925050819055506001600360008473ffffffffffffffffffffffffffffffffffffffff1673ffffffffffffffffffffffffffffffffffffffff1681526020019081526020016000206000828254611d91919061367c565b92505081905550816002600083815260200190815260200160002060006101000a81548173ffffffffffffffffffffffffffffffffffffffff021916908373ffffffffffffffffffffffffffffffffffffffff160217905550808273ffffffffffffffffffffffffffffffffffffffff168473ffffffffffffffffffffffffffffffffffffffff167fddf252ad1be2c89b69c2b068fc378daa952ba7f163c4a11628f55a4df523b3ef60405160405180910390a4611e5083838361235f565b505050565b611e5d612364565b6000600760006101000a81548160ff0219169083151502179055507f5db9ee0a495bf2e6ff9c91a7834c1ba4fdd244a5e8aa4e537bd38aeae4b073aa611ea16117cc565b604051611eae91906131e8565b60405180910390a1565b6000600760019054906101000a900473ffffffffffffffffffffffffffffffffffffffff16905081600760016101000a81548173ffffffffffffffffffffffffffffffffffffffff021916908373ffffffffffffffffffffffffffffffffffffffff1602179055508173ffffffffffffffffffffffffffffffffffffffff168173ffffffffffffffffffffffffffffffffffffffff167f8be0079c531659141344cd1fd0a4f28419497f9722a3daafe3b4186f6b6457e060405160405180910390a35050565b611f866123ad565b6001600760006101000a81548160ff0219169083151502179055507f62e78cea01bee320cd4e420270b5ea74000d11b0c9f74754ebdbfc544b05a258611fca6117cc565b604051611fd791906131e8565b60405180910390a1565b8173ffffffffffffffffffffffffffffffffffffffff168373ffffffffffffffffffffffffffffffffffffffff161415612050576040517f08c379a00000000000000000000000000000000000000000000000000000000081526004016120479061338c565b60405180910390fd5b80600560008573ffffffffffffffffffffffffffffffffffffffff1673ffffffffffffffffffffffffffffffffffffffff16815260200190815260200160002060008473ffffffffffffffffffffffffffffffffffffffff1673ffffffffffffffffffffffffffffffffffffffff16815260200190815260200160002060006101000a81548160ff0219169083151502179055508173ffffffffffffffffffffffffffffffffffffffff168373ffffffffffffffffffffffffffffffffffffffff167f17307eab39ab6107e8899845ad3d59bd9653f200f220920489ca2b5937696c3183604051612141919061324f565b60405180910390a3505050565b612159848484611bee565b612165848484846123f7565b6121a4576040517f08c379a000000000000000000000000000000000000000000000000000000000815260040161219b906132ac565b60405180910390fd5b50505050565b60606121b582611781565b60006006600084815260200190815260200160002080546121d590613847565b80601f016020809104026020016040519081016040528092919081815260200182805461220190613847565b801561224e5780601f106122235761010080835404028352916020019161224e565b820191906000526020600020905b81548152906001019060200180831161223157829003601f168201915b50505050509050600061225f61258e565b90506000815114156122755781925050506122b8565b6000825111156122aa5780826040516020016122929291906131af565b604051602081830303815290604052925050506122b8565b6122b3846125cb565b925050505b919050565b6122d7828260405180602001604052806000815250612633565b5050565b60008073ffffffffffffffffffffffffffffffffffffffff166002600084815260200190815260200160002060009054906101000a900473ffffffffffffffffffffffffffffffffffffffff1673ffffffffffffffffffffffffffffffffffffffff1614159050919050565b61234f6123ad565b61235a83838361268e565b505050565b505050565b61236c6111f2565b6123ab576040517f08c379a00000000000000000000000000000000000000000000000000000000081526004016123a29061328c565b60405180910390fd5b565b6123b56111f2565b156123f5576040517f08c379a00000000000000000000000000000000000000000000000000000000081526004016123ec906133ac565b60405180910390fd5b565b60006124188473ffffffffffffffffffffffffffffffffffffffff16612693565b15612581578373ffffffffffffffffffffffffffffffffffffffff1663150b7a026124416117cc565b8786866040518563ffffffff1660e01b81526004016124639493929190613203565b602060405180830381600087803b15801561247d57600080fd5b505af19250505080156124ae57506040513d601f19601f820116820180604052508101906124ab9190612cca565b60015b612531573d80600081146124de576040519150601f19603f3d011682016040523d82523d6000602084013e6124e3565b606091505b50600081511415612529576040517f08c379a0000000000000000000000000000000000000000000000000000000008152600401612520906132ac565b60405180910390fd5b805181602001fd5b63150b7a0260e01b7bffffffffffffffffffffffffffffffffffffffffffffffffffffffff1916817bffffffffffffffffffffffffffffffffffffffffffffffffffffffff191614915050612586565b600190505b949350505050565b60606040518060400160405280600781526020017f697066733a2f2f00000000000000000000000000000000000000000000000000815250905090565b60606125d682611781565b60006125e061258e565b90506000815111612600576040518060200160405280600081525061262b565b8061260a846126b6565b60405160200161261b9291906131af565b6040516020818303038152906040525b915050919050565b61263d838361190b565b61264a60008484846123f7565b612689576040517f08c379a0000000000000000000000000000000000000000000000000000000008152600401612680906132ac565b60405180910390fd5b505050565b505050565b6000808273ffffffffffffffffffffffffffffffffffffffff163b119050919050565b606060008214156126fe576040518060400160405280600181526020017f3000000000000000000000000000000000000000000000000000000000000000815250905061285e565b600082905060005b60008214612730578080612719906138aa565b915050600a8261272991906136d2565b9150612706565b60008167ffffffffffffffff811115612772577f4e487b7100000000000000000000000000000000000000000000000000000000600052604160045260246000fd5b6040519080825280601f01601f1916602001820160405280156127a45781602001600182028036833780820191505090505b5090505b60008514612857576001826127bd919061375d565b9150600a856127cc91906138f3565b60306127d8919061367c565b60f81b818381518110612814577f4e487b7100000000000000000000000000000000000000000000000000000000600052603260045260246000fd5b60200101907effffffffffffffffffffffffffffffffffffffffffffffffffffffffffffff1916908160001a905350600a8561285091906136d2565b94506127a8565b8093505050505b919050565b82805461286f90613847565b90600052602060002090601f01602090048101928261289157600085556128d8565b82601f106128aa57805160ff19168380011785556128d8565b828001600101855582156128d8579182015b828111156128d75782518255916020019190600101906128bc565b5b5090506128e591906128e9565b5090565b5b808211156129025760008160009055506001016128ea565b5090565b6000612919612914846135cc565b6135a7565b90508281526020810184848401111561293157600080fd5b61293c848285613805565b509392505050565b6000612957612952846135fd565b6135a7565b90508281526020810184848401111561296f57600080fd5b61297a848285613805565b509392505050565b60008135905061299181613f48565b92915050565b6000813590506129a681613f5f565b92915050565b6000815190506129bb81613f5f565b92915050565b6000813590506129d081613f76565b92915050565b6000815190506129e581613f76565b92915050565b600082601f8301126129fc57600080fd5b8135612a0c848260208601612906565b91505092915050565b600082601f830112612a2657600080fd5b8135612a36848260208601612944565b91505092915050565b600081359050612a4e81613f8d565b92915050565b600060208284031215612a6657600080fd5b6000612a7484828501612982565b91505092915050565b60008060408385031215612a9057600080fd5b6000612a9e85828601612982565b9250506020612aaf85828601612982565b9150509250929050565b600080600060608486031215612ace57600080fd5b6000612adc86828701612982565b9350506020612aed86828701612982565b9250506040612afe86828701612a3f565b9150509250925092565b60008060008060808587031215612b1e57600080fd5b6000612b2c87828801612982565b9450506020612b3d87828801612982565b9350506040612b4e87828801612a3f565b925050606085013567ffffffffffffffff811115612b6b57600080fd5b612b77878288016129eb565b91505092959194509250565b60008060408385031215612b9657600080fd5b6000612ba485828601612982565b9250506020612bb585828601612997565b9150509250929050565b60008060408385031215612bd257600080fd5b6000612be085828601612982565b925050602083013567ffffffffffffffff811115612bfd57600080fd5b612c0985828601612a15565b9150509250929050565b60008060408385031215612c2657600080fd5b6000612c3485828601612982565b9250506020612c4585828601612a3f565b9150509250929050565b600060208284031215612c6157600080fd5b6000612c6f84828501612997565b91505092915050565b600060208284031215612c8a57600080fd5b6000612c98848285016129ac565b91505092915050565b600060208284031215612cb357600080fd5b6000612cc1848285016129c1565b91505092915050565b600060208284031215612cdc57600080fd5b6000612cea848285016129d6565b91505092915050565b600060208284031215612d0557600080fd5b600082013567ffffffffffffffff811115612d1f57600080fd5b612d2b84828501612a15565b91505092915050565b600060208284031215612d4657600080fd5b6000612d5484828501612a3f565b91505092915050565b612d6681613791565b82525050565b612d75816137a3565b82525050565b6000612d868261362e565b612d908185613644565b9350612da0818560208601613814565b612da9816139e0565b840191505092915050565b6000612dbf82613639565b612dc98185613660565b9350612dd9818560208601613814565b612de2816139e0565b840191505092915050565b6000612df882613639565b612e028185613671565b9350612e12818560208601613814565b80840191505092915050565b6000612e2b601483613660565b9150612e36826139f1565b602082019050919050565b6000612e4e603283613660565b9150612e5982613a1a565b604082019050919050565b6000612e71602683613660565b9150612e7c82613a69565b604082019050919050565b6000612e94602583613660565b9150612e9f82613ab8565b604082019050919050565b6000612eb7600c83613660565b9150612ec282613b07565b602082019050919050565b6000612eda601c83613660565b9150612ee582613b30565b602082019050919050565b6000612efd601883613660565b9150612f0882613b59565b602082019050919050565b6000612f20602483613660565b9150612f2b82613b82565b604082019050919050565b6000612f43601983613660565b9150612f4e82613bd1565b602082019050919050565b6000612f66601083613660565b9150612f7182613bfa565b602082019050919050565b6000612f89602983613660565b9150612f9482613c23565b604082019050919050565b6000612fac602e83613660565b9150612fb782613c72565b604082019050919050565b6000612fcf603e83613660565b9150612fda82613cc1565b604082019050919050565b6000612ff2602083613660565b9150612ffd82613d10565b602082019050919050565b6000613015602083613660565b915061302082613d39565b602082019050919050565b6000613038602483613660565b915061304382613d62565b604082019050919050565b600061305b601883613660565b915061306682613db1565b602082019050919050565b600061307e602183613660565b915061308982613dda565b604082019050919050565b60006130a1601483613660565b91506130ac82613e29565b602082019050919050565b60006130c4600083613655565b91506130cf82613e52565b600082019050919050565b60006130e7601383613660565b91506130f282613e55565b602082019050919050565b600061310a601683613660565b915061311582613e7e565b602082019050919050565b600061312d602e83613660565b915061313882613ea7565b604082019050919050565b6000613150601d83613660565b915061315b82613ef6565b602082019050919050565b6000613173600f83613660565b915061317e82613f1f565b602082019050919050565b613192816137fb565b82525050565b60006131a48284612ded565b915081905092915050565b60006131bb8285612ded565b91506131c78284612ded565b91508190509392505050565b60006131de826130b7565b9150819050919050565b60006020820190506131fd6000830184612d5d565b92915050565b60006080820190506132186000830187612d5d565b6132256020830186612d5d565b6132326040830185613189565b81810360608301526132448184612d7b565b905095945050505050565b60006020820190506132646000830184612d6c565b92915050565b600060208201905081810360008301526132848184612db4565b905092915050565b600060208201905081810360008301526132a581612e1e565b9050919050565b600060208201905081810360008301526132c581612e41565b9050919050565b600060208201905081810360008301526132e581612e64565b9050919050565b6000602082019050818103600083015261330581612e87565b9050919050565b6000602082019050818103600083015261332581612eaa565b9050919050565b6000602082019050818103600083015261334581612ecd565b9050919050565b6000602082019050818103600083015261336581612ef0565b9050919050565b6000602082019050818103600083015261338581612f13565b9050919050565b600060208201905081810360008301526133a581612f36565b9050919050565b600060208201905081810360008301526133c581612f59565b9050919050565b600060208201905081810360008301526133e581612f7c565b9050919050565b6000602082019050818103600083015261340581612f9f565b9050919050565b6000602082019050818103600083015261342581612fc2565b9050919050565b6000602082019050818103600083015261344581612fe5565b9050919050565b6000602082019050818103600083015261346581613008565b9050919050565b600060208201905081810360008301526134858161302b565b9050919050565b600060208201905081810360008301526134a58161304e565b9050919050565b600060208201905081810360008301526134c581613071565b9050919050565b600060208201905081810360008301526134e581613094565b9050919050565b60006020820190508181036000830152613505816130da565b9050919050565b60006020820190508181036000830152613525816130fd565b9050919050565b6000602082019050818103600083015261354581613120565b9050919050565b6000602082019050818103600083015261356581613143565b9050919050565b6000602082019050818103600083015261358581613166565b9050919050565b60006020820190506135a16000830184613189565b92915050565b60006135b16135c2565b90506135bd8282613879565b919050565b6000604051905090565b600067ffffffffffffffff8211156135e7576135e66139b1565b5b6135f0826139e0565b9050602081019050919050565b600067ffffffffffffffff821115613618576136176139b1565b5b613621826139e0565b9050602081019050919050565b600081519050919050565b600081519050919050565b600082825260208201905092915050565b600081905092915050565b600082825260208201905092915050565b600081905092915050565b6000613687826137fb565b9150613692836137fb565b9250827fffffffffffffffffffffffffffffffffffffffffffffffffffffffffffffffff038211156136c7576136c6613924565b5b828201905092915050565b60006136dd826137fb565b91506136e8836137fb565b9250826136f8576136f7613953565b5b828204905092915050565b600061370e826137fb565b9150613719836137fb565b9250817fffffffffffffffffffffffffffffffffffffffffffffffffffffffffffffffff048311821515161561375257613751613924565b5b828202905092915050565b6000613768826137fb565b9150613773836137fb565b92508282101561378657613785613924565b5b828203905092915050565b600061379c826137db565b9050919050565b60008115159050919050565b60007fffffffff0000000000000000000000000000000000000000000000000000000082169050919050565b600073ffffffffffffffffffffffffffffffffffffffff82169050919050565b6000819050919050565b82818337600083830152505050565b60005b83811015613832578082015181840152602081019050613817565b83811115613841576000848401525b50505050565b6000600282049050600182168061385f57607f821691505b6020821081141561387357613872613982565b5b50919050565b613882826139e0565b810181811067ffffffffffffffff821117156138a1576138a06139b1565b5b80604052505050565b60006138b5826137fb565b91507fffffffffffffffffffffffffffffffffffffffffffffffffffffffffffffffff8214156138e8576138e7613924565b5b600182019050919050565b60006138fe826137fb565b9150613909836137fb565b92508261391957613918613953565b5b828206905092915050565b7f4e487b7100000000000000000000000000000000000000000000000000000000600052601160045260246000fd5b7f4e487b7100000000000000000000000000000000000000000000000000000000600052601260045260246000fd5b7f4e487b7100000000000000000000000000000000000000000000000000000000600052602260045260246000fd5b7f4e487b7100000000000000000000000000000000000000000000000000000000600052604160045260246000fd5b6000601f19601f8301169050919050565b7f5061757361626c653a206e6f7420706175736564000000000000000000000000600082015250565b7f4552433732313a207472616e7366657220746f206e6f6e20455243373231526560008201527f63656976657220696d706c656d656e7465720000000000000000000000000000602082015250565b7f4f776e61626c653a206e6577206f776e657220697320746865207a65726f206160008201527f6464726573730000000000000000000000000000000000000000000000000000602082015250565b7f4552433732313a207472616e736665722066726f6d20696e636f72726563742060008201527f6f776e6572000000000000000000000000000000000000000000000000000000602082015250565b7f4d696e7420636c6f736564210000000000000000000000000000000000000000600082015250565b7f4552433732313a20746f6b656e20616c7265616479206d696e74656400000000600082015250565b7f4e6f206d6f6e657920696e2074686520636f6e74726163740000000000000000600082015250565b7f4552433732313a207472616e7366657220746f20746865207a65726f2061646460008201527f7265737300000000000000000000000000000000000000000000000000000000602082015250565b7f4552433732313a20617070726f766520746f2063616c6c657200000000000000600082015250565b7f5061757361626c653a2070617573656400000000000000000000000000000000600082015250565b7f4552433732313a2061646472657373207a65726f206973206e6f74206120766160008201527f6c6964206f776e65720000000000000000000000000000000000000000000000602082015250565b7f45524337323155524953746f726167653a2055524920736574206f66206e6f6e60008201527f6578697374656e7420746f6b656e000000000000000000000000000000000000602082015250565b7f4552433732313a20617070726f76652063616c6c6572206973206e6f7420746f60008201527f6b656e206f776e6572206e6f7220617070726f76656420666f7220616c6c0000602082015250565b7f4552433732313a206d696e7420746f20746865207a65726f2061646472657373600082015250565b7f4f776e61626c653a2063616c6c6572206973206e6f7420746865206f776e6572600082015250565b7f557365722068617320616c726561647920636c61696d6564207468656972207460008201527f6f6b656e00000000000000000000000000000000000000000000000000000000602082015250565b7f4552433732313a20696e76616c696420746f6b656e2049440000000000000000600082015250565b7f4552433732313a20617070726f76616c20746f2063757272656e74206f776e6560008201527f7200000000000000000000000000000000000000000000000000000000000000602082015250565b7f4e6f7420696e207468652077686974656c697374000000000000000000000000600082015250565b50565b7f4e465420616c7265616479206d696e7465642100000000000000000000000000600082015250565b7f57686974656c697374204d696e7420636c6f7365642100000000000000000000600082015250565b7f4552433732313a2063616c6c6572206973206e6f7420746f6b656e206f776e6560008201527f72206e6f7220617070726f766564000000000000000000000000000000000000602082015250565b7f416c6c20746865204e46542068617665206265656e206d696e74656421000000600082015250565b7f4e65656420746f20706179207570210000000000000000000000000000000000600082015250565b613f5181613791565b8114613f5c57600080fd5b50565b613f68816137a3565b8114613f7357600080fd5b50565b613f7f816137af565b8114613f8a57600080fd5b50565b613f96816137fb565b8114613fa157600080fd5b5056fe697066733a2f2f516d627a7850673656467766575a4674416650757232786d33524d464532746e5776524757543836726764564473a2646970667358221220f18c0f8e834663737fe188466510367483fe8dd864b5fc8dfbdcf86400c3ea5f64736f6c63430008040033",
  "linkReferences": {},
  "deployedLinkReferences": {}
}