{
  "_format": "hh-sol-artifact-1",
  "contractName": "DragonKeeper",
  "sourceName": "contracts/DragonKeeper.sol",
  "abi": [
    {
      "inputs": [],
      "stateMutability": "nonpayable",
      "type": "constructor"
    },
    {
      "inputs": [],
      "name": "Kubics__MintALimitReached",
      "type": "error"
    },
    {
      "inputs": [],
      "name": "Kubics__MintClosed",
      "type": "error"
    },
    {
      "inputs": [],
      "name": "Kubics__MintLimitReached",
      "type": "error"
    },
    {
      "inputs": [],
      "name": "Kubics__NFTMinted",
      "type": "error"
    },
    {
      "inputs": [],
      "name": "Kubics__NeedToPayUp",
      "type": "error"
    },
    {
      "inputs": [],
      "name": "Kubics__NotInTheWhitelist",
      "type": "error"
    },
    {
      "inputs": [],
      "name": "Kubics__NotMoneyInContract",
      "type": "error"
    },
    {
      "inputs": [],
      "name": "Kubics__WhitelistLimit",
      "type": "error"
    },
    {
      "inputs": [],
      "name": "Kubics__WhitelistMintClosed",
      "type": "error"
    },
    {
      "anonymous": false,
      "inputs": [
        {
          "indexed": true,
          "internalType": "address",
          "name": "owner",
          "type": "address"
        },
        {
          "indexed": true,
          "internalType": "address",
          "name": "approved",
          "type": "address"
        },
        {
          "indexed": true,
          "internalType": "uint256",
          "name": "tokenId",
          "type": "uint256"
        }
      ],
      "name": "Approval",
      "type": "event"
    },
    {
      "anonymous": false,
      "inputs": [
        {
          "indexed": true,
          "internalType": "address",
          "name": "owner",
          "type": "address"
        },
        {
          "indexed": true,
          "internalType": "address",
          "name": "operator",
          "type": "address"
        },
        {
          "indexed": false,
          "internalType": "bool",
          "name": "approved",
          "type": "bool"
        }
      ],
      "name": "ApprovalForAll",
      "type": "event"
    },
    {
      "anonymous": false,
      "inputs": [
        {
          "indexed": true,
          "internalType": "address",
          "name": "previousOwner",
          "type": "address"
        },
        {
          "indexed": true,
          "internalType": "address",
          "name": "newOwner",
          "type": "address"
        }
      ],
      "name": "OwnershipTransferred",
      "type": "event"
    },
    {
      "anonymous": false,
      "inputs": [
        {
          "indexed": false,
          "internalType": "address",
          "name": "account",
          "type": "address"
        }
      ],
      "name": "Paused",
      "type": "event"
    },
    {
      "anonymous": false,
      "inputs": [
        {
          "indexed": true,
          "internalType": "address",
          "name": "from",
          "type": "address"
        },
        {
          "indexed": true,
          "internalType": "address",
          "name": "to",
          "type": "address"
        },
        {
          "indexed": true,
          "internalType": "uint256",
          "name": "tokenId",
          "type": "uint256"
        }
      ],
      "name": "Transfer",
      "type": "event"
    },
    {
      "anonymous": false,
      "inputs": [
        {
          "indexed": false,
          "internalType": "address",
          "name": "account",
          "type": "address"
        }
      ],
      "name": "Unpaused",
      "type": "event"
    },
    {
      "inputs": [],
      "name": "WHITELIST_CONTRACT",
      "outputs": [
        {
          "internalType": "address",
          "name": "",
          "type": "address"
        }
      ],
      "stateMutability": "view",
      "type": "function"
    },
    {
      "inputs": [],
      "name": "Withdraw",
      "outputs": [],
      "stateMutability": "payable",
      "type": "function"
    },
    {
      "inputs": [
        {
          "internalType": "address",
          "name": "to",
          "type": "address"
        },
        {
          "internalType": "uint256",
          "name": "tokenId",
          "type": "uint256"
        }
      ],
      "name": "approve",
      "outputs": [],
      "stateMutability": "nonpayable",
      "type": "function"
    },
    {
      "inputs": [
        {
          "internalType": "address",
          "name": "owner",
          "type": "address"
        }
      ],
      "name": "balanceOf",
      "outputs": [
        {
          "internalType": "uint256",
          "name": "",
          "type": "uint256"
        }
      ],
      "stateMutability": "view",
      "type": "function"
    },
    {
      "inputs": [],
      "name": "checkWhitelist",
      "outputs": [
        {
          "internalType": "bool",
          "name": "",
          "type": "bool"
        }
      ],
      "stateMutability": "view",
      "type": "function"
    },
    {
      "inputs": [],
      "name": "contractURI",
      "outputs": [
        {
          "internalType": "string",
          "name": "",
          "type": "string"
        }
      ],
      "stateMutability": "pure",
      "type": "function"
    },
    {
      "inputs": [
        {
          "internalType": "uint256",
          "name": "tokenId",
          "type": "uint256"
        }
      ],
      "name": "getApproved",
      "outputs": [
        {
          "internalType": "address",
          "name": "",
          "type": "address"
        }
      ],
      "stateMutability": "view",
      "type": "function"
    },
    {
      "inputs": [],
      "name": "getContractBalance",
      "outputs": [
        {
          "internalType": "uint256",
          "name": "",
          "type": "uint256"
        }
      ],
      "stateMutability": "view",
      "type": "function"
    },
    {
      "inputs": [],
      "name": "getTokenCounter",
      "outputs": [
        {
          "internalType": "uint256",
          "name": "",
          "type": "uint256"
        }
      ],
      "stateMutability": "view",
      "type": "function"
    },
    {
      "inputs": [],
      "name": "getTokenCounter_Common",
      "outputs": [
        {
          "internalType": "uint256",
          "name": "",
          "type": "uint256"
        }
      ],
      "stateMutability": "view",
      "type": "function"
    },
    {
      "inputs": [],
      "name": "getTokenCounter_Legendary",
      "outputs": [
        {
          "internalType": "uint256",
          "name": "",
          "type": "uint256"
        }
      ],
      "stateMutability": "view",
      "type": "function"
    },
    {
      "inputs": [],
      "name": "getTokenCounter_Rare",
      "outputs": [
        {
          "internalType": "uint256",
          "name": "",
          "type": "uint256"
        }
      ],
      "stateMutability": "view",
      "type": "function"
    },
    {
      "inputs": [],
      "name": "getTokenCounter_UltraRare",
      "outputs": [
        {
          "internalType": "uint256",
          "name": "",
          "type": "uint256"
        }
      ],
      "stateMutability": "view",
      "type": "function"
    },
    {
      "inputs": [],
      "name": "getTokenCounter_Uncommon",
      "outputs": [
        {
          "internalType": "uint256",
          "name": "",
          "type": "uint256"
        }
      ],
      "stateMutability": "view",
      "type": "function"
    },
    {
      "inputs": [
        {
          "internalType": "address",
          "name": "owner",
          "type": "address"
        },
        {
          "internalType": "address",
          "name": "operator",
          "type": "address"
        }
      ],
      "name": "isApprovedForAll",
      "outputs": [
        {
          "internalType": "bool",
          "name": "",
          "type": "bool"
        }
      ],
      "stateMutability": "view",
      "type": "function"
    },
    {
      "inputs": [
        {
          "internalType": "string",
          "name": "uri",
          "type": "string"
        }
      ],
      "name": "isContentOwned",
      "outputs": [
        {
          "internalType": "bool",
          "name": "",
          "type": "bool"
        }
      ],
      "stateMutability": "view",
      "type": "function"
    },
    {
      "inputs": [],
      "name": "mintStatus",
      "outputs": [
        {
          "internalType": "bool",
          "name": "",
          "type": "bool"
        }
      ],
      "stateMutability": "view",
      "type": "function"
    },
    {
      "inputs": [],
      "name": "name",
      "outputs": [
        {
          "internalType": "string",
          "name": "",
          "type": "string"
        }
      ],
      "stateMutability": "view",
      "type": "function"
    },
    {
      "inputs": [],
      "name": "owner",
      "outputs": [
        {
          "internalType": "address",
          "name": "",
          "type": "address"
        }
      ],
      "stateMutability": "view",
      "type": "function"
    },
    {
      "inputs": [
        {
          "internalType": "uint256",
          "name": "tokenId",
          "type": "uint256"
        }
      ],
      "name": "ownerOf",
      "outputs": [
        {
          "internalType": "address",
          "name": "",
          "type": "address"
        }
      ],
      "stateMutability": "view",
      "type": "function"
    },
    {
      "inputs": [],
      "name": "pause",
      "outputs": [],
      "stateMutability": "nonpayable",
      "type": "function"
    },
    {
      "inputs": [],
      "name": "paused",
      "outputs": [
        {
          "internalType": "bool",
          "name": "",
          "type": "bool"
        }
      ],
      "stateMutability": "view",
      "type": "function"
    },
    {
      "inputs": [
        {
          "internalType": "string",
          "name": "metadataURI",
          "type": "string"
        }
      ],
      "name": "payToMint_Common",
      "outputs": [
        {
          "internalType": "uint256",
          "name": "",
          "type": "uint256"
        }
      ],
      "stateMutability": "payable",
      "type": "function"
    },
    {
      "inputs": [
        {
          "internalType": "string",
          "name": "metadataURI",
          "type": "string"
        }
      ],
      "name": "payToMint_Legendary",
      "outputs": [
        {
          "internalType": "uint256",
          "name": "",
          "type": "uint256"
        }
      ],
      "stateMutability": "payable",
      "type": "function"
    },
    {
      "inputs": [
        {
          "internalType": "string",
          "name": "metadataURI",
          "type": "string"
        }
      ],
      "name": "payToMint_Rare",
      "outputs": [
        {
          "internalType": "uint256",
          "name": "",
          "type": "uint256"
        }
      ],
      "stateMutability": "payable",
      "type": "function"
    },
    {
      "inputs": [
        {
          "internalType": "string",
          "name": "metadataURI",
          "type": "string"
        }
      ],
      "name": "payToMint_UltraRare",
      "outputs": [
        {
          "internalType": "uint256",
          "name": "",
          "type": "uint256"
        }
      ],
      "stateMutability": "payable",
      "type": "function"
    },
    {
      "inputs": [
        {
          "internalType": "string",
          "name": "metadataURI",
          "type": "string"
        }
      ],
      "name": "payToMint_Uncommon",
      "outputs": [
        {
          "internalType": "uint256",
          "name": "",
          "type": "uint256"
        }
      ],
      "stateMutability": "payable",
      "type": "function"
    },
    {
      "inputs": [],
      "name": "renounceOwnership",
      "outputs": [],
      "stateMutability": "nonpayable",
      "type": "function"
    },
    {
      "inputs": [
        {
          "internalType": "address",
          "name": "to",
          "type": "address"
        },
        {
          "internalType": "string",
          "name": "metadataURI",
          "type": "string"
        }
      ],
      "name": "safeMint",
      "outputs": [],
      "stateMutability": "nonpayable",
      "type": "function"
    },
    {
      "inputs": [
        {
          "internalType": "address",
          "name": "from",
          "type": "address"
        },
        {
          "internalType": "address",
          "name": "to",
          "type": "address"
        },
        {
          "internalType": "uint256",
          "name": "tokenId",
          "type": "uint256"
        }
      ],
      "name": "safeTransferFrom",
      "outputs": [],
      "stateMutability": "nonpayable",
      "type": "function"
    },
    {
      "inputs": [
        {
          "internalType": "address",
          "name": "from",
          "type": "address"
        },
        {
          "internalType": "address",
          "name": "to",
          "type": "address"
        },
        {
          "internalType": "uint256",
          "name": "tokenId",
          "type": "uint256"
        },
        {
          "internalType": "bytes",
          "name": "data",
          "type": "bytes"
        }
      ],
      "name": "safeTransferFrom",
      "outputs": [],
      "stateMutability": "nonpayable",
      "type": "function"
    },
    {
      "inputs": [
        {
          "internalType": "address",
          "name": "operator",
          "type": "address"
        },
        {
          "internalType": "bool",
          "name": "approved",
          "type": "bool"
        }
      ],
      "name": "setApprovalForAll",
      "outputs": [],
      "stateMutability": "nonpayable",
      "type": "function"
    },
    {
      "inputs": [
        {
          "internalType": "bool",
          "name": "status",
          "type": "bool"
        }
      ],
      "name": "setMintStatus",
      "outputs": [],
      "stateMutability": "nonpayable",
      "type": "function"
    },
    {
      "inputs": [
        {
          "internalType": "uint256",
          "name": "newPriceD",
          "type": "uint256"
        }
      ],
      "name": "setPriceCollectionD",
      "outputs": [],
      "stateMutability": "nonpayable",
      "type": "function"
    },
    {
      "inputs": [
        {
          "internalType": "uint256",
          "name": "newPriceE",
          "type": "uint256"
        }
      ],
      "name": "setPrice_Common",
      "outputs": [],
      "stateMutability": "nonpayable",
      "type": "function"
    },
    {
      "inputs": [
        {
          "internalType": "uint256",
          "name": "newPriceA",
          "type": "uint256"
        }
      ],
      "name": "setPrice_Legendary",
      "outputs": [],
      "stateMutability": "nonpayable",
      "type": "function"
    },
    {
      "inputs": [
        {
          "internalType": "uint256",
          "name": "newPriceC",
          "type": "uint256"
        }
      ],
      "name": "setPrice_Rare",
      "outputs": [],
      "stateMutability": "nonpayable",
      "type": "function"
    },
    {
      "inputs": [
        {
          "internalType": "uint256",
          "name": "newPriceB",
          "type": "uint256"
        }
      ],
      "name": "setPrice_UltraRare",
      "outputs": [],
      "stateMutability": "nonpayable",
      "type": "function"
    },
    {
      "inputs": [
        {
          "internalType": "bool",
          "name": "status",
          "type": "bool"
        }
      ],
      "name": "setWhitelistMintStatus",
      "outputs": [],
      "stateMutability": "nonpayable",
      "type": "function"
    },
    {
      "inputs": [
        {
          "internalType": "bytes4",
          "name": "interfaceId",
          "type": "bytes4"
        }
      ],
      "name": "supportsInterface",
      "outputs": [
        {
          "internalType": "bool",
          "name": "",
          "type": "bool"
        }
      ],
      "stateMutability": "view",
      "type": "function"
    },
    {
      "inputs": [],
      "name": "symbol",
      "outputs": [
        {
          "internalType": "string",
          "name": "",
          "type": "string"
        }
      ],
      "stateMutability": "view",
      "type": "function"
    },
    {
      "inputs": [
        {
          "internalType": "uint256",
          "name": "tokenId",
          "type": "uint256"
        }
      ],
      "name": "tokenURI",
      "outputs": [
        {
          "internalType": "string",
          "name": "",
          "type": "string"
        }
      ],
      "stateMutability": "view",
      "type": "function"
    },
    {
      "inputs": [
        {
          "internalType": "address",
          "name": "from",
          "type": "address"
        },
        {
          "internalType": "address",
          "name": "to",
          "type": "address"
        },
        {
          "internalType": "uint256",
          "name": "tokenId",
          "type": "uint256"
        }
      ],
      "name": "transferFrom",
      "outputs": [],
      "stateMutability": "nonpayable",
      "type": "function"
    },
    {
      "inputs": [
        {
          "internalType": "address",
          "name": "newOwner",
          "type": "address"
        }
      ],
      "name": "transferOwnership",
      "outputs": [],
      "stateMutability": "nonpayable",
      "type": "function"
    },
    {
      "inputs": [],
      "name": "unpause",
      "outputs": [],
      "stateMutability": "nonpayable",
      "type": "function"
    },
    {
      "inputs": [],
      "name": "whitelistMintStatus",
      "outputs": [
        {
          "internalType": "bool",
          "name": "",
          "type": "bool"
        }
      ],
      "stateMutability": "view",
      "type": "function"
    },
    {
      "inputs": [
        {
          "internalType": "string",
          "name": "metadataURI",
          "type": "string"
        }
      ],
      "name": "whitelistMinting_Common",
      "outputs": [
        {
          "internalType": "uint256",
          "name": "",
          "type": "uint256"
        }
      ],
      "stateMutability": "payable",
      "type": "function"
    },
    {
      "inputs": [
        {
          "internalType": "string",
          "name": "metadataURI",
          "type": "string"
        }
      ],
      "name": "whitelistMinting_Legendary",
      "outputs": [
        {
          "internalType": "uint256",
          "name": "",
          "type": "uint256"
        }
      ],
      "stateMutability": "payable",
      "type": "function"
    },
    {
      "inputs": [
        {
          "internalType": "string",
          "name": "metadataURI",
          "type": "string"
        }
      ],
      "name": "whitelistMinting_Rare",
      "outputs": [
        {
          "internalType": "uint256",
          "name": "",
          "type": "uint256"
        }
      ],
      "stateMutability": "payable",
      "type": "function"
    },
    {
      "inputs": [
        {
          "internalType": "string",
          "name": "metadataURI",
          "type": "string"
        }
      ],
      "name": "whitelistMinting_UltraRare",
      "outputs": [
        {
          "internalType": "uint256",
          "name": "",
          "type": "uint256"
        }
      ],
      "stateMutability": "payable",
      "type": "function"
    },
    {
      "inputs": [
        {
          "internalType": "string",
          "name": "metadataURI",
          "type": "string"
        }
      ],
      "name": "whitelistMinting_Uncommon",
      "outputs": [
        {
          "internalType": "uint256",
          "name": "",
          "type": "uint256"
        }
      ],
      "stateMutability": "payable",
      "type": "function"
    }
  ],
  "bytecode": "0x61014060405273cae8b7cd1b0956d1ce2d77a0ad9a854201447500601460026101000a81548173ffffffffffffffffffffffffffffffffffffffff021916908373ffffffffffffffffffffffffffffffffffffffff1602179055503480156200006757600080fd5b506040518060400160405280600c81526020017f447261676f6e4b656570657200000000000000000000000000000000000000008152506040518060400160405280600381526020017f444b5000000000000000000000000000000000000000000000000000000000008152508160009080519060200190620000ec9291906200044b565b508060019080519060200190620001059291906200044b565b5050506000600760006101000a81548160ff02191690831515021790555062000143620001376200037d60201b60201c565b6200038560201b60201c565b60016008819055503373ffffffffffffffffffffffffffffffffffffffff1660808173ffffffffffffffffffffffffffffffffffffffff1660601b8152505073ab8483f64d9c6d1ecf9b849ae677dd3315835cb273ffffffffffffffffffffffffffffffffffffffff1660a08173ffffffffffffffffffffffffffffffffffffffff1660601b8152505073ab8483f64d9c6d1ecf9b849ae677dd3315835cb273ffffffffffffffffffffffffffffffffffffffff1660c08173ffffffffffffffffffffffffffffffffffffffff1660601b8152505073ab8483f64d9c6d1ecf9b849ae677dd3315835cb273ffffffffffffffffffffffffffffffffffffffff1660e08173ffffffffffffffffffffffffffffffffffffffff1660601b8152505073ab8483f64d9c6d1ecf9b849ae677dd3315835cb273ffffffffffffffffffffffffffffffffffffffff166101008173ffffffffffffffffffffffffffffffffffffffff1660601b8152505073ab8483f64d9c6d1ecf9b849ae677dd3315835cb273ffffffffffffffffffffffffffffffffffffffff166101208173ffffffffffffffffffffffffffffffffffffffff1660601b815250506611c37937e08000600f819055506611c37937e080006010819055506611c37937e080006011819055506611c37937e080006012819055506611c37937e080006013819055506001601460006101000a81548160ff0219169083151502179055506001601460016101000a81548160ff02191690831515021790555062000560565b600033905090565b6000600760019054906101000a900473ffffffffffffffffffffffffffffffffffffffff16905081600760016101000a81548173ffffffffffffffffffffffffffffffffffffffff021916908373ffffffffffffffffffffffffffffffffffffffff1602179055508173ffffffffffffffffffffffffffffffffffffffff168173ffffffffffffffffffffffffffffffffffffffff167f8be0079c531659141344cd1fd0a4f28419497f9722a3daafe3b4186f6b6457e060405160405180910390a35050565b8280546200045990620004fb565b90600052602060002090601f0160209004810192826200047d5760008555620004c9565b82601f106200049857805160ff1916838001178555620004c9565b82800160010185558215620004c9579182015b82811115620004c8578251825591602001919060010190620004ab565b5b509050620004d89190620004dc565b5090565b5b80821115620004f7576000816000905550600101620004dd565b5090565b600060028204905060018216806200051457607f821691505b602082108114156200052b576200052a62000531565b5b50919050565b7f4e487b7100000000000000000000000000000000000000000000000000000000600052602260045260246000fd5b60805160601c60a05160601c60c05160601c60e05160601c6101005160601c6101205160601c6158bd620005c26000396000611864015260006117b6015260006117080152600061165a015260006115ac0152600061191201526158bd6000f3fe6080604052600436106102e45760003560e01c80638456cb5911610190578063d1213dd3116100dc578063dd2342bb11610095578063e91a074c1161006f578063e91a074c14610af5578063e985e9c514610b20578063ee383b1314610b5d578063f2fde38b14610b88576102e4565b8063dd2342bb14610a71578063e75cd26114610a9a578063e8a3d48514610aca576102e4565b8063d1213dd31461095d578063d204c45e1461098d578063d2229aa4146109b6578063d4a88623146109e1578063dc7814e714610a11578063dd13fefd14610a41576102e4565b80639f1cabc611610149578063b88d4fde11610123578063b88d4fde146108a1578063c87b56dd146108ca578063cb9fe58614610907578063cea1019814610932576102e4565b80639f1cabc614610812578063a22cb4651461084f578063b74ca31514610878576102e4565b80638456cb591461072157806387960421146107385780638da5cb5b14610761578063940548f71461078c57806395d89b41146107bc5780639da3f8fd146107e7576102e4565b806342842e0e1161024f57806364ac13a31161020857806370a08231116101e257806370a0823114610672578063715018a6146106af57806372a43ddf146106c65780637c2dc10c146106f1576102e4565b806364ac13a3146105ec5780636e02007d1461061c5780636f9fb98a14610647576102e4565b806342842e0e146104fd57806347c6ce271461052657806357ea89b6146105515780635c975abb1461055b5780635e17b87f146105865780636352211e146105af576102e4565b80630e1b3022116102a15780630e1b302214610412578063144573271461043b5780631f85e3ca1461046457806323b872dd1461048d57806335966f2c146104b65780633f4ba83a146104e6576102e4565b806301ffc9a7146102e957806302084dde1461032657806306f2057a1461035657806306fdde0314610381578063081812fc146103ac578063095ea7b3146103e9575b600080fd5b3480156102f557600080fd5b50610310600480360381019061030b9190614869565b610bb1565b60405161031d9190614d22565b60405180910390f35b610340600480360381019061033b91906148bb565b610c93565b60405161034d9190614f7f565b60405180910390f35b34801561036257600080fd5b5061036b610f2b565b6040516103789190614d22565b60405180910390f35b34801561038d57600080fd5b50610396610fe2565b6040516103a39190614d3d565b60405180910390f35b3480156103b857600080fd5b506103d360048036038101906103ce91906148fc565b611074565b6040516103e09190614cbb565b60405180910390f35b3480156103f557600080fd5b50610410600480360381019061040b91906147db565b6110ba565b005b34801561041e57600080fd5b5061043960048036038101906104349190614817565b6111d2565b005b34801561044757600080fd5b50610462600480360381019061045d91906148fc565b6111f7565b005b34801561047057600080fd5b5061048b60048036038101906104869190614817565b611209565b005b34801561049957600080fd5b506104b460048036038101906104af9190614681565b61122e565b005b6104d060048036038101906104cb91906148bb565b61128e565b6040516104dd9190614f7f565b60405180910390f35b3480156104f257600080fd5b506104fb6114dc565b005b34801561050957600080fd5b50610524600480360381019061051f9190614681565b6114ee565b005b34801561053257600080fd5b5061053b61150e565b6040516105489190614f7f565b60405180910390f35b610559611518565b005b34801561056757600080fd5b506105706119b4565b60405161057d9190614d22565b60405180910390f35b34801561059257600080fd5b506105ad60048036038101906105a891906148fc565b6119cb565b005b3480156105bb57600080fd5b506105d660048036038101906105d191906148fc565b6119dd565b6040516105e39190614cbb565b60405180910390f35b610606600480360381019061060191906148bb565b611a8f565b6040516106139190614f7f565b60405180910390f35b34801561062857600080fd5b50610631611cdd565b60405161063e9190614f7f565b60405180910390f35b34801561065357600080fd5b5061065c611ce7565b6040516106699190614f7f565b60405180910390f35b34801561067e57600080fd5b506106996004803603810190610694919061461c565b611cef565b6040516106a69190614f7f565b60405180910390f35b3480156106bb57600080fd5b506106c4611da7565b005b3480156106d257600080fd5b506106db611dbb565b6040516106e89190614f7f565b60405180910390f35b61070b600480360381019061070691906148bb565b611dc5565b6040516107189190614f7f565b60405180910390f35b34801561072d57600080fd5b5061073661205d565b005b34801561074457600080fd5b5061075f600480360381019061075a91906148fc565b61206f565b005b34801561076d57600080fd5b50610776612081565b6040516107839190614cbb565b60405180910390f35b6107a660048036038101906107a191906148bb565b6120ab565b6040516107b39190614f7f565b60405180910390f35b3480156107c857600080fd5b506107d16122f8565b6040516107de9190614d3d565b60405180910390f35b3480156107f357600080fd5b506107fc61238a565b6040516108099190614d22565b60405180910390f35b34801561081e57600080fd5b50610839600480360381019061083491906148bb565b61239d565b6040516108469190614d22565b60405180910390f35b34801561085b57600080fd5b506108766004803603810190610871919061474b565b6123d8565b005b34801561088457600080fd5b5061089f600480360381019061089a91906148fc565b6123ee565b005b3480156108ad57600080fd5b506108c860048036038101906108c391906146d0565b612400565b005b3480156108d657600080fd5b506108f160048036038101906108ec91906148fc565b612462565b6040516108fe9190614d3d565b60405180910390f35b34801561091357600080fd5b5061091c612474565b6040516109299190614d22565b60405180910390f35b34801561093e57600080fd5b50610947612487565b6040516109549190614cbb565b60405180910390f35b610977600480360381019061097291906148bb565b61249f565b6040516109849190614f7f565b60405180910390f35b34801561099957600080fd5b506109b460048036038101906109af9190614787565b612737565b005b3480156109c257600080fd5b506109cb6127ac565b6040516109d89190614f7f565b60405180910390f35b6109fb60048036038101906109f691906148bb565b6127b6565b604051610a089190614f7f565b60405180910390f35b610a2b6004803603810190610a2691906148bb565b612a03565b604051610a389190614f7f565b60405180910390f35b610a5b6004803603810190610a5691906148bb565b612c9b565b604051610a689190614f7f565b60405180910390f35b348015610a7d57600080fd5b50610a986004803603810190610a9391906148fc565b612f33565b005b610ab46004803603810190610aaf91906148bb565b612f45565b604051610ac19190614f7f565b60405180910390f35b348015610ad657600080fd5b50610adf613193565b604051610aec9190614d3d565b60405180910390f35b348015610b0157600080fd5b50610b0a6131b3565b604051610b179190614f7f565b60405180910390f35b348015610b2c57600080fd5b50610b476004803603810190610b429190614645565b6131bd565b604051610b549190614d22565b60405180910390f35b348015610b6957600080fd5b50610b72613251565b604051610b7f9190614f7f565b60405180910390f35b348015610b9457600080fd5b50610baf6004803603810190610baa919061461c565b61325b565b005b60007f80ac58cd000000000000000000000000000000000000000000000000000000007bffffffffffffffffffffffffffffffffffffffffffffffffffffffff1916827bffffffffffffffffffffffffffffffffffffffffffffffffffffffff19161480610c7c57507f5b5e139f000000000000000000000000000000000000000000000000000000007bffffffffffffffffffffffffffffffffffffffffffffffffffffffff1916827bffffffffffffffffffffffffffffffffffffffffffffffffffffffff1916145b80610c8c5750610c8b826132df565b5b9050919050565b600060026008541415610cdb576040517f08c379a0000000000000000000000000000000000000000000000000000000008152600401610cd290614f5f565b60405180910390fd5b60026008819055508160011515601460019054906101000a900460ff16151514610d31576040517f542c5fe600000000000000000000000000000000000000000000000000000000815260040160405180910390fd5b60011515610d3d610f2b565b151514610d76576040517f2557aa1900000000000000000000000000000000000000000000000000000000815260040160405180910390fd5b6001610d8133611cef565b10610db8576040517f83b284d500000000000000000000000000000000000000000000000000000000815260040160405180910390fd5b61295c60095410610df5576040517f4bc055ee00000000000000000000000000000000000000000000000000000000815260040160405180910390fd5b6001601582604051610e079190614c6b565b908152602001604051809103902060009054906101000a900460ff1660ff161415610e5e576040517f5eed8c8100000000000000000000000000000000000000000000000000000000815260040160405180910390fd5b600f54341015610e9a576040517fc813754a00000000000000000000000000000000000000000000000000000000815260040160405180910390fd5b600060095490506001600954610eb0919061506f565b6009819055506001600a54610ec5919061506f565b600a819055506001601585604051610edd9190614c6b565b908152602001604051809103902060006101000a81548160ff021916908360ff160217905550610f0d3382613349565b610f178185613523565b600954925050506001600881905550919050565b600080601460029054906101000a900473ffffffffffffffffffffffffffffffffffffffff1673ffffffffffffffffffffffffffffffffffffffff166313f44d10336040518263ffffffff1660e01b8152600401610f899190614cbb565b60206040518083038186803b158015610fa157600080fd5b505afa158015610fb5573d6000803e3d6000fd5b505050506040513d601f19601f82011682018060405250810190610fd99190614840565b90508091505090565b606060008054610ff19061523a565b80601f016020809104026020016040519081016040528092919081815260200182805461101d9061523a565b801561106a5780601f1061103f5761010080835404028352916020019161106a565b820191906000526020600020905b81548152906001019060200180831161104d57829003601f168201915b5050505050905090565b600061107f82613597565b6004600083815260200190815260200160002060009054906101000a900473ffffffffffffffffffffffffffffffffffffffff169050919050565b60006110c5826119dd565b90508073ffffffffffffffffffffffffffffffffffffffff168373ffffffffffffffffffffffffffffffffffffffff161415611136576040517f08c379a000000000000000000000000000000000000000000000000000000000815260040161112d90614f1f565b60405180910390fd5b8073ffffffffffffffffffffffffffffffffffffffff166111556135e2565b73ffffffffffffffffffffffffffffffffffffffff16148061118457506111838161117e6135e2565b6131bd565b5b6111c3576040517f08c379a00000000000000000000000000000000000000000000000000000000081526004016111ba90614e9f565b60405180910390fd5b6111cd83836135ea565b505050565b6111da6136a3565b80601460016101000a81548160ff02191690831515021790555050565b6111ff6136a3565b8060118190555050565b6112116136a3565b80601460006101000a81548160ff02191690831515021790555050565b61123f6112396135e2565b82613721565b61127e576040517f08c379a000000000000000000000000000000000000000000000000000000000815260040161127590614f3f565b60405180910390fd5b6112898383836137b6565b505050565b6000600260085414156112d6576040517f08c379a00000000000000000000000000000000000000000000000000000000081526004016112cd90614f5f565b60405180910390fd5b60026008819055508160011515601460009054906101000a900460ff1615151461132c576040517faea22e0800000000000000000000000000000000000000000000000000000000815260040160405180910390fd5b61295c60095410611369576040517f4bc055ee00000000000000000000000000000000000000000000000000000000815260040160405180910390fd5b600160158260405161137b9190614c6b565b908152602001604051809103902060009054906101000a900460ff1660ff1614156113d2576040517f5eed8c8100000000000000000000000000000000000000000000000000000000815260040160405180910390fd5b611950600e541061140f576040517f047ed50f00000000000000000000000000000000000000000000000000000000815260040160405180910390fd5b60135434101561144b576040517fc813754a00000000000000000000000000000000000000000000000000000000815260040160405180910390fd5b600060095490506001600954611461919061506f565b6009819055506001600e54611476919061506f565b600e81905550600160158560405161148e9190614c6b565b908152602001604051809103902060006101000a81548160ff021916908360ff1602179055506114be3382613349565b6114c88185613523565b600954925050506001600881905550919050565b6114e46136a3565b6114ec613a1d565b565b61150983838360405180602001604052806000815250612400565b505050565b6000600e54905090565b6002600854141561155e576040517f08c379a000000000000000000000000000000000000000000000000000000000815260040161155590614f5f565b60405180910390fd5b600260088190555061156e6136a3565b600047116115a8576040517f73297bbe00000000000000000000000000000000000000000000000000000000815260040160405180910390fd5b60007f000000000000000000000000000000000000000000000000000000000000000073ffffffffffffffffffffffffffffffffffffffff1660646001476115f091906150f6565b6115fa91906150c5565b60405161160690614ca6565b60006040518083038185875af1925050503d8060008114611643576040519150601f19603f3d011682016040523d82523d6000602084013e611648565b606091505b505090508061165657600080fd5b60007f000000000000000000000000000000000000000000000000000000000000000073ffffffffffffffffffffffffffffffffffffffff16606460014761169e91906150f6565b6116a891906150c5565b6040516116b490614ca6565b60006040518083038185875af1925050503d80600081146116f1576040519150601f19603f3d011682016040523d82523d6000602084013e6116f6565b606091505b505090508061170457600080fd5b60007f000000000000000000000000000000000000000000000000000000000000000073ffffffffffffffffffffffffffffffffffffffff16606460014761174c91906150f6565b61175691906150c5565b60405161176290614ca6565b60006040518083038185875af1925050503d806000811461179f576040519150601f19603f3d011682016040523d82523d6000602084013e6117a4565b606091505b50509050806117b257600080fd5b60007f000000000000000000000000000000000000000000000000000000000000000073ffffffffffffffffffffffffffffffffffffffff1660646001476117fa91906150f6565b61180491906150c5565b60405161181090614ca6565b60006040518083038185875af1925050503d806000811461184d576040519150601f19603f3d011682016040523d82523d6000602084013e611852565b606091505b505090508061186057600080fd5b60007f000000000000000000000000000000000000000000000000000000000000000073ffffffffffffffffffffffffffffffffffffffff1660646001476118a891906150f6565b6118b291906150c5565b6040516118be90614ca6565b60006040518083038185875af1925050503d80600081146118fb576040519150601f19603f3d011682016040523d82523d6000602084013e611900565b606091505b505090508061190e57600080fd5b60007f000000000000000000000000000000000000000000000000000000000000000073ffffffffffffffffffffffffffffffffffffffff164760405161195490614ca6565b60006040518083038185875af1925050503d8060008114611991576040519150601f19603f3d011682016040523d82523d6000602084013e611996565b606091505b50509050806119a457600080fd5b5050505050506001600881905550565b6000600760009054906101000a900460ff16905090565b6119d36136a3565b8060138190555050565b6000806002600084815260200190815260200160002060009054906101000a900473ffffffffffffffffffffffffffffffffffffffff169050600073ffffffffffffffffffffffffffffffffffffffff168173ffffffffffffffffffffffffffffffffffffffff161415611a86576040517f08c379a0000000000000000000000000000000000000000000000000000000008152600401611a7d90614eff565b60405180910390fd5b80915050919050565b600060026008541415611ad7576040517f08c379a0000000000000000000000000000000000000000000000000000000008152600401611ace90614f5f565b60405180910390fd5b60026008819055508160011515601460009054906101000a900460ff16151514611b2d576040517faea22e0800000000000000000000000000000000000000000000000000000000815260040160405180910390fd5b61295c60095410611b6a576040517f4bc055ee00000000000000000000000000000000000000000000000000000000815260040160405180910390fd5b6001601582604051611b7c9190614c6b565b908152602001604051809103902060009054906101000a900460ff1660ff161415611bd3576040517f5eed8c8100000000000000000000000000000000000000000000000000000000815260040160405180910390fd5b6103cc600c5410611c10576040517f047ed50f00000000000000000000000000000000000000000000000000000000815260040160405180910390fd5b601154341015611c4c576040517fc813754a00000000000000000000000000000000000000000000000000000000815260040160405180910390fd5b600060095490506001600954611c62919061506f565b6009819055506001600c54611c77919061506f565b600c819055506001601585604051611c8f9190614c6b565b908152602001604051809103902060006101000a81548160ff021916908360ff160217905550611cbf3382613349565b611cc98185613523565b600954925050506001600881905550919050565b6000600954905090565b600047905090565b60008073ffffffffffffffffffffffffffffffffffffffff168273ffffffffffffffffffffffffffffffffffffffff161415611d60576040517f08c379a0000000000000000000000000000000000000000000000000000000008152600401611d5790614e5f565b60405180910390fd5b600360008373ffffffffffffffffffffffffffffffffffffffff1673ffffffffffffffffffffffffffffffffffffffff168152602001908152602001600020549050919050565b611daf6136a3565b611db96000613a80565b565b6000600a54905090565b600060026008541415611e0d576040517f08c379a0000000000000000000000000000000000000000000000000000000008152600401611e0490614f5f565b60405180910390fd5b60026008819055508160011515601460019054906101000a900460ff16151514611e63576040517f542c5fe600000000000000000000000000000000000000000000000000000000815260040160405180910390fd5b60011515611e6f610f2b565b151514611ea8576040517f2557aa1900000000000000000000000000000000000000000000000000000000815260040160405180910390fd5b6001611eb333611cef565b10611eea576040517f83b284d500000000000000000000000000000000000000000000000000000000815260040160405180910390fd5b61295c60095410611f27576040517f4bc055ee00000000000000000000000000000000000000000000000000000000815260040160405180910390fd5b6001601582604051611f399190614c6b565b908152602001604051809103902060009054906101000a900460ff1660ff161415611f90576040517f5eed8c8100000000000000000000000000000000000000000000000000000000815260040160405180910390fd5b601354341015611fcc576040517fc813754a00000000000000000000000000000000000000000000000000000000815260040160405180910390fd5b600060095490506001600954611fe2919061506f565b6009819055506001600e54611ff7919061506f565b600e81905550600160158560405161200f9190614c6b565b908152602001604051809103902060006101000a81548160ff021916908360ff16021790555061203f3382613349565b6120498185613523565b600954925050506001600881905550919050565b6120656136a3565b61206d613b46565b565b6120776136a3565b8060108190555050565b6000600760019054906101000a900473ffffffffffffffffffffffffffffffffffffffff16905090565b6000600260085414156120f3576040517f08c379a00000000000000000000000000000000000000000000000000000000081526004016120ea90614f5f565b60405180910390fd5b60026008819055508160011515601460009054906101000a900460ff16151514612149576040517faea22e0800000000000000000000000000000000000000000000000000000000815260040160405180910390fd5b61295c60095410612186576040517f4bc055ee00000000000000000000000000000000000000000000000000000000815260040160405180910390fd5b60016015826040516121989190614c6b565b908152602001604051809103902060009054906101000a900460ff1660ff1614156121ef576040517f5eed8c8100000000000000000000000000000000000000000000000000000000815260040160405180910390fd5b60d8600b541061222b576040517f047ed50f00000000000000000000000000000000000000000000000000000000815260040160405180910390fd5b601054341015612267576040517fc813754a00000000000000000000000000000000000000000000000000000000815260040160405180910390fd5b60006009549050600160095461227d919061506f565b6009819055506001600b54612292919061506f565b600b8190555060016015856040516122aa9190614c6b565b908152602001604051809103902060006101000a81548160ff021916908360ff1602179055506122da3382613349565b6122e48185613523565b600954925050506001600881905550919050565b6060600180546123079061523a565b80601f01602080910402602001604051908101604052809291908181526020018280546123339061523a565b80156123805780601f1061235557610100808354040283529160200191612380565b820191906000526020600020905b81548152906001019060200180831161236357829003601f168201915b5050505050905090565b601460009054906101000a900460ff1681565b600060016015836040516123b19190614c6b565b908152602001604051809103902060009054906101000a900460ff1660ff16149050919050565b6123ea6123e36135e2565b8383613ba9565b5050565b6123f66136a3565b8060128190555050565b61241161240b6135e2565b83613721565b612450576040517f08c379a000000000000000000000000000000000000000000000000000000000815260040161244790614f3f565b60405180910390fd5b61245c84848484613d16565b50505050565b606061246d82613d72565b9050919050565b601460019054906101000a900460ff1681565b73cae8b7cd1b0956d1ce2d77a0ad9a85420144750081565b6000600260085414156124e7576040517f08c379a00000000000000000000000000000000000000000000000000000000081526004016124de90614f5f565b60405180910390fd5b60026008819055508160011515601460019054906101000a900460ff1615151461253d576040517f542c5fe600000000000000000000000000000000000000000000000000000000815260040160405180910390fd5b60011515612549610f2b565b151514612582576040517f2557aa1900000000000000000000000000000000000000000000000000000000815260040160405180910390fd5b600161258d33611cef565b106125c4576040517f83b284d500000000000000000000000000000000000000000000000000000000815260040160405180910390fd5b61295c60095410612601576040517f4bc055ee00000000000000000000000000000000000000000000000000000000815260040160405180910390fd5b60016015826040516126139190614c6b565b908152602001604051809103902060009054906101000a900460ff1660ff16141561266a576040517f5eed8c8100000000000000000000000000000000000000000000000000000000815260040160405180910390fd5b6012543410156126a6576040517fc813754a00000000000000000000000000000000000000000000000000000000815260040160405180910390fd5b6000600954905060016009546126bc919061506f565b6009819055506001600d546126d1919061506f565b600d8190555060016015856040516126e99190614c6b565b908152602001604051809103902060006101000a81548160ff021916908360ff1602179055506127193382613349565b6127238185613523565b600954925050506001600881905550919050565b61273f6136a3565b600060095490506001600954612755919061506f565b600981905550600160158360405161276d9190614c6b565b908152602001604051809103902060006101000a81548160ff021916908360ff16021790555061279d8382613e85565b6127a78183613523565b505050565b6000600d54905090565b6000600260085414156127fe576040517f08c379a00000000000000000000000000000000000000000000000000000000081526004016127f590614f5f565b60405180910390fd5b60026008819055508160011515601460009054906101000a900460ff16151514612854576040517faea22e0800000000000000000000000000000000000000000000000000000000815260040160405180910390fd5b61295c60095410612891576040517f4bc055ee00000000000000000000000000000000000000000000000000000000815260040160405180910390fd5b60016015826040516128a39190614c6b565b908152602001604051809103902060009054906101000a900460ff1660ff1614156128fa576040517f5eed8c8100000000000000000000000000000000000000000000000000000000815260040160405180910390fd5b6028600a5410612936576040517f047ed50f00000000000000000000000000000000000000000000000000000000815260040160405180910390fd5b600f54341015612972576040517fc813754a00000000000000000000000000000000000000000000000000000000815260040160405180910390fd5b600060095490506001600954612988919061506f565b6009819055506001600a5461299d919061506f565b600a8190555060016015856040516129b59190614c6b565b908152602001604051809103902060006101000a81548160ff021916908360ff1602179055506129e53382613349565b6129ef8185613523565b600954925050506001600881905550919050565b600060026008541415612a4b576040517f08c379a0000000000000000000000000000000000000000000000000000000008152600401612a4290614f5f565b60405180910390fd5b60026008819055508160011515601460019054906101000a900460ff16151514612aa1576040517f542c5fe600000000000000000000000000000000000000000000000000000000815260040160405180910390fd5b60011515612aad610f2b565b151514612ae6576040517f2557aa1900000000000000000000000000000000000000000000000000000000815260040160405180910390fd5b6001612af133611cef565b10612b28576040517f83b284d500000000000000000000000000000000000000000000000000000000815260040160405180910390fd5b61295c60095410612b65576040517f4bc055ee00000000000000000000000000000000000000000000000000000000815260040160405180910390fd5b6001601582604051612b779190614c6b565b908152602001604051809103902060009054906101000a900460ff1660ff161415612bce576040517f5eed8c8100000000000000000000000000000000000000000000000000000000815260040160405180910390fd5b601154341015612c0a576040517fc813754a00000000000000000000000000000000000000000000000000000000815260040160405180910390fd5b600060095490506001600954612c20919061506f565b6009819055506001600c54612c35919061506f565b600c819055506001601585604051612c4d9190614c6b565b908152602001604051809103902060006101000a81548160ff021916908360ff160217905550612c7d3382613349565b612c878185613523565b600954925050506001600881905550919050565b600060026008541415612ce3576040517f08c379a0000000000000000000000000000000000000000000000000000000008152600401612cda90614f5f565b60405180910390fd5b60026008819055508160011515601460019054906101000a900460ff16151514612d39576040517f542c5fe600000000000000000000000000000000000000000000000000000000815260040160405180910390fd5b60011515612d45610f2b565b151514612d7e576040517f2557aa1900000000000000000000000000000000000000000000000000000000815260040160405180910390fd5b6001612d8933611cef565b10612dc0576040517f83b284d500000000000000000000000000000000000000000000000000000000815260040160405180910390fd5b61295c60095410612dfd576040517f4bc055ee00000000000000000000000000000000000000000000000000000000815260040160405180910390fd5b6001601582604051612e0f9190614c6b565b908152602001604051809103902060009054906101000a900460ff1660ff161415612e66576040517f5eed8c8100000000000000000000000000000000000000000000000000000000815260040160405180910390fd5b601054341015612ea2576040517fc813754a00000000000000000000000000000000000000000000000000000000815260040160405180910390fd5b600060095490506001600954612eb8919061506f565b6009819055506001600b54612ecd919061506f565b600b819055506001601585604051612ee59190614c6b565b908152602001604051809103902060006101000a81548160ff021916908360ff160217905550612f153382613349565b612f1f8185613523565b600954925050506001600881905550919050565b612f3b6136a3565b80600f8190555050565b600060026008541415612f8d576040517f08c379a0000000000000000000000000000000000000000000000000000000008152600401612f8490614f5f565b60405180910390fd5b60026008819055508160011515601460009054906101000a900460ff16151514612fe3576040517faea22e0800000000000000000000000000000000000000000000000000000000815260040160405180910390fd5b61295c60095410613020576040517f4bc055ee00000000000000000000000000000000000000000000000000000000815260040160405180910390fd5b60016015826040516130329190614c6b565b908152602001604051809103902060009054906101000a900460ff1660ff161415613089576040517f5eed8c8100000000000000000000000000000000000000000000000000000000815260040160405180910390fd5b610b40600d54106130c6576040517f047ed50f00000000000000000000000000000000000000000000000000000000815260040160405180910390fd5b601254341015613102576040517fc813754a00000000000000000000000000000000000000000000000000000000815260040160405180910390fd5b600060095490506001600954613118919061506f565b6009819055506001600d5461312d919061506f565b600d8190555060016015856040516131459190614c6b565b908152602001604051809103902060006101000a81548160ff021916908360ff1602179055506131753382613349565b61317f8185613523565b600954925050506001600881905550919050565b606060405180606001604052806035815260200161585360359139905090565b6000600c54905090565b6000600560008473ffffffffffffffffffffffffffffffffffffffff1673ffffffffffffffffffffffffffffffffffffffff16815260200190815260200160002060008373ffffffffffffffffffffffffffffffffffffffff1673ffffffffffffffffffffffffffffffffffffffff16815260200190815260200160002060009054906101000a900460ff16905092915050565b6000600b54905090565b6132636136a3565b600073ffffffffffffffffffffffffffffffffffffffff168173ffffffffffffffffffffffffffffffffffffffff1614156132d3576040517f08c379a00000000000000000000000000000000000000000000000000000000081526004016132ca90614d9f565b60405180910390fd5b6132dc81613a80565b50565b60007f01ffc9a7000000000000000000000000000000000000000000000000000000007bffffffffffffffffffffffffffffffffffffffffffffffffffffffff1916827bffffffffffffffffffffffffffffffffffffffffffffffffffffffff1916149050919050565b600073ffffffffffffffffffffffffffffffffffffffff168273ffffffffffffffffffffffffffffffffffffffff1614156133b9576040517f08c379a00000000000000000000000000000000000000000000000000000000081526004016133b090614ebf565b60405180910390fd5b6133c281613ea3565b15613402576040517f08c379a00000000000000000000000000000000000000000000000000000000081526004016133f990614ddf565b60405180910390fd5b61340e60008383613f0f565b6001600360008473ffffffffffffffffffffffffffffffffffffffff1673ffffffffffffffffffffffffffffffffffffffff168152602001908152602001600020600082825461345e919061506f565b92505081905550816002600083815260200190815260200160002060006101000a81548173ffffffffffffffffffffffffffffffffffffffff021916908373ffffffffffffffffffffffffffffffffffffffff160217905550808273ffffffffffffffffffffffffffffffffffffffff16600073ffffffffffffffffffffffffffffffffffffffff167fddf252ad1be2c89b69c2b068fc378daa952ba7f163c4a11628f55a4df523b3ef60405160405180910390a461351f60008383613f27565b5050565b61352c82613ea3565b61356b576040517f08c379a000000000000000000000000000000000000000000000000000000000815260040161356290614e7f565b60405180910390fd5b8060066000848152602001908152602001600020908051906020019061359292919061442b565b505050565b6135a081613ea3565b6135df576040517f08c379a00000000000000000000000000000000000000000000000000000000081526004016135d690614eff565b60405180910390fd5b50565b600033905090565b816004600083815260200190815260200160002060006101000a81548173ffffffffffffffffffffffffffffffffffffffff021916908373ffffffffffffffffffffffffffffffffffffffff160217905550808273ffffffffffffffffffffffffffffffffffffffff1661365d836119dd565b73ffffffffffffffffffffffffffffffffffffffff167f8c5be1e5ebec7d5bd14f71427d1e84f3dd0314c0f7b2291e5b200ac8c7c3b92560405160405180910390a45050565b6136ab6135e2565b73ffffffffffffffffffffffffffffffffffffffff166136c9612081565b73ffffffffffffffffffffffffffffffffffffffff161461371f576040517f08c379a000000000000000000000000000000000000000000000000000000000815260040161371690614edf565b60405180910390fd5b565b60008061372d836119dd565b90508073ffffffffffffffffffffffffffffffffffffffff168473ffffffffffffffffffffffffffffffffffffffff16148061376f575061376e81856131bd565b5b806137ad57508373ffffffffffffffffffffffffffffffffffffffff1661379584611074565b73ffffffffffffffffffffffffffffffffffffffff16145b91505092915050565b8273ffffffffffffffffffffffffffffffffffffffff166137d6826119dd565b73ffffffffffffffffffffffffffffffffffffffff161461382c576040517f08c379a000000000000000000000000000000000000000000000000000000000815260040161382390614dbf565b60405180910390fd5b600073ffffffffffffffffffffffffffffffffffffffff168273ffffffffffffffffffffffffffffffffffffffff16141561389c576040517f08c379a000000000000000000000000000000000000000000000000000000000815260040161389390614dff565b60405180910390fd5b6138a7838383613f0f565b6138b26000826135ea565b6001600360008573ffffffffffffffffffffffffffffffffffffffff1673ffffffffffffffffffffffffffffffffffffffff16815260200190815260200160002060008282546139029190615150565b925050819055506001600360008473ffffffffffffffffffffffffffffffffffffffff1673ffffffffffffffffffffffffffffffffffffffff1681526020019081526020016000206000828254613959919061506f565b92505081905550816002600083815260200190815260200160002060006101000a81548173ffffffffffffffffffffffffffffffffffffffff021916908373ffffffffffffffffffffffffffffffffffffffff160217905550808273ffffffffffffffffffffffffffffffffffffffff168473ffffffffffffffffffffffffffffffffffffffff167fddf252ad1be2c89b69c2b068fc378daa952ba7f163c4a11628f55a4df523b3ef60405160405180910390a4613a18838383613f27565b505050565b613a25613f2c565b6000600760006101000a81548160ff0219169083151502179055507f5db9ee0a495bf2e6ff9c91a7834c1ba4fdd244a5e8aa4e537bd38aeae4b073aa613a696135e2565b604051613a769190614cbb565b60405180910390a1565b6000600760019054906101000a900473ffffffffffffffffffffffffffffffffffffffff16905081600760016101000a81548173ffffffffffffffffffffffffffffffffffffffff021916908373ffffffffffffffffffffffffffffffffffffffff1602179055508173ffffffffffffffffffffffffffffffffffffffff168173ffffffffffffffffffffffffffffffffffffffff167f8be0079c531659141344cd1fd0a4f28419497f9722a3daafe3b4186f6b6457e060405160405180910390a35050565b613b4e613f75565b6001600760006101000a81548160ff0219169083151502179055507f62e78cea01bee320cd4e420270b5ea74000d11b0c9f74754ebdbfc544b05a258613b926135e2565b604051613b9f9190614cbb565b60405180910390a1565b8173ffffffffffffffffffffffffffffffffffffffff168373ffffffffffffffffffffffffffffffffffffffff161415613c18576040517f08c379a0000000000000000000000000000000000000000000000000000000008152600401613c0f90614e1f565b60405180910390fd5b80600560008573ffffffffffffffffffffffffffffffffffffffff1673ffffffffffffffffffffffffffffffffffffffff16815260200190815260200160002060008473ffffffffffffffffffffffffffffffffffffffff1673ffffffffffffffffffffffffffffffffffffffff16815260200190815260200160002060006101000a81548160ff0219169083151502179055508173ffffffffffffffffffffffffffffffffffffffff168373ffffffffffffffffffffffffffffffffffffffff167f17307eab39ab6107e8899845ad3d59bd9653f200f220920489ca2b5937696c3183604051613d099190614d22565b60405180910390a3505050565b613d218484846137b6565b613d2d84848484613fbf565b613d6c576040517f08c379a0000000000000000000000000000000000000000000000000000000008152600401613d6390614d7f565b60405180910390fd5b50505050565b6060613d7d82613597565b6000600660008481526020019081526020016000208054613d9d9061523a565b80601f0160208091040260200160405190810160405280929190818152602001828054613dc99061523a565b8015613e165780601f10613deb57610100808354040283529160200191613e16565b820191906000526020600020905b815481529060010190602001808311613df957829003601f168201915b505050505090506000613e27614156565b9050600081511415613e3d578192505050613e80565b600082511115613e72578082604051602001613e5a929190614c82565b60405160208183030381529060405292505050613e80565b613e7b84614193565b925050505b919050565b613e9f8282604051806020016040528060008152506141fb565b5050565b60008073ffffffffffffffffffffffffffffffffffffffff166002600084815260200190815260200160002060009054906101000a900473ffffffffffffffffffffffffffffffffffffffff1673ffffffffffffffffffffffffffffffffffffffff1614159050919050565b613f17613f75565b613f22838383614256565b505050565b505050565b613f346119b4565b613f73576040517f08c379a0000000000000000000000000000000000000000000000000000000008152600401613f6a90614d5f565b60405180910390fd5b565b613f7d6119b4565b15613fbd576040517f08c379a0000000000000000000000000000000000000000000000000000000008152600401613fb490614e3f565b60405180910390fd5b565b6000613fe08473ffffffffffffffffffffffffffffffffffffffff1661425b565b15614149578373ffffffffffffffffffffffffffffffffffffffff1663150b7a026140096135e2565b8786866040518563ffffffff1660e01b815260040161402b9493929190614cd6565b602060405180830381600087803b15801561404557600080fd5b505af192505050801561407657506040513d601f19601f820116820180604052508101906140739190614892565b60015b6140f9573d80600081146140a6576040519150601f19603f3d011682016040523d82523d6000602084013e6140ab565b606091505b506000815114156140f1576040517f08c379a00000000000000000000000000000000000000000000000000000000081526004016140e890614d7f565b60405180910390fd5b805181602001fd5b63150b7a0260e01b7bffffffffffffffffffffffffffffffffffffffffffffffffffffffff1916817bffffffffffffffffffffffffffffffffffffffffffffffffffffffff19161491505061414e565b600190505b949350505050565b60606040518060400160405280600781526020017f697066733a2f2f00000000000000000000000000000000000000000000000000815250905090565b606061419e82613597565b60006141a8614156565b905060008151116141c857604051806020016040528060008152506141f3565b806141d28461427e565b6040516020016141e3929190614c82565b6040516020818303038152906040525b915050919050565b6142058383613349565b6142126000848484613fbf565b614251576040517f08c379a000000000000000000000000000000000000000000000000000000000815260040161424890614d7f565b60405180910390fd5b505050565b505050565b6000808273ffffffffffffffffffffffffffffffffffffffff163b119050919050565b606060008214156142c6576040518060400160405280600181526020017f30000000000000000000000000000000000000000000000000000000000000008152509050614426565b600082905060005b600082146142f85780806142e19061529d565b915050600a826142f191906150c5565b91506142ce565b60008167ffffffffffffffff81111561433a577f4e487b7100000000000000000000000000000000000000000000000000000000600052604160045260246000fd5b6040519080825280601f01601f19166020018201604052801561436c5781602001600182028036833780820191505090505b5090505b6000851461441f576001826143859190615150565b9150600a8561439491906152e6565b60306143a0919061506f565b60f81b8183815181106143dc577f4e487b7100000000000000000000000000000000000000000000000000000000600052603260045260246000fd5b60200101907effffffffffffffffffffffffffffffffffffffffffffffffffffffffffffff1916908160001a905350600a8561441891906150c5565b9450614370565b8093505050505b919050565b8280546144379061523a565b90600052602060002090601f01602090048101928261445957600085556144a0565b82601f1061447257805160ff19168380011785556144a0565b828001600101855582156144a0579182015b8281111561449f578251825591602001919060010190614484565b5b5090506144ad91906144b1565b5090565b5b808211156144ca5760008160009055506001016144b2565b5090565b60006144e16144dc84614fbf565b614f9a565b9050828152602081018484840111156144f957600080fd5b6145048482856151f8565b509392505050565b600061451f61451a84614ff0565b614f9a565b90508281526020810184848401111561453757600080fd5b6145428482856151f8565b509392505050565b600081359050614559816157f6565b92915050565b60008135905061456e8161580d565b92915050565b6000815190506145838161580d565b92915050565b60008135905061459881615824565b92915050565b6000815190506145ad81615824565b92915050565b600082601f8301126145c457600080fd5b81356145d48482602086016144ce565b91505092915050565b600082601f8301126145ee57600080fd5b81356145fe84826020860161450c565b91505092915050565b6000813590506146168161583b565b92915050565b60006020828403121561462e57600080fd5b600061463c8482850161454a565b91505092915050565b6000806040838503121561465857600080fd5b60006146668582860161454a565b92505060206146778582860161454a565b9150509250929050565b60008060006060848603121561469657600080fd5b60006146a48682870161454a565b93505060206146b58682870161454a565b92505060406146c686828701614607565b9150509250925092565b600080600080608085870312156146e657600080fd5b60006146f48782880161454a565b94505060206147058782880161454a565b935050604061471687828801614607565b925050606085013567ffffffffffffffff81111561473357600080fd5b61473f878288016145b3565b91505092959194509250565b6000806040838503121561475e57600080fd5b600061476c8582860161454a565b925050602061477d8582860161455f565b9150509250929050565b6000806040838503121561479a57600080fd5b60006147a88582860161454a565b925050602083013567ffffffffffffffff8111156147c557600080fd5b6147d1858286016145dd565b9150509250929050565b600080604083850312156147ee57600080fd5b60006147fc8582860161454a565b925050602061480d85828601614607565b9150509250929050565b60006020828403121561482957600080fd5b60006148378482850161455f565b91505092915050565b60006020828403121561485257600080fd5b600061486084828501614574565b91505092915050565b60006020828403121561487b57600080fd5b600061488984828501614589565b91505092915050565b6000602082840312156148a457600080fd5b60006148b28482850161459e565b91505092915050565b6000602082840312156148cd57600080fd5b600082013567ffffffffffffffff8111156148e757600080fd5b6148f3848285016145dd565b91505092915050565b60006020828403121561490e57600080fd5b600061491c84828501614607565b91505092915050565b61492e81615184565b82525050565b61493d81615196565b82525050565b600061494e82615021565b6149588185615037565b9350614968818560208601615207565b614971816153d3565b840191505092915050565b60006149878261502c565b6149918185615053565b93506149a1818560208601615207565b6149aa816153d3565b840191505092915050565b60006149c08261502c565b6149ca8185615064565b93506149da818560208601615207565b80840191505092915050565b60006149f3601483615053565b91506149fe826153e4565b602082019050919050565b6000614a16603283615053565b9150614a218261540d565b604082019050919050565b6000614a39602683615053565b9150614a448261545c565b604082019050919050565b6000614a5c602583615053565b9150614a67826154ab565b604082019050919050565b6000614a7f601c83615053565b9150614a8a826154fa565b602082019050919050565b6000614aa2602483615053565b9150614aad82615523565b604082019050919050565b6000614ac5601983615053565b9150614ad082615572565b602082019050919050565b6000614ae8601083615053565b9150614af38261559b565b602082019050919050565b6000614b0b602983615053565b9150614b16826155c4565b604082019050919050565b6000614b2e602e83615053565b9150614b3982615613565b604082019050919050565b6000614b51603e83615053565b9150614b5c82615662565b604082019050919050565b6000614b74602083615053565b9150614b7f826156b1565b602082019050919050565b6000614b97602083615053565b9150614ba2826156da565b602082019050919050565b6000614bba601883615053565b9150614bc582615703565b602082019050919050565b6000614bdd602183615053565b9150614be88261572c565b604082019050919050565b6000614c00600083615048565b9150614c0b8261577b565b600082019050919050565b6000614c23602e83615053565b9150614c2e8261577e565b604082019050919050565b6000614c46601f83615053565b9150614c51826157cd565b602082019050919050565b614c65816151ee565b82525050565b6000614c7782846149b5565b915081905092915050565b6000614c8e82856149b5565b9150614c9a82846149b5565b91508190509392505050565b6000614cb182614bf3565b9150819050919050565b6000602082019050614cd06000830184614925565b92915050565b6000608082019050614ceb6000830187614925565b614cf86020830186614925565b614d056040830185614c5c565b8181036060830152614d178184614943565b905095945050505050565b6000602082019050614d376000830184614934565b92915050565b60006020820190508181036000830152614d57818461497c565b905092915050565b60006020820190508181036000830152614d78816149e6565b9050919050565b60006020820190508181036000830152614d9881614a09565b9050919050565b60006020820190508181036000830152614db881614a2c565b9050919050565b60006020820190508181036000830152614dd881614a4f565b9050919050565b60006020820190508181036000830152614df881614a72565b9050919050565b60006020820190508181036000830152614e1881614a95565b9050919050565b60006020820190508181036000830152614e3881614ab8565b9050919050565b60006020820190508181036000830152614e5881614adb565b9050919050565b60006020820190508181036000830152614e7881614afe565b9050919050565b60006020820190508181036000830152614e9881614b21565b9050919050565b60006020820190508181036000830152614eb881614b44565b9050919050565b60006020820190508181036000830152614ed881614b67565b9050919050565b60006020820190508181036000830152614ef881614b8a565b9050919050565b60006020820190508181036000830152614f1881614bad565b9050919050565b60006020820190508181036000830152614f3881614bd0565b9050919050565b60006020820190508181036000830152614f5881614c16565b9050919050565b60006020820190508181036000830152614f7881614c39565b9050919050565b6000602082019050614f946000830184614c5c565b92915050565b6000614fa4614fb5565b9050614fb0828261526c565b919050565b6000604051905090565b600067ffffffffffffffff821115614fda57614fd96153a4565b5b614fe3826153d3565b9050602081019050919050565b600067ffffffffffffffff82111561500b5761500a6153a4565b5b615014826153d3565b9050602081019050919050565b600081519050919050565b600081519050919050565b600082825260208201905092915050565b600081905092915050565b600082825260208201905092915050565b600081905092915050565b600061507a826151ee565b9150615085836151ee565b9250827fffffffffffffffffffffffffffffffffffffffffffffffffffffffffffffffff038211156150ba576150b9615317565b5b828201905092915050565b60006150d0826151ee565b91506150db836151ee565b9250826150eb576150ea615346565b5b828204905092915050565b6000615101826151ee565b915061510c836151ee565b9250817fffffffffffffffffffffffffffffffffffffffffffffffffffffffffffffffff048311821515161561514557615144615317565b5b828202905092915050565b600061515b826151ee565b9150615166836151ee565b92508282101561517957615178615317565b5b828203905092915050565b600061518f826151ce565b9050919050565b60008115159050919050565b60007fffffffff0000000000000000000000000000000000000000000000000000000082169050919050565b600073ffffffffffffffffffffffffffffffffffffffff82169050919050565b6000819050919050565b82818337600083830152505050565b60005b8381101561522557808201518184015260208101905061520a565b83811115615234576000848401525b50505050565b6000600282049050600182168061525257607f821691505b6020821081141561526657615265615375565b5b50919050565b615275826153d3565b810181811067ffffffffffffffff82111715615294576152936153a4565b5b80604052505050565b60006152a8826151ee565b91507fffffffffffffffffffffffffffffffffffffffffffffffffffffffffffffffff8214156152db576152da615317565b5b600182019050919050565b60006152f1826151ee565b91506152fc836151ee565b92508261530c5761530b615346565b5b828206905092915050565b7f4e487b7100000000000000000000000000000000000000000000000000000000600052601160045260246000fd5b7f4e487b7100000000000000000000000000000000000000000000000000000000600052601260045260246000fd5b7f4e487b7100000000000000000000000000000000000000000000000000000000600052602260045260246000fd5b7f4e487b7100000000000000000000000000000000000000000000000000000000600052604160045260246000fd5b6000601f19601f8301169050919050565b7f5061757361626c653a206e6f7420706175736564000000000000000000000000600082015250565b7f4552433732313a207472616e7366657220746f206e6f6e20455243373231526560008201527f63656976657220696d706c656d656e7465720000000000000000000000000000602082015250565b7f4f776e61626c653a206e6577206f776e657220697320746865207a65726f206160008201527f6464726573730000000000000000000000000000000000000000000000000000602082015250565b7f4552433732313a207472616e736665722066726f6d20696e636f72726563742060008201527f6f776e6572000000000000000000000000000000000000000000000000000000602082015250565b7f4552433732313a20746f6b656e20616c7265616479206d696e74656400000000600082015250565b7f4552433732313a207472616e7366657220746f20746865207a65726f2061646460008201527f7265737300000000000000000000000000000000000000000000000000000000602082015250565b7f4552433732313a20617070726f766520746f2063616c6c657200000000000000600082015250565b7f5061757361626c653a2070617573656400000000000000000000000000000000600082015250565b7f4552433732313a2061646472657373207a65726f206973206e6f74206120766160008201527f6c6964206f776e65720000000000000000000000000000000000000000000000602082015250565b7f45524337323155524953746f726167653a2055524920736574206f66206e6f6e60008201527f6578697374656e7420746f6b656e000000000000000000000000000000000000602082015250565b7f4552433732313a20617070726f76652063616c6c6572206973206e6f7420746f60008201527f6b656e206f776e6572206e6f7220617070726f76656420666f7220616c6c0000602082015250565b7f4552433732313a206d696e7420746f20746865207a65726f2061646472657373600082015250565b7f4f776e61626c653a2063616c6c6572206973206e6f7420746865206f776e6572600082015250565b7f4552433732313a20696e76616c696420746f6b656e2049440000000000000000600082015250565b7f4552433732313a20617070726f76616c20746f2063757272656e74206f776e6560008201527f7200000000000000000000000000000000000000000000000000000000000000602082015250565b50565b7f4552433732313a2063616c6c6572206973206e6f7420746f6b656e206f776e6560008201527f72206e6f7220617070726f766564000000000000000000000000000000000000602082015250565b7f5265656e7472616e637947756172643a207265656e7472616e742063616c6c00600082015250565b6157ff81615184565b811461580a57600080fd5b50565b61581681615196565b811461582157600080fd5b50565b61582d816151a2565b811461583857600080fd5b50565b615844816151ee565b811461584f57600080fd5b5056fe697066733a2f2f516d51385946324a615648426d4672725376754e766979464b59614e4a425a5452705574485559513556474d6659a2646970667358221220b035815a675a2272abbed100ff9e4432e7d55d1bde0bd6529690746e6f86c6df64736f6c63430008040033",
  "linkReferences": {},
  "deployedLinkReferences": {}
}