{
  "_format": "hh-sol-artifact-1",
  "contractName": "KubicsNFT_V2",
  "sourceName": "contracts/KubicsNFT_V2.sol",
  "abi": [
    {
      "inputs": [],
      "stateMutability": "nonpayable",
      "type": "constructor"
    },
    {
      "inputs": [],
      "name": "Kubics__MintALimitReached",
      "type": "error"
    },
    {
      "inputs": [],
      "name": "Kubics__MintClosed",
      "type": "error"
    },
    {
      "inputs": [],
      "name": "Kubics__MintLimitReached",
      "type": "error"
    },
    {
      "inputs": [],
      "name": "Kubics__NFTMinted",
      "type": "error"
    },
    {
      "inputs": [],
      "name": "Kubics__NeedToPayUp",
      "type": "error"
    },
    {
      "inputs": [],
      "name": "Kubics__NotInTheWhitelist",
      "type": "error"
    },
    {
      "inputs": [],
      "name": "Kubics__NotMoneyInContract",
      "type": "error"
    },
    {
      "inputs": [],
      "name": "Kubics__WhitelistLimit",
      "type": "error"
    },
    {
      "inputs": [],
      "name": "Kubics__WhitelistMintClosed",
      "type": "error"
    },
    {
      "anonymous": false,
      "inputs": [
        {
          "indexed": true,
          "internalType": "address",
          "name": "owner",
          "type": "address"
        },
        {
          "indexed": true,
          "internalType": "address",
          "name": "approved",
          "type": "address"
        },
        {
          "indexed": true,
          "internalType": "uint256",
          "name": "tokenId",
          "type": "uint256"
        }
      ],
      "name": "Approval",
      "type": "event"
    },
    {
      "anonymous": false,
      "inputs": [
        {
          "indexed": true,
          "internalType": "address",
          "name": "owner",
          "type": "address"
        },
        {
          "indexed": true,
          "internalType": "address",
          "name": "operator",
          "type": "address"
        },
        {
          "indexed": false,
          "internalType": "bool",
          "name": "approved",
          "type": "bool"
        }
      ],
      "name": "ApprovalForAll",
      "type": "event"
    },
    {
      "anonymous": false,
      "inputs": [
        {
          "indexed": true,
          "internalType": "address",
          "name": "previousOwner",
          "type": "address"
        },
        {
          "indexed": true,
          "internalType": "address",
          "name": "newOwner",
          "type": "address"
        }
      ],
      "name": "OwnershipTransferred",
      "type": "event"
    },
    {
      "anonymous": false,
      "inputs": [
        {
          "indexed": false,
          "internalType": "address",
          "name": "account",
          "type": "address"
        }
      ],
      "name": "Paused",
      "type": "event"
    },
    {
      "anonymous": false,
      "inputs": [
        {
          "indexed": true,
          "internalType": "address",
          "name": "from",
          "type": "address"
        },
        {
          "indexed": true,
          "internalType": "address",
          "name": "to",
          "type": "address"
        },
        {
          "indexed": true,
          "internalType": "uint256",
          "name": "tokenId",
          "type": "uint256"
        }
      ],
      "name": "Transfer",
      "type": "event"
    },
    {
      "anonymous": false,
      "inputs": [
        {
          "indexed": false,
          "internalType": "address",
          "name": "account",
          "type": "address"
        }
      ],
      "name": "Unpaused",
      "type": "event"
    },
    {
      "inputs": [],
      "name": "WHITELIST_CONTRACT",
      "outputs": [
        {
          "internalType": "address",
          "name": "",
          "type": "address"
        }
      ],
      "stateMutability": "view",
      "type": "function"
    },
    {
      "inputs": [],
      "name": "Withdraw",
      "outputs": [],
      "stateMutability": "payable",
      "type": "function"
    },
    {
      "inputs": [
        {
          "internalType": "address",
          "name": "to",
          "type": "address"
        },
        {
          "internalType": "uint256",
          "name": "tokenId",
          "type": "uint256"
        }
      ],
      "name": "approve",
      "outputs": [],
      "stateMutability": "nonpayable",
      "type": "function"
    },
    {
      "inputs": [
        {
          "internalType": "address",
          "name": "owner",
          "type": "address"
        }
      ],
      "name": "balanceOf",
      "outputs": [
        {
          "internalType": "uint256",
          "name": "",
          "type": "uint256"
        }
      ],
      "stateMutability": "view",
      "type": "function"
    },
    {
      "inputs": [],
      "name": "checkWhitelist",
      "outputs": [
        {
          "internalType": "bool",
          "name": "",
          "type": "bool"
        }
      ],
      "stateMutability": "view",
      "type": "function"
    },
    {
      "inputs": [],
      "name": "contractURI",
      "outputs": [
        {
          "internalType": "string",
          "name": "",
          "type": "string"
        }
      ],
      "stateMutability": "pure",
      "type": "function"
    },
    {
      "inputs": [
        {
          "internalType": "uint256",
          "name": "tokenId",
          "type": "uint256"
        }
      ],
      "name": "getApproved",
      "outputs": [
        {
          "internalType": "address",
          "name": "",
          "type": "address"
        }
      ],
      "stateMutability": "view",
      "type": "function"
    },
    {
      "inputs": [],
      "name": "getContractBalance",
      "outputs": [
        {
          "internalType": "uint256",
          "name": "",
          "type": "uint256"
        }
      ],
      "stateMutability": "view",
      "type": "function"
    },
    {
      "inputs": [],
      "name": "getTokenCounter",
      "outputs": [
        {
          "internalType": "uint256",
          "name": "",
          "type": "uint256"
        }
      ],
      "stateMutability": "view",
      "type": "function"
    },
    {
      "inputs": [],
      "name": "getTokenCounterA",
      "outputs": [
        {
          "internalType": "uint256",
          "name": "",
          "type": "uint256"
        }
      ],
      "stateMutability": "view",
      "type": "function"
    },
    {
      "inputs": [],
      "name": "getTokenCounterB",
      "outputs": [
        {
          "internalType": "uint256",
          "name": "",
          "type": "uint256"
        }
      ],
      "stateMutability": "view",
      "type": "function"
    },
    {
      "inputs": [],
      "name": "getTokenCounterC",
      "outputs": [
        {
          "internalType": "uint256",
          "name": "",
          "type": "uint256"
        }
      ],
      "stateMutability": "view",
      "type": "function"
    },
    {
      "inputs": [],
      "name": "getTokenCounterD",
      "outputs": [
        {
          "internalType": "uint256",
          "name": "",
          "type": "uint256"
        }
      ],
      "stateMutability": "view",
      "type": "function"
    },
    {
      "inputs": [],
      "name": "getTokenCounterE",
      "outputs": [
        {
          "internalType": "uint256",
          "name": "",
          "type": "uint256"
        }
      ],
      "stateMutability": "view",
      "type": "function"
    },
    {
      "inputs": [
        {
          "internalType": "address",
          "name": "owner",
          "type": "address"
        },
        {
          "internalType": "address",
          "name": "operator",
          "type": "address"
        }
      ],
      "name": "isApprovedForAll",
      "outputs": [
        {
          "internalType": "bool",
          "name": "",
          "type": "bool"
        }
      ],
      "stateMutability": "view",
      "type": "function"
    },
    {
      "inputs": [
        {
          "internalType": "string",
          "name": "uri",
          "type": "string"
        }
      ],
      "name": "isContentOwned",
      "outputs": [
        {
          "internalType": "bool",
          "name": "",
          "type": "bool"
        }
      ],
      "stateMutability": "view",
      "type": "function"
    },
    {
      "inputs": [],
      "name": "mintStatus",
      "outputs": [
        {
          "internalType": "bool",
          "name": "",
          "type": "bool"
        }
      ],
      "stateMutability": "view",
      "type": "function"
    },
    {
      "inputs": [],
      "name": "name",
      "outputs": [
        {
          "internalType": "string",
          "name": "",
          "type": "string"
        }
      ],
      "stateMutability": "view",
      "type": "function"
    },
    {
      "inputs": [],
      "name": "owner",
      "outputs": [
        {
          "internalType": "address",
          "name": "",
          "type": "address"
        }
      ],
      "stateMutability": "view",
      "type": "function"
    },
    {
      "inputs": [
        {
          "internalType": "uint256",
          "name": "tokenId",
          "type": "uint256"
        }
      ],
      "name": "ownerOf",
      "outputs": [
        {
          "internalType": "address",
          "name": "",
          "type": "address"
        }
      ],
      "stateMutability": "view",
      "type": "function"
    },
    {
      "inputs": [],
      "name": "pause",
      "outputs": [],
      "stateMutability": "nonpayable",
      "type": "function"
    },
    {
      "inputs": [],
      "name": "paused",
      "outputs": [
        {
          "internalType": "bool",
          "name": "",
          "type": "bool"
        }
      ],
      "stateMutability": "view",
      "type": "function"
    },
    {
      "inputs": [
        {
          "internalType": "string",
          "name": "metadataURI",
          "type": "string"
        }
      ],
      "name": "payToMintA",
      "outputs": [
        {
          "internalType": "uint256",
          "name": "",
          "type": "uint256"
        }
      ],
      "stateMutability": "payable",
      "type": "function"
    },
    {
      "inputs": [
        {
          "internalType": "string",
          "name": "metadataURI",
          "type": "string"
        }
      ],
      "name": "payToMintB",
      "outputs": [
        {
          "internalType": "uint256",
          "name": "",
          "type": "uint256"
        }
      ],
      "stateMutability": "payable",
      "type": "function"
    },
    {
      "inputs": [
        {
          "internalType": "string",
          "name": "metadataURI",
          "type": "string"
        }
      ],
      "name": "payToMintC",
      "outputs": [
        {
          "internalType": "uint256",
          "name": "",
          "type": "uint256"
        }
      ],
      "stateMutability": "payable",
      "type": "function"
    },
    {
      "inputs": [
        {
          "internalType": "string",
          "name": "metadataURI",
          "type": "string"
        }
      ],
      "name": "payToMintD",
      "outputs": [
        {
          "internalType": "uint256",
          "name": "",
          "type": "uint256"
        }
      ],
      "stateMutability": "payable",
      "type": "function"
    },
    {
      "inputs": [
        {
          "internalType": "string",
          "name": "metadataURI",
          "type": "string"
        }
      ],
      "name": "payToMintE",
      "outputs": [
        {
          "internalType": "uint256",
          "name": "",
          "type": "uint256"
        }
      ],
      "stateMutability": "payable",
      "type": "function"
    },
    {
      "inputs": [],
      "name": "renounceOwnership",
      "outputs": [],
      "stateMutability": "nonpayable",
      "type": "function"
    },
    {
      "inputs": [
        {
          "internalType": "address",
          "name": "to",
          "type": "address"
        },
        {
          "internalType": "string",
          "name": "metadataURI",
          "type": "string"
        }
      ],
      "name": "safeMint",
      "outputs": [],
      "stateMutability": "nonpayable",
      "type": "function"
    },
    {
      "inputs": [
        {
          "internalType": "address",
          "name": "from",
          "type": "address"
        },
        {
          "internalType": "address",
          "name": "to",
          "type": "address"
        },
        {
          "internalType": "uint256",
          "name": "tokenId",
          "type": "uint256"
        }
      ],
      "name": "safeTransferFrom",
      "outputs": [],
      "stateMutability": "nonpayable",
      "type": "function"
    },
    {
      "inputs": [
        {
          "internalType": "address",
          "name": "from",
          "type": "address"
        },
        {
          "internalType": "address",
          "name": "to",
          "type": "address"
        },
        {
          "internalType": "uint256",
          "name": "tokenId",
          "type": "uint256"
        },
        {
          "internalType": "bytes",
          "name": "data",
          "type": "bytes"
        }
      ],
      "name": "safeTransferFrom",
      "outputs": [],
      "stateMutability": "nonpayable",
      "type": "function"
    },
    {
      "inputs": [
        {
          "internalType": "address",
          "name": "operator",
          "type": "address"
        },
        {
          "internalType": "bool",
          "name": "approved",
          "type": "bool"
        }
      ],
      "name": "setApprovalForAll",
      "outputs": [],
      "stateMutability": "nonpayable",
      "type": "function"
    },
    {
      "inputs": [
        {
          "internalType": "bool",
          "name": "status",
          "type": "bool"
        }
      ],
      "name": "setMintStatus",
      "outputs": [],
      "stateMutability": "nonpayable",
      "type": "function"
    },
    {
      "inputs": [
        {
          "internalType": "uint256",
          "name": "newPriceA",
          "type": "uint256"
        }
      ],
      "name": "setPriceCollectionA",
      "outputs": [],
      "stateMutability": "nonpayable",
      "type": "function"
    },
    {
      "inputs": [
        {
          "internalType": "uint256",
          "name": "newPriceB",
          "type": "uint256"
        }
      ],
      "name": "setPriceCollectionB",
      "outputs": [],
      "stateMutability": "nonpayable",
      "type": "function"
    },
    {
      "inputs": [
        {
          "internalType": "uint256",
          "name": "newPriceC",
          "type": "uint256"
        }
      ],
      "name": "setPriceCollectionC",
      "outputs": [],
      "stateMutability": "nonpayable",
      "type": "function"
    },
    {
      "inputs": [
        {
          "internalType": "uint256",
          "name": "newPriceD",
          "type": "uint256"
        }
      ],
      "name": "setPriceCollectionD",
      "outputs": [],
      "stateMutability": "nonpayable",
      "type": "function"
    },
    {
      "inputs": [
        {
          "internalType": "uint256",
          "name": "newPriceE",
          "type": "uint256"
        }
      ],
      "name": "setPriceCollectionE",
      "outputs": [],
      "stateMutability": "nonpayable",
      "type": "function"
    },
    {
      "inputs": [
        {
          "internalType": "bool",
          "name": "whitelistStatus",
          "type": "bool"
        }
      ],
      "name": "setWhitelistMintStatus",
      "outputs": [],
      "stateMutability": "nonpayable",
      "type": "function"
    },
    {
      "inputs": [
        {
          "internalType": "uint256",
          "name": "whitelistNewPriceA",
          "type": "uint256"
        }
      ],
      "name": "setWhitelistPriceCollectionA",
      "outputs": [],
      "stateMutability": "nonpayable",
      "type": "function"
    },
    {
      "inputs": [
        {
          "internalType": "uint256",
          "name": "whitelistNewPriceB",
          "type": "uint256"
        }
      ],
      "name": "setWhitelistPriceCollectionB",
      "outputs": [],
      "stateMutability": "nonpayable",
      "type": "function"
    },
    {
      "inputs": [
        {
          "internalType": "uint256",
          "name": "whitelistNewPriceC",
          "type": "uint256"
        }
      ],
      "name": "setWhitelistPriceCollectionC",
      "outputs": [],
      "stateMutability": "nonpayable",
      "type": "function"
    },
    {
      "inputs": [
        {
          "internalType": "uint256",
          "name": "whitelistNewPriceD",
          "type": "uint256"
        }
      ],
      "name": "setWhitelistPriceCollectionD",
      "outputs": [],
      "stateMutability": "nonpayable",
      "type": "function"
    },
    {
      "inputs": [
        {
          "internalType": "uint256",
          "name": "whitelistNewPriceE",
          "type": "uint256"
        }
      ],
      "name": "setWhitelistPriceCollectionE",
      "outputs": [],
      "stateMutability": "nonpayable",
      "type": "function"
    },
    {
      "inputs": [
        {
          "internalType": "bytes4",
          "name": "interfaceId",
          "type": "bytes4"
        }
      ],
      "name": "supportsInterface",
      "outputs": [
        {
          "internalType": "bool",
          "name": "",
          "type": "bool"
        }
      ],
      "stateMutability": "view",
      "type": "function"
    },
    {
      "inputs": [],
      "name": "symbol",
      "outputs": [
        {
          "internalType": "string",
          "name": "",
          "type": "string"
        }
      ],
      "stateMutability": "view",
      "type": "function"
    },
    {
      "inputs": [
        {
          "internalType": "uint256",
          "name": "tokenId",
          "type": "uint256"
        }
      ],
      "name": "tokenURI",
      "outputs": [
        {
          "internalType": "string",
          "name": "",
          "type": "string"
        }
      ],
      "stateMutability": "view",
      "type": "function"
    },
    {
      "inputs": [
        {
          "internalType": "address",
          "name": "from",
          "type": "address"
        },
        {
          "internalType": "address",
          "name": "to",
          "type": "address"
        },
        {
          "internalType": "uint256",
          "name": "tokenId",
          "type": "uint256"
        }
      ],
      "name": "transferFrom",
      "outputs": [],
      "stateMutability": "nonpayable",
      "type": "function"
    },
    {
      "inputs": [
        {
          "internalType": "address",
          "name": "newOwner",
          "type": "address"
        }
      ],
      "name": "transferOwnership",
      "outputs": [],
      "stateMutability": "nonpayable",
      "type": "function"
    },
    {
      "inputs": [],
      "name": "unpause",
      "outputs": [],
      "stateMutability": "nonpayable",
      "type": "function"
    },
    {
      "inputs": [],
      "name": "whitelistMintStatus",
      "outputs": [
        {
          "internalType": "bool",
          "name": "",
          "type": "bool"
        }
      ],
      "stateMutability": "view",
      "type": "function"
    },
    {
      "inputs": [
        {
          "internalType": "string",
          "name": "metadataURI",
          "type": "string"
        }
      ],
      "name": "whitelistMintingA",
      "outputs": [
        {
          "internalType": "uint256",
          "name": "",
          "type": "uint256"
        }
      ],
      "stateMutability": "payable",
      "type": "function"
    },
    {
      "inputs": [
        {
          "internalType": "string",
          "name": "metadataURI",
          "type": "string"
        }
      ],
      "name": "whitelistMintingB",
      "outputs": [
        {
          "internalType": "uint256",
          "name": "",
          "type": "uint256"
        }
      ],
      "stateMutability": "payable",
      "type": "function"
    },
    {
      "inputs": [
        {
          "internalType": "string",
          "name": "metadataURI",
          "type": "string"
        }
      ],
      "name": "whitelistMintingC",
      "outputs": [
        {
          "internalType": "uint256",
          "name": "",
          "type": "uint256"
        }
      ],
      "stateMutability": "payable",
      "type": "function"
    },
    {
      "inputs": [
        {
          "internalType": "string",
          "name": "metadataURI",
          "type": "string"
        }
      ],
      "name": "whitelistMintingD",
      "outputs": [
        {
          "internalType": "uint256",
          "name": "",
          "type": "uint256"
        }
      ],
      "stateMutability": "payable",
      "type": "function"
    },
    {
      "inputs": [
        {
          "internalType": "string",
          "name": "metadataURI",
          "type": "string"
        }
      ],
      "name": "whitelistMintingE",
      "outputs": [
        {
          "internalType": "uint256",
          "name": "",
          "type": "uint256"
        }
      ],
      "stateMutability": "payable",
      "type": "function"
    }
  ],
  "bytecode": "0x610140604052730813d4a158d06784fdb48323344896b2b1aa0f85601960026101000a81548173ffffffffffffffffffffffffffffffffffffffff021916908373ffffffffffffffffffffffffffffffffffffffff1602179055503480156200006757600080fd5b506040518060400160405280600981526020017f4b75626963735f563200000000000000000000000000000000000000000000008152506040518060400160405280600381526020017f4b424300000000000000000000000000000000000000000000000000000000008152508160009080519060200190620000ec92919062000491565b5080600190805190602001906200010592919062000491565b5050506000600760006101000a81548160ff0219169083151502179055506200014362000137620003c360201b60201c565b620003cb60201b60201c565b60016008819055503373ffffffffffffffffffffffffffffffffffffffff1660808173ffffffffffffffffffffffffffffffffffffffff1660601b8152505073ab8483f64d9c6d1ecf9b849ae677dd3315835cb273ffffffffffffffffffffffffffffffffffffffff1660a08173ffffffffffffffffffffffffffffffffffffffff1660601b8152505073ab8483f64d9c6d1ecf9b849ae677dd3315835cb273ffffffffffffffffffffffffffffffffffffffff1660c08173ffffffffffffffffffffffffffffffffffffffff1660601b8152505073ab8483f64d9c6d1ecf9b849ae677dd3315835cb273ffffffffffffffffffffffffffffffffffffffff1660e08173ffffffffffffffffffffffffffffffffffffffff1660601b8152505073ab8483f64d9c6d1ecf9b849ae677dd3315835cb273ffffffffffffffffffffffffffffffffffffffff166101008173ffffffffffffffffffffffffffffffffffffffff1660601b8152505073ab8483f64d9c6d1ecf9b849ae677dd3315835cb273ffffffffffffffffffffffffffffffffffffffff166101208173ffffffffffffffffffffffffffffffffffffffff1660601b815250506611c37937e08000600f819055506611c37937e080006010819055506611c37937e080006011819055506611c37937e080006012819055506611c37937e0800060138190555066038d7ea4c6800060148190555066038d7ea4c6800060158190555066038d7ea4c6800060168190555066038d7ea4c6800060178190555066038d7ea4c680006018819055506001601960006101000a81548160ff0219169083151502179055506000601960016101000a81548160ff021916908315150217905550620005a6565b600033905090565b6000600760019054906101000a900473ffffffffffffffffffffffffffffffffffffffff16905081600760016101000a81548173ffffffffffffffffffffffffffffffffffffffff021916908373ffffffffffffffffffffffffffffffffffffffff1602179055508173ffffffffffffffffffffffffffffffffffffffff168173ffffffffffffffffffffffffffffffffffffffff167f8be0079c531659141344cd1fd0a4f28419497f9722a3daafe3b4186f6b6457e060405160405180910390a35050565b8280546200049f9062000541565b90600052602060002090601f016020900481019282620004c357600085556200050f565b82601f10620004de57805160ff19168380011785556200050f565b828001600101855582156200050f579182015b828111156200050e578251825591602001919060010190620004f1565b5b5090506200051e919062000522565b5090565b5b808211156200053d57600081600090555060010162000523565b5090565b600060028204905060018216806200055a57607f821691505b6020821081141562000571576200057062000577565b5b50919050565b7f4e487b7100000000000000000000000000000000000000000000000000000000600052602260045260246000fd5b60805160601c60a05160601c60c05160601c60e05160601c6101005160601c6101205160601c615a57620006086000396000611766015260006116b80152600061160a0152600061155c015260006114ae015260006118140152615a576000f3fe60806040526004361061036b5760003560e01c80637b643059116101c6578063c002d9dc116100f7578063d204c45e11610095578063e8a3d4851161006f578063e8a3d48514610c49578063e985e9c514610c74578063f2fde38b14610cb1578063f42cd99314610cda5761036b565b8063d204c45e14610bc5578063d6b8570714610bee578063e79564e414610c1e5761036b565b8063c87b56dd116100d1578063c87b56dd14610b02578063ca33178614610b3f578063cb9fe58614610b6f578063cea1019814610b9a5761036b565b8063c002d9dc14610a80578063c199b52814610ab0578063c25e95a514610ad95761036b565b8063a22cb46511610164578063b262535a1161013e578063b262535a146109d3578063b5757ca2146109fe578063b74ca31514610a2e578063b88d4fde14610a575761036b565b8063a22cb4651461094f578063a3cc532614610978578063a48bcdd0146109a85761036b565b806395d89b41116101a057806395d89b41146108935780639da3f8fd146108be5780639ddd5d31146108e95780639f1cabc6146109125761036b565b80637b643059146108215780638456cb59146108515780638da5cb5b146108685761036b565b80633f4ba83a116102a05780636352211e1161023e5780636e02007d116102185780636e02007d146107775780636f9fb98a146107a257806370a08231146107cd578063715018a61461080a5761036b565b80636352211e146106da5780636811157d146107175780636855b0e3146107475761036b565b806357ea89b61161027a57806357ea89b61461064c5780635c975abb146106565780635f20cc19146106815780635f3890fc146106b15761036b565b80633f4ba83a146105e15780634198289f146105f857806342842e0e146106235761036b565b806313f0a3ac1161030d5780631f85e3ca116102e75780631f85e3ca1461053d57806323b872dd14610566578063282bbaab1461058f5780632bc1a3d8146105b85761036b565b806313f0a3ac146104bb5780631a92b51d146104eb5780631c550e28146105145761036b565b8063081812fc11610349578063081812fc14610403578063095ea7b3146104405780630e1b3022146104695780630f029237146104925761036b565b806301ffc9a71461037057806306f2057a146103ad57806306fdde03146103d8575b600080fd5b34801561037c57600080fd5b5061039760048036038101906103929190614a03565b610d05565b6040516103a49190614ebc565b60405180910390f35b3480156103b957600080fd5b506103c2610de7565b6040516103cf9190614ebc565b60405180910390f35b3480156103e457600080fd5b506103ed610e9e565b6040516103fa9190614ed7565b60405180910390f35b34801561040f57600080fd5b5061042a60048036038101906104259190614a96565b610f30565b6040516104379190614e55565b60405180910390f35b34801561044c57600080fd5b5061046760048036038101906104629190614975565b610f76565b005b34801561047557600080fd5b50610490600480360381019061048b91906149b1565b61108e565b005b34801561049e57600080fd5b506104b960048036038101906104b49190614a96565b6110b3565b005b6104d560048036038101906104d09190614a55565b6110c5565b6040516104e29190615119565b60405180910390f35b3480156104f757600080fd5b50610512600480360381019061050d9190614a96565b611311565b005b34801561052057600080fd5b5061053b60048036038101906105369190614a96565b611323565b005b34801561054957600080fd5b50610564600480360381019061055f91906149b1565b611335565b005b34801561057257600080fd5b5061058d6004803603810190610588919061481b565b61135a565b005b34801561059b57600080fd5b506105b660048036038101906105b19190614a96565b6113ba565b005b3480156105c457600080fd5b506105df60048036038101906105da9190614a96565b6113cc565b005b3480156105ed57600080fd5b506105f66113de565b005b34801561060457600080fd5b5061060d6113f0565b60405161061a9190615119565b60405180910390f35b34801561062f57600080fd5b5061064a6004803603810190610645919061481b565b6113fa565b005b61065461141a565b005b34801561066257600080fd5b5061066b6118b6565b6040516106789190614ebc565b60405180910390f35b61069b60048036038101906106969190614a55565b6118cd565b6040516106a89190615119565b60405180910390f35b3480156106bd57600080fd5b506106d860048036038101906106d39190614a96565b611b18565b005b3480156106e657600080fd5b5061070160048036038101906106fc9190614a96565b611b2a565b60405161070e9190614e55565b60405180910390f35b610731600480360381019061072c9190614a55565b611bdc565b60405161073e9190615119565b60405180910390f35b610761600480360381019061075c9190614a55565b611e72565b60405161076e9190615119565b60405180910390f35b34801561078357600080fd5b5061078c612108565b6040516107999190615119565b60405180910390f35b3480156107ae57600080fd5b506107b7612112565b6040516107c49190615119565b60405180910390f35b3480156107d957600080fd5b506107f460048036038101906107ef91906147b6565b61211a565b6040516108019190615119565b60405180910390f35b34801561081657600080fd5b5061081f6121d2565b005b61083b60048036038101906108369190614a55565b6121e6565b6040516108489190615119565b60405180910390f35b34801561085d57600080fd5b50610866612432565b005b34801561087457600080fd5b5061087d612444565b60405161088a9190614e55565b60405180910390f35b34801561089f57600080fd5b506108a861246e565b6040516108b59190614ed7565b60405180910390f35b3480156108ca57600080fd5b506108d3612500565b6040516108e09190614ebc565b60405180910390f35b3480156108f557600080fd5b50610910600480360381019061090b9190614a96565b612513565b005b34801561091e57600080fd5b5061093960048036038101906109349190614a55565b612525565b6040516109469190614ebc565b60405180910390f35b34801561095b57600080fd5b50610976600480360381019061097191906148e5565b612560565b005b610992600480360381019061098d9190614a55565b612576565b60405161099f9190615119565b60405180910390f35b3480156109b457600080fd5b506109bd6127c2565b6040516109ca9190615119565b60405180910390f35b3480156109df57600080fd5b506109e86127cc565b6040516109f59190615119565b60405180910390f35b610a186004803603810190610a139190614a55565b6127d6565b604051610a259190615119565b60405180910390f35b348015610a3a57600080fd5b50610a556004803603810190610a509190614a96565b612a6c565b005b348015610a6357600080fd5b50610a7e6004803603810190610a79919061486a565b612a7e565b005b610a9a6004803603810190610a959190614a55565b612ae0565b604051610aa79190615119565b60405180910390f35b348015610abc57600080fd5b50610ad76004803603810190610ad29190614a96565b612d76565b005b348015610ae557600080fd5b50610b006004803603810190610afb9190614a96565b612d88565b005b348015610b0e57600080fd5b50610b296004803603810190610b249190614a96565b612d9a565b604051610b369190614ed7565b60405180910390f35b610b596004803603810190610b549190614a55565b612dac565b604051610b669190615119565b60405180910390f35b348015610b7b57600080fd5b50610b84613042565b604051610b919190614ebc565b60405180910390f35b348015610ba657600080fd5b50610baf613055565b604051610bbc9190614e55565b60405180910390f35b348015610bd157600080fd5b50610bec6004803603810190610be79190614921565b61306d565b005b610c086004803603810190610c039190614a55565b6130e2565b604051610c159190615119565b60405180910390f35b348015610c2a57600080fd5b50610c3361332d565b604051610c409190615119565b60405180910390f35b348015610c5557600080fd5b50610c5e613337565b604051610c6b9190614ed7565b60405180910390f35b348015610c8057600080fd5b50610c9b6004803603810190610c9691906147df565b613357565b604051610ca89190614ebc565b60405180910390f35b348015610cbd57600080fd5b50610cd86004803603810190610cd391906147b6565b6133eb565b005b348015610ce657600080fd5b50610cef61346f565b604051610cfc9190615119565b60405180910390f35b60007f80ac58cd000000000000000000000000000000000000000000000000000000007bffffffffffffffffffffffffffffffffffffffffffffffffffffffff1916827bffffffffffffffffffffffffffffffffffffffffffffffffffffffff19161480610dd057507f5b5e139f000000000000000000000000000000000000000000000000000000007bffffffffffffffffffffffffffffffffffffffffffffffffffffffff1916827bffffffffffffffffffffffffffffffffffffffffffffffffffffffff1916145b80610de05750610ddf82613479565b5b9050919050565b600080601960029054906101000a900473ffffffffffffffffffffffffffffffffffffffff1673ffffffffffffffffffffffffffffffffffffffff166313f44d10336040518263ffffffff1660e01b8152600401610e459190614e55565b60206040518083038186803b158015610e5d57600080fd5b505afa158015610e71573d6000803e3d6000fd5b505050506040513d601f19601f82011682018060405250810190610e9591906149da565b90508091505090565b606060008054610ead906153d4565b80601f0160208091040260200160405190810160405280929190818152602001828054610ed9906153d4565b8015610f265780601f10610efb57610100808354040283529160200191610f26565b820191906000526020600020905b815481529060010190602001808311610f0957829003601f168201915b5050505050905090565b6000610f3b826134e3565b6004600083815260200190815260200160002060009054906101000a900473ffffffffffffffffffffffffffffffffffffffff169050919050565b6000610f8182611b2a565b90508073ffffffffffffffffffffffffffffffffffffffff168373ffffffffffffffffffffffffffffffffffffffff161415610ff2576040517f08c379a0000000000000000000000000000000000000000000000000000000008152600401610fe9906150b9565b60405180910390fd5b8073ffffffffffffffffffffffffffffffffffffffff1661101161352e565b73ffffffffffffffffffffffffffffffffffffffff161480611040575061103f8161103a61352e565b613357565b5b61107f576040517f08c379a000000000000000000000000000000000000000000000000000000000815260040161107690615039565b60405180910390fd5b6110898383613536565b505050565b6110966135ef565b80601960016101000a81548160ff02191690831515021790555050565b6110bb6135ef565b80600f8190555050565b60006002600854141561110d576040517f08c379a0000000000000000000000000000000000000000000000000000000008152600401611104906150f9565b60405180910390fd5b600260088190555060011515601960009054906101000a900460ff16151514611162576040517faea22e0800000000000000000000000000000000000000000000000000000000815260040160405180910390fd5b6127106009541061119f576040517f4bc055ee00000000000000000000000000000000000000000000000000000000815260040160405180910390fd5b610190600c54106111dc576040517f047ed50f00000000000000000000000000000000000000000000000000000000815260040160405180910390fd5b6001601a836040516111ee9190614e05565b908152602001604051809103902060009054906101000a900460ff1660ff161415611245576040517f5eed8c8100000000000000000000000000000000000000000000000000000000815260040160405180910390fd5b601154341015611281576040517fc813754a00000000000000000000000000000000000000000000000000000000815260040160405180910390fd5b6000600954905060016009546112979190615209565b6009819055506001600c546112ac9190615209565b600c819055506001601a846040516112c49190614e05565b908152602001604051809103902060006101000a81548160ff021916908360ff1602179055506112f4338261366d565b6112fe8184613847565b6009549150506001600881905550919050565b6113196135ef565b8060138190555050565b61132b6135ef565b8060158190555050565b61133d6135ef565b80601960006101000a81548160ff02191690831515021790555050565b61136b61136561352e565b826138bb565b6113aa576040517f08c379a00000000000000000000000000000000000000000000000000000000081526004016113a1906150d9565b60405180910390fd5b6113b5838383613950565b505050565b6113c26135ef565b8060168190555050565b6113d46135ef565b8060178190555050565b6113e66135ef565b6113ee613bb7565b565b6000600e54905090565b61141583838360405180602001604052806000815250612a7e565b505050565b60026008541415611460576040517f08c379a0000000000000000000000000000000000000000000000000000000008152600401611457906150f9565b60405180910390fd5b60026008819055506114706135ef565b600047116114aa576040517f73297bbe00000000000000000000000000000000000000000000000000000000815260040160405180910390fd5b60007f000000000000000000000000000000000000000000000000000000000000000073ffffffffffffffffffffffffffffffffffffffff1660646001476114f29190615290565b6114fc919061525f565b60405161150890614e40565b60006040518083038185875af1925050503d8060008114611545576040519150601f19603f3d011682016040523d82523d6000602084013e61154a565b606091505b505090508061155857600080fd5b60007f000000000000000000000000000000000000000000000000000000000000000073ffffffffffffffffffffffffffffffffffffffff1660646001476115a09190615290565b6115aa919061525f565b6040516115b690614e40565b60006040518083038185875af1925050503d80600081146115f3576040519150601f19603f3d011682016040523d82523d6000602084013e6115f8565b606091505b505090508061160657600080fd5b60007f000000000000000000000000000000000000000000000000000000000000000073ffffffffffffffffffffffffffffffffffffffff16606460014761164e9190615290565b611658919061525f565b60405161166490614e40565b60006040518083038185875af1925050503d80600081146116a1576040519150601f19603f3d011682016040523d82523d6000602084013e6116a6565b606091505b50509050806116b457600080fd5b60007f000000000000000000000000000000000000000000000000000000000000000073ffffffffffffffffffffffffffffffffffffffff1660646001476116fc9190615290565b611706919061525f565b60405161171290614e40565b60006040518083038185875af1925050503d806000811461174f576040519150601f19603f3d011682016040523d82523d6000602084013e611754565b606091505b505090508061176257600080fd5b60007f000000000000000000000000000000000000000000000000000000000000000073ffffffffffffffffffffffffffffffffffffffff1660646001476117aa9190615290565b6117b4919061525f565b6040516117c090614e40565b60006040518083038185875af1925050503d80600081146117fd576040519150601f19603f3d011682016040523d82523d6000602084013e611802565b606091505b505090508061181057600080fd5b60007f000000000000000000000000000000000000000000000000000000000000000073ffffffffffffffffffffffffffffffffffffffff164760405161185690614e40565b60006040518083038185875af1925050503d8060008114611893576040519150601f19603f3d011682016040523d82523d6000602084013e611898565b606091505b50509050806118a657600080fd5b5050505050506001600881905550565b6000600760009054906101000a900460ff16905090565b600060026008541415611915576040517f08c379a000000000000000000000000000000000000000000000000000000000815260040161190c906150f9565b60405180910390fd5b600260088190555060011515601960009054906101000a900460ff1615151461196a576040517faea22e0800000000000000000000000000000000000000000000000000000000815260040160405180910390fd5b612710600954106119a7576040517f4bc055ee00000000000000000000000000000000000000000000000000000000815260040160405180910390fd5b600a600e54106119e3576040517f047ed50f00000000000000000000000000000000000000000000000000000000815260040160405180910390fd5b6001601a836040516119f59190614e05565b908152602001604051809103902060009054906101000a900460ff1660ff161415611a4c576040517f5eed8c8100000000000000000000000000000000000000000000000000000000815260040160405180910390fd5b601354341015611a88576040517fc813754a00000000000000000000000000000000000000000000000000000000815260040160405180910390fd5b600060095490506001600954611a9e9190615209565b6009819055506001600e54611ab39190615209565b600e819055506001601a84604051611acb9190614e05565b908152602001604051809103902060006101000a81548160ff021916908360ff160217905550611afb338261366d565b611b058184613847565b6009549150506001600881905550919050565b611b206135ef565b8060188190555050565b6000806002600084815260200190815260200160002060009054906101000a900473ffffffffffffffffffffffffffffffffffffffff169050600073ffffffffffffffffffffffffffffffffffffffff168173ffffffffffffffffffffffffffffffffffffffff161415611bd3576040517f08c379a0000000000000000000000000000000000000000000000000000000008152600401611bca90615099565b60405180910390fd5b80915050919050565b600060026008541415611c24576040517f08c379a0000000000000000000000000000000000000000000000000000000008152600401611c1b906150f9565b60405180910390fd5b600260088190555060011515601960019054906101000a900460ff16151514611c79576040517f542c5fe600000000000000000000000000000000000000000000000000000000815260040160405180910390fd5b60011515611c85610de7565b151514611cbe576040517f2557aa1900000000000000000000000000000000000000000000000000000000815260040160405180910390fd5b6103e860095410611cfb576040517f4bc055ee00000000000000000000000000000000000000000000000000000000815260040160405180910390fd5b6001601a83604051611d0d9190614e05565b908152602001604051809103902060009054906101000a900460ff1660ff161415611d64576040517f5eed8c8100000000000000000000000000000000000000000000000000000000815260040160405180910390fd5b601854341015611da0576040517fc813754a00000000000000000000000000000000000000000000000000000000815260040160405180910390fd5b6001611dab3361211a565b10611de2576040517f83b284d500000000000000000000000000000000000000000000000000000000815260040160405180910390fd5b600060095490506001600954611df89190615209565b6009819055506001600e54611e0d9190615209565b600e819055506001601a84604051611e259190614e05565b908152602001604051809103902060006101000a81548160ff021916908360ff160217905550611e55338261366d565b611e5f8184613847565b6009549150506001600881905550919050565b600060026008541415611eba576040517f08c379a0000000000000000000000000000000000000000000000000000000008152600401611eb1906150f9565b60405180910390fd5b600260088190555060011515601960019054906101000a900460ff16151514611f0f576040517f542c5fe600000000000000000000000000000000000000000000000000000000815260040160405180910390fd5b60011515611f1b610de7565b151514611f54576040517f2557aa1900000000000000000000000000000000000000000000000000000000815260040160405180910390fd5b6103e860095410611f91576040517f4bc055ee00000000000000000000000000000000000000000000000000000000815260040160405180910390fd5b6001601a83604051611fa39190614e05565b908152602001604051809103902060009054906101000a900460ff1660ff161415611ffa576040517f5eed8c8100000000000000000000000000000000000000000000000000000000815260040160405180910390fd5b601654341015612036576040517fc813754a00000000000000000000000000000000000000000000000000000000815260040160405180910390fd5b60016120413361211a565b10612078576040517f83b284d500000000000000000000000000000000000000000000000000000000815260040160405180910390fd5b60006009549050600160095461208e9190615209565b6009819055506001600c546120a39190615209565b600c819055506001601a846040516120bb9190614e05565b908152602001604051809103902060006101000a81548160ff021916908360ff1602179055506120eb338261366d565b6120f58184613847565b6009549150506001600881905550919050565b6000600954905090565b600047905090565b60008073ffffffffffffffffffffffffffffffffffffffff168273ffffffffffffffffffffffffffffffffffffffff16141561218b576040517f08c379a000000000000000000000000000000000000000000000000000000000815260040161218290614ff9565b60405180910390fd5b600360008373ffffffffffffffffffffffffffffffffffffffff1673ffffffffffffffffffffffffffffffffffffffff168152602001908152602001600020549050919050565b6121da6135ef565b6121e46000613c1a565b565b60006002600854141561222e576040517f08c379a0000000000000000000000000000000000000000000000000000000008152600401612225906150f9565b60405180910390fd5b600260088190555060011515601960009054906101000a900460ff16151514612283576040517faea22e0800000000000000000000000000000000000000000000000000000000815260040160405180910390fd5b612710600954106122c0576040517f4bc055ee00000000000000000000000000000000000000000000000000000000815260040160405180910390fd5b6109c4600b54106122fd576040517f047ed50f00000000000000000000000000000000000000000000000000000000815260040160405180910390fd5b6001601a8360405161230f9190614e05565b908152602001604051809103902060009054906101000a900460ff1660ff161415612366576040517f5eed8c8100000000000000000000000000000000000000000000000000000000815260040160405180910390fd5b6010543410156123a2576040517fc813754a00000000000000000000000000000000000000000000000000000000815260040160405180910390fd5b6000600954905060016009546123b89190615209565b6009819055506001600b546123cd9190615209565b600b819055506001601a846040516123e59190614e05565b908152602001604051809103902060006101000a81548160ff021916908360ff160217905550612415338261366d565b61241f8184613847565b6009549150506001600881905550919050565b61243a6135ef565b612442613ce0565b565b6000600760019054906101000a900473ffffffffffffffffffffffffffffffffffffffff16905090565b60606001805461247d906153d4565b80601f01602080910402602001604051908101604052809291908181526020018280546124a9906153d4565b80156124f65780601f106124cb576101008083540402835291602001916124f6565b820191906000526020600020905b8154815290600101906020018083116124d957829003601f168201915b5050505050905090565b601960009054906101000a900460ff1681565b61251b6135ef565b8060118190555050565b60006001601a836040516125399190614e05565b908152602001604051809103902060009054906101000a900460ff1660ff16149050919050565b61257261256b61352e565b8383613d43565b5050565b6000600260085414156125be576040517f08c379a00000000000000000000000000000000000000000000000000000000081526004016125b5906150f9565b60405180910390fd5b600260088190555060011515601960009054906101000a900460ff16151514612613576040517faea22e0800000000000000000000000000000000000000000000000000000000815260040160405180910390fd5b61271060095410612650576040517f4bc055ee00000000000000000000000000000000000000000000000000000000815260040160405180910390fd5b611b58600a541061268d576040517f047ed50f00000000000000000000000000000000000000000000000000000000815260040160405180910390fd5b6001601a8360405161269f9190614e05565b908152602001604051809103902060009054906101000a900460ff1660ff1614156126f6576040517f5eed8c8100000000000000000000000000000000000000000000000000000000815260040160405180910390fd5b600f54341015612732576040517fc813754a00000000000000000000000000000000000000000000000000000000815260040160405180910390fd5b6000600954905060016009546127489190615209565b6009819055506001600a5461275d9190615209565b600a819055506001601a846040516127759190614e05565b908152602001604051809103902060006101000a81548160ff021916908360ff1602179055506127a5338261366d565b6127af8184613847565b6009549150506001600881905550919050565b6000600a54905090565b6000600c54905090565b60006002600854141561281e576040517f08c379a0000000000000000000000000000000000000000000000000000000008152600401612815906150f9565b60405180910390fd5b600260088190555060011515601960019054906101000a900460ff16151514612873576040517f542c5fe600000000000000000000000000000000000000000000000000000000815260040160405180910390fd5b6001151561287f610de7565b1515146128b8576040517f2557aa1900000000000000000000000000000000000000000000000000000000815260040160405180910390fd5b6103e8600954106128f5576040517f4bc055ee00000000000000000000000000000000000000000000000000000000815260040160405180910390fd5b6001601a836040516129079190614e05565b908152602001604051809103902060009054906101000a900460ff1660ff16141561295e576040517f5eed8c8100000000000000000000000000000000000000000000000000000000815260040160405180910390fd5b60145434101561299a576040517fc813754a00000000000000000000000000000000000000000000000000000000815260040160405180910390fd5b60016129a53361211a565b106129dc576040517f83b284d500000000000000000000000000000000000000000000000000000000815260040160405180910390fd5b6000600954905060016009546129f29190615209565b6009819055506001600a54612a079190615209565b600a819055506001601a84604051612a1f9190614e05565b908152602001604051809103902060006101000a81548160ff021916908360ff160217905550612a4f338261366d565b612a598184613847565b6009549150506001600881905550919050565b612a746135ef565b8060128190555050565b612a8f612a8961352e565b836138bb565b612ace576040517f08c379a0000000000000000000000000000000000000000000000000000000008152600401612ac5906150d9565b60405180910390fd5b612ada84848484613eb0565b50505050565b600060026008541415612b28576040517f08c379a0000000000000000000000000000000000000000000000000000000008152600401612b1f906150f9565b60405180910390fd5b600260088190555060011515601960019054906101000a900460ff16151514612b7d576040517f542c5fe600000000000000000000000000000000000000000000000000000000815260040160405180910390fd5b60011515612b89610de7565b151514612bc2576040517f2557aa1900000000000000000000000000000000000000000000000000000000815260040160405180910390fd5b6103e860095410612bff576040517f4bc055ee00000000000000000000000000000000000000000000000000000000815260040160405180910390fd5b6001601a83604051612c119190614e05565b908152602001604051809103902060009054906101000a900460ff1660ff161415612c68576040517f5eed8c8100000000000000000000000000000000000000000000000000000000815260040160405180910390fd5b601554341015612ca4576040517fc813754a00000000000000000000000000000000000000000000000000000000815260040160405180910390fd5b6001612caf3361211a565b10612ce6576040517f83b284d500000000000000000000000000000000000000000000000000000000815260040160405180910390fd5b600060095490506001600954612cfc9190615209565b6009819055506001600b54612d119190615209565b600b819055506001601a84604051612d299190614e05565b908152602001604051809103902060006101000a81548160ff021916908360ff160217905550612d59338261366d565b612d638184613847565b6009549150506001600881905550919050565b612d7e6135ef565b8060108190555050565b612d906135ef565b8060148190555050565b6060612da582613f0c565b9050919050565b600060026008541415612df4576040517f08c379a0000000000000000000000000000000000000000000000000000000008152600401612deb906150f9565b60405180910390fd5b600260088190555060011515601960019054906101000a900460ff16151514612e49576040517f542c5fe600000000000000000000000000000000000000000000000000000000815260040160405180910390fd5b60011515612e55610de7565b151514612e8e576040517f2557aa1900000000000000000000000000000000000000000000000000000000815260040160405180910390fd5b6103e860095410612ecb576040517f4bc055ee00000000000000000000000000000000000000000000000000000000815260040160405180910390fd5b6001601a83604051612edd9190614e05565b908152602001604051809103902060009054906101000a900460ff1660ff161415612f34576040517f5eed8c8100000000000000000000000000000000000000000000000000000000815260040160405180910390fd5b601754341015612f70576040517fc813754a00000000000000000000000000000000000000000000000000000000815260040160405180910390fd5b6001612f7b3361211a565b10612fb2576040517f83b284d500000000000000000000000000000000000000000000000000000000815260040160405180910390fd5b600060095490506001600954612fc89190615209565b6009819055506001600d54612fdd9190615209565b600d819055506001601a84604051612ff59190614e05565b908152602001604051809103902060006101000a81548160ff021916908360ff160217905550613025338261366d565b61302f8184613847565b6009549150506001600881905550919050565b601960019054906101000a900460ff1681565b730813d4a158d06784fdb48323344896b2b1aa0f8581565b6130756135ef565b60006009549050600160095461308b9190615209565b6009819055506001601a836040516130a39190614e05565b908152602001604051809103902060006101000a81548160ff021916908360ff1602179055506130d3838261401f565b6130dd8183613847565b505050565b60006002600854141561312a576040517f08c379a0000000000000000000000000000000000000000000000000000000008152600401613121906150f9565b60405180910390fd5b600260088190555060011515601960009054906101000a900460ff1615151461317f576040517faea22e0800000000000000000000000000000000000000000000000000000000815260040160405180910390fd5b612710600954106131bc576040517f4bc055ee00000000000000000000000000000000000000000000000000000000815260040160405180910390fd5b605a600d54106131f8576040517f047ed50f00000000000000000000000000000000000000000000000000000000815260040160405180910390fd5b6001601a8360405161320a9190614e05565b908152602001604051809103902060009054906101000a900460ff1660ff161415613261576040517f5eed8c8100000000000000000000000000000000000000000000000000000000815260040160405180910390fd5b60125434101561329d576040517fc813754a00000000000000000000000000000000000000000000000000000000815260040160405180910390fd5b6000600954905060016009546132b39190615209565b6009819055506001600d546132c89190615209565b600d819055506001601a846040516132e09190614e05565b908152602001604051809103902060006101000a81548160ff021916908360ff160217905550613310338261366d565b61331a8184613847565b6009549150506001600881905550919050565b6000600d54905090565b60606040518060600160405280603581526020016159ed60359139905090565b6000600560008473ffffffffffffffffffffffffffffffffffffffff1673ffffffffffffffffffffffffffffffffffffffff16815260200190815260200160002060008373ffffffffffffffffffffffffffffffffffffffff1673ffffffffffffffffffffffffffffffffffffffff16815260200190815260200160002060009054906101000a900460ff16905092915050565b6133f36135ef565b600073ffffffffffffffffffffffffffffffffffffffff168173ffffffffffffffffffffffffffffffffffffffff161415613463576040517f08c379a000000000000000000000000000000000000000000000000000000000815260040161345a90614f39565b60405180910390fd5b61346c81613c1a565b50565b6000600b54905090565b60007f01ffc9a7000000000000000000000000000000000000000000000000000000007bffffffffffffffffffffffffffffffffffffffffffffffffffffffff1916827bffffffffffffffffffffffffffffffffffffffffffffffffffffffff1916149050919050565b6134ec8161403d565b61352b576040517f08c379a000000000000000000000000000000000000000000000000000000000815260040161352290615099565b60405180910390fd5b50565b600033905090565b816004600083815260200190815260200160002060006101000a81548173ffffffffffffffffffffffffffffffffffffffff021916908373ffffffffffffffffffffffffffffffffffffffff160217905550808273ffffffffffffffffffffffffffffffffffffffff166135a983611b2a565b73ffffffffffffffffffffffffffffffffffffffff167f8c5be1e5ebec7d5bd14f71427d1e84f3dd0314c0f7b2291e5b200ac8c7c3b92560405160405180910390a45050565b6135f761352e565b73ffffffffffffffffffffffffffffffffffffffff16613615612444565b73ffffffffffffffffffffffffffffffffffffffff161461366b576040517f08c379a000000000000000000000000000000000000000000000000000000000815260040161366290615079565b60405180910390fd5b565b600073ffffffffffffffffffffffffffffffffffffffff168273ffffffffffffffffffffffffffffffffffffffff1614156136dd576040517f08c379a00000000000000000000000000000000000000000000000000000000081526004016136d490615059565b60405180910390fd5b6136e68161403d565b15613726576040517f08c379a000000000000000000000000000000000000000000000000000000000815260040161371d90614f79565b60405180910390fd5b613732600083836140a9565b6001600360008473ffffffffffffffffffffffffffffffffffffffff1673ffffffffffffffffffffffffffffffffffffffff16815260200190815260200160002060008282546137829190615209565b92505081905550816002600083815260200190815260200160002060006101000a81548173ffffffffffffffffffffffffffffffffffffffff021916908373ffffffffffffffffffffffffffffffffffffffff160217905550808273ffffffffffffffffffffffffffffffffffffffff16600073ffffffffffffffffffffffffffffffffffffffff167fddf252ad1be2c89b69c2b068fc378daa952ba7f163c4a11628f55a4df523b3ef60405160405180910390a4613843600083836140c1565b5050565b6138508261403d565b61388f576040517f08c379a000000000000000000000000000000000000000000000000000000000815260040161388690615019565b60405180910390fd5b806006600084815260200190815260200160002090805190602001906138b69291906145c5565b505050565b6000806138c783611b2a565b90508073ffffffffffffffffffffffffffffffffffffffff168473ffffffffffffffffffffffffffffffffffffffff16148061390957506139088185613357565b5b8061394757508373ffffffffffffffffffffffffffffffffffffffff1661392f84610f30565b73ffffffffffffffffffffffffffffffffffffffff16145b91505092915050565b8273ffffffffffffffffffffffffffffffffffffffff1661397082611b2a565b73ffffffffffffffffffffffffffffffffffffffff16146139c6576040517f08c379a00000000000000000000000000000000000000000000000000000000081526004016139bd90614f59565b60405180910390fd5b600073ffffffffffffffffffffffffffffffffffffffff168273ffffffffffffffffffffffffffffffffffffffff161415613a36576040517f08c379a0000000000000000000000000000000000000000000000000000000008152600401613a2d90614f99565b60405180910390fd5b613a418383836140a9565b613a4c600082613536565b6001600360008573ffffffffffffffffffffffffffffffffffffffff1673ffffffffffffffffffffffffffffffffffffffff1681526020019081526020016000206000828254613a9c91906152ea565b925050819055506001600360008473ffffffffffffffffffffffffffffffffffffffff1673ffffffffffffffffffffffffffffffffffffffff1681526020019081526020016000206000828254613af39190615209565b92505081905550816002600083815260200190815260200160002060006101000a81548173ffffffffffffffffffffffffffffffffffffffff021916908373ffffffffffffffffffffffffffffffffffffffff160217905550808273ffffffffffffffffffffffffffffffffffffffff168473ffffffffffffffffffffffffffffffffffffffff167fddf252ad1be2c89b69c2b068fc378daa952ba7f163c4a11628f55a4df523b3ef60405160405180910390a4613bb28383836140c1565b505050565b613bbf6140c6565b6000600760006101000a81548160ff0219169083151502179055507f5db9ee0a495bf2e6ff9c91a7834c1ba4fdd244a5e8aa4e537bd38aeae4b073aa613c0361352e565b604051613c109190614e55565b60405180910390a1565b6000600760019054906101000a900473ffffffffffffffffffffffffffffffffffffffff16905081600760016101000a81548173ffffffffffffffffffffffffffffffffffffffff021916908373ffffffffffffffffffffffffffffffffffffffff1602179055508173ffffffffffffffffffffffffffffffffffffffff168173ffffffffffffffffffffffffffffffffffffffff167f8be0079c531659141344cd1fd0a4f28419497f9722a3daafe3b4186f6b6457e060405160405180910390a35050565b613ce861410f565b6001600760006101000a81548160ff0219169083151502179055507f62e78cea01bee320cd4e420270b5ea74000d11b0c9f74754ebdbfc544b05a258613d2c61352e565b604051613d399190614e55565b60405180910390a1565b8173ffffffffffffffffffffffffffffffffffffffff168373ffffffffffffffffffffffffffffffffffffffff161415613db2576040517f08c379a0000000000000000000000000000000000000000000000000000000008152600401613da990614fb9565b60405180910390fd5b80600560008573ffffffffffffffffffffffffffffffffffffffff1673ffffffffffffffffffffffffffffffffffffffff16815260200190815260200160002060008473ffffffffffffffffffffffffffffffffffffffff1673ffffffffffffffffffffffffffffffffffffffff16815260200190815260200160002060006101000a81548160ff0219169083151502179055508173ffffffffffffffffffffffffffffffffffffffff168373ffffffffffffffffffffffffffffffffffffffff167f17307eab39ab6107e8899845ad3d59bd9653f200f220920489ca2b5937696c3183604051613ea39190614ebc565b60405180910390a3505050565b613ebb848484613950565b613ec784848484614159565b613f06576040517f08c379a0000000000000000000000000000000000000000000000000000000008152600401613efd90614f19565b60405180910390fd5b50505050565b6060613f17826134e3565b6000600660008481526020019081526020016000208054613f37906153d4565b80601f0160208091040260200160405190810160405280929190818152602001828054613f63906153d4565b8015613fb05780601f10613f8557610100808354040283529160200191613fb0565b820191906000526020600020905b815481529060010190602001808311613f9357829003601f168201915b505050505090506000613fc16142f0565b9050600081511415613fd757819250505061401a565b60008251111561400c578082604051602001613ff4929190614e1c565b6040516020818303038152906040529250505061401a565b6140158461432d565b925050505b919050565b614039828260405180602001604052806000815250614395565b5050565b60008073ffffffffffffffffffffffffffffffffffffffff166002600084815260200190815260200160002060009054906101000a900473ffffffffffffffffffffffffffffffffffffffff1673ffffffffffffffffffffffffffffffffffffffff1614159050919050565b6140b161410f565b6140bc8383836143f0565b505050565b505050565b6140ce6118b6565b61410d576040517f08c379a000000000000000000000000000000000000000000000000000000000815260040161410490614ef9565b60405180910390fd5b565b6141176118b6565b15614157576040517f08c379a000000000000000000000000000000000000000000000000000000000815260040161414e90614fd9565b60405180910390fd5b565b600061417a8473ffffffffffffffffffffffffffffffffffffffff166143f5565b156142e3578373ffffffffffffffffffffffffffffffffffffffff1663150b7a026141a361352e565b8786866040518563ffffffff1660e01b81526004016141c59493929190614e70565b602060405180830381600087803b1580156141df57600080fd5b505af192505050801561421057506040513d601f19601f8201168201806040525081019061420d9190614a2c565b60015b614293573d8060008114614240576040519150601f19603f3d011682016040523d82523d6000602084013e614245565b606091505b5060008151141561428b576040517f08c379a000000000000000000000000000000000000000000000000000000000815260040161428290614f19565b60405180910390fd5b805181602001fd5b63150b7a0260e01b7bffffffffffffffffffffffffffffffffffffffffffffffffffffffff1916817bffffffffffffffffffffffffffffffffffffffffffffffffffffffff1916149150506142e8565b600190505b949350505050565b60606040518060400160405280600781526020017f697066733a2f2f00000000000000000000000000000000000000000000000000815250905090565b6060614338826134e3565b60006143426142f0565b90506000815111614362576040518060200160405280600081525061438d565b8061436c84614418565b60405160200161437d929190614e1c565b6040516020818303038152906040525b915050919050565b61439f838361366d565b6143ac6000848484614159565b6143eb576040517f08c379a00000000000000000000000000000000000000000000000000000000081526004016143e290614f19565b60405180910390fd5b505050565b505050565b6000808273ffffffffffffffffffffffffffffffffffffffff163b119050919050565b60606000821415614460576040518060400160405280600181526020017f300000000000000000000000000000000000000000000000000000000000000081525090506145c0565b600082905060005b6000821461449257808061447b90615437565b915050600a8261448b919061525f565b9150614468565b60008167ffffffffffffffff8111156144d4577f4e487b7100000000000000000000000000000000000000000000000000000000600052604160045260246000fd5b6040519080825280601f01601f1916602001820160405280156145065781602001600182028036833780820191505090505b5090505b600085146145b95760018261451f91906152ea565b9150600a8561452e9190615480565b603061453a9190615209565b60f81b818381518110614576577f4e487b7100000000000000000000000000000000000000000000000000000000600052603260045260246000fd5b60200101907effffffffffffffffffffffffffffffffffffffffffffffffffffffffffffff1916908160001a905350600a856145b2919061525f565b945061450a565b8093505050505b919050565b8280546145d1906153d4565b90600052602060002090601f0160209004810192826145f3576000855561463a565b82601f1061460c57805160ff191683800117855561463a565b8280016001018555821561463a579182015b8281111561463957825182559160200191906001019061461e565b5b509050614647919061464b565b5090565b5b8082111561466457600081600090555060010161464c565b5090565b600061467b61467684615159565b615134565b90508281526020810184848401111561469357600080fd5b61469e848285615392565b509392505050565b60006146b96146b48461518a565b615134565b9050828152602081018484840111156146d157600080fd5b6146dc848285615392565b509392505050565b6000813590506146f381615990565b92915050565b600081359050614708816159a7565b92915050565b60008151905061471d816159a7565b92915050565b600081359050614732816159be565b92915050565b600081519050614747816159be565b92915050565b600082601f83011261475e57600080fd5b813561476e848260208601614668565b91505092915050565b600082601f83011261478857600080fd5b81356147988482602086016146a6565b91505092915050565b6000813590506147b0816159d5565b92915050565b6000602082840312156147c857600080fd5b60006147d6848285016146e4565b91505092915050565b600080604083850312156147f257600080fd5b6000614800858286016146e4565b9250506020614811858286016146e4565b9150509250929050565b60008060006060848603121561483057600080fd5b600061483e868287016146e4565b935050602061484f868287016146e4565b9250506040614860868287016147a1565b9150509250925092565b6000806000806080858703121561488057600080fd5b600061488e878288016146e4565b945050602061489f878288016146e4565b93505060406148b0878288016147a1565b925050606085013567ffffffffffffffff8111156148cd57600080fd5b6148d98782880161474d565b91505092959194509250565b600080604083850312156148f857600080fd5b6000614906858286016146e4565b9250506020614917858286016146f9565b9150509250929050565b6000806040838503121561493457600080fd5b6000614942858286016146e4565b925050602083013567ffffffffffffffff81111561495f57600080fd5b61496b85828601614777565b9150509250929050565b6000806040838503121561498857600080fd5b6000614996858286016146e4565b92505060206149a7858286016147a1565b9150509250929050565b6000602082840312156149c357600080fd5b60006149d1848285016146f9565b91505092915050565b6000602082840312156149ec57600080fd5b60006149fa8482850161470e565b91505092915050565b600060208284031215614a1557600080fd5b6000614a2384828501614723565b91505092915050565b600060208284031215614a3e57600080fd5b6000614a4c84828501614738565b91505092915050565b600060208284031215614a6757600080fd5b600082013567ffffffffffffffff811115614a8157600080fd5b614a8d84828501614777565b91505092915050565b600060208284031215614aa857600080fd5b6000614ab6848285016147a1565b91505092915050565b614ac88161531e565b82525050565b614ad781615330565b82525050565b6000614ae8826151bb565b614af281856151d1565b9350614b028185602086016153a1565b614b0b8161556d565b840191505092915050565b6000614b21826151c6565b614b2b81856151ed565b9350614b3b8185602086016153a1565b614b448161556d565b840191505092915050565b6000614b5a826151c6565b614b6481856151fe565b9350614b748185602086016153a1565b80840191505092915050565b6000614b8d6014836151ed565b9150614b988261557e565b602082019050919050565b6000614bb06032836151ed565b9150614bbb826155a7565b604082019050919050565b6000614bd36026836151ed565b9150614bde826155f6565b604082019050919050565b6000614bf66025836151ed565b9150614c0182615645565b604082019050919050565b6000614c19601c836151ed565b9150614c2482615694565b602082019050919050565b6000614c3c6024836151ed565b9150614c47826156bd565b604082019050919050565b6000614c5f6019836151ed565b9150614c6a8261570c565b602082019050919050565b6000614c826010836151ed565b9150614c8d82615735565b602082019050919050565b6000614ca56029836151ed565b9150614cb08261575e565b604082019050919050565b6000614cc8602e836151ed565b9150614cd3826157ad565b604082019050919050565b6000614ceb603e836151ed565b9150614cf6826157fc565b604082019050919050565b6000614d0e6020836151ed565b9150614d198261584b565b602082019050919050565b6000614d316020836151ed565b9150614d3c82615874565b602082019050919050565b6000614d546018836151ed565b9150614d5f8261589d565b602082019050919050565b6000614d776021836151ed565b9150614d82826158c6565b604082019050919050565b6000614d9a6000836151e2565b9150614da582615915565b600082019050919050565b6000614dbd602e836151ed565b9150614dc882615918565b604082019050919050565b6000614de0601f836151ed565b9150614deb82615967565b602082019050919050565b614dff81615388565b82525050565b6000614e118284614b4f565b915081905092915050565b6000614e288285614b4f565b9150614e348284614b4f565b91508190509392505050565b6000614e4b82614d8d565b9150819050919050565b6000602082019050614e6a6000830184614abf565b92915050565b6000608082019050614e856000830187614abf565b614e926020830186614abf565b614e9f6040830185614df6565b8181036060830152614eb18184614add565b905095945050505050565b6000602082019050614ed16000830184614ace565b92915050565b60006020820190508181036000830152614ef18184614b16565b905092915050565b60006020820190508181036000830152614f1281614b80565b9050919050565b60006020820190508181036000830152614f3281614ba3565b9050919050565b60006020820190508181036000830152614f5281614bc6565b9050919050565b60006020820190508181036000830152614f7281614be9565b9050919050565b60006020820190508181036000830152614f9281614c0c565b9050919050565b60006020820190508181036000830152614fb281614c2f565b9050919050565b60006020820190508181036000830152614fd281614c52565b9050919050565b60006020820190508181036000830152614ff281614c75565b9050919050565b6000602082019050818103600083015261501281614c98565b9050919050565b6000602082019050818103600083015261503281614cbb565b9050919050565b6000602082019050818103600083015261505281614cde565b9050919050565b6000602082019050818103600083015261507281614d01565b9050919050565b6000602082019050818103600083015261509281614d24565b9050919050565b600060208201905081810360008301526150b281614d47565b9050919050565b600060208201905081810360008301526150d281614d6a565b9050919050565b600060208201905081810360008301526150f281614db0565b9050919050565b6000602082019050818103600083015261511281614dd3565b9050919050565b600060208201905061512e6000830184614df6565b92915050565b600061513e61514f565b905061514a8282615406565b919050565b6000604051905090565b600067ffffffffffffffff8211156151745761517361553e565b5b61517d8261556d565b9050602081019050919050565b600067ffffffffffffffff8211156151a5576151a461553e565b5b6151ae8261556d565b9050602081019050919050565b600081519050919050565b600081519050919050565b600082825260208201905092915050565b600081905092915050565b600082825260208201905092915050565b600081905092915050565b600061521482615388565b915061521f83615388565b9250827fffffffffffffffffffffffffffffffffffffffffffffffffffffffffffffffff03821115615254576152536154b1565b5b828201905092915050565b600061526a82615388565b915061527583615388565b925082615285576152846154e0565b5b828204905092915050565b600061529b82615388565b91506152a683615388565b9250817fffffffffffffffffffffffffffffffffffffffffffffffffffffffffffffffff04831182151516156152df576152de6154b1565b5b828202905092915050565b60006152f582615388565b915061530083615388565b925082821015615313576153126154b1565b5b828203905092915050565b600061532982615368565b9050919050565b60008115159050919050565b60007fffffffff0000000000000000000000000000000000000000000000000000000082169050919050565b600073ffffffffffffffffffffffffffffffffffffffff82169050919050565b6000819050919050565b82818337600083830152505050565b60005b838110156153bf5780820151818401526020810190506153a4565b838111156153ce576000848401525b50505050565b600060028204905060018216806153ec57607f821691505b60208210811415615400576153ff61550f565b5b50919050565b61540f8261556d565b810181811067ffffffffffffffff8211171561542e5761542d61553e565b5b80604052505050565b600061544282615388565b91507fffffffffffffffffffffffffffffffffffffffffffffffffffffffffffffffff821415615475576154746154b1565b5b600182019050919050565b600061548b82615388565b915061549683615388565b9250826154a6576154a56154e0565b5b828206905092915050565b7f4e487b7100000000000000000000000000000000000000000000000000000000600052601160045260246000fd5b7f4e487b7100000000000000000000000000000000000000000000000000000000600052601260045260246000fd5b7f4e487b7100000000000000000000000000000000000000000000000000000000600052602260045260246000fd5b7f4e487b7100000000000000000000000000000000000000000000000000000000600052604160045260246000fd5b6000601f19601f8301169050919050565b7f5061757361626c653a206e6f7420706175736564000000000000000000000000600082015250565b7f4552433732313a207472616e7366657220746f206e6f6e20455243373231526560008201527f63656976657220696d706c656d656e7465720000000000000000000000000000602082015250565b7f4f776e61626c653a206e6577206f776e657220697320746865207a65726f206160008201527f6464726573730000000000000000000000000000000000000000000000000000602082015250565b7f4552433732313a207472616e736665722066726f6d20696e636f72726563742060008201527f6f776e6572000000000000000000000000000000000000000000000000000000602082015250565b7f4552433732313a20746f6b656e20616c7265616479206d696e74656400000000600082015250565b7f4552433732313a207472616e7366657220746f20746865207a65726f2061646460008201527f7265737300000000000000000000000000000000000000000000000000000000602082015250565b7f4552433732313a20617070726f766520746f2063616c6c657200000000000000600082015250565b7f5061757361626c653a2070617573656400000000000000000000000000000000600082015250565b7f4552433732313a2061646472657373207a65726f206973206e6f74206120766160008201527f6c6964206f776e65720000000000000000000000000000000000000000000000602082015250565b7f45524337323155524953746f726167653a2055524920736574206f66206e6f6e60008201527f6578697374656e7420746f6b656e000000000000000000000000000000000000602082015250565b7f4552433732313a20617070726f76652063616c6c6572206973206e6f7420746f60008201527f6b656e206f776e6572206e6f7220617070726f76656420666f7220616c6c0000602082015250565b7f4552433732313a206d696e7420746f20746865207a65726f2061646472657373600082015250565b7f4f776e61626c653a2063616c6c6572206973206e6f7420746865206f776e6572600082015250565b7f4552433732313a20696e76616c696420746f6b656e2049440000000000000000600082015250565b7f4552433732313a20617070726f76616c20746f2063757272656e74206f776e6560008201527f7200000000000000000000000000000000000000000000000000000000000000602082015250565b50565b7f4552433732313a2063616c6c6572206973206e6f7420746f6b656e206f776e6560008201527f72206e6f7220617070726f766564000000000000000000000000000000000000602082015250565b7f5265656e7472616e637947756172643a207265656e7472616e742063616c6c00600082015250565b6159998161531e565b81146159a457600080fd5b50565b6159b081615330565b81146159bb57600080fd5b50565b6159c78161533c565b81146159d257600080fd5b50565b6159de81615388565b81146159e957600080fd5b5056fe697066733a2f2f516d627a7850673656467766575a4674416650757232786d33524d464532746e5776524757543836726764564473a2646970667358221220be9980186c44ed2e38a6c1abf2d64e56da3abe1bbad8cf3db11d675e238a1a0064736f6c63430008040033",
  "linkReferences": {},
  "deployedLinkReferences": {}
}